{
  "address": "0xD4B021300c45c074556522a16d55E4E8Fc4dD3D5",
  "abi": [
    {
      "inputs": [
        {
          "internalType": "contract INonfungiblePositionManager",
          "name": "nftPositionManager_",
          "type": "address"
        },
        {
          "internalType": "contract IPokeMe",
          "name": "pokeMe_",
          "type": "address"
        },
        {
          "internalType": "address",
          "name": "factory_",
          "type": "address"
        },
        {
          "internalType": "address",
          "name": "gelato_",
          "type": "address"
        }
      ],
      "stateMutability": "nonpayable",
      "type": "constructor"
    },
    {
      "anonymous": false,
      "inputs": [
        {
          "indexed": true,
          "internalType": "uint256",
          "name": "tokenId",
          "type": "uint256"
        }
      ],
      "name": "LogCancelEject",
      "type": "event"
    },
    {
      "anonymous": false,
      "inputs": [
        {
          "indexed": true,
          "internalType": "uint256",
          "name": "tokenId",
          "type": "uint256"
        },
        {
          "indexed": false,
          "internalType": "uint256",
          "name": "amount0Out",
          "type": "uint256"
        },
        {
          "indexed": false,
          "internalType": "uint256",
          "name": "amount1Out",
          "type": "uint256"
        },
        {
          "indexed": false,
          "internalType": "uint256",
          "name": "feeAmount",
          "type": "uint256"
        },
        {
          "indexed": false,
          "internalType": "address",
          "name": "receiver",
          "type": "address"
        }
      ],
      "name": "LogEject",
      "type": "event"
    },
    {
      "anonymous": false,
      "inputs": [
        {
          "indexed": true,
          "internalType": "uint256",
          "name": "tokenId",
          "type": "uint256"
        },
        {
          "components": [
            {
              "internalType": "uint256",
              "name": "tokenId",
              "type": "uint256"
            },
            {
              "internalType": "int24",
              "name": "tickThreshold",
              "type": "int24"
            },
            {
              "internalType": "bool",
              "name": "ejectAbove",
              "type": "bool"
            },
            {
              "internalType": "address",
              "name": "receiver",
              "type": "address"
            },
            {
              "internalType": "address",
              "name": "feeToken",
              "type": "address"
            },
            {
              "internalType": "address",
              "name": "resolver",
              "type": "address"
            },
            {
              "internalType": "uint256",
              "name": "maxFeeAmount",
              "type": "uint256"
            }
          ],
          "indexed": false,
          "internalType": "struct OrderParams",
          "name": "orderParams",
          "type": "tuple"
        },
        {
          "indexed": false,
          "internalType": "uint256",
          "name": "startTime",
          "type": "uint256"
        },
        {
          "indexed": false,
          "internalType": "address",
          "name": "sender",
          "type": "address"
        }
      ],
      "name": "LogSetEject",
      "type": "event"
    },
    {
      "anonymous": false,
      "inputs": [
        {
          "indexed": true,
          "internalType": "uint256",
          "name": "tokenId",
          "type": "uint256"
        },
        {
          "indexed": false,
          "internalType": "uint256",
          "name": "amount0Out",
          "type": "uint256"
        },
        {
          "indexed": false,
          "internalType": "uint256",
          "name": "amount1Out",
          "type": "uint256"
        },
        {
          "indexed": false,
          "internalType": "uint256",
          "name": "feeAmount",
          "type": "uint256"
        },
        {
          "indexed": false,
          "internalType": "address",
          "name": "receiver",
          "type": "address"
        }
      ],
      "name": "LogSettle",
      "type": "event"
    },
    {
      "anonymous": false,
      "inputs": [
        {
          "indexed": false,
          "internalType": "address",
          "name": "account",
          "type": "address"
        }
      ],
      "name": "Paused",
      "type": "event"
    },
    {
      "anonymous": false,
      "inputs": [
        {
          "indexed": false,
          "internalType": "address",
          "name": "account",
          "type": "address"
        }
      ],
      "name": "Unpaused",
      "type": "event"
    },
    {
      "inputs": [
        {
          "internalType": "uint256",
          "name": "tokenId_",
          "type": "uint256"
        },
        {
          "components": [
            {
              "internalType": "int24",
              "name": "tickThreshold",
              "type": "int24"
            },
            {
              "internalType": "bool",
              "name": "ejectAbove",
              "type": "bool"
            },
            {
              "internalType": "address",
              "name": "receiver",
              "type": "address"
            },
            {
              "internalType": "address",
              "name": "owner",
              "type": "address"
            },
            {
              "internalType": "uint256",
              "name": "maxFeeAmount",
              "type": "uint256"
            },
            {
              "internalType": "uint256",
              "name": "startTime",
              "type": "uint256"
            }
          ],
          "internalType": "struct Order",
          "name": "order_",
          "type": "tuple"
        },
        {
          "internalType": "address",
          "name": "feeToken_",
          "type": "address"
        }
      ],
      "name": "canEject",
      "outputs": [
        {
          "internalType": "uint128",
          "name": "",
          "type": "uint128"
        }
      ],
      "stateMutability": "view",
      "type": "function"
    },
    {
      "inputs": [
        {
          "internalType": "uint256",
          "name": "tokenId_",
          "type": "uint256"
        },
        {
          "components": [
            {
              "internalType": "int24",
              "name": "tickThreshold",
              "type": "int24"
            },
            {
              "internalType": "bool",
              "name": "ejectAbove",
              "type": "bool"
            },
            {
              "internalType": "address",
              "name": "receiver",
              "type": "address"
            },
            {
              "internalType": "address",
              "name": "owner",
              "type": "address"
            },
            {
              "internalType": "uint256",
              "name": "maxFeeAmount",
              "type": "uint256"
            },
            {
              "internalType": "uint256",
              "name": "startTime",
              "type": "uint256"
            }
          ],
          "internalType": "struct Order",
          "name": "order_",
          "type": "tuple"
        }
      ],
      "name": "cancel",
      "outputs": [],
      "stateMutability": "nonpayable",
      "type": "function"
    },
    {
      "inputs": [],
      "name": "duration",
      "outputs": [
        {
          "internalType": "uint256",
          "name": "",
          "type": "uint256"
        }
      ],
      "stateMutability": "view",
      "type": "function"
    },
    {
      "inputs": [
        {
          "internalType": "uint256",
          "name": "tokenId_",
          "type": "uint256"
        },
        {
          "components": [
            {
              "internalType": "int24",
              "name": "tickThreshold",
              "type": "int24"
            },
            {
              "internalType": "bool",
              "name": "ejectAbove",
              "type": "bool"
            },
            {
              "internalType": "address",
              "name": "receiver",
              "type": "address"
            },
            {
              "internalType": "address",
              "name": "owner",
              "type": "address"
            },
            {
              "internalType": "uint256",
              "name": "maxFeeAmount",
              "type": "uint256"
            },
            {
              "internalType": "uint256",
              "name": "startTime",
              "type": "uint256"
            }
          ],
          "internalType": "struct Order",
          "name": "order_",
          "type": "tuple"
        },
        {
          "internalType": "bool",
          "name": "isEjection_",
          "type": "bool"
        }
      ],
      "name": "ejectOrSettle",
      "outputs": [],
      "stateMutability": "nonpayable",
      "type": "function"
    },
    {
      "inputs": [],
      "name": "factory",
      "outputs": [
        {
          "internalType": "address",
          "name": "",
          "type": "address"
        }
      ],
      "stateMutability": "view",
      "type": "function"
    },
    {
      "inputs": [
        {
          "internalType": "uint256",
          "name": "",
          "type": "uint256"
        }
      ],
      "name": "hashById",
      "outputs": [
        {
          "internalType": "bytes32",
          "name": "",
          "type": "bytes32"
        }
      ],
      "stateMutability": "view",
      "type": "function"
    },
    {
      "inputs": [],
      "name": "initialize",
      "outputs": [],
      "stateMutability": "nonpayable",
      "type": "function"
    },
    {
      "inputs": [
        {
          "internalType": "uint256",
          "name": "tokenId_",
          "type": "uint256"
        }
      ],
      "name": "isBurnt",
      "outputs": [
        {
          "internalType": "bool",
          "name": "",
          "type": "bool"
        },
        {
          "internalType": "string",
          "name": "",
          "type": "string"
        }
      ],
      "stateMutability": "view",
      "type": "function"
    },
    {
      "inputs": [
        {
          "internalType": "uint256",
          "name": "tokenId_",
          "type": "uint256"
        },
        {
          "components": [
            {
              "internalType": "int24",
              "name": "tickThreshold",
              "type": "int24"
            },
            {
              "internalType": "bool",
              "name": "ejectAbove",
              "type": "bool"
            },
            {
              "internalType": "address",
              "name": "receiver",
              "type": "address"
            },
            {
              "internalType": "address",
              "name": "owner",
              "type": "address"
            },
            {
              "internalType": "uint256",
              "name": "maxFeeAmount",
              "type": "uint256"
            },
            {
              "internalType": "uint256",
              "name": "startTime",
              "type": "uint256"
            }
          ],
          "internalType": "struct Order",
          "name": "order_",
          "type": "tuple"
        },
        {
          "internalType": "address",
          "name": "feeToken_",
          "type": "address"
        },
        {
          "internalType": "contract IUniswapV3Pool",
          "name": "pool_",
          "type": "address"
        }
      ],
      "name": "isEjectable",
      "outputs": [
        {
          "internalType": "bool",
          "name": "",
          "type": "bool"
        },
        {
          "internalType": "string",
          "name": "",
          "type": "string"
        }
      ],
      "stateMutability": "view",
      "type": "function"
    },
    {
      "inputs": [
        {
          "internalType": "uint256",
          "name": "tokenId_",
          "type": "uint256"
        },
        {
          "components": [
            {
              "internalType": "int24",
              "name": "tickThreshold",
              "type": "int24"
            },
            {
              "internalType": "bool",
              "name": "ejectAbove",
              "type": "bool"
            },
            {
              "internalType": "address",
              "name": "receiver",
              "type": "address"
            },
            {
              "internalType": "address",
              "name": "owner",
              "type": "address"
            },
            {
              "internalType": "uint256",
              "name": "maxFeeAmount",
              "type": "uint256"
            },
            {
              "internalType": "uint256",
              "name": "startTime",
              "type": "uint256"
            }
          ],
          "internalType": "struct Order",
          "name": "order_",
          "type": "tuple"
        },
        {
          "internalType": "address",
          "name": "feeToken_",
          "type": "address"
        }
      ],
      "name": "isExpired",
      "outputs": [
        {
          "internalType": "bool",
          "name": "",
          "type": "bool"
        },
        {
          "internalType": "string",
          "name": "",
          "type": "string"
        }
      ],
      "stateMutability": "view",
      "type": "function"
    },
    {
      "inputs": [],
      "name": "minimumFee",
      "outputs": [
        {
          "internalType": "uint256",
          "name": "",
          "type": "uint256"
        }
      ],
      "stateMutability": "view",
      "type": "function"
    },
    {
      "inputs": [
        {
          "internalType": "contract IERC20[]",
          "name": "tokens_",
          "type": "address[]"
        },
        {
          "internalType": "address",
          "name": "recipient_",
          "type": "address"
        }
      ],
      "name": "mulipleRetrieveDust",
      "outputs": [],
      "stateMutability": "nonpayable",
      "type": "function"
    },
    {
      "inputs": [],
      "name": "nftPositionManager",
      "outputs": [
        {
          "internalType": "contract INonfungiblePositionManager",
          "name": "",
          "type": "address"
        }
      ],
      "stateMutability": "view",
      "type": "function"
    },
    {
      "inputs": [],
      "name": "pause",
      "outputs": [],
      "stateMutability": "nonpayable",
      "type": "function"
    },
    {
      "inputs": [],
      "name": "paused",
      "outputs": [
        {
          "internalType": "bool",
          "name": "",
          "type": "bool"
        }
      ],
      "stateMutability": "view",
      "type": "function"
    },
    {
      "inputs": [],
      "name": "pokeMe",
      "outputs": [
        {
          "internalType": "contract IPokeMe",
          "name": "",
          "type": "address"
        }
      ],
      "stateMutability": "view",
      "type": "function"
    },
    {
      "inputs": [
        {
          "components": [
            {
              "internalType": "uint256",
              "name": "tokenId",
              "type": "uint256"
            },
            {
              "internalType": "int24",
              "name": "tickThreshold",
              "type": "int24"
            },
            {
              "internalType": "bool",
              "name": "ejectAbove",
              "type": "bool"
            },
            {
              "internalType": "address",
              "name": "receiver",
              "type": "address"
            },
            {
              "internalType": "address",
              "name": "feeToken",
              "type": "address"
            },
            {
              "internalType": "address",
              "name": "resolver",
              "type": "address"
            },
            {
              "internalType": "uint256",
              "name": "maxFeeAmount",
              "type": "uint256"
            }
          ],
          "internalType": "struct OrderParams",
          "name": "orderParams_",
          "type": "tuple"
        }
      ],
      "name": "schedule",
      "outputs": [],
      "stateMutability": "payable",
      "type": "function"
    },
    {
      "inputs": [
        {
          "internalType": "uint256",
          "name": "duration_",
          "type": "uint256"
        }
      ],
      "name": "setDuration",
      "outputs": [],
      "stateMutability": "nonpayable",
      "type": "function"
    },
    {
      "inputs": [
        {
          "internalType": "uint256",
          "name": "minimumFee_",
          "type": "uint256"
        }
      ],
      "name": "setMinimumFee",
      "outputs": [],
      "stateMutability": "nonpayable",
      "type": "function"
    },
    {
      "inputs": [
        {
          "internalType": "uint256",
          "name": "",
          "type": "uint256"
        }
      ],
      "name": "taskById",
      "outputs": [
        {
          "internalType": "bytes32",
          "name": "",
          "type": "bytes32"
        }
      ],
      "stateMutability": "view",
      "type": "function"
    },
    {
      "inputs": [],
      "name": "unpause",
      "outputs": [],
      "stateMutability": "nonpayable",
      "type": "function"
    }
  ],
  "transactionHash": "0x066f52a769f7081015ca63cd1cc46c35ca79b12112788b5262cc27208e6004f5",
  "args": [
    "0xC36442b4a4522E871399CD717aBDD847Ab11FE88",
    "0x527a819db1eb0e34426297b03bae11F2f8B3A19E",
    "0x1F98431c8aD98523631AE4a59f267346ea31F984",
    "0x7598e84B2E114AB62CAB288CE5f7d5f6bad35BbA"
  ],
  "solcInputHash": "261e81fa3385659397ce51529c537645",
  "bytecode": "0x6101006040523480156200001257600080fd5b50604051620043d4380380620043d4833981016040819052620000359162000064565b6001600160601b0319606094851b811660805291841b821660c05291831b811660a052911b1660e052620000e5565b600080600080608085870312156200007b57600080fd5b84516200008881620000cc565b60208601519094506200009b81620000cc565b6040860151909350620000ae81620000cc565b6060860151909250620000c181620000cc565b939692955090935050565b6001600160a01b0381168114620000e257600080fd5b50565b60805160601c60a05160601c60c05160601c60e05160601c6142406200019460003960006132d00152600081816103ac01526108a00152600081816103e001528181610bb701528181611d3b01528181612270015281816128cd01528181612a93015261323e01526000818161032b015281816107e201528181610cc60152818161112f015281816116f30152818161185a01528181611f4d01528181612c3901526131ba01526142406000f3fe60806040526004361061016a5760003560e01c806371cefbd0116100cb578063c45a01551161007f578063eba4f2f211610059578063eba4f2f21461042f578063f6be71d11461044f578063f7d4c1831461046f57600080fd5b8063c45a01551461039a578063c84eee0d146103ce578063d0e681881461040257600080fd5b806384397888116100b057806384397888146103195780638456cb5914610372578063c0b6ea491461038757600080fd5b806371cefbd0146102e45780638129fc1c1461030457600080fd5b80633f4ba83a116101225780635d045516116101075780635d045516146102555780635eb28e3c1461029657806360e20426146102b657600080fd5b80633f4ba83a1461021d5780635c975abb1461023257600080fd5b80631a7626e7116101535780631a7626e7146101ba5780631bbd8d56146101d05780631c241d8f146101f057600080fd5b80630fb5a6b41461016f578063182a750614610198575b600080fd5b34801561017b57600080fd5b5061018560995481565b6040519081526020015b60405180910390f35b3480156101a457600080fd5b506101b86101b3366004613aa2565b61048f565b005b3480156101c657600080fd5b50610185609a5481565b3480156101dc57600080fd5b506101b86101eb366004613840565b61054f565b3480156101fc57600080fd5b5061018561020b366004613aa2565b60976020526000908152604090205481565b34801561022957600080fd5b506101b8610717565b34801561023e57600080fd5b5060655460ff16604051901515815260200161018f565b34801561026157600080fd5b50610275610270366004613b18565b6107d7565b6040516fffffffffffffffffffffffffffffffff909116815260200161018f565b3480156102a257600080fd5b506101b86102b1366004613aeb565b610933565b3480156102c257600080fd5b506102d66102d1366004613b4f565b610c8d565b60405161018f929190613dba565b3480156102f057600080fd5b506102d66102ff366004613b18565b6110f6565b34801561031057600080fd5b506101b86113d3565b34801561032557600080fd5b5061034d7f000000000000000000000000000000000000000000000000000000000000000081565b60405173ffffffffffffffffffffffffffffffffffffffff909116815260200161018f565b34801561037e57600080fd5b506101b861150e565b6101b8610395366004613936565b6115cc565b3480156103a657600080fd5b5061034d7f000000000000000000000000000000000000000000000000000000000000000081565b3480156103da57600080fd5b5061034d7f000000000000000000000000000000000000000000000000000000000000000081565b34801561040e57600080fd5b5061018561041d366004613aa2565b60986020526000908152604090205481565b34801561043b57600080fd5b506102d661044a366004613aa2565b611f03565b34801561045b57600080fd5b506101b861046a366004613aa2565b6120be565b34801561047b57600080fd5b506101b861048a366004613ba3565b612179565b7fb53127684a568b3173ae13b9f8a6016e243e63b6e8ee1178d6a717850b5d61035473ffffffffffffffffffffffffffffffffffffffff163373ffffffffffffffffffffffffffffffffffffffff161461054a576040517f08c379a000000000000000000000000000000000000000000000000000000000815260206004820152600e60248201527f4e4f545f415554484f52495a454400000000000000000000000000000000000060448201526064015b60405180910390fd5b609a55565b7fb53127684a568b3173ae13b9f8a6016e243e63b6e8ee1178d6a717850b5d61035473ffffffffffffffffffffffffffffffffffffffff163373ffffffffffffffffffffffffffffffffffffffff1614610605576040517f08c379a000000000000000000000000000000000000000000000000000000000815260206004820152600e60248201527f4e4f545f415554484f52495a45440000000000000000000000000000000000006044820152606401610541565b8160005b81811015610710576000858583818110610625576106256140b4565b905060200201602081019061063a91906138fc565b6040517f70a0823100000000000000000000000000000000000000000000000000000000815230600482015290915060009073ffffffffffffffffffffffffffffffffffffffff8316906370a082319060240160206040518083038186803b1580156106a557600080fd5b505afa1580156106b9573d6000803e3d6000fd5b505050506040513d601f19601f820116820180604052508101906106dd91906138e3565b905080156107065761070673ffffffffffffffffffffffffffffffffffffffff8316868361231f565b5050600101610609565b5050505050565b7fb53127684a568b3173ae13b9f8a6016e243e63b6e8ee1178d6a717850b5d61035473ffffffffffffffffffffffffffffffffffffffff163373ffffffffffffffffffffffffffffffffffffffff16146107cd576040517f08c379a000000000000000000000000000000000000000000000000000000000815260206004820152600e60248201527f4e4f545f415554484f52495a45440000000000000000000000000000000000006044820152606401610541565b6107d56123b1565b565b6000806000806000807f000000000000000000000000000000000000000000000000000000000000000073ffffffffffffffffffffffffffffffffffffffff166399fbab888a6040518263ffffffff1660e01b815260040161083b91815260200190565b6101806040518083038186803b15801561085457600080fd5b505afa158015610868573d6000803e3d6000fd5b505050506040513d601f19601f8201168201806040525081019061088c9190613bfe565b50929e50969b509499509297506108d296507f00000000000000000000000000000000000000000000000000000000000000009550899450889350879250612492915050565b93505050506000806108e688888886610c8d565b91509150818190610924576040517f08c379a00000000000000000000000000000000000000000000000000000000081526004016105419190613dd5565b509293505050505b9392505050565b60655460ff16156109a0576040517f08c379a000000000000000000000000000000000000000000000000000000000815260206004820152601060248201527f5061757361626c653a20706175736564000000000000000000000000000000006044820152606401610541565b60026001541415610a0d576040517f08c379a000000000000000000000000000000000000000000000000000000000815260206004820152601f60248201527f5265656e7472616e637947756172643a207265656e7472616e742063616c6c006044820152606401610541565b6002600155606081015173ffffffffffffffffffffffffffffffffffffffff81163314610abc576040517f08c379a000000000000000000000000000000000000000000000000000000000815260206004820152602260248201527f456a6563744c503a7363686564756c653a3a206f6e6c79207461736b206f776e60448201527f65720000000000000000000000000000000000000000000000000000000000006064820152608401610541565b81604051602001610acd9190613e7d565b604080517fffffffffffffffffffffffffffffffffffffffffffffffffffffffffffffffe081840301815291815281516020928301206000868152609790935291205414610b77576040517f08c379a000000000000000000000000000000000000000000000000000000000815260206004820152601d60248201527f456a6563744c503a3a63616e63656c3a20696e76616c696420686173680000006044820152606401610541565b600083815260986020526040908190205490517fee8ca3b500000000000000000000000000000000000000000000000000000000815260048101919091527f000000000000000000000000000000000000000000000000000000000000000073ffffffffffffffffffffffffffffffffffffffff169063ee8ca3b590602401600060405180830381600087803b158015610c1057600080fd5b505af1158015610c24573d6000803e3d6000fd5b50505060008481526097602090815260408083208390556098909152808220919091558301516080840151610c599250612568565b60405183907fde78c725503e228892c8783c476c35c4ef4c7b91923ada97d8125ec9e894cbec90600090a250506001805550565b6040517f081812fc00000000000000000000000000000000000000000000000000000000815260048101859052600090606090869030907f000000000000000000000000000000000000000000000000000000000000000073ffffffffffffffffffffffffffffffffffffffff169063081812fc9060240160206040518083038186803b158015610d1d57600080fd5b505afa158015610d31573d6000803e3d6000fd5b505050506040513d601f19601f82011682018060405250810190610d559190613823565b73ffffffffffffffffffffffffffffffffffffffff1614610df8576040517f08c379a000000000000000000000000000000000000000000000000000000000815260206004820152603160248201527f456a6563744c503a3a6973417070726f7665643a20456a6563744c502073686f60448201527f756c642062652061206f70657261746f720000000000000000000000000000006064820152608401610541565b85604051602001610e099190613e7d565b604080517fffffffffffffffffffffffffffffffffffffffffffffffffffffffffffffffe0818403018152918152815160209283012060008a8152609790935291205414610e755760006040518060600160405280602981526020016141bb60299139925092506110ec565b426099548760a00151610e889190613fd9565b11610eb157600060405180606001604052806029815260200161416f60299139925092506110ec565b73ffffffffffffffffffffffffffffffffffffffff851673eeeeeeeeeeeeeeeeeeeeeeeeeeeeeeeeeeeeeeee14610f0657600060405180606001604052806027815260200161412360279139925092506110ec565b60008473ffffffffffffffffffffffffffffffffffffffff16633850c7bd6040518163ffffffff1660e01b815260040160e06040518083038186803b158015610f4e57600080fd5b505afa158015610f62573d6000803e3d6000fd5b505050506040513d601f19601f82011682018060405250810190610f869190613a0a565b505050505091505060008573ffffffffffffffffffffffffffffffffffffffff1663d0c93a7c6040518163ffffffff1660e01b815260040160206040518083038186803b158015610fd657600080fd5b505afa158015610fea573d6000803e3d6000fd5b505050506040513d601f19601f8201168201806040525081019061100e9190613919565b90508760200151801561103357508751611029908290613f76565b60020b8260020b13155b1561105e576000604051806060016040528060238152602001614198602391399450945050506110ec565b876020015115801561108257508751611078908290613ff1565b60020b8260020b12155b156110ad576000604051806060016040528060238152602001614198602391399450945050506110ec565b60016040518060400160405280600281526020017f4f4b0000000000000000000000000000000000000000000000000000000000008152509450945050505b5094509492505050565b6040517f081812fc00000000000000000000000000000000000000000000000000000000815260048101849052600090606090859030907f000000000000000000000000000000000000000000000000000000000000000073ffffffffffffffffffffffffffffffffffffffff169063081812fc9060240160206040518083038186803b15801561118657600080fd5b505afa15801561119a573d6000803e3d6000fd5b505050506040513d601f19601f820116820180604052508101906111be9190613823565b73ffffffffffffffffffffffffffffffffffffffff1614611261576040517f08c379a000000000000000000000000000000000000000000000000000000000815260206004820152603160248201527f456a6563744c503a3a6973417070726f7665643a20456a6563744c502073686f60448201527f756c642062652061206f70657261746f720000000000000000000000000000006064820152608401610541565b846040516020016112729190613e7d565b604080517fffffffffffffffffffffffffffffffffffffffffffffffffffffffffffffffe0818403018152918152815160209283012060008981526097909352912054146112de5760006040518060600160405280602781526020016141e460279139925092506113ca565b426099548660a001516112f19190613fd9565b11156113385760006040518060400160405280601f81526020017f456a6563744c503a3a6973457870697265643a206e6f74206578706972656400815250925092506113ca565b73ffffffffffffffffffffffffffffffffffffffff841673eeeeeeeeeeeeeeeeeeeeeeeeeeeeeeeeeeeeeeee1461138d57600060405180606001604052806025815260200161414a60259139925092506113ca565b60016040518060400160405280600281526020017f4f4b000000000000000000000000000000000000000000000000000000000000815250925092505b50935093915050565b600054610100900460ff166113ee5760005460ff16156113f2565b303b155b61147e576040517f08c379a000000000000000000000000000000000000000000000000000000000815260206004820152602e60248201527f496e697469616c697a61626c653a20636f6e747261637420697320616c72656160448201527f647920696e697469616c697a65640000000000000000000000000000000000006064820152608401610541565b600054610100900460ff161580156114bd57600080547fffffffffffffffffffffffffffffffffffffffffffffffffffffffffffff0000166101011790555b6114c56126c2565b6114cd612761565b6276a700609955633b9aca00609a55801561150b57600080547fffffffffffffffffffffffffffffffffffffffffffffffffffffffffffff00ff1690555b50565b7fb53127684a568b3173ae13b9f8a6016e243e63b6e8ee1178d6a717850b5d61035473ffffffffffffffffffffffffffffffffffffffff163373ffffffffffffffffffffffffffffffffffffffff16146115c4576040517f08c379a000000000000000000000000000000000000000000000000000000000815260206004820152600e60248201527f4e4f545f415554484f52495a45440000000000000000000000000000000000006044820152606401610541565b6107d5612808565b60655460ff1615611639576040517f08c379a000000000000000000000000000000000000000000000000000000000815260206004820152601060248201527f5061757361626c653a20706175736564000000000000000000000000000000006044820152606401610541565b600260015414156116a6576040517f08c379a000000000000000000000000000000000000000000000000000000000815260206004820152601f60248201527f5265656e7472616e637947756172643a207265656e7472616e742063616c6c006044820152606401610541565b600260015580516040517f081812fc00000000000000000000000000000000000000000000000000000000815260048101829052309073ffffffffffffffffffffffffffffffffffffffff7f0000000000000000000000000000000000000000000000000000000000000000169063081812fc9060240160206040518083038186803b15801561173557600080fd5b505afa158015611749573d6000803e3d6000fd5b505050506040513d601f19601f8201168201806040525081019061176d9190613823565b73ffffffffffffffffffffffffffffffffffffffff1614611810576040517f08c379a000000000000000000000000000000000000000000000000000000000815260206004820152603160248201527f456a6563744c503a3a6973417070726f7665643a20456a6563744c502073686f60448201527f756c642062652061206f70657261746f720000000000000000000000000000006064820152608401610541565b81516040517f6352211e000000000000000000000000000000000000000000000000000000008152600481018290523390819073ffffffffffffffffffffffffffffffffffffffff7f00000000000000000000000000000000000000000000000000000000000000001690636352211e9060240160206040518083038186803b15801561189c57600080fd5b505afa1580156118b0573d6000803e3d6000fd5b505050506040513d601f19601f820116820180604052508101906118d49190613823565b73ffffffffffffffffffffffffffffffffffffffff1614611951576040517f08c379a000000000000000000000000000000000000000000000000000000000815260206004820152601d60248201527f456a6563744c503a7363686564756c653a3a206f6e6c79206f776e65720000006044820152606401610541565b609a548460c00151116119e6576040517f08c379a000000000000000000000000000000000000000000000000000000000815260206004820152602c60248201527f456a6563744c503a3a7363686564756c653a206d6178466565416d6f756e742060448201527f3c206d696e696d756d46656500000000000000000000000000000000000000006064820152608401610541565b348460c0015114611a79576040517f08c379a000000000000000000000000000000000000000000000000000000000815260206004820152602d60248201527f456a6563744c503a3a7363686564756c653a206d6178466565416d6f756e742060448201527f213d3d206d73672e76616c7565000000000000000000000000000000000000006064820152608401610541565b608084015173ffffffffffffffffffffffffffffffffffffffff1673eeeeeeeeeeeeeeeeeeeeeeeeeeeeeeeeeeeeeeee14611b35576040517f08c379a0000000000000000000000000000000000000000000000000000000008152602060048201526024808201527f456a6563744c503a3a7363686564756c653a206f6e6c79206e6174697665207460448201527f6f6b656e000000000000000000000000000000000000000000000000000000006064820152608401610541565b8351600090815260976020526040902054158015611b6157508351600090815260986020526040902054155b611bc7576040517f08c379a000000000000000000000000000000000000000000000000000000000815260206004820152601d60248201527f456a6563744c503a3a7363686564756c653a207461736b2065786973740000006044820152606401610541565b606084015173ffffffffffffffffffffffffffffffffffffffff16611c6e576040517f08c379a000000000000000000000000000000000000000000000000000000000815260206004820152602360248201527f456a6563744c503a3a7363686564756c653a20696e76616c696420726563656960448201527f76657200000000000000000000000000000000000000000000000000000000006064820152608401610541565b6040805160c0808201835260208088015160020b83528784015115158184015260608089015173ffffffffffffffffffffffffffffffffffffffff168486015233908401529087015160808301524260a083015291519091611cd291839101613e7d565b604080517fffffffffffffffffffffffffffffffffffffffffffffffffffffffffffffffe081840301815282825280516020918201208851600090815260979092529190205560a08601518651608088015173ffffffffffffffffffffffffffffffffffffffff7f0000000000000000000000000000000000000000000000000000000000000000169363b9f45adb9330937ff7d4c183000000000000000000000000000000000000000000000000000000009391927f7f2743440000000000000000000000000000000000000000000000000000000092611dba92918a9190602401613ee7565b604080517fffffffffffffffffffffffffffffffffffffffffffffffffffffffffffffffe08184030181529181526020820180517bffffffffffffffffffffffffffffffffffffffffffffffffffffffff167fffffffff0000000000000000000000000000000000000000000000000000000094851617905260808d0151905160e088901b9093168352611e5395949392600401613d45565b602060405180830381600087803b158015611e6d57600080fd5b505af1158015611e81573d6000803e3d6000fd5b505050506040513d601f19601f82011682018060405250810190611ea591906138e3565b85516000908152609860205260409081902091909155855190517f8b428decda5a4b3a446d505137ec5a63830b0c7b613e62db300b1b628824c2f990611ef090889042903390613de8565b60405180910390a2505060018055505050565b6040517f6352211e0000000000000000000000000000000000000000000000000000000081526004810182905260009060609073ffffffffffffffffffffffffffffffffffffffff7f00000000000000000000000000000000000000000000000000000000000000001690636352211e9060240160206040518083038186803b158015611f8f57600080fd5b505afa925050508015611fdd575060408051601f3d9081017fffffffffffffffffffffffffffffffffffffffffffffffffffffffffffffffe0168201909252611fda91810190613823565b60015b61201f57505060408051808201909152600281527f4f4b0000000000000000000000000000000000000000000000000000000000006020820152600192909150565b73ffffffffffffffffffffffffffffffffffffffff811661207c5760016040518060400160405280600281526020017f4f4b0000000000000000000000000000000000000000000000000000000000008152509250925050915091565b60006040518060400160405280601b81526020017f456a6563744c503a3a69734275726e743a206e6f74206275726e7400000000008152509250925050915091565b7fb53127684a568b3173ae13b9f8a6016e243e63b6e8ee1178d6a717850b5d61035473ffffffffffffffffffffffffffffffffffffffff163373ffffffffffffffffffffffffffffffffffffffff1614612174576040517f08c379a000000000000000000000000000000000000000000000000000000000815260206004820152600e60248201527f4e4f545f415554484f52495a45440000000000000000000000000000000000006044820152606401610541565b609955565b60655460ff16156121e6576040517f08c379a000000000000000000000000000000000000000000000000000000000815260206004820152601060248201527f5061757361626c653a20706175736564000000000000000000000000000000006044820152606401610541565b60026001541415612253576040517f08c379a000000000000000000000000000000000000000000000000000000000815260206004820152601f60248201527f5265656e7472616e637947756172643a207265656e7472616e742063616c6c006044820152606401610541565b60026001553373ffffffffffffffffffffffffffffffffffffffff7f000000000000000000000000000000000000000000000000000000000000000016146122f7576040517f08c379a000000000000000000000000000000000000000000000000000000000815260206004820181905260248201527f456a6563744c503a3a6f6e6c79506f6b654d653a206f6e6c7920706f6b654d656044820152606401610541565b801561230c5761230783836128c8565b612316565b6123168383612a8e565b50506001805550565b6040805173ffffffffffffffffffffffffffffffffffffffff8416602482015260448082018490528251808303909101815260649091019091526020810180517bffffffffffffffffffffffffffffffffffffffffffffffffffffffff167fa9059cbb000000000000000000000000000000000000000000000000000000001790526123ac908490612d58565b505050565b60655460ff1661241d576040517f08c379a000000000000000000000000000000000000000000000000000000000815260206004820152601460248201527f5061757361626c653a206e6f74207061757365640000000000000000000000006044820152606401610541565b606580547fffffffffffffffffffffffffffffffffffffffffffffffffffffffffffffff001690557f5db9ee0a495bf2e6ff9c91a7834c1ba4fdd244a5e8aa4e537bd38aeae4b073aa335b60405173ffffffffffffffffffffffffffffffffffffffff909116815260200160405180910390a1565b600061255d8560405180606001604052808673ffffffffffffffffffffffffffffffffffffffff168873ffffffffffffffffffffffffffffffffffffffff16106124dc57866124de565b875b73ffffffffffffffffffffffffffffffffffffffff1681526020018673ffffffffffffffffffffffffffffffffffffffff168873ffffffffffffffffffffffffffffffffffffffff16106125325787612534565b865b73ffffffffffffffffffffffffffffffffffffffff1681526020018562ffffff16815250612e64565b90505b949350505050565b804710156125d2576040517f08c379a000000000000000000000000000000000000000000000000000000000815260206004820152601d60248201527f416464726573733a20696e73756666696369656e742062616c616e63650000006044820152606401610541565b60008273ffffffffffffffffffffffffffffffffffffffff168260405160006040518083038185875af1925050503d806000811461262c576040519150601f19603f3d011682016040523d82523d6000602084013e612631565b606091505b50509050806123ac576040517f08c379a000000000000000000000000000000000000000000000000000000000815260206004820152603a60248201527f416464726573733a20756e61626c6520746f2073656e642076616c75652c207260448201527f6563697069656e74206d617920686176652072657665727465640000000000006064820152608401610541565b600054610100900460ff16612759576040517f08c379a000000000000000000000000000000000000000000000000000000000815260206004820152602b60248201527f496e697469616c697a61626c653a20636f6e7472616374206973206e6f74206960448201527f6e697469616c697a696e670000000000000000000000000000000000000000006064820152608401610541565b6107d5612fbd565b600054610100900460ff166127f8576040517f08c379a000000000000000000000000000000000000000000000000000000000815260206004820152602b60248201527f496e697469616c697a61626c653a20636f6e7472616374206973206e6f74206960448201527f6e697469616c697a696e670000000000000000000000000000000000000000006064820152608401610541565b61280061305a565b6107d56130f1565b60655460ff1615612875576040517f08c379a000000000000000000000000000000000000000000000000000000000815260206004820152601060248201527f5061757361626c653a20706175736564000000000000000000000000000000006044820152606401610541565b606580547fffffffffffffffffffffffffffffffffffffffffffffffffffffffffffffff001660011790557f62e78cea01bee320cd4e420270b5ea74000d11b0c9f74754ebdbfc544b05a2586124683390565b6000807f000000000000000000000000000000000000000000000000000000000000000073ffffffffffffffffffffffffffffffffffffffff1663b810c6366040518163ffffffff1660e01b8152600401604080518083038186803b15801561293057600080fd5b505afa158015612944573d6000803e3d6000fd5b505050506040513d601f19601f820116820180604052508101906129689190613abb565b915091508260800151821115612a00576040517f08c379a000000000000000000000000000000000000000000000000000000000815260206004820152602260248201527f456a6563744c503a3a656a6563743a20666565203e206d6178466565416d6f7560448201527f6e740000000000000000000000000000000000000000000000000000000000006064820152608401610541565b6000612a0d8585846107d7565b9050600080612a1e878785886131b2565b60408089015181518481526020810184905291820189905273ffffffffffffffffffffffffffffffffffffffff166060820152919350915087907f21b07cd7e9d410ec08e768e90662d047849995fd1ce4cd71a889c89fd41ff3c69060800160405180910390a250505050505050565b6000807f000000000000000000000000000000000000000000000000000000000000000073ffffffffffffffffffffffffffffffffffffffff1663b810c6366040518163ffffffff1660e01b8152600401604080518083038186803b158015612af657600080fd5b505afa158015612b0a573d6000803e3d6000fd5b505050506040513d601f19601f82011682018060405250810190612b2e9190613abb565b915091506000612b3d85611f03565b5090508015612bba57612b518585856131fe565b60408085015181516000808252602082015291820185905273ffffffffffffffffffffffffffffffffffffffff16606082015285907f77ad7f488c00e15cf396184dcb1bac64a34ec71abca69acd8165af070f02b5219060800160405180910390a25050505050565b600080612bc88787866110f6565b91509150818190612c06576040517f08c379a00000000000000000000000000000000000000000000000000000000081526004016105419190613dd5565b506040517f99fbab88000000000000000000000000000000000000000000000000000000008152600481018890526000907f000000000000000000000000000000000000000000000000000000000000000073ffffffffffffffffffffffffffffffffffffffff16906399fbab88906024016101806040518083038186803b158015612c9157600080fd5b505afa158015612ca5573d6000803e3d6000fd5b505050506040513d601f19601f82011682018060405250810190612cc99190613bfe565b50505050975050505050505050600080612ce58a8a858b6131b2565b6040808c01518151848152602081018490529182018c905273ffffffffffffffffffffffffffffffffffffffff16606082015291935091508a907f77ad7f488c00e15cf396184dcb1bac64a34ec71abca69acd8165af070f02b5219060800160405180910390a250505050505050505050565b6000612dba826040518060400160405280602081526020017f5361666545524332303a206c6f772d6c6576656c2063616c6c206661696c65648152508573ffffffffffffffffffffffffffffffffffffffff166133159092919063ffffffff16565b8051909150156123ac5780806020019051810190612dd891906138c6565b6123ac576040517f08c379a000000000000000000000000000000000000000000000000000000000815260206004820152602a60248201527f5361666545524332303a204552433230206f7065726174696f6e20646964206e60448201527f6f742073756363656564000000000000000000000000000000000000000000006064820152608401610541565b6000816020015173ffffffffffffffffffffffffffffffffffffffff16826000015173ffffffffffffffffffffffffffffffffffffffff1610612ea657600080fd5b8151602080840151604080860151815173ffffffffffffffffffffffffffffffffffffffff95861681860152949092168482015262ffffff90911660608085019190915281518085038201815260808501909252815191909201207fff0000000000000000000000000000000000000000000000000000000000000060a08401529085901b7fffffffffffffffffffffffffffffffffffffffff0000000000000000000000001660a183015260b58201527fe34f199b19b2b4f47f68442619d555527d244f78a3297ea89325f843f87b8b5460d582015260f501604080517fffffffffffffffffffffffffffffffffffffffffffffffffffffffffffffffe081840301815291905280516020909101209392505050565b600054610100900460ff16613054576040517f08c379a000000000000000000000000000000000000000000000000000000000815260206004820152602b60248201527f496e697469616c697a61626c653a20636f6e7472616374206973206e6f74206960448201527f6e697469616c697a696e670000000000000000000000000000000000000000006064820152608401610541565b60018055565b600054610100900460ff166107d5576040517f08c379a000000000000000000000000000000000000000000000000000000000815260206004820152602b60248201527f496e697469616c697a61626c653a20636f6e7472616374206973206e6f74206960448201527f6e697469616c697a696e670000000000000000000000000000000000000000006064820152608401610541565b600054610100900460ff16613188576040517f08c379a000000000000000000000000000000000000000000000000000000000815260206004820152602b60248201527f496e697469616c697a61626c653a20636f6e7472616374206973206e6f74206960448201527f6e697469616c697a696e670000000000000000000000000000000000000000006064820152608401610541565b606580547fffffffffffffffffffffffffffffffffffffffffffffffffffffffffffffff00169055565b6000806131e57f000000000000000000000000000000000000000000000000000000000000000087868860400151613324565b90925090506131f58686856131fe565b94509492505050565b600083815260986020526040908190205490517fee8ca3b500000000000000000000000000000000000000000000000000000000815260048101919091527f000000000000000000000000000000000000000000000000000000000000000073ffffffffffffffffffffffffffffffffffffffff169063ee8ca3b590602401600060405180830381600087803b15801561329757600080fd5b505af11580156132ab573d6000803e3d6000fd5b50505060008481526097602090815260408083208390556098909152812055506132f57f000000000000000000000000000000000000000000000000000000000000000082612568565b81608001518110156123ac576123ac826040015182846080015103612568565b60606125608484600085613520565b6040805160a0810182528481526fffffffffffffffffffffffffffffffff84811660208301908152600083850181815260608501828152426080870190815296517f0c49ccbe00000000000000000000000000000000000000000000000000000000815295516004870152925190931660248501529151604484015251606483015291516084820152819073ffffffffffffffffffffffffffffffffffffffff871690630c49ccbe9060a4016040805180830381600087803b1580156133e957600080fd5b505af11580156133fd573d6000803e3d6000fd5b505050506040513d601f19601f820116820180604052508101906134219190613bda565b50506040805160808101825286815273ffffffffffffffffffffffffffffffffffffffff858116602083019081526fffffffffffffffffffffffffffffffff8385018181526060850182815295517ffc6f786500000000000000000000000000000000000000000000000000000000815294516004860152915183166024850152905181166044840152925190921660648201529087169063fc6f7865906084016040805180830381600087803b1580156134db57600080fd5b505af11580156134ef573d6000803e3d6000fd5b505050506040513d601f19601f820116820180604052508101906135139190613bda565b9097909650945050505050565b6060824710156135b2576040517f08c379a000000000000000000000000000000000000000000000000000000000815260206004820152602660248201527f416464726573733a20696e73756666696369656e742062616c616e636520666f60448201527f722063616c6c00000000000000000000000000000000000000000000000000006064820152608401610541565b843b61361a576040517f08c379a000000000000000000000000000000000000000000000000000000000815260206004820152601d60248201527f416464726573733a2063616c6c20746f206e6f6e2d636f6e74726163740000006044820152606401610541565b6000808673ffffffffffffffffffffffffffffffffffffffff1685876040516136439190613d29565b60006040518083038185875af1925050503d8060008114613680576040519150601f19603f3d011682016040523d82523d6000602084013e613685565b606091505b50915091506136958282866136a0565b979650505050505050565b606083156136af57508161092c565b8251156136bf5782518084602001fd5b816040517f08c379a00000000000000000000000000000000000000000000000000000000081526004016105419190613dd5565b80356136fe816140e3565b919050565b80516136fe816140e3565b80516136fe81614113565b600060c0828403121561372b57600080fd5b60405160c0810181811067ffffffffffffffff82111715613775577f4e487b7100000000000000000000000000000000000000000000000000000000600052604160045260246000fd5b604052905080823561378681614113565b8152602083013561379681614105565b602082015260408301356137a9816140e3565b604082015260608301356137bc816140e3565b806060830152506080830135608082015260a083013560a08201525092915050565b80516fffffffffffffffffffffffffffffffff811681146136fe57600080fd5b805161ffff811681146136fe57600080fd5b805162ffffff811681146136fe57600080fd5b60006020828403121561383557600080fd5b815161092c816140e3565b60008060006040848603121561385557600080fd5b833567ffffffffffffffff8082111561386d57600080fd5b818601915086601f83011261388157600080fd5b81358181111561389057600080fd5b8760208260051b85010111156138a557600080fd5b602092830195509350508401356138bb816140e3565b809150509250925092565b6000602082840312156138d857600080fd5b815161092c81614105565b6000602082840312156138f557600080fd5b5051919050565b60006020828403121561390e57600080fd5b813561092c816140e3565b60006020828403121561392b57600080fd5b815161092c81614113565b600060e0828403121561394857600080fd5b60405160e0810181811067ffffffffffffffff82111715613992577f4e487b7100000000000000000000000000000000000000000000000000000000600052604160045260246000fd5b6040528235815260208301356139a781614113565b602082015260408301356139ba81614105565b604082015260608301356139cd816140e3565b606082015260808301356139e0816140e3565b60808201526139f160a084016136f3565b60a082015260c083013560c08201528091505092915050565b600080600080600080600060e0888a031215613a2557600080fd5b8751613a30816140e3565b6020890151909750613a4181614113565b9550613a4f604089016137fe565b9450613a5d606089016137fe565b9350613a6b608089016137fe565b925060a088015160ff81168114613a8157600080fd5b60c0890151909250613a9281614105565b8091505092959891949750929550565b600060208284031215613ab457600080fd5b5035919050565b60008060408385031215613ace57600080fd5b825191506020830151613ae0816140e3565b809150509250929050565b60008060e08385031215613afe57600080fd5b82359150613b0f8460208501613719565b90509250929050565b60008060006101008486031215613b2e57600080fd5b83359250613b3f8560208601613719565b915060e08401356138bb816140e3565b6000806000806101208587031215613b6657600080fd5b84359350613b778660208701613719565b925060e0850135613b87816140e3565b9150610100850135613b98816140e3565b939692955090935050565b60008060006101008486031215613bb957600080fd5b83359250613bca8560208601613719565b915060e08401356138bb81614105565b60008060408385031215613bed57600080fd5b505080516020909101519092909150565b6000806000806000806000806000806000806101808d8f031215613c2157600080fd5b8c516bffffffffffffffffffffffff81168114613c3d57600080fd5b9b50613c4b60208e01613703565b9a50613c5960408e01613703565b9950613c6760608e01613703565b9850613c7560808e01613810565b9750613c8360a08e0161370e565b9650613c9160c08e0161370e565b9550613c9f60e08e016137de565b94506101008d015193506101208d01519250613cbe6101408e016137de565b9150613ccd6101608e016137de565b90509295989b509295989b509295989b565b60008151808452613cf7816020860160208601614055565b601f017fffffffffffffffffffffffffffffffffffffffffffffffffffffffffffffffe0169290920160200192915050565b60008251613d3b818460208701614055565b9190910192915050565b600073ffffffffffffffffffffffffffffffffffffffff80881683527fffffffff0000000000000000000000000000000000000000000000000000000087166020840152808616604084015260a06060840152613da560a0840186613cdf565b91508084166080840152509695505050505050565b82151581526040602082015260006125606040830184613cdf565b60208152600061092c6020830184613cdf565b60006101208201905084518252602085015160020b6020830152604085015115156040830152606085015173ffffffffffffffffffffffffffffffffffffffff80821660608501528060808801511660808501528060a08801511660a0850152505060c085015160c08301528360e083015261256061010083018473ffffffffffffffffffffffffffffffffffffffff169052565b60c08101613ee18284805160020b8252602081015115156020830152604081015173ffffffffffffffffffffffffffffffffffffffff808216604085015280606084015116606085015250506080810151608083015260a081015160a08301525050565b92915050565b8381526101008101613f526020830185805160020b8252602081015115156020830152604081015173ffffffffffffffffffffffffffffffffffffffff808216604085015280606084015116606085015250506080810151608083015260a081015160a08301525050565b73ffffffffffffffffffffffffffffffffffffffff831660e0830152949350505050565b60008160020b8360020b6000821282627fffff03821381151615613f9c57613f9c614085565b827fffffffffffffffffffffffffffffffffffffffffffffffffffffffffff800000038212811615613fd057613fd0614085565b50019392505050565b60008219821115613fec57613fec614085565b500190565b60008160020b8360020b60008112817fffffffffffffffffffffffffffffffffffffffffffffffffffffffffff8000000183128115161561403457614034614085565b81627fffff01831381161561404b5761404b614085565b5090039392505050565b60005b83811015614070578181015183820152602001614058565b8381111561407f576000848401525b50505050565b7f4e487b7100000000000000000000000000000000000000000000000000000000600052601160045260246000fd5b7f4e487b7100000000000000000000000000000000000000000000000000000000600052603260045260246000fd5b73ffffffffffffffffffffffffffffffffffffffff8116811461150b57600080fd5b801515811461150b57600080fd5b8060020b811461150b57600080fdfe456a6563744c503a3a6973456a65637461626c653a206f6e6c79206e617469766520746f6b656e456a6563744c503a3a6973457870697265643a206f6e6c79206e617469766520746f6b656e456a6563744c503a3a6973456a65637461626c653a2072616e6765206f726465722065787069726564456a6563744c503a3a6973456a65637461626c653a207072696365206e6f74206d6574456a6563744c503a3a6973456a65637461626c653a20696e636f7272656374207461736b2068617368456a6563744c503a3a6973457870697265643a20696e636f7272656374207461736b2068617368a26469706673582212201d448e97da7b72b724131912f036e47963a0148e92ba0c37b2b20b7f780765df64736f6c63430008070033",
  "devdoc": {
    "kind": "dev",
    "methods": {
      "paused()": {
        "details": "Returns true if the contract is paused, and false otherwise."
      }
    },
    "version": 1
  },
  "userdoc": {
    "kind": "user",
    "methods": {},
    "version": 1
  },
  "storageLayout": {
    "storage": [
      {
        "astId": 6,
        "contract": "contracts/EjectLP.sol:EjectLP",
        "label": "_initialized",
        "offset": 0,
        "slot": "0",
        "type": "t_bool"
      },
      {
        "astId": 9,
        "contract": "contracts/EjectLP.sol:EjectLP",
        "label": "_initializing",
        "offset": 1,
        "slot": "0",
        "type": "t_bool"
      },
      {
        "astId": 200,
        "contract": "contracts/EjectLP.sol:EjectLP",
        "label": "_status",
        "offset": 0,
        "slot": "1",
        "type": "t_uint256"
      },
      {
        "astId": 243,
        "contract": "contracts/EjectLP.sol:EjectLP",
        "label": "__gap",
        "offset": 0,
        "slot": "2",
        "type": "t_array(t_uint256)49_storage"
      },
      {
        "astId": 532,
        "contract": "contracts/EjectLP.sol:EjectLP",
        "label": "__gap",
        "offset": 0,
        "slot": "51",
        "type": "t_array(t_uint256)50_storage"
      },
      {
        "astId": 94,
        "contract": "contracts/EjectLP.sol:EjectLP",
        "label": "_paused",
        "offset": 0,
        "slot": "101",
        "type": "t_bool"
      },
      {
        "astId": 185,
        "contract": "contracts/EjectLP.sol:EjectLP",
        "label": "__gap",
        "offset": 0,
        "slot": "102",
        "type": "t_array(t_uint256)49_storage"
      },
      {
        "astId": 2533,
        "contract": "contracts/EjectLP.sol:EjectLP",
        "label": "hashById",
        "offset": 0,
        "slot": "151",
        "type": "t_mapping(t_uint256,t_bytes32)"
      },
      {
        "astId": 2537,
        "contract": "contracts/EjectLP.sol:EjectLP",
        "label": "taskById",
        "offset": 0,
        "slot": "152",
        "type": "t_mapping(t_uint256,t_bytes32)"
      },
      {
        "astId": 2539,
        "contract": "contracts/EjectLP.sol:EjectLP",
        "label": "duration",
        "offset": 0,
        "slot": "153",
        "type": "t_uint256"
      },
      {
        "astId": 2541,
        "contract": "contracts/EjectLP.sol:EjectLP",
        "label": "minimumFee",
        "offset": 0,
        "slot": "154",
        "type": "t_uint256"
      }
    ],
    "types": {
      "t_array(t_uint256)49_storage": {
        "base": "t_uint256",
        "encoding": "inplace",
        "label": "uint256[49]",
        "numberOfBytes": "1568"
      },
      "t_array(t_uint256)50_storage": {
        "base": "t_uint256",
        "encoding": "inplace",
        "label": "uint256[50]",
        "numberOfBytes": "1600"
      },
      "t_bool": {
        "encoding": "inplace",
        "label": "bool",
        "numberOfBytes": "1"
      },
      "t_bytes32": {
        "encoding": "inplace",
        "label": "bytes32",
        "numberOfBytes": "32"
      },
      "t_mapping(t_uint256,t_bytes32)": {
        "encoding": "mapping",
        "key": "t_uint256",
        "label": "mapping(uint256 => bytes32)",
        "numberOfBytes": "32",
        "value": "t_bytes32"
      },
      "t_uint256": {
        "encoding": "inplace",
        "label": "uint256",
        "numberOfBytes": "32"
      }
    }
  }
}