{
  "address": "0x9167392919bC3Cd57C436f0d5C509eAD59b4B235",
  "abi": [
    {
      "inputs": [
        {
          "internalType": "contract INonfungiblePositionManager",
          "name": "nftPositionManager_",
          "type": "address"
        },
        {
          "internalType": "contract IPokeMe",
          "name": "pokeMe_",
          "type": "address"
        },
        {
          "internalType": "address",
          "name": "factory_",
          "type": "address"
        },
        {
          "internalType": "address",
          "name": "gelato_",
          "type": "address"
        }
      ],
      "stateMutability": "nonpayable",
      "type": "constructor"
    },
    {
      "anonymous": false,
      "inputs": [
        {
          "indexed": true,
          "internalType": "uint256",
          "name": "tokenId",
          "type": "uint256"
        }
      ],
      "name": "LogCancelEject",
      "type": "event"
    },
    {
      "anonymous": false,
      "inputs": [
        {
          "indexed": true,
          "internalType": "uint256",
          "name": "tokenId",
          "type": "uint256"
        },
        {
          "indexed": false,
          "internalType": "uint256",
          "name": "amount0Out",
          "type": "uint256"
        },
        {
          "indexed": false,
          "internalType": "uint256",
          "name": "amount1Out",
          "type": "uint256"
        },
        {
          "indexed": false,
          "internalType": "uint256",
          "name": "feeAmount",
          "type": "uint256"
        },
        {
          "indexed": false,
          "internalType": "address",
          "name": "receiver",
          "type": "address"
        }
      ],
      "name": "LogEject",
      "type": "event"
    },
    {
      "anonymous": false,
      "inputs": [
        {
          "indexed": true,
          "internalType": "address",
          "name": "token",
          "type": "address"
        },
        {
          "indexed": false,
          "internalType": "uint256",
          "name": "amount",
          "type": "uint256"
        }
      ],
      "name": "LogRetrieveDust",
      "type": "event"
    },
    {
      "anonymous": false,
      "inputs": [
        {
          "indexed": false,
          "internalType": "uint256",
          "name": "duration",
          "type": "uint256"
        }
      ],
      "name": "LogSetDuration",
      "type": "event"
    },
    {
      "anonymous": false,
      "inputs": [
        {
          "indexed": true,
          "internalType": "uint256",
          "name": "tokenId",
          "type": "uint256"
        },
        {
          "components": [
            {
              "internalType": "uint256",
              "name": "tokenId",
              "type": "uint256"
            },
            {
              "internalType": "int24",
              "name": "tickThreshold",
              "type": "int24"
            },
            {
              "internalType": "bool",
              "name": "ejectAbove",
              "type": "bool"
            },
            {
              "internalType": "address payable",
              "name": "receiver",
              "type": "address"
            },
            {
              "internalType": "address",
              "name": "feeToken",
              "type": "address"
            },
            {
              "internalType": "address",
              "name": "resolver",
              "type": "address"
            },
            {
              "internalType": "uint256",
              "name": "maxFeeAmount",
              "type": "uint256"
            },
            {
              "internalType": "bool",
              "name": "ejectAtExpiry",
              "type": "bool"
            }
          ],
          "indexed": false,
          "internalType": "struct OrderParams",
          "name": "orderParams",
          "type": "tuple"
        },
        {
          "indexed": false,
          "internalType": "uint256",
          "name": "startTime",
          "type": "uint256"
        },
        {
          "indexed": false,
          "internalType": "address",
          "name": "sender",
          "type": "address"
        }
      ],
      "name": "LogSetEject",
      "type": "event"
    },
    {
      "anonymous": false,
      "inputs": [
        {
          "indexed": false,
          "internalType": "uint256",
          "name": "minimumFee",
          "type": "uint256"
        }
      ],
      "name": "LogSetMinimumFee",
      "type": "event"
    },
    {
      "anonymous": false,
      "inputs": [
        {
          "indexed": true,
          "internalType": "uint256",
          "name": "tokenId",
          "type": "uint256"
        },
        {
          "indexed": false,
          "internalType": "uint256",
          "name": "amount0Out",
          "type": "uint256"
        },
        {
          "indexed": false,
          "internalType": "uint256",
          "name": "amount1Out",
          "type": "uint256"
        },
        {
          "indexed": false,
          "internalType": "uint256",
          "name": "feeAmount",
          "type": "uint256"
        },
        {
          "indexed": false,
          "internalType": "address",
          "name": "receiver",
          "type": "address"
        }
      ],
      "name": "LogSettle",
      "type": "event"
    },
    {
      "anonymous": false,
      "inputs": [
        {
          "indexed": false,
          "internalType": "address",
          "name": "account",
          "type": "address"
        }
      ],
      "name": "Paused",
      "type": "event"
    },
    {
      "anonymous": false,
      "inputs": [
        {
          "indexed": false,
          "internalType": "address",
          "name": "account",
          "type": "address"
        }
      ],
      "name": "Unpaused",
      "type": "event"
    },
    {
      "inputs": [
        {
          "internalType": "uint256",
          "name": "tokenId_",
          "type": "uint256"
        },
        {
          "components": [
            {
              "internalType": "int24",
              "name": "tickThreshold",
              "type": "int24"
            },
            {
              "internalType": "bool",
              "name": "ejectAbove",
              "type": "bool"
            },
            {
              "internalType": "address payable",
              "name": "receiver",
              "type": "address"
            },
            {
              "internalType": "address",
              "name": "owner",
              "type": "address"
            },
            {
              "internalType": "uint256",
              "name": "maxFeeAmount",
              "type": "uint256"
            },
            {
              "internalType": "uint256",
              "name": "startTime",
              "type": "uint256"
            },
            {
              "internalType": "bool",
              "name": "ejectAtExpiry",
              "type": "bool"
            }
          ],
          "internalType": "struct Order",
          "name": "order_",
          "type": "tuple"
        }
      ],
      "name": "canEject",
      "outputs": [
        {
          "internalType": "uint128",
          "name": "",
          "type": "uint128"
        }
      ],
      "stateMutability": "view",
      "type": "function"
    },
    {
      "inputs": [
        {
          "internalType": "uint256",
          "name": "tokenId_",
          "type": "uint256"
        },
        {
          "components": [
            {
              "internalType": "int24",
              "name": "tickThreshold",
              "type": "int24"
            },
            {
              "internalType": "bool",
              "name": "ejectAbove",
              "type": "bool"
            },
            {
              "internalType": "address payable",
              "name": "receiver",
              "type": "address"
            },
            {
              "internalType": "address",
              "name": "owner",
              "type": "address"
            },
            {
              "internalType": "uint256",
              "name": "maxFeeAmount",
              "type": "uint256"
            },
            {
              "internalType": "uint256",
              "name": "startTime",
              "type": "uint256"
            },
            {
              "internalType": "bool",
              "name": "ejectAtExpiry",
              "type": "bool"
            }
          ],
          "internalType": "struct Order",
          "name": "order_",
          "type": "tuple"
        }
      ],
      "name": "cancel",
      "outputs": [],
      "stateMutability": "nonpayable",
      "type": "function"
    },
    {
      "inputs": [],
      "name": "duration",
      "outputs": [
        {
          "internalType": "uint256",
          "name": "",
          "type": "uint256"
        }
      ],
      "stateMutability": "view",
      "type": "function"
    },
    {
      "inputs": [
        {
          "internalType": "uint256",
          "name": "tokenId_",
          "type": "uint256"
        },
        {
          "components": [
            {
              "internalType": "int24",
              "name": "tickThreshold",
              "type": "int24"
            },
            {
              "internalType": "bool",
              "name": "ejectAbove",
              "type": "bool"
            },
            {
              "internalType": "address payable",
              "name": "receiver",
              "type": "address"
            },
            {
              "internalType": "address",
              "name": "owner",
              "type": "address"
            },
            {
              "internalType": "uint256",
              "name": "maxFeeAmount",
              "type": "uint256"
            },
            {
              "internalType": "uint256",
              "name": "startTime",
              "type": "uint256"
            },
            {
              "internalType": "bool",
              "name": "ejectAtExpiry",
              "type": "bool"
            }
          ],
          "internalType": "struct Order",
          "name": "order_",
          "type": "tuple"
        },
        {
          "internalType": "bool",
          "name": "isEjection_",
          "type": "bool"
        }
      ],
      "name": "ejectOrSettle",
      "outputs": [],
      "stateMutability": "nonpayable",
      "type": "function"
    },
    {
      "inputs": [],
      "name": "factory",
      "outputs": [
        {
          "internalType": "address",
          "name": "",
          "type": "address"
        }
      ],
      "stateMutability": "view",
      "type": "function"
    },
    {
      "inputs": [
        {
          "internalType": "uint256",
          "name": "",
          "type": "uint256"
        }
      ],
      "name": "hashById",
      "outputs": [
        {
          "internalType": "bytes32",
          "name": "",
          "type": "bytes32"
        }
      ],
      "stateMutability": "view",
      "type": "function"
    },
    {
      "inputs": [],
      "name": "initialize",
      "outputs": [],
      "stateMutability": "nonpayable",
      "type": "function"
    },
    {
      "inputs": [
        {
          "internalType": "uint256",
          "name": "tokenId_",
          "type": "uint256"
        }
      ],
      "name": "isBurnt",
      "outputs": [
        {
          "internalType": "bool",
          "name": "",
          "type": "bool"
        },
        {
          "internalType": "string",
          "name": "",
          "type": "string"
        }
      ],
      "stateMutability": "view",
      "type": "function"
    },
    {
      "inputs": [
        {
          "internalType": "uint256",
          "name": "tokenId_",
          "type": "uint256"
        },
        {
          "components": [
            {
              "internalType": "int24",
              "name": "tickThreshold",
              "type": "int24"
            },
            {
              "internalType": "bool",
              "name": "ejectAbove",
              "type": "bool"
            },
            {
              "internalType": "address payable",
              "name": "receiver",
              "type": "address"
            },
            {
              "internalType": "address",
              "name": "owner",
              "type": "address"
            },
            {
              "internalType": "uint256",
              "name": "maxFeeAmount",
              "type": "uint256"
            },
            {
              "internalType": "uint256",
              "name": "startTime",
              "type": "uint256"
            },
            {
              "internalType": "bool",
              "name": "ejectAtExpiry",
              "type": "bool"
            }
          ],
          "internalType": "struct Order",
          "name": "order_",
          "type": "tuple"
        },
        {
          "internalType": "contract IUniswapV3Pool",
          "name": "pool_",
          "type": "address"
        }
      ],
      "name": "isEjectable",
      "outputs": [
        {
          "internalType": "bool",
          "name": "",
          "type": "bool"
        },
        {
          "internalType": "string",
          "name": "",
          "type": "string"
        }
      ],
      "stateMutability": "view",
      "type": "function"
    },
    {
      "inputs": [
        {
          "components": [
            {
              "internalType": "int24",
              "name": "tickThreshold",
              "type": "int24"
            },
            {
              "internalType": "bool",
              "name": "ejectAbove",
              "type": "bool"
            },
            {
              "internalType": "address payable",
              "name": "receiver",
              "type": "address"
            },
            {
              "internalType": "address",
              "name": "owner",
              "type": "address"
            },
            {
              "internalType": "uint256",
              "name": "maxFeeAmount",
              "type": "uint256"
            },
            {
              "internalType": "uint256",
              "name": "startTime",
              "type": "uint256"
            },
            {
              "internalType": "bool",
              "name": "ejectAtExpiry",
              "type": "bool"
            }
          ],
          "internalType": "struct Order",
          "name": "order_",
          "type": "tuple"
        }
      ],
      "name": "isExpired",
      "outputs": [
        {
          "internalType": "bool",
          "name": "",
          "type": "bool"
        },
        {
          "internalType": "string",
          "name": "",
          "type": "string"
        }
      ],
      "stateMutability": "view",
      "type": "function"
    },
    {
      "inputs": [
        {
          "internalType": "uint256",
          "name": "tokenId_",
          "type": "uint256"
        }
      ],
      "name": "isNotApproved",
      "outputs": [
        {
          "internalType": "bool",
          "name": "",
          "type": "bool"
        },
        {
          "internalType": "string",
          "name": "",
          "type": "string"
        }
      ],
      "stateMutability": "view",
      "type": "function"
    },
    {
      "inputs": [],
      "name": "minimumFee",
      "outputs": [
        {
          "internalType": "uint256",
          "name": "",
          "type": "uint256"
        }
      ],
      "stateMutability": "view",
      "type": "function"
    },
    {
      "inputs": [
        {
          "internalType": "contract IERC20[]",
          "name": "tokens_",
          "type": "address[]"
        },
        {
          "internalType": "address",
          "name": "recipient_",
          "type": "address"
        }
      ],
      "name": "mulipleRetrieveDust",
      "outputs": [],
      "stateMutability": "nonpayable",
      "type": "function"
    },
    {
      "inputs": [],
      "name": "nftPositionManager",
      "outputs": [
        {
          "internalType": "contract INonfungiblePositionManager",
          "name": "",
          "type": "address"
        }
      ],
      "stateMutability": "view",
      "type": "function"
    },
    {
      "inputs": [
        {
          "internalType": "uint256",
          "name": "tokenId_",
          "type": "uint256"
        },
        {
          "internalType": "address",
          "name": "owner_",
          "type": "address"
        }
      ],
      "name": "ownerHasChanged",
      "outputs": [
        {
          "internalType": "bool",
          "name": "",
          "type": "bool"
        },
        {
          "internalType": "string",
          "name": "",
          "type": "string"
        }
      ],
      "stateMutability": "view",
      "type": "function"
    },
    {
      "inputs": [],
      "name": "pause",
      "outputs": [],
      "stateMutability": "nonpayable",
      "type": "function"
    },
    {
      "inputs": [],
      "name": "paused",
      "outputs": [
        {
          "internalType": "bool",
          "name": "",
          "type": "bool"
        }
      ],
      "stateMutability": "view",
      "type": "function"
    },
    {
      "inputs": [],
      "name": "pokeMe",
      "outputs": [
        {
          "internalType": "contract IPokeMe",
          "name": "",
          "type": "address"
        }
      ],
      "stateMutability": "view",
      "type": "function"
    },
    {
      "inputs": [
        {
          "components": [
            {
              "internalType": "uint256",
              "name": "tokenId",
              "type": "uint256"
            },
            {
              "internalType": "int24",
              "name": "tickThreshold",
              "type": "int24"
            },
            {
              "internalType": "bool",
              "name": "ejectAbove",
              "type": "bool"
            },
            {
              "internalType": "address payable",
              "name": "receiver",
              "type": "address"
            },
            {
              "internalType": "address",
              "name": "feeToken",
              "type": "address"
            },
            {
              "internalType": "address",
              "name": "resolver",
              "type": "address"
            },
            {
              "internalType": "uint256",
              "name": "maxFeeAmount",
              "type": "uint256"
            },
            {
              "internalType": "bool",
              "name": "ejectAtExpiry",
              "type": "bool"
            }
          ],
          "internalType": "struct OrderParams",
          "name": "orderParams_",
          "type": "tuple"
        }
      ],
      "name": "schedule",
      "outputs": [],
      "stateMutability": "payable",
      "type": "function"
    },
    {
      "inputs": [
        {
          "internalType": "uint256",
          "name": "duration_",
          "type": "uint256"
        }
      ],
      "name": "setDuration",
      "outputs": [],
      "stateMutability": "nonpayable",
      "type": "function"
    },
    {
      "inputs": [
        {
          "internalType": "uint256",
          "name": "minimumFee_",
          "type": "uint256"
        }
      ],
      "name": "setMinimumFee",
      "outputs": [],
      "stateMutability": "nonpayable",
      "type": "function"
    },
    {
      "inputs": [
        {
          "internalType": "uint256",
          "name": "",
          "type": "uint256"
        }
      ],
      "name": "taskById",
      "outputs": [
        {
          "internalType": "bytes32",
          "name": "",
          "type": "bytes32"
        }
      ],
      "stateMutability": "view",
      "type": "function"
    },
    {
      "inputs": [],
      "name": "unpause",
      "outputs": [],
      "stateMutability": "nonpayable",
      "type": "function"
    }
  ],
  "transactionHash": "0x1b5c927f3c0299041842f5b74ec7065f14cdfd25bc021c1f2ae32576bc00cb36",
  "args": [
    "0xC36442b4a4522E871399CD717aBDD847Ab11FE88",
    "0x527a819db1eb0e34426297b03bae11F2f8B3A19E",
    "0x1F98431c8aD98523631AE4a59f267346ea31F984",
    "0x7598e84B2E114AB62CAB288CE5f7d5f6bad35BbA"
  ],
  "solcInputHash": "bf259f8cbef8f996de9631961232f0ff",
  "bytecode": "0x6101006040523480156200001257600080fd5b506040516200486e3803806200486e833981016040819052620000359162000064565b6001600160601b0319606094851b811660805291841b821660c05291831b811660a052911b1660e052620000e5565b600080600080608085870312156200007b57600080fd5b84516200008881620000cc565b60208601519094506200009b81620000cc565b6040860151909350620000ae81620000cc565b6060860151909250620000c181620000cc565b939692955090935050565b6001600160a01b0381168114620000e257600080fd5b50565b60805160601c60a05160601c60c05160601c60e05160601c6146d36200019b600039600061390b01526000818161038e0152611dbf0152600081816103c20152818161076e01528181611b2e0152818161227d01528181613427015261387301526000818161030001528181610cc50152818161129d015281816114bb0152818161162201528181611d0101528181611e9a015281816129d501528181612b4301528181612ea6015261356801526146d36000f3fe6080604052600436106101805760003560e01c806384397888116100d6578063c92a08c21161007f578063eba4f2f211610059578063eba4f2f214610485578063f6be71d1146104a5578063fc45cec0146104c557600080fd5b8063c92a08c214610404578063d0e6818814610417578063e1ec4be81461044457600080fd5b8063c45a0155116100b0578063c45a01551461037c578063c84eee0d146103b0578063c8951b2f146103e457600080fd5b806384397888146102ee5780638456cb59146103475780638dd29b401461035c57600080fd5b80631bbd8d56116101385780633fc57030116101125780633fc57030146102965780635c975abb146102b65780638129fc1c146102d957600080fd5b80631bbd8d56146102345780631c241d8f146102545780633f4ba83a1461028157600080fd5b8063182a750611610169578063182a7506146101d05780631a7626e7146101f05780631b675c891461020657600080fd5b80630403ab0f146101855780630fb5a6b4146101a7575b600080fd5b34801561019157600080fd5b506101a56101a0366004613f98565b6104e5565b005b3480156101b357600080fd5b506101bd60995481565b6040519081526020015b60405180910390f35b3480156101dc57600080fd5b506101a56101eb366004613f2a565b610844565b3480156101fc57600080fd5b506101bd609a5481565b34801561021257600080fd5b50610226610221366004613e76565b610936565b6040516101c7929190614216565b34801561024057600080fd5b506101a561024f366004613c9d565b6109cf565b34801561026057600080fd5b506101bd61026f366004613f2a565b60976020526000908152604090205481565b34801561028d57600080fd5b506101a5610be8565b3480156102a257600080fd5b506102266102b1366004613f43565b610ca8565b3480156102c257600080fd5b5060655460ff1660405190151581526020016101c7565b3480156102e557600080fd5b506101a5610dee565b3480156102fa57600080fd5b506103227f000000000000000000000000000000000000000000000000000000000000000081565b60405173ffffffffffffffffffffffffffffffffffffffff90911681526020016101c7565b34801561035357600080fd5b506101a5610f29565b34801561036857600080fd5b50610226610377366004613ffe565b610fe7565b34801561038857600080fd5b506103227f000000000000000000000000000000000000000000000000000000000000000081565b3480156103bc57600080fd5b506103227f000000000000000000000000000000000000000000000000000000000000000081565b3480156103f057600080fd5b506102266103ff366004613f2a565b611251565b6101a5610412366004613d93565b611394565b34801561042357600080fd5b506101bd610432366004613f2a565b60986020526000908152604090205481565b34801561045057600080fd5b5061046461045f366004613f98565b611cf6565b6040516fffffffffffffffffffffffffffffffff90911681526020016101c7565b34801561049157600080fd5b506102266104a0366004613f2a565b611e50565b3480156104b157600080fd5b506101a56104c0366004613f2a565b61200b565b3480156104d157600080fd5b506101a56104e0366004613fc6565b612186565b60655460ff1615610557576040517f08c379a000000000000000000000000000000000000000000000000000000000815260206004820152601060248201527f5061757361626c653a207061757365640000000000000000000000000000000060448201526064015b60405180910390fd5b600260015414156105c4576040517f08c379a000000000000000000000000000000000000000000000000000000000815260206004820152601f60248201527f5265656e7472616e637947756172643a207265656e7472616e742063616c6c00604482015260640161054e565b6002600155606081015173ffffffffffffffffffffffffffffffffffffffff81163314610673576040517f08c379a000000000000000000000000000000000000000000000000000000000815260206004820152602260248201527f456a6563744c503a7363686564756c653a3a206f6e6c79207461736b206f776e60448201527f6572000000000000000000000000000000000000000000000000000000000000606482015260840161054e565b816040516020016106849190614322565b604080517fffffffffffffffffffffffffffffffffffffffffffffffffffffffffffffffe08184030181529181528151602092830120600086815260979093529120541461072e576040517f08c379a000000000000000000000000000000000000000000000000000000000815260206004820152601d60248201527f456a6563744c503a3a63616e63656c3a20696e76616c69642068617368000000604482015260640161054e565b600083815260986020526040908190205490517fee8ca3b500000000000000000000000000000000000000000000000000000000815260048101919091527f000000000000000000000000000000000000000000000000000000000000000073ffffffffffffffffffffffffffffffffffffffff169063ee8ca3b590602401600060405180830381600087803b1580156107c757600080fd5b505af11580156107db573d6000803e3d6000fd5b50505060008481526097602090815260408083208390556098909152808220919091558301516080840151610810925061240d565b60405183907fde78c725503e228892c8783c476c35c4ef4c7b91923ada97d8125ec9e894cbec90600090a250506001805550565b7fb53127684a568b3173ae13b9f8a6016e243e63b6e8ee1178d6a717850b5d61035473ffffffffffffffffffffffffffffffffffffffff163373ffffffffffffffffffffffffffffffffffffffff16146108fa576040517f08c379a000000000000000000000000000000000000000000000000000000000815260206004820152600e60248201527f4e4f545f415554484f52495a4544000000000000000000000000000000000000604482015260640161054e565b609a8190556040518181527f4b6876207704ec96d2f757490e9ca8f250065f913c3875190230a62e7bc2160f906020015b60405180910390a150565b60006060426099548460a0015161094d9190614491565b111561099157505060408051808201909152601f81527f456a6563744c503a3a6973457870697265643a206e6f742065787069726564006020820152600092909150565b505060408051808201909152600281527f4f4b0000000000000000000000000000000000000000000000000000000000006020820152600192909150565b7fb53127684a568b3173ae13b9f8a6016e243e63b6e8ee1178d6a717850b5d61035473ffffffffffffffffffffffffffffffffffffffff163373ffffffffffffffffffffffffffffffffffffffff1614610a85576040517f08c379a000000000000000000000000000000000000000000000000000000000815260206004820152600e60248201527f4e4f545f415554484f52495a4544000000000000000000000000000000000000604482015260640161054e565b8160005b81811015610be1576000858583818110610aa557610aa5614568565b9050602002016020810190610aba9190613d59565b6040517f70a0823100000000000000000000000000000000000000000000000000000000815230600482015290915060009073ffffffffffffffffffffffffffffffffffffffff8316906370a082319060240160206040518083038186803b158015610b2557600080fd5b505afa158015610b39573d6000803e3d6000fd5b505050506040513d601f19601f82011682018060405250810190610b5d9190613d40565b90508015610bd757610b8673ffffffffffffffffffffffffffffffffffffffff8316868361256c565b8173ffffffffffffffffffffffffffffffffffffffff167f05e1de278c0cb922d5e2e31594c7f93f20447d75cd884556eb10655d23170b9382604051610bce91815260200190565b60405180910390a25b5050600101610a89565b5050505050565b7fb53127684a568b3173ae13b9f8a6016e243e63b6e8ee1178d6a717850b5d61035473ffffffffffffffffffffffffffffffffffffffff163373ffffffffffffffffffffffffffffffffffffffff1614610c9e576040517f08c379a000000000000000000000000000000000000000000000000000000000815260206004820152600e60248201527f4e4f545f415554484f52495a4544000000000000000000000000000000000000604482015260640161054e565b610ca66125f9565b565b600060608273ffffffffffffffffffffffffffffffffffffffff167f000000000000000000000000000000000000000000000000000000000000000073ffffffffffffffffffffffffffffffffffffffff16636352211e866040518263ffffffff1660e01b8152600401610d1e91815260200190565b60206040518083038186803b158015610d3657600080fd5b505afa158015610d4a573d6000803e3d6000fd5b505050506040513d601f19601f82011682018060405250810190610d6e9190613c80565b73ffffffffffffffffffffffffffffffffffffffff1614610dc757505060408051808201909152600281527f4f4b0000000000000000000000000000000000000000000000000000000000006020820152600190610de7565b60006040518060600160405280602e8152602001614645602e9139915091505b9250929050565b600054610100900460ff16610e095760005460ff1615610e0d565b303b155b610e99576040517f08c379a000000000000000000000000000000000000000000000000000000000815260206004820152602e60248201527f496e697469616c697a61626c653a20636f6e747261637420697320616c72656160448201527f647920696e697469616c697a6564000000000000000000000000000000000000606482015260840161054e565b600054610100900460ff16158015610ed857600080547fffffffffffffffffffffffffffffffffffffffffffffffffffffffffffff0000166101011790555b610ee06126da565b610ee8612779565b6276a700609955633b9aca00609a558015610f2657600080547fffffffffffffffffffffffffffffffffffffffffffffffffffffffffffff00ff1690555b50565b7fb53127684a568b3173ae13b9f8a6016e243e63b6e8ee1178d6a717850b5d61035473ffffffffffffffffffffffffffffffffffffffff163373ffffffffffffffffffffffffffffffffffffffff1614610fdf576040517f08c379a000000000000000000000000000000000000000000000000000000000815260206004820152600e60248201527f4e4f545f415554484f52495a4544000000000000000000000000000000000000604482015260640161054e565b610ca6612820565b60006060426099548560a00151610ffe9190614491565b116110275760006040518060600160405280602981526020016145d76029913991509150611249565b60008373ffffffffffffffffffffffffffffffffffffffff16633850c7bd6040518163ffffffff1660e01b815260040160e06040518083038186803b15801561106f57600080fd5b505afa158015611083573d6000803e3d6000fd5b505050506040513d601f19601f820116820180604052508101906110a79190613e92565b505050505091505060008473ffffffffffffffffffffffffffffffffffffffff1663d0c93a7c6040518163ffffffff1660e01b815260040160206040518083038186803b1580156110f757600080fd5b505afa15801561110b573d6000803e3d6000fd5b505050506040513d601f19601f8201168201806040525081019061112f9190613d76565b9050856020015180156111545750855161114a90829061442e565b60020b8260020b13155b1561117f57600060405180606001604052806023815260200161462260239139935093505050611249565b85602001511580156111a3575085516111999082906144a9565b60020b8260020b12155b156111ce57600060405180606001604052806023815260200161462260239139935093505050611249565b60006111d988611251565b50905080156112095760006040518060600160405280602281526020016146006022913994509450505050611249565b60016040518060400160405280600281526020017f4f4b000000000000000000000000000000000000000000000000000000000000815250945094505050505b935093915050565b6040517f081812fc00000000000000000000000000000000000000000000000000000000815260048101829052600090606090309073ffffffffffffffffffffffffffffffffffffffff7f0000000000000000000000000000000000000000000000000000000000000000169063081812fc9060240160206040518083038186803b1580156112df57600080fd5b505afa1580156112f3573d6000803e3d6000fd5b505050506040513d601f19601f820116820180604052508101906113179190613c80565b73ffffffffffffffffffffffffffffffffffffffff161461137057505060408051808201909152600281527f4f4b0000000000000000000000000000000000000000000000000000000000006020820152600192909150565b60006040518060600160405280602b8152602001614673602b913991509150915091565b60655460ff1615611401576040517f08c379a000000000000000000000000000000000000000000000000000000000815260206004820152601060248201527f5061757361626c653a2070617573656400000000000000000000000000000000604482015260640161054e565b6002600154141561146e576040517f08c379a000000000000000000000000000000000000000000000000000000000815260206004820152601f60248201527f5265656e7472616e637947756172643a207265656e7472616e742063616c6c00604482015260640161054e565b600260015580516040517f081812fc00000000000000000000000000000000000000000000000000000000815260048101829052309073ffffffffffffffffffffffffffffffffffffffff7f0000000000000000000000000000000000000000000000000000000000000000169063081812fc9060240160206040518083038186803b1580156114fd57600080fd5b505afa158015611511573d6000803e3d6000fd5b505050506040513d601f19601f820116820180604052508101906115359190613c80565b73ffffffffffffffffffffffffffffffffffffffff16146115d8576040517f08c379a000000000000000000000000000000000000000000000000000000000815260206004820152603160248201527f456a6563744c503a3a6973417070726f7665643a20456a6563744c502073686f60448201527f756c642062652061206f70657261746f72000000000000000000000000000000606482015260840161054e565b81516040517f6352211e000000000000000000000000000000000000000000000000000000008152600481018290523390819073ffffffffffffffffffffffffffffffffffffffff7f00000000000000000000000000000000000000000000000000000000000000001690636352211e9060240160206040518083038186803b15801561166457600080fd5b505afa158015611678573d6000803e3d6000fd5b505050506040513d601f19601f8201168201806040525081019061169c9190613c80565b73ffffffffffffffffffffffffffffffffffffffff1614611719576040517f08c379a000000000000000000000000000000000000000000000000000000000815260206004820152601d60248201527f456a6563744c503a7363686564756c653a3a206f6e6c79206f776e6572000000604482015260640161054e565b609a548460c00151116117ae576040517f08c379a000000000000000000000000000000000000000000000000000000000815260206004820152602c60248201527f456a6563744c503a3a7363686564756c653a206d6178466565416d6f756e742060448201527f3c206d696e696d756d4665650000000000000000000000000000000000000000606482015260840161054e565b348460c0015114611841576040517f08c379a000000000000000000000000000000000000000000000000000000000815260206004820152602d60248201527f456a6563744c503a3a7363686564756c653a206d6178466565416d6f756e742060448201527f213d3d206d73672e76616c756500000000000000000000000000000000000000606482015260840161054e565b608084015173ffffffffffffffffffffffffffffffffffffffff1673eeeeeeeeeeeeeeeeeeeeeeeeeeeeeeeeeeeeeeee146118fd576040517f08c379a0000000000000000000000000000000000000000000000000000000008152602060048201526024808201527f456a6563744c503a3a7363686564756c653a206f6e6c79206e6174697665207460448201527f6f6b656e00000000000000000000000000000000000000000000000000000000606482015260840161054e565b835160009081526097602052604090205415801561192957508351600090815260986020526040902054155b61198f576040517f08c379a000000000000000000000000000000000000000000000000000000000815260206004820152601d60248201527f456a6563744c503a3a7363686564756c653a207461736b206578697374000000604482015260640161054e565b606084015173ffffffffffffffffffffffffffffffffffffffff16611a36576040517f08c379a000000000000000000000000000000000000000000000000000000000815260206004820152602360248201527f456a6563744c503a3a7363686564756c653a20696e76616c696420726563656960448201527f7665720000000000000000000000000000000000000000000000000000000000606482015260840161054e565b60006040518060e00160405280866020015160020b8152602001866040015115158152602001866060015173ffffffffffffffffffffffffffffffffffffffff1681526020013373ffffffffffffffffffffffffffffffffffffffff1681526020018660c0015181526020014281526020018660e001511515815250905080604051602001611ac59190614322565b604080517fffffffffffffffffffffffffffffffffffffffffffffffffffffffffffffffe081840301815282825280516020918201208851600090815260979092529190205560a08601518651608088015173ffffffffffffffffffffffffffffffffffffffff7f0000000000000000000000000000000000000000000000000000000000000000169363b9f45adb9330937ffc45cec0000000000000000000000000000000000000000000000000000000009391927fdc2846760000000000000000000000000000000000000000000000000000000092611bad92918a9190602401614392565b604080517fffffffffffffffffffffffffffffffffffffffffffffffffffffffffffffffe08184030181529181526020820180517bffffffffffffffffffffffffffffffffffffffffffffffffffffffff167fffffffff0000000000000000000000000000000000000000000000000000000094851617905260808d0151905160e088901b9093168352611c46959493926004016141a1565b602060405180830381600087803b158015611c6057600080fd5b505af1158015611c74573d6000803e3d6000fd5b505050506040513d601f19601f82011682018060405250810190611c989190613d40565b85516000908152609860205260409081902091909155855190517fe8e0b8864c4e7378eb8917694dd4e5b2396943fe7bcfefe652d865946de03e1490611ce390889042903390614244565b60405180910390a2505060018055505050565b6000806000806000807f000000000000000000000000000000000000000000000000000000000000000073ffffffffffffffffffffffffffffffffffffffff166399fbab88896040518263ffffffff1660e01b8152600401611d5a91815260200190565b6101806040518083038186803b158015611d7357600080fd5b505afa158015611d87573d6000803e3d6000fd5b505050506040513d601f19601f82011682018060405250810190611dab919061405a565b50929e50969b50949950929750611df196507f000000000000000000000000000000000000000000000000000000000000000095508994508893508792506128e0915050565b9350505050600080611e04878785610fe7565b91509150818190611e42576040517f08c379a000000000000000000000000000000000000000000000000000000000815260040161054e9190614231565b509293505050505b92915050565b6040517f6352211e0000000000000000000000000000000000000000000000000000000081526004810182905260009060609073ffffffffffffffffffffffffffffffffffffffff7f00000000000000000000000000000000000000000000000000000000000000001690636352211e9060240160206040518083038186803b158015611edc57600080fd5b505afa925050508015611f2a575060408051601f3d9081017fffffffffffffffffffffffffffffffffffffffffffffffffffffffffffffffe0168201909252611f2791810190613c80565b60015b611f6c57505060408051808201909152600281527f4f4b0000000000000000000000000000000000000000000000000000000000006020820152600192909150565b73ffffffffffffffffffffffffffffffffffffffff8116611fc95760016040518060400160405280600281526020017f4f4b0000000000000000000000000000000000000000000000000000000000008152509250925050915091565b60006040518060400160405280601b81526020017f456a6563744c503a3a69734275726e743a206e6f74206275726e7400000000008152509250925050915091565b7fb53127684a568b3173ae13b9f8a6016e243e63b6e8ee1178d6a717850b5d61035473ffffffffffffffffffffffffffffffffffffffff163373ffffffffffffffffffffffffffffffffffffffff16146120c1576040517f08c379a000000000000000000000000000000000000000000000000000000000815260206004820152600e60248201527f4e4f545f415554484f52495a4544000000000000000000000000000000000000604482015260640161054e565b6099548111612151576040517f08c379a0000000000000000000000000000000000000000000000000000000008152602060048201526024808201527f456a6563744c503a3a7365744475726174696f6e3a206f6e6c7920696e63726560448201527f6173652e00000000000000000000000000000000000000000000000000000000606482015260840161054e565b60998190556040518181527f7f8e050cd6544ab7a601f4533862faeadf0669ae3ffa49439332add9c53bf0739060200161092b565b60655460ff16156121f3576040517f08c379a000000000000000000000000000000000000000000000000000000000815260206004820152601060248201527f5061757361626c653a2070617573656400000000000000000000000000000000604482015260640161054e565b60026001541415612260576040517f08c379a000000000000000000000000000000000000000000000000000000000815260206004820152601f60248201527f5265656e7472616e637947756172643a207265656e7472616e742063616c6c00604482015260640161054e565b60026001553373ffffffffffffffffffffffffffffffffffffffff7f00000000000000000000000000000000000000000000000000000000000000001614612304576040517f08c379a000000000000000000000000000000000000000000000000000000000815260206004820181905260248201527f456a6563744c503a3a6f6e6c79506f6b654d653a206f6e6c7920706f6b654d65604482015260640161054e565b816040516020016123159190614322565b604080517fffffffffffffffffffffffffffffffffffffffffffffffffffffffffffffffe0818403018152918152815160209283012060008681526097909352912054146123e5576040517f08c379a000000000000000000000000000000000000000000000000000000000815260206004820152602b60248201527f456a6563744c503a3a656a6563744f72536574746c653a20696e636f7272656360448201527f74207461736b2068617368000000000000000000000000000000000000000000606482015260840161054e565b80156123fa576123f583836129b6565b612404565b6124048383612d8f565b50506001805550565b80471015612477576040517f08c379a000000000000000000000000000000000000000000000000000000000815260206004820152601d60248201527f416464726573733a20696e73756666696369656e742062616c616e6365000000604482015260640161054e565b60008273ffffffffffffffffffffffffffffffffffffffff168260405160006040518083038185875af1925050503d80600081146124d1576040519150601f19603f3d011682016040523d82523d6000602084013e6124d6565b606091505b5050905080612567576040517f08c379a000000000000000000000000000000000000000000000000000000000815260206004820152603a60248201527f416464726573733a20756e61626c6520746f2073656e642076616c75652c207260448201527f6563697069656e74206d61792068617665207265766572746564000000000000606482015260840161054e565b505050565b6040805173ffffffffffffffffffffffffffffffffffffffff8416602482015260448082018490528251808303909101815260649091019091526020810180517bffffffffffffffffffffffffffffffffffffffffffffffffffffffff167fa9059cbb00000000000000000000000000000000000000000000000000000000179052612567908490612fc6565b60655460ff16612665576040517f08c379a000000000000000000000000000000000000000000000000000000000815260206004820152601460248201527f5061757361626c653a206e6f7420706175736564000000000000000000000000604482015260640161054e565b606580547fffffffffffffffffffffffffffffffffffffffffffffffffffffffffffffff001690557f5db9ee0a495bf2e6ff9c91a7834c1ba4fdd244a5e8aa4e537bd38aeae4b073aa335b60405173ffffffffffffffffffffffffffffffffffffffff909116815260200160405180910390a1565b600054610100900460ff16612771576040517f08c379a000000000000000000000000000000000000000000000000000000000815260206004820152602b60248201527f496e697469616c697a61626c653a20636f6e7472616374206973206e6f74206960448201527f6e697469616c697a696e67000000000000000000000000000000000000000000606482015260840161054e565b610ca66130d2565b600054610100900460ff16612810576040517f08c379a000000000000000000000000000000000000000000000000000000000815260206004820152602b60248201527f496e697469616c697a61626c653a20636f6e7472616374206973206e6f74206960448201527f6e697469616c697a696e67000000000000000000000000000000000000000000606482015260840161054e565b61281861316f565b610ca6613206565b60655460ff161561288d576040517f08c379a000000000000000000000000000000000000000000000000000000000815260206004820152601060248201527f5061757361626c653a2070617573656400000000000000000000000000000000604482015260640161054e565b606580547fffffffffffffffffffffffffffffffffffffffffffffffffffffffffffffff001660011790557f62e78cea01bee320cd4e420270b5ea74000d11b0c9f74754ebdbfc544b05a2586126b03390565b60006129ab8560405180606001604052808673ffffffffffffffffffffffffffffffffffffffff168873ffffffffffffffffffffffffffffffffffffffff161061292a578661292c565b875b73ffffffffffffffffffffffffffffffffffffffff1681526020018673ffffffffffffffffffffffffffffffffffffffff168873ffffffffffffffffffffffffffffffffffffffff16106129805787612982565b865b73ffffffffffffffffffffffffffffffffffffffff1681526020018562ffffff168152506132c7565b90505b949350505050565b8181606001518073ffffffffffffffffffffffffffffffffffffffff167f000000000000000000000000000000000000000000000000000000000000000073ffffffffffffffffffffffffffffffffffffffff16636352211e846040518263ffffffff1660e01b8152600401612a2e91815260200190565b60206040518083038186803b158015612a4657600080fd5b505afa158015612a5a573d6000803e3d6000fd5b505050506040513d601f19601f82011682018060405250810190612a7e9190613c80565b73ffffffffffffffffffffffffffffffffffffffff1614612afb576040517f08c379a000000000000000000000000000000000000000000000000000000000815260206004820152601d60248201527f456a6563744c503a7363686564756c653a3a206f6e6c79206f776e6572000000604482015260640161054e565b6040517f081812fc000000000000000000000000000000000000000000000000000000008152600481018590528490309073ffffffffffffffffffffffffffffffffffffffff7f0000000000000000000000000000000000000000000000000000000000000000169063081812fc9060240160206040518083038186803b158015612b8557600080fd5b505afa158015612b99573d6000803e3d6000fd5b505050506040513d601f19601f82011682018060405250810190612bbd9190613c80565b73ffffffffffffffffffffffffffffffffffffffff1614612c60576040517f08c379a000000000000000000000000000000000000000000000000000000000815260206004820152603160248201527f456a6563744c503a3a6973417070726f7665643a20456a6563744c502073686f60448201527f756c642062652061206f70657261746f72000000000000000000000000000000606482015260840161054e565b6000612c6a613420565b90508460800151811115612d00576040517f08c379a000000000000000000000000000000000000000000000000000000000815260206004820152602260248201527f456a6563744c503a3a656a6563743a20666565203e206d6178466565416d6f7560448201527f6e74000000000000000000000000000000000000000000000000000000000000606482015260840161054e565b6000612d0c8787611cf6565b9050600080612d1d89898587613560565b6040808b015181518481526020810184905291820188905273ffffffffffffffffffffffffffffffffffffffff166060820152919350915089907f21b07cd7e9d410ec08e768e90662d047849995fd1ce4cd71a889c89fd41ff3c69060800160405180910390a2505050505050505050565b6000612d99613420565b90506000612da684611e50565b5090508015612dc057612dba8484846135ac565b50505050565b6000612dd0858560600151610ca8565b5090508015612de457610be18585856135ac565b6000612def86611251565b5090508015612e0b57612e038686866135ac565b505050505050565b600080612e1787610936565b91509150818190612e55576040517f08c379a000000000000000000000000000000000000000000000000000000000815260040161054e9190614231565b508660c00151612e7457612e6a8888886135ac565b5050505050505050565b6040517f99fbab88000000000000000000000000000000000000000000000000000000008152600481018990526000907f000000000000000000000000000000000000000000000000000000000000000073ffffffffffffffffffffffffffffffffffffffff16906399fbab88906024016101806040518083038186803b158015612efe57600080fd5b505afa158015612f12573d6000803e3d6000fd5b505050506040513d601f19601f82011682018060405250810190612f36919061405a565b50505050975050505050505050600080612f528b8b858c613560565b6040808d01518151848152602081018490529182018d905273ffffffffffffffffffffffffffffffffffffffff16606082015291935091508b907f77ad7f488c00e15cf396184dcb1bac64a34ec71abca69acd8165af070f02b5219060800160405180910390a25050505050505050505050565b6000613028826040518060400160405280602081526020017f5361666545524332303a206c6f772d6c6576656c2063616c6c206661696c65648152508573ffffffffffffffffffffffffffffffffffffffff1661361e9092919063ffffffff16565b80519091501561256757808060200190518101906130469190613d23565b612567576040517f08c379a000000000000000000000000000000000000000000000000000000000815260206004820152602a60248201527f5361666545524332303a204552433230206f7065726174696f6e20646964206e60448201527f6f74207375636365656400000000000000000000000000000000000000000000606482015260840161054e565b600054610100900460ff16613169576040517f08c379a000000000000000000000000000000000000000000000000000000000815260206004820152602b60248201527f496e697469616c697a61626c653a20636f6e7472616374206973206e6f74206960448201527f6e697469616c697a696e67000000000000000000000000000000000000000000606482015260840161054e565b60018055565b600054610100900460ff16610ca6576040517f08c379a000000000000000000000000000000000000000000000000000000000815260206004820152602b60248201527f496e697469616c697a61626c653a20636f6e7472616374206973206e6f74206960448201527f6e697469616c697a696e67000000000000000000000000000000000000000000606482015260840161054e565b600054610100900460ff1661329d576040517f08c379a000000000000000000000000000000000000000000000000000000000815260206004820152602b60248201527f496e697469616c697a61626c653a20636f6e7472616374206973206e6f74206960448201527f6e697469616c697a696e67000000000000000000000000000000000000000000606482015260840161054e565b606580547fffffffffffffffffffffffffffffffffffffffffffffffffffffffffffffff00169055565b6000816020015173ffffffffffffffffffffffffffffffffffffffff16826000015173ffffffffffffffffffffffffffffffffffffffff161061330957600080fd5b8151602080840151604080860151815173ffffffffffffffffffffffffffffffffffffffff95861681860152949092168482015262ffffff90911660608085019190915281518085038201815260808501909252815191909201207fff0000000000000000000000000000000000000000000000000000000000000060a08401529085901b7fffffffffffffffffffffffffffffffffffffffff0000000000000000000000001660a183015260b58201527fe34f199b19b2b4f47f68442619d555527d244f78a3297ea89325f843f87b8b5460d582015260f501604080517fffffffffffffffffffffffffffffffffffffffffffffffffffffffffffffffe081840301815291905280516020909101209392505050565b60008060007f000000000000000000000000000000000000000000000000000000000000000073ffffffffffffffffffffffffffffffffffffffff1663b810c6366040518163ffffffff1660e01b8152600401604080518083038186803b15801561348a57600080fd5b505afa15801561349e573d6000803e3d6000fd5b505050506040513d601f19601f820116820180604052508101906134c29190613f73565b909250905073ffffffffffffffffffffffffffffffffffffffff811673eeeeeeeeeeeeeeeeeeeeeeeeeeeeeeeeeeeeeeee1461355a576040517f08c379a000000000000000000000000000000000000000000000000000000000815260206004820152601a60248201527f456a6563744c503a206f6e6c79206e617469766520746f6b656e000000000000604482015260640161054e565b50919050565b6000806135937f000000000000000000000000000000000000000000000000000000000000000087868860400151613637565b90925090506135a3868685613833565b94509492505050565b6135b7838383613833565b60408083015181516000808252602082015291820183905273ffffffffffffffffffffffffffffffffffffffff16606082015283907f77ad7f488c00e15cf396184dcb1bac64a34ec71abca69acd8165af070f02b5219060800160405180910390a2505050565b606061362d8484600085613961565b90505b9392505050565b6040805160a0810182528481526fffffffffffffffffffffffffffffffff84811660208301908152600083850181815260608501828152426080870190815296517f0c49ccbe00000000000000000000000000000000000000000000000000000000815295516004870152925190931660248501529151604484015251606483015291516084820152819073ffffffffffffffffffffffffffffffffffffffff871690630c49ccbe9060a4016040805180830381600087803b1580156136fc57600080fd5b505af1158015613710573d6000803e3d6000fd5b505050506040513d601f19601f820116820180604052508101906137349190614036565b50506040805160808101825286815273ffffffffffffffffffffffffffffffffffffffff858116602083019081526fffffffffffffffffffffffffffffffff8385018181526060850182815295517ffc6f786500000000000000000000000000000000000000000000000000000000815294516004860152915183166024850152905181166044840152925190921660648201529087169063fc6f7865906084016040805180830381600087803b1580156137ee57600080fd5b505af1158015613802573d6000803e3d6000fd5b505050506040513d601f19601f820116820180604052508101906138269190614036565b9097909650945050505050565b600083815260986020526040908190205490517fee8ca3b500000000000000000000000000000000000000000000000000000000815260048101919091527f000000000000000000000000000000000000000000000000000000000000000073ffffffffffffffffffffffffffffffffffffffff169063ee8ca3b590602401600060405180830381600087803b1580156138cc57600080fd5b505af11580156138e0573d6000803e3d6000fd5b50505060008481526097602090815260408083208390556098909152812055506080820151613941907f000000000000000000000000000000000000000000000000000000000000000090831061393b57836080015161240d565b8261240d565b81608001518110156125675761256782604001518284608001510361240d565b6060824710156139f3576040517f08c379a000000000000000000000000000000000000000000000000000000000815260206004820152602660248201527f416464726573733a20696e73756666696369656e742062616c616e636520666f60448201527f722063616c6c0000000000000000000000000000000000000000000000000000606482015260840161054e565b843b613a5b576040517f08c379a000000000000000000000000000000000000000000000000000000000815260206004820152601d60248201527f416464726573733a2063616c6c20746f206e6f6e2d636f6e7472616374000000604482015260640161054e565b6000808673ffffffffffffffffffffffffffffffffffffffff168587604051613a849190614185565b60006040518083038185875af1925050503d8060008114613ac1576040519150601f19603f3d011682016040523d82523d6000602084013e613ac6565b606091505b5091509150613ad6828286613ae1565b979650505050505050565b60608315613af0575081613630565b825115613b005782518084602001fd5b816040517f08c379a000000000000000000000000000000000000000000000000000000000815260040161054e9190614231565b8035613b3f81614597565b919050565b8051613b3f81614597565b8035613b3f816145b9565b8051613b3f816145c7565b600060e08284031215613b7757600080fd5b60405160e0810181811067ffffffffffffffff82111715613bc1577f4e487b7100000000000000000000000000000000000000000000000000000000600052604160045260246000fd5b6040529050808235613bd2816145c7565b81526020830135613be2816145b9565b60208201526040830135613bf581614597565b60408201526060830135613c0881614597565b806060830152506080830135608082015260a083013560a0820152613c2f60c08401613b4f565b60c08201525092915050565b80516fffffffffffffffffffffffffffffffff81168114613b3f57600080fd5b805161ffff81168114613b3f57600080fd5b805162ffffff81168114613b3f57600080fd5b600060208284031215613c9257600080fd5b815161363081614597565b600080600060408486031215613cb257600080fd5b833567ffffffffffffffff80821115613cca57600080fd5b818601915086601f830112613cde57600080fd5b813581811115613ced57600080fd5b8760208260051b8501011115613d0257600080fd5b60209283019550935050840135613d1881614597565b809150509250925092565b600060208284031215613d3557600080fd5b8151613630816145b9565b600060208284031215613d5257600080fd5b5051919050565b600060208284031215613d6b57600080fd5b813561363081614597565b600060208284031215613d8857600080fd5b8151613630816145c7565b6000610100808385031215613da757600080fd5b6040519081019067ffffffffffffffff82118183101715613df1577f4e487b7100000000000000000000000000000000000000000000000000000000600052604160045260246000fd5b816040528335815260208401359150613e09826145c7565b816020820152613e1b60408501613b4f565b6040820152613e2c60608501613b34565b6060820152613e3d60808501613b34565b6080820152613e4e60a08501613b34565b60a082015260c084013560c0820152613e6960e08501613b4f565b60e0820152949350505050565b600060e08284031215613e8857600080fd5b6136308383613b65565b600080600080600080600060e0888a031215613ead57600080fd5b8751613eb881614597565b6020890151909750613ec9816145c7565b9550613ed760408901613c5b565b9450613ee560608901613c5b565b9350613ef360808901613c5b565b925060a088015160ff81168114613f0957600080fd5b60c0890151909250613f1a816145b9565b8091505092959891949750929550565b600060208284031215613f3c57600080fd5b5035919050565b60008060408385031215613f5657600080fd5b823591506020830135613f6881614597565b809150509250929050565b60008060408385031215613f8657600080fd5b825191506020830151613f6881614597565b6000806101008385031215613fac57600080fd5b82359150613fbd8460208501613b65565b90509250929050565b60008060006101208486031215613fdc57600080fd5b83359250613fed8560208601613b65565b9150610100840135613d18816145b9565b6000806000610120848603121561401457600080fd5b833592506140258560208601613b65565b9150610100840135613d1881614597565b6000806040838503121561404957600080fd5b505080516020909101519092909150565b6000806000806000806000806000806000806101808d8f03121561407d57600080fd5b8c516bffffffffffffffffffffffff8116811461409957600080fd5b9b506140a760208e01613b44565b9a506140b560408e01613b44565b99506140c360608e01613b44565b98506140d160808e01613c6d565b97506140df60a08e01613b5a565b96506140ed60c08e01613b5a565b95506140fb60e08e01613c3b565b94506101008d015193506101208d0151925061411a6101408e01613c3b565b91506141296101608e01613c3b565b90509295989b509295989b509295989b565b6000815180845261415381602086016020860161450d565b601f017fffffffffffffffffffffffffffffffffffffffffffffffffffffffffffffffe0169290920160200192915050565b6000825161419781846020870161450d565b9190910192915050565b600073ffffffffffffffffffffffffffffffffffffffff80881683527fffffffff0000000000000000000000000000000000000000000000000000000087166020840152808616604084015260a0606084015261420160a084018661413b565b91508084166080840152509695505050505050565b821515815260406020820152600061362d604083018461413b565b602081526000613630602083018461413b565b60006101408201905084518252602085015160020b602083015260408501511515604083015273ffffffffffffffffffffffffffffffffffffffff606086015116606083015260808501516142b1608084018273ffffffffffffffffffffffffffffffffffffffff169052565b5060a08501516142d960a084018273ffffffffffffffffffffffffffffffffffffffff169052565b5060c085015160c083015260e08501516142f760e084018215159052565b50836101008301526129ae61012083018473ffffffffffffffffffffffffffffffffffffffff169052565b60e08101611e4a8284805160020b8252602081015115156020830152604081015173ffffffffffffffffffffffffffffffffffffffff808216604085015280606084015116606085015250506080810151608083015260a081015160a083015260c0810151151560c08301525050565b83815261012081016144096020830185805160020b8252602081015115156020830152604081015173ffffffffffffffffffffffffffffffffffffffff808216604085015280606084015116606085015250506080810151608083015260a081015160a083015260c0810151151560c08301525050565b73ffffffffffffffffffffffffffffffffffffffff8316610100830152949350505050565b60008160020b8360020b6000821282627fffff0382138115161561445457614454614539565b827fffffffffffffffffffffffffffffffffffffffffffffffffffffffffff80000003821281161561448857614488614539565b50019392505050565b600082198211156144a4576144a4614539565b500190565b60008160020b8360020b60008112817fffffffffffffffffffffffffffffffffffffffffffffffffffffffffff800000018312811516156144ec576144ec614539565b81627fffff01831381161561450357614503614539565b5090039392505050565b60005b83811015614528578181015183820152602001614510565b83811115612dba5750506000910152565b7f4e487b7100000000000000000000000000000000000000000000000000000000600052601160045260246000fd5b7f4e487b7100000000000000000000000000000000000000000000000000000000600052603260045260246000fd5b73ffffffffffffffffffffffffffffffffffffffff81168114610f2657600080fd5b8015158114610f2657600080fd5b8060020b8114610f2657600080fdfe456a6563744c503a3a6973456a65637461626c653a2072616e6765206f726465722065787069726564456a6563744c503a3a6973456a65637461626c653a206e6f7420617070726f766564456a6563744c503a3a6973456a65637461626c653a207072696365206e6f74206d6574456a6563744c503a3a6861734f776e65724368616e6765643a206f776e6572206469646e2774206368616e676564456a6563744c503a3a69734e6f74417070726f7665643a20456a6563744c5020697320617070726f766564a2646970667358221220c3a79d5a4e7e8cdd1909964ce8c0f648e246e581cb0a2f56dd8159a130d635e764736f6c63430008070033",
  "devdoc": {
    "kind": "dev",
    "methods": {
      "paused()": {
        "details": "Returns true if the contract is paused, and false otherwise."
      }
    },
    "version": 1
  },
  "userdoc": {
    "kind": "user",
    "methods": {},
    "version": 1
  },
  "storageLayout": {
    "storage": [
      {
        "astId": 6,
        "contract": "contracts/EjectLP.sol:EjectLP",
        "label": "_initialized",
        "offset": 0,
        "slot": "0",
        "type": "t_bool"
      },
      {
        "astId": 9,
        "contract": "contracts/EjectLP.sol:EjectLP",
        "label": "_initializing",
        "offset": 1,
        "slot": "0",
        "type": "t_bool"
      },
      {
        "astId": 200,
        "contract": "contracts/EjectLP.sol:EjectLP",
        "label": "_status",
        "offset": 0,
        "slot": "1",
        "type": "t_uint256"
      },
      {
        "astId": 243,
        "contract": "contracts/EjectLP.sol:EjectLP",
        "label": "__gap",
        "offset": 0,
        "slot": "2",
        "type": "t_array(t_uint256)49_storage"
      },
      {
        "astId": 532,
        "contract": "contracts/EjectLP.sol:EjectLP",
        "label": "__gap",
        "offset": 0,
        "slot": "51",
        "type": "t_array(t_uint256)50_storage"
      },
      {
        "astId": 94,
        "contract": "contracts/EjectLP.sol:EjectLP",
        "label": "_paused",
        "offset": 0,
        "slot": "101",
        "type": "t_bool"
      },
      {
        "astId": 185,
        "contract": "contracts/EjectLP.sol:EjectLP",
        "label": "__gap",
        "offset": 0,
        "slot": "102",
        "type": "t_array(t_uint256)49_storage"
      },
      {
        "astId": 2534,
        "contract": "contracts/EjectLP.sol:EjectLP",
        "label": "hashById",
        "offset": 0,
        "slot": "151",
        "type": "t_mapping(t_uint256,t_bytes32)"
      },
      {
        "astId": 2538,
        "contract": "contracts/EjectLP.sol:EjectLP",
        "label": "taskById",
        "offset": 0,
        "slot": "152",
        "type": "t_mapping(t_uint256,t_bytes32)"
      },
      {
        "astId": 2540,
        "contract": "contracts/EjectLP.sol:EjectLP",
        "label": "duration",
        "offset": 0,
        "slot": "153",
        "type": "t_uint256"
      },
      {
        "astId": 2542,
        "contract": "contracts/EjectLP.sol:EjectLP",
        "label": "minimumFee",
        "offset": 0,
        "slot": "154",
        "type": "t_uint256"
      }
    ],
    "types": {
      "t_array(t_uint256)49_storage": {
        "base": "t_uint256",
        "encoding": "inplace",
        "label": "uint256[49]",
        "numberOfBytes": "1568"
      },
      "t_array(t_uint256)50_storage": {
        "base": "t_uint256",
        "encoding": "inplace",
        "label": "uint256[50]",
        "numberOfBytes": "1600"
      },
      "t_bool": {
        "encoding": "inplace",
        "label": "bool",
        "numberOfBytes": "1"
      },
      "t_bytes32": {
        "encoding": "inplace",
        "label": "bytes32",
        "numberOfBytes": "32"
      },
      "t_mapping(t_uint256,t_bytes32)": {
        "encoding": "mapping",
        "key": "t_uint256",
        "label": "mapping(uint256 => bytes32)",
        "numberOfBytes": "32",
        "value": "t_bytes32"
      },
      "t_uint256": {
        "encoding": "inplace",
        "label": "uint256",
        "numberOfBytes": "32"
      }
    }
  }
}