{
  "address": "0xbb6b7Aa86A8C73F681daA010F22f6eE1aFd35278",
  "abi": [
    {
      "inputs": [
        {
          "internalType": "contract INonfungiblePositionManager",
          "name": "nftPositionManager_",
          "type": "address"
        },
        {
          "internalType": "contract IEjectLP",
          "name": "eject_",
          "type": "address"
        },
        {
          "internalType": "contract IWETH9",
          "name": "WETH9_",
          "type": "address"
        },
        {
          "internalType": "address",
          "name": "rangeOrderResolver_",
          "type": "address"
        }
      ],
      "stateMutability": "nonpayable",
      "type": "constructor"
    },
    {
      "anonymous": false,
      "inputs": [
        {
          "indexed": true,
          "internalType": "uint256",
          "name": "tokenId",
          "type": "uint256"
        },
        {
          "indexed": false,
          "internalType": "uint256",
          "name": "amount0",
          "type": "uint256"
        },
        {
          "indexed": false,
          "internalType": "uint256",
          "name": "amount1",
          "type": "uint256"
        }
      ],
      "name": "LogCancelRangeOrder",
      "type": "event"
    },
    {
      "anonymous": false,
      "inputs": [
        {
          "indexed": true,
          "internalType": "uint256",
          "name": "tokenId",
          "type": "uint256"
        },
        {
          "indexed": false,
          "internalType": "address",
          "name": "pool",
          "type": "address"
        },
        {
          "indexed": false,
          "internalType": "uint256",
          "name": "amountIn",
          "type": "uint256"
        }
      ],
      "name": "LogSetRangeOrder",
      "type": "event"
    },
    {
      "anonymous": false,
      "inputs": [
        {
          "indexed": false,
          "internalType": "address",
          "name": "account",
          "type": "address"
        }
      ],
      "name": "Paused",
      "type": "event"
    },
    {
      "anonymous": false,
      "inputs": [
        {
          "indexed": false,
          "internalType": "address",
          "name": "account",
          "type": "address"
        }
      ],
      "name": "Unpaused",
      "type": "event"
    },
    {
      "inputs": [],
      "name": "WETH9",
      "outputs": [
        {
          "internalType": "contract IWETH9",
          "name": "",
          "type": "address"
        }
      ],
      "stateMutability": "view",
      "type": "function"
    },
    {
      "inputs": [
        {
          "internalType": "uint256",
          "name": "tokenId_",
          "type": "uint256"
        },
        {
          "components": [
            {
              "internalType": "contract IUniswapV3Pool",
              "name": "pool",
              "type": "address"
            },
            {
              "internalType": "bool",
              "name": "zeroForOne",
              "type": "bool"
            },
            {
              "internalType": "int24",
              "name": "tickThreshold",
              "type": "int24"
            },
            {
              "internalType": "uint256",
              "name": "amountIn",
              "type": "uint256"
            },
            {
              "internalType": "uint256",
              "name": "minLiquidity",
              "type": "uint256"
            },
            {
              "internalType": "address payable",
              "name": "receiver",
              "type": "address"
            },
            {
              "internalType": "uint256",
              "name": "maxFeeAmount",
              "type": "uint256"
            }
          ],
          "internalType": "struct RangeOrderParams",
          "name": "params_",
          "type": "tuple"
        },
        {
          "internalType": "uint256",
          "name": "startTime_",
          "type": "uint256"
        }
      ],
      "name": "cancelRangeOrder",
      "outputs": [],
      "stateMutability": "nonpayable",
      "type": "function"
    },
    {
      "inputs": [],
      "name": "eject",
      "outputs": [
        {
          "internalType": "contract IEjectLP",
          "name": "",
          "type": "address"
        }
      ],
      "stateMutability": "view",
      "type": "function"
    },
    {
      "inputs": [],
      "name": "initialize",
      "outputs": [],
      "stateMutability": "nonpayable",
      "type": "function"
    },
    {
      "inputs": [],
      "name": "nftPositionManager",
      "outputs": [
        {
          "internalType": "contract INonfungiblePositionManager",
          "name": "",
          "type": "address"
        }
      ],
      "stateMutability": "view",
      "type": "function"
    },
    {
      "inputs": [
        {
          "internalType": "address",
          "name": "",
          "type": "address"
        },
        {
          "internalType": "address",
          "name": "",
          "type": "address"
        },
        {
          "internalType": "uint256",
          "name": "",
          "type": "uint256"
        },
        {
          "internalType": "bytes",
          "name": "",
          "type": "bytes"
        }
      ],
      "name": "onERC721Received",
      "outputs": [
        {
          "internalType": "bytes4",
          "name": "",
          "type": "bytes4"
        }
      ],
      "stateMutability": "pure",
      "type": "function"
    },
    {
      "inputs": [],
      "name": "pause",
      "outputs": [],
      "stateMutability": "nonpayable",
      "type": "function"
    },
    {
      "inputs": [],
      "name": "paused",
      "outputs": [
        {
          "internalType": "bool",
          "name": "",
          "type": "bool"
        }
      ],
      "stateMutability": "view",
      "type": "function"
    },
    {
      "inputs": [],
      "name": "rangeOrderResolver",
      "outputs": [
        {
          "internalType": "address",
          "name": "",
          "type": "address"
        }
      ],
      "stateMutability": "view",
      "type": "function"
    },
    {
      "inputs": [
        {
          "components": [
            {
              "internalType": "contract IUniswapV3Pool",
              "name": "pool",
              "type": "address"
            },
            {
              "internalType": "bool",
              "name": "zeroForOne",
              "type": "bool"
            },
            {
              "internalType": "int24",
              "name": "tickThreshold",
              "type": "int24"
            },
            {
              "internalType": "uint256",
              "name": "amountIn",
              "type": "uint256"
            },
            {
              "internalType": "uint256",
              "name": "minLiquidity",
              "type": "uint256"
            },
            {
              "internalType": "address payable",
              "name": "receiver",
              "type": "address"
            },
            {
              "internalType": "uint256",
              "name": "maxFeeAmount",
              "type": "uint256"
            }
          ],
          "internalType": "struct RangeOrderParams",
          "name": "params_",
          "type": "tuple"
        }
      ],
      "name": "setRangeOrder",
      "outputs": [],
      "stateMutability": "payable",
      "type": "function"
    },
    {
      "inputs": [],
      "name": "unpause",
      "outputs": [],
      "stateMutability": "nonpayable",
      "type": "function"
    }
  ],
  "transactionHash": "0x0e80618f6dc66047d520228d66bb060cab44e084f82036767b9e516c12729088",
  "args": [
    "0xC36442b4a4522E871399CD717aBDD847Ab11FE88",
    "0x825832a5A589ed9500CaEE2aa2D2c3117218D6A9",
    "0x0d500B1d8E8eF31E21C99d1Db9A6444d3ADf1270",
    "0x878d22d19DEbA127F1690065220dF24bD1C6Cafb"
  ],
  "solcInputHash": "f354d90670b79307768fa3ecfb54bafa",
  "bytecode": "0x6101006040523480156200001257600080fd5b5060405162002de838038062002de8833981016040819052620000359162000065565b6001600160601b0319606094851b811660805292841b831660a05290831b821660c05290911b1660e052620000e6565b600080600080608085870312156200007c57600080fd5b84516200008981620000cd565b60208601519094506200009c81620000cd565b6040860151909350620000af81620000cd565b6060860151909250620000c281620000cd565b939692955090935050565b6001600160a01b0381168114620000e357600080fd5b50565b60805160601c60a05160601c60c05160601c60e05160601c612c696200017f6000396000818160d30152610dd90152600081816101d101528181610776015261090c01526000818161023d01528181610c5801528181610cf6015261132401526000818161027101528181610a6901528181610ad801528181610c8a015281816114d301528181611573015261164d0152612c696000f3fe6080604052600436106100bc5760003560e01c80635c975abb11610074578063843978881161004e578063843978881461025f5780638456cb59146102935780639c51a688146102a857600080fd5b80635c975abb146101f35780638129fc1c1461021657806382e94ac51461022b57600080fd5b8063355a6c3f116100a5578063355a6c3f146101955780633f4ba83a146101aa5780634aa4a4fc146101bf57600080fd5b806311208ca2146100c1578063150b7a021461011f575b600080fd5b3480156100cd57600080fd5b506100f57f000000000000000000000000000000000000000000000000000000000000000081565b60405173ffffffffffffffffffffffffffffffffffffffff90911681526020015b60405180910390f35b34801561012b57600080fd5b5061016461013a366004612504565b7f150b7a020000000000000000000000000000000000000000000000000000000095945050505050565b6040517fffffffff000000000000000000000000000000000000000000000000000000009091168152602001610116565b6101a86101a3366004612617565b6102c8565b005b3480156101b657600080fd5b506101a8610ee5565b3480156101cb57600080fd5b506100f57f000000000000000000000000000000000000000000000000000000000000000081565b3480156101ff57600080fd5b5060655460ff166040519015158152602001610116565b34801561022257600080fd5b506101a8610fa5565b34801561023757600080fd5b506100f57f000000000000000000000000000000000000000000000000000000000000000081565b34801561026b57600080fd5b506100f57f000000000000000000000000000000000000000000000000000000000000000081565b34801561029f57600080fd5b506101a86110d1565b3480156102b457600080fd5b506101a86102c33660046126ff565b61118f565b60655460ff161561033a576040517f08c379a000000000000000000000000000000000000000000000000000000000815260206004820152601060248201527f5061757361626c653a207061757365640000000000000000000000000000000060448201526064015b60405180910390fd5b600260015414156103a7576040517f08c379a000000000000000000000000000000000000000000000000000000000815260206004820152601f60248201527f5265656e7472616e637947756172643a207265656e7472616e742063616c6c006044820152606401610331565b60026001556000808080806103bf60208701876124e7565b73ffffffffffffffffffffffffffffffffffffffff1663d0c93a7c6040518163ffffffff1660e01b815260040160206040518083038186803b15801561040457600080fd5b505afa158015610418573d6000803e3d6000fd5b505050506040513d601f19601f8201168201806040525081019061043c91906125fa565b90508061044f60608801604089016125dd565b6104599190612b7c565b60020b156104e9576040517f08c379a000000000000000000000000000000000000000000000000000000000815260206004820152603f60248201527f52616e67654f726465723a73657452616e67654f726465723a3a20746872657360448201527f686f6c64206d75737420626520696e697469616c697a61626c65207469636b006064820152608401610331565b6104f960408701602088016125a3565b61051d578061050e60608801604089016125dd565b6105189190612ad5565b61052d565b61052d60608701604088016125dd565b925061053f60408701602088016125a3565b6105585761055360608701604088016125dd565b610573565b8061056960608801604089016125dd565b6105739190612a72565b91506105ac905061058760208701876124e7565b61059760608801604089016125dd565b6105a76040890160208a016125a3565b6116d9565b60006105bb60208701876124e7565b73ffffffffffffffffffffffffffffffffffffffff16630dfe16816040518163ffffffff1660e01b815260040160206040518083038186803b15801561060057600080fd5b505afa158015610614573d6000803e3d6000fd5b505050506040513d601f19601f8201168201806040525081019061063891906124ca565b9050600061064960208801886124e7565b73ffffffffffffffffffffffffffffffffffffffff1663d21220a76040518163ffffffff1660e01b815260040160206040518083038186803b15801561068e57600080fd5b505afa1580156106a2573d6000803e3d6000fd5b505050506040513d601f19601f820116820180604052508101906106c691906124ca565b90506106d560208801886124e7565b73ffffffffffffffffffffffffffffffffffffffff1663ddca3f436040518163ffffffff1660e01b815260040160206040518083038186803b15801561071a57600080fd5b505afa15801561072e573d6000803e3d6000fd5b505050506040513d601f19601f8201168201806040525081019061075291906126cb565b945060006107666040890160208a016125a3565b6107705781610772565b825b90507f000000000000000000000000000000000000000000000000000000000000000073ffffffffffffffffffffffffffffffffffffffff168173ffffffffffffffffffffffffffffffffffffffff161480156107d257508760c0013534115b15610994578760600135341161086a576040517f08c379a000000000000000000000000000000000000000000000000000000000815260206004820152602d60248201527f52616e67654f726465723a73657452616e67654f726465723a3a20496e76616c60448201527f696420616d6f756e7420696e2e000000000000000000000000000000000000006064820152608401610331565b60c088013561087d60608a013534612b39565b1461090a576040517f08c379a000000000000000000000000000000000000000000000000000000000815260206004820152603060248201527f52616e67654f726465723a73657452616e67654f726465723a3a20496e76616c60448201527f6964206d6178466565416d6f756e742e000000000000000000000000000000006064820152608401610331565b7f000000000000000000000000000000000000000000000000000000000000000073ffffffffffffffffffffffffffffffffffffffff1663d0e30db089606001356040518263ffffffff1660e01b81526004016000604051808303818588803b15801561097657600080fd5b505af115801561098a573d6000803e3d6000fd5b5050505050610a4d565b8760c001353414610a27576040517f08c379a000000000000000000000000000000000000000000000000000000000815260206004820152603060248201527f52616e67654f726465723a73657452616e67654f726465723a3a20496e76616c60448201527f6964206d6178466565416d6f756e742e000000000000000000000000000000006064820152608401610331565b610a4d73ffffffffffffffffffffffffffffffffffffffff8216333060608c0135611810565b610a9273ffffffffffffffffffffffffffffffffffffffff82167f000000000000000000000000000000000000000000000000000000000000000060608b01356118ec565b506000808080610aa860408c0160208d016125a3565b15610ac3575050505060608701356000608089013581610ad6565b5060009250505060608801358160808a01355b7f000000000000000000000000000000000000000000000000000000000000000073ffffffffffffffffffffffffffffffffffffffff1663883164566040518061016001604052808973ffffffffffffffffffffffffffffffffffffffff1681526020018873ffffffffffffffffffffffffffffffffffffffff1681526020018c62ffffff1681526020018b60020b81526020018a60020b81526020018781526020018681526020018581526020018481526020013073ffffffffffffffffffffffffffffffffffffffff168152602001428152506040518263ffffffff1660e01b8152600401610bc791906128e5565b608060405180830381600087803b158015610be157600080fd5b505af1158015610bf5573d6000803e3d6000fd5b505050506040513d601f19601f82011682018060405250810190610c199190612737565b50506040517f095ea7b300000000000000000000000000000000000000000000000000000000815273ffffffffffffffffffffffffffffffffffffffff7f00000000000000000000000000000000000000000000000000000000000000008116600483015260248201849052929c507f0000000000000000000000000000000000000000000000000000000000000000909216955063095ea7b39450506044019150610cc29050565b600060405180830381600087803b158015610cdc57600080fd5b505af1158015610cf0573d6000803e3d6000fd5b505050507f000000000000000000000000000000000000000000000000000000000000000073ffffffffffffffffffffffffffffffffffffffff1663c92a08c28860c001356040518061010001604052808a81526020018b6040016020810190610d5a91906125dd565b60020b81526020018b6020016020810190610d7591906125a3565b15158152602001610d8c60c08d0160a08e016124e7565b73ffffffffffffffffffffffffffffffffffffffff16815260200173eeeeeeeeeeeeeeeeeeeeeeeeeeeeeeeeeeeeeeee73ffffffffffffffffffffffffffffffffffffffff1681526020017f000000000000000000000000000000000000000000000000000000000000000073ffffffffffffffffffffffffffffffffffffffff1681526020018b60c001358152602001600115158152506040518363ffffffff1660e01b8152600401610e4091906129d0565b6000604051808303818588803b158015610e5957600080fd5b505af1158015610e6d573d6000803e3d6000fd5b505050505050505050817f8a00d01c0c9ab40631f8604aeeefb7487453cef2e7baaf5f135eb0c04bf15585846000016020810190610eab91906124e7565b6040805173ffffffffffffffffffffffffffffffffffffffff9092168252606087013560208301520160405180910390a250506001805550565b7fb53127684a568b3173ae13b9f8a6016e243e63b6e8ee1178d6a717850b5d61035473ffffffffffffffffffffffffffffffffffffffff163373ffffffffffffffffffffffffffffffffffffffff1614610f9b576040517f08c379a000000000000000000000000000000000000000000000000000000000815260206004820152600e60248201527f4e4f545f415554484f52495a45440000000000000000000000000000000000006044820152606401610331565b610fa3611a82565b565b600054610100900460ff16610fc05760005460ff1615610fc4565b303b155b611050576040517f08c379a000000000000000000000000000000000000000000000000000000000815260206004820152602e60248201527f496e697469616c697a61626c653a20636f6e747261637420697320616c72656160448201527f647920696e697469616c697a65640000000000000000000000000000000000006064820152608401610331565b600054610100900460ff1615801561108f57600080547fffffffffffffffffffffffffffffffffffffffffffffffffffffffffffff0000166101011790555b611097611b63565b61109f611c02565b80156110ce57600080547fffffffffffffffffffffffffffffffffffffffffffffffffffffffffffff00ff1690555b50565b7fb53127684a568b3173ae13b9f8a6016e243e63b6e8ee1178d6a717850b5d61035473ffffffffffffffffffffffffffffffffffffffff163373ffffffffffffffffffffffffffffffffffffffff1614611187576040517f08c379a000000000000000000000000000000000000000000000000000000000815260206004820152600e60248201527f4e4f545f415554484f52495a45440000000000000000000000000000000000006044820152606401610331565b610fa3611ca9565b60655460ff16156111fc576040517f08c379a000000000000000000000000000000000000000000000000000000000815260206004820152601060248201527f5061757361626c653a20706175736564000000000000000000000000000000006044820152606401610331565b60026001541415611269576040517f08c379a000000000000000000000000000000000000000000000000000000000815260206004820152601f60248201527f5265656e7472616e637947756172643a207265656e7472616e742063616c6c006044820152606401610331565b60026001553361127f60c0840160a085016124e7565b73ffffffffffffffffffffffffffffffffffffffff1614611322576040517f08c379a000000000000000000000000000000000000000000000000000000000815260206004820152602c60248201527f52616e67654f726465723a3a63616e63656c52616e67654f726465723a206f6e60448201527f6c792072656365697665722e00000000000000000000000000000000000000006064820152608401610331565b7f000000000000000000000000000000000000000000000000000000000000000073ffffffffffffffffffffffffffffffffffffffff16630403ab0f846040518060e0016040528086604001602081019061137d91906125dd565b60020b815260200186602001602081019061139891906125a3565b151581526020016113af60c0880160a089016124e7565b73ffffffffffffffffffffffffffffffffffffffff90811682523060208084019190915260c0808a013560408086019190915260608086018b9052600160809687015281517fffffffff0000000000000000000000000000000000000000000000000000000060e08b901b1681526004810198909852865160020b60248901529286015115156044880152850151831660648701529084015190911660848501529082015160a484015260a082015160c48401520151151560e482015261010401600060405180830381600087803b15801561148a57600080fd5b505af115801561149e573d6000803e3d6000fd5b50506040517f99fbab8800000000000000000000000000000000000000000000000000000000815260048101869052600092507f000000000000000000000000000000000000000000000000000000000000000073ffffffffffffffffffffffffffffffffffffffff1691506399fbab88906024016101806040518083038186803b15801561152c57600080fd5b505afa158015611540573d6000803e3d6000fd5b505050506040513d601f19601f820116820180604052508101906115649190612797565b505050509750505050505050507f000000000000000000000000000000000000000000000000000000000000000073ffffffffffffffffffffffffffffffffffffffff1663095ea7b38460a00160208101906115c091906124e7565b6040517fffffffff0000000000000000000000000000000000000000000000000000000060e084901b16815273ffffffffffffffffffffffffffffffffffffffff909116600482015260248101879052604401600060405180830381600087803b15801561162d57600080fd5b505af1158015611641573d6000803e3d6000fd5b505050506000806116867f000000000000000000000000000000000000000000000000000000000000000087858860a001602081019061168191906124e7565b611d69565b91509150857fd10e8bc0f59807ae667c207794ab3486400d0aaed567102d45e8d9f9a48c8a9683836040516116c5929190918252602082015260400190565b60405180910390a250506001805550505050565b60008373ffffffffffffffffffffffffffffffffffffffff16633850c7bd6040518163ffffffff1660e01b815260040160e06040518083038186803b15801561172157600080fd5b505afa158015611735573d6000803e3d6000fd5b505050506040513d601f19601f820116820180604052508101906117599190612633565b505050505091505081611774578260020b8160020b1361177e565b8260020b8160020b125b61180a576040517f08c379a000000000000000000000000000000000000000000000000000000000815260206004820152603960248201527f52616e67654f726465723a5f726571756972655468726573686f6c64496e526160448201527f6e67653a3a20656a656374207469636b20696e2072616e6765000000000000006064820152608401610331565b50505050565b60405173ffffffffffffffffffffffffffffffffffffffff8085166024830152831660448201526064810182905261180a9085907f23b872dd00000000000000000000000000000000000000000000000000000000906084015b604080517fffffffffffffffffffffffffffffffffffffffffffffffffffffffffffffffe08184030181529190526020810180517bffffffffffffffffffffffffffffffffffffffffffffffffffffffff167fffffffff0000000000000000000000000000000000000000000000000000000090931692909217909152611f65565b80158061199b57506040517fdd62ed3e00000000000000000000000000000000000000000000000000000000815230600482015273ffffffffffffffffffffffffffffffffffffffff838116602483015284169063dd62ed3e9060440160206040518083038186803b15801561196157600080fd5b505afa158015611975573d6000803e3d6000fd5b505050506040513d601f19601f8201168201806040525081019061199991906126e6565b155b611a27576040517f08c379a000000000000000000000000000000000000000000000000000000000815260206004820152603660248201527f5361666545524332303a20617070726f76652066726f6d206e6f6e2d7a65726f60448201527f20746f206e6f6e2d7a65726f20616c6c6f77616e6365000000000000000000006064820152608401610331565b60405173ffffffffffffffffffffffffffffffffffffffff8316602482015260448101829052611a7d9084907f095ea7b3000000000000000000000000000000000000000000000000000000009060640161186a565b505050565b60655460ff16611aee576040517f08c379a000000000000000000000000000000000000000000000000000000000815260206004820152601460248201527f5061757361626c653a206e6f74207061757365640000000000000000000000006044820152606401610331565b606580547fffffffffffffffffffffffffffffffffffffffffffffffffffffffffffffff001690557f5db9ee0a495bf2e6ff9c91a7834c1ba4fdd244a5e8aa4e537bd38aeae4b073aa335b60405173ffffffffffffffffffffffffffffffffffffffff909116815260200160405180910390a1565b600054610100900460ff16611bfa576040517f08c379a000000000000000000000000000000000000000000000000000000000815260206004820152602b60248201527f496e697469616c697a61626c653a20636f6e7472616374206973206e6f74206960448201527f6e697469616c697a696e670000000000000000000000000000000000000000006064820152608401610331565b610fa3612071565b600054610100900460ff16611c99576040517f08c379a000000000000000000000000000000000000000000000000000000000815260206004820152602b60248201527f496e697469616c697a61626c653a20636f6e7472616374206973206e6f74206960448201527f6e697469616c697a696e670000000000000000000000000000000000000000006064820152608401610331565b611ca161210e565b610fa36121a5565b60655460ff1615611d16576040517f08c379a000000000000000000000000000000000000000000000000000000000815260206004820152601060248201527f5061757361626c653a20706175736564000000000000000000000000000000006044820152606401610331565b606580547fffffffffffffffffffffffffffffffffffffffffffffffffffffffffffffff001660011790557f62e78cea01bee320cd4e420270b5ea74000d11b0c9f74754ebdbfc544b05a258611b393390565b6040805160a0810182528481526fffffffffffffffffffffffffffffffff84811660208301908152600083850181815260608501828152426080870190815296517f0c49ccbe00000000000000000000000000000000000000000000000000000000815295516004870152925190931660248501529151604484015251606483015291516084820152819073ffffffffffffffffffffffffffffffffffffffff871690630c49ccbe9060a4016040805180830381600087803b158015611e2e57600080fd5b505af1158015611e42573d6000803e3d6000fd5b505050506040513d601f19601f82011682018060405250810190611e669190612773565b50506040805160808101825286815273ffffffffffffffffffffffffffffffffffffffff858116602083019081526fffffffffffffffffffffffffffffffff8385018181526060850182815295517ffc6f786500000000000000000000000000000000000000000000000000000000815294516004860152915183166024850152905181166044840152925190921660648201529087169063fc6f7865906084016040805180830381600087803b158015611f2057600080fd5b505af1158015611f34573d6000803e3d6000fd5b505050506040513d601f19601f82011682018060405250810190611f589190612773565b9097909650945050505050565b6000611fc7826040518060400160405280602081526020017f5361666545524332303a206c6f772d6c6576656c2063616c6c206661696c65648152508573ffffffffffffffffffffffffffffffffffffffff166122669092919063ffffffff16565b805190915015611a7d5780806020019051810190611fe591906125c0565b611a7d576040517f08c379a000000000000000000000000000000000000000000000000000000000815260206004820152602a60248201527f5361666545524332303a204552433230206f7065726174696f6e20646964206e60448201527f6f742073756363656564000000000000000000000000000000000000000000006064820152608401610331565b600054610100900460ff16612108576040517f08c379a000000000000000000000000000000000000000000000000000000000815260206004820152602b60248201527f496e697469616c697a61626c653a20636f6e7472616374206973206e6f74206960448201527f6e697469616c697a696e670000000000000000000000000000000000000000006064820152608401610331565b60018055565b600054610100900460ff16610fa3576040517f08c379a000000000000000000000000000000000000000000000000000000000815260206004820152602b60248201527f496e697469616c697a61626c653a20636f6e7472616374206973206e6f74206960448201527f6e697469616c697a696e670000000000000000000000000000000000000000006064820152608401610331565b600054610100900460ff1661223c576040517f08c379a000000000000000000000000000000000000000000000000000000000815260206004820152602b60248201527f496e697469616c697a61626c653a20636f6e7472616374206973206e6f74206960448201527f6e697469616c697a696e670000000000000000000000000000000000000000006064820152608401610331565b606580547fffffffffffffffffffffffffffffffffffffffffffffffffffffffffffffff00169055565b6060612275848460008561227f565b90505b9392505050565b606082471015612311576040517f08c379a000000000000000000000000000000000000000000000000000000000815260206004820152602660248201527f416464726573733a20696e73756666696369656e742062616c616e636520666f60448201527f722063616c6c00000000000000000000000000000000000000000000000000006064820152608401610331565b843b612379576040517f08c379a000000000000000000000000000000000000000000000000000000000815260206004820152601d60248201527f416464726573733a2063616c6c20746f206e6f6e2d636f6e74726163740000006044820152606401610331565b6000808673ffffffffffffffffffffffffffffffffffffffff1685876040516123a29190612878565b60006040518083038185875af1925050503d80600081146123df576040519150601f19603f3d011682016040523d82523d6000602084013e6123e4565b606091505b50915091506123f48282866123ff565b979650505050505050565b6060831561240e575081612278565b82511561241e5782518084602001fd5b816040517f08c379a00000000000000000000000000000000000000000000000000000000081526004016103319190612894565b805161245d81612bf4565b919050565b805161245d81612c24565b600060e0828403121561247f57600080fd5b50919050565b80516fffffffffffffffffffffffffffffffff8116811461245d57600080fd5b805161ffff8116811461245d57600080fd5b805162ffffff8116811461245d57600080fd5b6000602082840312156124dc57600080fd5b815161227881612bf4565b6000602082840312156124f957600080fd5b813561227881612bf4565b60008060008060006080868803121561251c57600080fd5b853561252781612bf4565b9450602086013561253781612bf4565b935060408601359250606086013567ffffffffffffffff8082111561255b57600080fd5b818801915088601f83011261256f57600080fd5b81358181111561257e57600080fd5b89602082850101111561259057600080fd5b9699959850939650602001949392505050565b6000602082840312156125b557600080fd5b813561227881612c16565b6000602082840312156125d257600080fd5b815161227881612c16565b6000602082840312156125ef57600080fd5b813561227881612c24565b60006020828403121561260c57600080fd5b815161227881612c24565b600060e0828403121561262957600080fd5b612278838361246d565b600080600080600080600060e0888a03121561264e57600080fd5b875161265981612bf4565b602089015190975061266a81612c24565b9550612678604089016124a5565b9450612686606089016124a5565b9350612694608089016124a5565b925060a088015160ff811681146126aa57600080fd5b60c08901519092506126bb81612c16565b8091505092959891949750929550565b6000602082840312156126dd57600080fd5b612278826124b7565b6000602082840312156126f857600080fd5b5051919050565b6000806000610120848603121561271557600080fd5b83359250612726856020860161246d565b915061010084013590509250925092565b6000806000806080858703121561274d57600080fd5b8451935061275d60208601612485565b6040860151606090960151949790965092505050565b6000806040838503121561278657600080fd5b505080516020909101519092909150565b6000806000806000806000806000806000806101808d8f0312156127ba57600080fd5b8c516bffffffffffffffffffffffff811681146127d657600080fd5b9b506127e460208e01612452565b9a506127f260408e01612452565b995061280060608e01612452565b985061280e60808e016124b7565b975061281c60a08e01612462565b965061282a60c08e01612462565b955061283860e08e01612485565b94506101008d015193506101208d015192506128576101408e01612485565b91506128666101608e01612485565b90509295989b509295989b509295989b565b6000825161288a818460208701612b50565b9190910192915050565b60208152600082518060208401526128b3816040850160208701612b50565b601f017fffffffffffffffffffffffffffffffffffffffffffffffffffffffffffffffe0169190910160400192915050565b815173ffffffffffffffffffffffffffffffffffffffff1681526101608101602083015161292b602084018273ffffffffffffffffffffffffffffffffffffffff169052565b506040830151612942604084018262ffffff169052565b506060830151612957606084018260020b9052565b50608083015161296c608084018260020b9052565b5060a083015160a083015260c083015160c083015260e083015160e0830152610100808401518184015250610120808401516129bf8285018273ffffffffffffffffffffffffffffffffffffffff169052565b505061014092830151919092015290565b60006101008201905082518252602083015160020b6020830152604083015115156040830152606083015173ffffffffffffffffffffffffffffffffffffffff8082166060850152806080860151166080850152505060a0830151612a4d60a084018273ffffffffffffffffffffffffffffffffffffffff169052565b5060c083015160c083015260e0830151612a6b60e084018215159052565b5092915050565b60008160020b8360020b6000821282627fffff03821381151615612a9857612a98612bc5565b827fffffffffffffffffffffffffffffffffffffffffffffffffffffffffff800000038212811615612acc57612acc612bc5565b50019392505050565b60008160020b8360020b60008112817fffffffffffffffffffffffffffffffffffffffffffffffffffffffffff80000001831281151615612b1857612b18612bc5565b81627fffff018313811615612b2f57612b2f612bc5565b5090039392505050565b600082821015612b4b57612b4b612bc5565b500390565b60005b83811015612b6b578181015183820152602001612b53565b8381111561180a5750506000910152565b60008260020b80612bb6577f4e487b7100000000000000000000000000000000000000000000000000000000600052601260045260246000fd5b808360020b0791505092915050565b7f4e487b7100000000000000000000000000000000000000000000000000000000600052601160045260246000fd5b73ffffffffffffffffffffffffffffffffffffffff811681146110ce57600080fd5b80151581146110ce57600080fd5b8060020b81146110ce57600080fdfea264697066735822122016085e7897f1e444d79f3b4a98b0cb7cc98f86309080569d2357c524884145f664736f6c63430008070033",
  "devdoc": {
    "kind": "dev",
    "methods": {
      "paused()": {
        "details": "Returns true if the contract is paused, and false otherwise."
      }
    },
    "version": 1
  },
  "userdoc": {
    "kind": "user",
    "methods": {},
    "version": 1
  },
  "storageLayout": {
    "storage": [
      {
        "astId": 6,
        "contract": "contracts/RangeOrder.sol:RangeOrder",
        "label": "_initialized",
        "offset": 0,
        "slot": "0",
        "type": "t_bool"
      },
      {
        "astId": 9,
        "contract": "contracts/RangeOrder.sol:RangeOrder",
        "label": "_initializing",
        "offset": 1,
        "slot": "0",
        "type": "t_bool"
      },
      {
        "astId": 200,
        "contract": "contracts/RangeOrder.sol:RangeOrder",
        "label": "_status",
        "offset": 0,
        "slot": "1",
        "type": "t_uint256"
      },
      {
        "astId": 243,
        "contract": "contracts/RangeOrder.sol:RangeOrder",
        "label": "__gap",
        "offset": 0,
        "slot": "2",
        "type": "t_array(t_uint256)49_storage"
      },
      {
        "astId": 532,
        "contract": "contracts/RangeOrder.sol:RangeOrder",
        "label": "__gap",
        "offset": 0,
        "slot": "51",
        "type": "t_array(t_uint256)50_storage"
      },
      {
        "astId": 94,
        "contract": "contracts/RangeOrder.sol:RangeOrder",
        "label": "_paused",
        "offset": 0,
        "slot": "101",
        "type": "t_bool"
      },
      {
        "astId": 185,
        "contract": "contracts/RangeOrder.sol:RangeOrder",
        "label": "__gap",
        "offset": 0,
        "slot": "102",
        "type": "t_array(t_uint256)49_storage"
      }
    ],
    "types": {
      "t_array(t_uint256)49_storage": {
        "base": "t_uint256",
        "encoding": "inplace",
        "label": "uint256[49]",
        "numberOfBytes": "1568"
      },
      "t_array(t_uint256)50_storage": {
        "base": "t_uint256",
        "encoding": "inplace",
        "label": "uint256[50]",
        "numberOfBytes": "1600"
      },
      "t_bool": {
        "encoding": "inplace",
        "label": "bool",
        "numberOfBytes": "1"
      },
      "t_uint256": {
        "encoding": "inplace",
        "label": "uint256",
        "numberOfBytes": "32"
      }
    }
  }
}