{
  "address": "0x7c9AEE9a3a3A9107F05F341C1cC1cBe645FD816B",
  "abi": [
    {
      "inputs": [
        {
          "internalType": "contract INonfungiblePositionManager",
          "name": "nftPositions_",
          "type": "address"
        },
        {
          "internalType": "address",
          "name": "factory_",
          "type": "address"
        },
        {
          "internalType": "contract IPokeMe",
          "name": "pokeMe_",
          "type": "address"
        },
        {
          "internalType": "address",
          "name": "gelato_",
          "type": "address"
        }
      ],
      "stateMutability": "nonpayable",
      "type": "constructor"
    },
    {
      "anonymous": false,
      "inputs": [
        {
          "indexed": true,
          "internalType": "uint256",
          "name": "tokenId",
          "type": "uint256"
        }
      ],
      "name": "LogCancelEject",
      "type": "event"
    },
    {
      "anonymous": false,
      "inputs": [
        {
          "indexed": true,
          "internalType": "uint256",
          "name": "tokenId",
          "type": "uint256"
        },
        {
          "indexed": false,
          "internalType": "uint256",
          "name": "amount0Out",
          "type": "uint256"
        },
        {
          "indexed": false,
          "internalType": "uint256",
          "name": "amount1Out",
          "type": "uint256"
        },
        {
          "indexed": false,
          "internalType": "uint256",
          "name": "feeAmount",
          "type": "uint256"
        }
      ],
      "name": "LogEject",
      "type": "event"
    },
    {
      "anonymous": false,
      "inputs": [
        {
          "indexed": true,
          "internalType": "uint256",
          "name": "tokenId",
          "type": "uint256"
        },
        {
          "components": [
            {
              "internalType": "uint256",
              "name": "tokenId",
              "type": "uint256"
            },
            {
              "internalType": "int24",
              "name": "tickThreshold",
              "type": "int24"
            },
            {
              "internalType": "bool",
              "name": "ejectAbove",
              "type": "bool"
            },
            {
              "internalType": "bool",
              "name": "ejectDust",
              "type": "bool"
            },
            {
              "internalType": "uint256",
              "name": "amount0Min",
              "type": "uint256"
            },
            {
              "internalType": "uint256",
              "name": "amount1Min",
              "type": "uint256"
            },
            {
              "internalType": "address",
              "name": "receiver",
              "type": "address"
            },
            {
              "internalType": "address",
              "name": "feeToken",
              "type": "address"
            },
            {
              "internalType": "address",
              "name": "resolver",
              "type": "address"
            },
            {
              "internalType": "uint256",
              "name": "maxFeeAmount",
              "type": "uint256"
            }
          ],
          "indexed": false,
          "internalType": "struct OrderParams",
          "name": "orderParams",
          "type": "tuple"
        },
        {
          "indexed": false,
          "internalType": "address",
          "name": "sender",
          "type": "address"
        }
      ],
      "name": "LogSetEject",
      "type": "event"
    },
    {
      "inputs": [
        {
          "internalType": "uint256",
          "name": "tokenId_",
          "type": "uint256"
        },
        {
          "components": [
            {
              "internalType": "int24",
              "name": "tickThreshold",
              "type": "int24"
            },
            {
              "internalType": "bool",
              "name": "ejectAbove",
              "type": "bool"
            },
            {
              "internalType": "bool",
              "name": "ejectDust",
              "type": "bool"
            },
            {
              "internalType": "uint256",
              "name": "amount0Min",
              "type": "uint256"
            },
            {
              "internalType": "uint256",
              "name": "amount1Min",
              "type": "uint256"
            },
            {
              "internalType": "address",
              "name": "receiver",
              "type": "address"
            },
            {
              "internalType": "address",
              "name": "owner",
              "type": "address"
            },
            {
              "internalType": "uint256",
              "name": "maxFeeAmount",
              "type": "uint256"
            }
          ],
          "internalType": "struct Order",
          "name": "order_",
          "type": "tuple"
        },
        {
          "internalType": "address",
          "name": "feeToken_",
          "type": "address"
        }
      ],
      "name": "canEject",
      "outputs": [
        {
          "internalType": "address",
          "name": "",
          "type": "address"
        },
        {
          "internalType": "address",
          "name": "",
          "type": "address"
        },
        {
          "internalType": "uint128",
          "name": "",
          "type": "uint128"
        }
      ],
      "stateMutability": "view",
      "type": "function"
    },
    {
      "inputs": [
        {
          "internalType": "uint256",
          "name": "tokenId_",
          "type": "uint256"
        },
        {
          "components": [
            {
              "internalType": "int24",
              "name": "tickThreshold",
              "type": "int24"
            },
            {
              "internalType": "bool",
              "name": "ejectAbove",
              "type": "bool"
            },
            {
              "internalType": "bool",
              "name": "ejectDust",
              "type": "bool"
            },
            {
              "internalType": "uint256",
              "name": "amount0Min",
              "type": "uint256"
            },
            {
              "internalType": "uint256",
              "name": "amount1Min",
              "type": "uint256"
            },
            {
              "internalType": "address",
              "name": "receiver",
              "type": "address"
            },
            {
              "internalType": "address",
              "name": "owner",
              "type": "address"
            },
            {
              "internalType": "uint256",
              "name": "maxFeeAmount",
              "type": "uint256"
            }
          ],
          "internalType": "struct Order",
          "name": "order_",
          "type": "tuple"
        }
      ],
      "name": "cancel",
      "outputs": [],
      "stateMutability": "nonpayable",
      "type": "function"
    },
    {
      "inputs": [
        {
          "internalType": "uint256",
          "name": "tokenId_",
          "type": "uint256"
        },
        {
          "components": [
            {
              "internalType": "int24",
              "name": "tickThreshold",
              "type": "int24"
            },
            {
              "internalType": "bool",
              "name": "ejectAbove",
              "type": "bool"
            },
            {
              "internalType": "bool",
              "name": "ejectDust",
              "type": "bool"
            },
            {
              "internalType": "uint256",
              "name": "amount0Min",
              "type": "uint256"
            },
            {
              "internalType": "uint256",
              "name": "amount1Min",
              "type": "uint256"
            },
            {
              "internalType": "address",
              "name": "receiver",
              "type": "address"
            },
            {
              "internalType": "address",
              "name": "owner",
              "type": "address"
            },
            {
              "internalType": "uint256",
              "name": "maxFeeAmount",
              "type": "uint256"
            }
          ],
          "internalType": "struct Order",
          "name": "order_",
          "type": "tuple"
        }
      ],
      "name": "eject",
      "outputs": [],
      "stateMutability": "nonpayable",
      "type": "function"
    },
    {
      "inputs": [
        {
          "internalType": "uint256",
          "name": "",
          "type": "uint256"
        }
      ],
      "name": "hashById",
      "outputs": [
        {
          "internalType": "bytes32",
          "name": "",
          "type": "bytes32"
        }
      ],
      "stateMutability": "view",
      "type": "function"
    },
    {
      "inputs": [
        {
          "internalType": "address[]",
          "name": "tokens_",
          "type": "address[]"
        },
        {
          "internalType": "address",
          "name": "recipient_",
          "type": "address"
        }
      ],
      "name": "mulipleRetrieveDust",
      "outputs": [],
      "stateMutability": "nonpayable",
      "type": "function"
    },
    {
      "inputs": [],
      "name": "nftPositions",
      "outputs": [
        {
          "internalType": "contract INonfungiblePositionManager",
          "name": "",
          "type": "address"
        }
      ],
      "stateMutability": "view",
      "type": "function"
    },
    {
      "inputs": [],
      "name": "pokeMe",
      "outputs": [
        {
          "internalType": "contract IPokeMe",
          "name": "",
          "type": "address"
        }
      ],
      "stateMutability": "view",
      "type": "function"
    },
    {
      "inputs": [
        {
          "internalType": "address",
          "name": "token_",
          "type": "address"
        },
        {
          "internalType": "address",
          "name": "recipient_",
          "type": "address"
        }
      ],
      "name": "retrieveDust",
      "outputs": [],
      "stateMutability": "nonpayable",
      "type": "function"
    },
    {
      "inputs": [
        {
          "components": [
            {
              "internalType": "uint256",
              "name": "tokenId",
              "type": "uint256"
            },
            {
              "internalType": "int24",
              "name": "tickThreshold",
              "type": "int24"
            },
            {
              "internalType": "bool",
              "name": "ejectAbove",
              "type": "bool"
            },
            {
              "internalType": "bool",
              "name": "ejectDust",
              "type": "bool"
            },
            {
              "internalType": "uint256",
              "name": "amount0Min",
              "type": "uint256"
            },
            {
              "internalType": "uint256",
              "name": "amount1Min",
              "type": "uint256"
            },
            {
              "internalType": "address",
              "name": "receiver",
              "type": "address"
            },
            {
              "internalType": "address",
              "name": "feeToken",
              "type": "address"
            },
            {
              "internalType": "address",
              "name": "resolver",
              "type": "address"
            },
            {
              "internalType": "uint256",
              "name": "maxFeeAmount",
              "type": "uint256"
            }
          ],
          "internalType": "struct OrderParams",
          "name": "orderParams_",
          "type": "tuple"
        }
      ],
      "name": "schedule",
      "outputs": [],
      "stateMutability": "nonpayable",
      "type": "function"
    },
    {
      "inputs": [
        {
          "internalType": "uint256",
          "name": "",
          "type": "uint256"
        }
      ],
      "name": "taskById",
      "outputs": [
        {
          "internalType": "bytes32",
          "name": "",
          "type": "bytes32"
        }
      ],
      "stateMutability": "view",
      "type": "function"
    }
  ],
  "transactionHash": "0xf0bd840273d5860700ed5e2cf3695e0b0dcaf0bac5e2d625d9f1f479410f07b4",
  "args": [
    "0xC36442b4a4522E871399CD717aBDD847Ab11FE88",
    "0x1F98431c8aD98523631AE4a59f267346ea31F984",
    "0xB3f5503f93d5Ef84b06993a1975B9D21B962892F",
    "0x4775aF8FEf4809fE10bf05867d2b038a4b5B2146"
  ],
  "solcInputHash": "695ebef4035be99573b610aca38d4d13",
  "bytecode": "0x6101006040523480156200001257600080fd5b506040516200320a3803806200320a833981016040819052620000359162000065565b6001600160601b0319606094851b811660805292841b831660a05290831b821660c05290911b1660e052620000e6565b600080600080608085870312156200007c57600080fd5b84516200008981620000cd565b60208601519094506200009c81620000cd565b6040860151909350620000af81620000cd565b6060860151909250620000c281620000cd565b939692955090935050565b6001600160a01b0381168114620000e357600080fd5b50565b60805160601c60a05160601c60c05160601c60e05160601c613067620001a3600039600081816107cf01528181610d23015261152f0152600081816101a1015281816105f5015281816108c10152818161094d01528181610bdc0152611c6a015260006120b20152600081816102200152818161028a015281816103f601528181610db501528181610f2001528181611130015281816116c901528181611830015281816119e901528181611e6c0152611f9101526130676000f3fe608060405234801561001057600080fd5b50600436106100be5760003560e01c8063a088c85711610076578063d02157df1161005b578063d02157df146101e8578063d0e68188146101fb578063f301a28c1461021b57600080fd5b8063a088c85714610189578063c84eee0d1461019c57600080fd5b80631c241d8f116100a75780631c241d8f146100eb5780635c9528a71461011e578063898d2cfb1461013157600080fd5b806310146be1146100c35780631bbd8d56146100d8575b600080fd5b6100d66100d13660046127fd565b610242565b005b6100d66100e6366004612724565b6107b7565b61010b6100f9366004612943565b60006020819052908152604090205481565b6040519081526020015b60405180910390f35b6100d661012c366004612981565b6108a9565b61014461013f3660046129af565b610d96565b6040805173ffffffffffffffffffffffffffffffffffffffff94851681529390921660208401526fffffffffffffffffffffffffffffffff1690820152606001610115565b6100d66101973660046126eb565b611517565b6101c37f000000000000000000000000000000000000000000000000000000000000000081565b60405173ffffffffffffffffffffffffffffffffffffffff9091168152602001610115565b6100d66101f6366004612981565b611681565b61010b610209366004612943565b60016020526000908152604090205481565b6101c37f000000000000000000000000000000000000000000000000000000000000000081565b80516040517f081812fc00000000000000000000000000000000000000000000000000000000815260048101829052309073ffffffffffffffffffffffffffffffffffffffff7f0000000000000000000000000000000000000000000000000000000000000000169063081812fc9060240160206040518083038186803b1580156102cc57600080fd5b505afa1580156102e0573d6000803e3d6000fd5b505050506040513d601f19601f8201168201806040525081019061030491906126ce565b73ffffffffffffffffffffffffffffffffffffffff16146103ac576040517f08c379a000000000000000000000000000000000000000000000000000000000815260206004820152603160248201527f456a6563744c503a3a6973417070726f7665643a20456a6563744c502073686f60448201527f756c642062652061206f70657261746f7200000000000000000000000000000060648201526084015b60405180910390fd5b81516040517f6352211e000000000000000000000000000000000000000000000000000000008152600481018290523390819073ffffffffffffffffffffffffffffffffffffffff7f00000000000000000000000000000000000000000000000000000000000000001690636352211e9060240160206040518083038186803b15801561043857600080fd5b505afa15801561044c573d6000803e3d6000fd5b505050506040513d601f19601f8201168201806040525081019061047091906126ce565b73ffffffffffffffffffffffffffffffffffffffff16146104ed576040517f08c379a000000000000000000000000000000000000000000000000000000000815260206004820152601d60248201527f456a6563744c503a7363686564756c653a3a206f6e6c79206f776e657200000060448201526064016103a3565b6000604051806101000160405280866020015160020b8152602001866040015115158152602001866060015115158152602001866080015181526020018660a0015181526020018660c0015173ffffffffffffffffffffffffffffffffffffffff1681526020013373ffffffffffffffffffffffffffffffffffffffff16815260200186610120015181525090508060405160200161058c9190612cd6565b604080517fffffffffffffffffffffffffffffffffffffffffffffffffffffffffffffffe08184030181528282528051602091820120885160009081529182905291902055610100860151865160e088015173ffffffffffffffffffffffffffffffffffffffff7f0000000000000000000000000000000000000000000000000000000000000000169363b9f45adb9330937f5c9528a7000000000000000000000000000000000000000000000000000000009391927f8b1ea466000000000000000000000000000000000000000000000000000000009261067492918a9190602401612d57565b604080517fffffffffffffffffffffffffffffffffffffffffffffffffffffffffffffffe08184030181529181526020820180517bffffffffffffffffffffffffffffffffffffffffffffffffffffffff167fffffffff0000000000000000000000000000000000000000000000000000000094851617905260e0808e015191519088901b909316835261070d95949392600401612b52565b602060405180830381600087803b15801561072757600080fd5b505af115801561073b573d6000803e3d6000fd5b505050506040513d601f19601f8201168201806040525081019061075f91906127c7565b85516000908152600160205260409081902091909155855190517f5b48436e4635e447f6f7f970315ce225dff3d55a7ce2c991dc2700bd272239e9906107a89088903390612bda565b60405180910390a25050505050565b3373ffffffffffffffffffffffffffffffffffffffff7f00000000000000000000000000000000000000000000000000000000000000001614610856576040517f08c379a000000000000000000000000000000000000000000000000000000000815260206004820181905260248201527f456a6563744c503a3a6f6e6c79506f6b654d653a206f6e6c792067656c61746f60448201526064016103a3565b60005b828110156108a35761089184848381811061087657610876612fc0565b905060200201602081019061088b91906126b1565b83611517565b8061089b81612f58565b915050610859565b50505050565b3373ffffffffffffffffffffffffffffffffffffffff7f00000000000000000000000000000000000000000000000000000000000000001614610948576040517f08c379a000000000000000000000000000000000000000000000000000000000815260206004820181905260248201527f456a6563744c503a3a6f6e6c79506f6b654d653a206f6e6c7920706f6b654d6560448201526064016103a3565b6000807f000000000000000000000000000000000000000000000000000000000000000073ffffffffffffffffffffffffffffffffffffffff1663b810c6366040518163ffffffff1660e01b8152600401604080518083038186803b1580156109b057600080fd5b505afa1580156109c4573d6000803e3d6000fd5b505050506040513d601f19601f820116820180604052508101906109e8919061295c565b915091508260e001518210610a7f576040517f08c379a000000000000000000000000000000000000000000000000000000000815260206004820152602260248201527f456a6563744c503a3a656a6563743a20666565203e206d6178466565416d6f7560448201527f6e7400000000000000000000000000000000000000000000000000000000000060648201526084016103a3565b6000806000610a8f878786610d96565b925092509250600080610aa28984611ddf565b915091508473ffffffffffffffffffffffffffffffffffffffff168673ffffffffffffffffffffffffffffffffffffffff161415610aeb57610ae48783612f15565b9150610af8565b610af58782612f15565b90505b87606001518210158015610b10575087608001518110155b610b9c576040517f08c379a000000000000000000000000000000000000000000000000000000000815260206004820152602660248201527f456a6563744c503a3a656a6563743a2072656365697665642062656c6f77206d60448201527f696e696d756d000000000000000000000000000000000000000000000000000060648201526084016103a3565b600089815260016020526040908190205490517fee8ca3b500000000000000000000000000000000000000000000000000000000815260048101919091527f000000000000000000000000000000000000000000000000000000000000000073ffffffffffffffffffffffffffffffffffffffff169063ee8ca3b590602401600060405180830381600087803b158015610c3557600080fd5b505af1158015610c49573d6000803e3d6000fd5b50505060008a815260208181526040808320839055600182528220919091558901519050610c7a5760008211610c8b565b600082118015610c8b575087604001515b15610cb75760a0880151610cb79073ffffffffffffffffffffffffffffffffffffffff87169084612019565b8760200151610cd657600081118015610cd1575087604001515b610cdb565b600081115b15610d075760a0880151610d079073ffffffffffffffffffffffffffffffffffffffff86169083612019565b610d4873ffffffffffffffffffffffffffffffffffffffff87167f000000000000000000000000000000000000000000000000000000000000000089612019565b604080518381526020810183905290810188905289907f13fc153739ee39b14c92e544084b2394dddf73ff23fbf3b3d6699f1178b6d44f9060600160405180910390a2505050505050505050565b6000806000853073ffffffffffffffffffffffffffffffffffffffff167f000000000000000000000000000000000000000000000000000000000000000073ffffffffffffffffffffffffffffffffffffffff1663081812fc836040518263ffffffff1660e01b8152600401610e0e91815260200190565b60206040518083038186803b158015610e2657600080fd5b505afa158015610e3a573d6000803e3d6000fd5b505050506040513d601f19601f82011682018060405250810190610e5e91906126ce565b73ffffffffffffffffffffffffffffffffffffffff1614610f01576040517f08c379a000000000000000000000000000000000000000000000000000000000815260206004820152603160248201527f456a6563744c503a3a6973417070726f7665643a20456a6563744c502073686f60448201527f756c642062652061206f70657261746f7200000000000000000000000000000060648201526084016103a3565b868660c001518073ffffffffffffffffffffffffffffffffffffffff167f000000000000000000000000000000000000000000000000000000000000000073ffffffffffffffffffffffffffffffffffffffff16636352211e846040518263ffffffff1660e01b8152600401610f7991815260200190565b60206040518083038186803b158015610f9157600080fd5b505afa158015610fa5573d6000803e3d6000fd5b505050506040513d601f19601f82011682018060405250810190610fc991906126ce565b73ffffffffffffffffffffffffffffffffffffffff1614611046576040517f08c379a000000000000000000000000000000000000000000000000000000000815260206004820152601d60248201527f456a6563744c503a7363686564756c653a3a206f6e6c79206f776e657200000060448201526064016103a3565b876040516020016110579190612cd6565b604080517fffffffffffffffffffffffffffffffffffffffffffffffffffffffffffffffe0818403018152918152815160209283012060008c81529283905291205414611126576040517f08c379a000000000000000000000000000000000000000000000000000000000815260206004820152602660248201527f456a6563744c503a3a63616e456a6563743a20696e636f72726563742074617360448201527f6b2068617368000000000000000000000000000000000000000000000000000060648201526084016103a3565b60008060008060007f000000000000000000000000000000000000000000000000000000000000000073ffffffffffffffffffffffffffffffffffffffff166399fbab888f6040518263ffffffff1660e01b815260040161118991815260200190565b6101806040518083038186803b1580156111a257600080fd5b505afa1580156111b6573d6000803e3d6000fd5b505050506040513d601f19601f820116820180604052508101906111da9190612a0b565b50979e50959c50909a509297506111fe96508b95508a94508793506120ab92505050565b9150508373ffffffffffffffffffffffffffffffffffffffff168b73ffffffffffffffffffffffffffffffffffffffff16148061126657508273ffffffffffffffffffffffffffffffffffffffff168b73ffffffffffffffffffffffffffffffffffffffff16145b6112f2576040517f08c379a000000000000000000000000000000000000000000000000000000000815260206004820152602260248201527f456a6563744c503a3a63616e456a6563743a2077726f6e672066656520746f6b60448201527f656e00000000000000000000000000000000000000000000000000000000000060648201526084016103a3565b60008173ffffffffffffffffffffffffffffffffffffffff16633850c7bd6040518163ffffffff1660e01b815260040160e06040518083038186803b15801561133a57600080fd5b505afa15801561134e573d6000803e3d6000fd5b505050506040513d601f19601f8201168201806040525081019061137291906128ab565b505050505091505060008273ffffffffffffffffffffffffffffffffffffffff1663d0c93a7c6040518163ffffffff1660e01b815260040160206040518083038186803b1580156113c257600080fd5b505afa1580156113d6573d6000803e3d6000fd5b505050506040513d601f19601f820116820180604052508101906113fa91906127e0565b90508d6020015115611486578d51611413908290612e4e565b60020b8260020b13611481576040517f08c379a000000000000000000000000000000000000000000000000000000000815260206004820181905260248201527f456a6563744c503a3a63616e456a6563743a207072696365206e6f74206d657460448201526064016103a3565b611501565b8d51611493908290612eb1565b60020b8260020b12611501576040517f08c379a000000000000000000000000000000000000000000000000000000000815260206004820181905260248201527f456a6563744c503a3a63616e456a6563743a207072696365206e6f74206d657460448201526064016103a3565b50939d929c50909a509098505050505050505050565b3373ffffffffffffffffffffffffffffffffffffffff7f000000000000000000000000000000000000000000000000000000000000000016146115b6576040517f08c379a000000000000000000000000000000000000000000000000000000000815260206004820181905260248201527f456a6563744c503a3a6f6e6c79506f6b654d653a206f6e6c792067656c61746f60448201526064016103a3565b6040517f70a08231000000000000000000000000000000000000000000000000000000008152306004820152829060009073ffffffffffffffffffffffffffffffffffffffff8316906370a082319060240160206040518083038186803b15801561162057600080fd5b505afa158015611634573d6000803e3d6000fd5b505050506040513d601f19601f8201168201806040525081019061165891906127c7565b905080156108a3576108a373ffffffffffffffffffffffffffffffffffffffff83168483612019565b6040517f081812fc000000000000000000000000000000000000000000000000000000008152600481018390528290309073ffffffffffffffffffffffffffffffffffffffff7f0000000000000000000000000000000000000000000000000000000000000000169063081812fc9060240160206040518083038186803b15801561170b57600080fd5b505afa15801561171f573d6000803e3d6000fd5b505050506040513d601f19601f8201168201806040525081019061174391906126ce565b73ffffffffffffffffffffffffffffffffffffffff16146117e6576040517f08c379a000000000000000000000000000000000000000000000000000000000815260206004820152603160248201527f456a6563744c503a3a6973417070726f7665643a20456a6563744c502073686f60448201527f756c642062652061206f70657261746f7200000000000000000000000000000060648201526084016103a3565b6040517f6352211e0000000000000000000000000000000000000000000000000000000081526004810184905283903390819073ffffffffffffffffffffffffffffffffffffffff7f00000000000000000000000000000000000000000000000000000000000000001690636352211e9060240160206040518083038186803b15801561187257600080fd5b505afa158015611886573d6000803e3d6000fd5b505050506040513d601f19601f820116820180604052508101906118aa91906126ce565b73ffffffffffffffffffffffffffffffffffffffff1614611927576040517f08c379a000000000000000000000000000000000000000000000000000000000815260206004820152601d60248201527f456a6563744c503a7363686564756c653a3a206f6e6c79206f776e657200000060448201526064016103a3565b836040516020016119389190612cd6565b604080517fffffffffffffffffffffffffffffffffffffffffffffffffffffffffffffffe08184030181529181528151602092830120600088815292839052912054146119e1576040517f08c379a000000000000000000000000000000000000000000000000000000000815260206004820152601d60248201527f456a6563744c503a3a63616e63656c3a20696e76616c6964206861736800000060448201526064016103a3565b6000806000807f000000000000000000000000000000000000000000000000000000000000000073ffffffffffffffffffffffffffffffffffffffff166399fbab888a6040518263ffffffff1660e01b8152600401611a4291815260200190565b6101806040518083038186803b158015611a5b57600080fd5b505afa158015611a6f573d6000803e3d6000fd5b505050506040513d601f19601f82011682018060405250810190611a939190612a0b565b505050509750505095509550955050506000611ab08585856120ab565b73ffffffffffffffffffffffffffffffffffffffff16633850c7bd6040518163ffffffff1660e01b815260040160e06040518083038186803b158015611af557600080fd5b505afa158015611b09573d6000803e3d6000fd5b505050506040513d601f19601f82011682018060405250810190611b2d91906128ab565b5050505050915050886020015115611bb757886000015160020b8160020b12611bb2576040517f08c379a000000000000000000000000000000000000000000000000000000000815260206004820152601a60248201527f456a6563744c503a3a63616e63656c3a207072696365206d657400000000000060448201526064016103a3565b611c2a565b886000015160020b8160020b13611c2a576040517f08c379a000000000000000000000000000000000000000000000000000000000815260206004820152601a60248201527f456a6563744c503a3a63616e63656c3a207072696365206d657400000000000060448201526064016103a3565b60008a815260016020526040908190205490517fee8ca3b500000000000000000000000000000000000000000000000000000000815260048101919091527f000000000000000000000000000000000000000000000000000000000000000073ffffffffffffffffffffffffffffffffffffffff169063ee8ca3b590602401600060405180830381600087803b158015611cc357600080fd5b505af1158015611cd7573d6000803e3d6000fd5b50505060008b81526020818152604080832083905560019091528120819055905080611d038c85611ddf565b915091508a60200151611d2657600082118015611d2157508a604001515b611d2b565b600082115b15611d575760a08b0151611d579073ffffffffffffffffffffffffffffffffffffffff89169084612019565b8a60200151611d695760008111611d7a565b600081118015611d7a57508a604001515b15611da65760a08b0151611da69073ffffffffffffffffffffffffffffffffffffffff88169083612019565b6040518c907fde78c725503e228892c8783c476c35c4ef4c7b91923ada97d8125ec9e894cbec90600090a2505050505050505050505050565b6040805160a0810182528381526fffffffffffffffffffffffffffffffff83811660208301908152600083850181815260608501828152426080870190815296517f0c49ccbe0000000000000000000000000000000000000000000000000000000081529551600487015292519093166024850152915160448401525160648301529151608482015281907f000000000000000000000000000000000000000000000000000000000000000073ffffffffffffffffffffffffffffffffffffffff1690630c49ccbe9060a4016040805180830381600087803b158015611ec457600080fd5b505af1158015611ed8573d6000803e3d6000fd5b505050506040513d601f19601f82011682018060405250810190611efc91906129e7565b50506040805160808101825285815230602082019081526fffffffffffffffffffffffffffffffff8284018181526060840182815294517ffc6f786500000000000000000000000000000000000000000000000000000000815293516004850152915173ffffffffffffffffffffffffffffffffffffffff9081166024850152915181166044840152925190921660648201527f00000000000000000000000000000000000000000000000000000000000000009091169063fc6f7865906084016040805180830381600087803b158015611fd657600080fd5b505af1158015611fea573d6000803e3d6000fd5b505050506040513d601f19601f8201168201806040525081019061200e91906129e7565b909590945092505050565b6040805173ffffffffffffffffffffffffffffffffffffffff8416602482015260448082018490528251808303909101815260649091019091526020810180517bffffffffffffffffffffffffffffffffffffffffffffffffffffffff167fa9059cbb000000000000000000000000000000000000000000000000000000001790526120a69084906121a0565b505050565b60006121967f000000000000000000000000000000000000000000000000000000000000000060405180606001604052808673ffffffffffffffffffffffffffffffffffffffff168873ffffffffffffffffffffffffffffffffffffffff16106121155786612117565b875b73ffffffffffffffffffffffffffffffffffffffff1681526020018673ffffffffffffffffffffffffffffffffffffffff168873ffffffffffffffffffffffffffffffffffffffff161061216b578761216d565b865b73ffffffffffffffffffffffffffffffffffffffff1681526020018562ffffff168152506122ac565b90505b9392505050565b6000612202826040518060400160405280602081526020017f5361666545524332303a206c6f772d6c6576656c2063616c6c206661696c65648152508573ffffffffffffffffffffffffffffffffffffffff166124059092919063ffffffff16565b8051909150156120a6578080602001905181019061222091906127aa565b6120a6576040517f08c379a000000000000000000000000000000000000000000000000000000000815260206004820152602a60248201527f5361666545524332303a204552433230206f7065726174696f6e20646964206e60448201527f6f7420737563636565640000000000000000000000000000000000000000000060648201526084016103a3565b6000816020015173ffffffffffffffffffffffffffffffffffffffff16826000015173ffffffffffffffffffffffffffffffffffffffff16106122ee57600080fd5b8151602080840151604080860151815173ffffffffffffffffffffffffffffffffffffffff95861681860152949092168482015262ffffff90911660608085019190915281518085038201815260808501909252815191909201207fff0000000000000000000000000000000000000000000000000000000000000060a08401529085901b7fffffffffffffffffffffffffffffffffffffffff0000000000000000000000001660a183015260b58201527fe34f199b19b2b4f47f68442619d555527d244f78a3297ea89325f843f87b8b5460d582015260f501604080517fffffffffffffffffffffffffffffffffffffffffffffffffffffffffffffffe081840301815291905280516020909101209392505050565b6060612196848460008585843b612478576040517f08c379a000000000000000000000000000000000000000000000000000000000815260206004820152601d60248201527f416464726573733a2063616c6c20746f206e6f6e2d636f6e747261637400000060448201526064016103a3565b6000808673ffffffffffffffffffffffffffffffffffffffff1685876040516124a19190612b36565b60006040518083038185875af1925050503d80600081146124de576040519150601f19603f3d011682016040523d82523d6000602084013e6124e3565b606091505b50915091506124f38282866124fe565b979650505050505050565b6060831561250d575081612199565b82511561251d5782518084602001fd5b816040517f08c379a00000000000000000000000000000000000000000000000000000000081526004016103a39190612bc7565b803561255c81612fef565b919050565b805161255c81612fef565b803561255c81613014565b803561255c81613022565b805161255c81613022565b60006101008083850312156125a157600080fd5b6040519081019067ffffffffffffffff821181831017156125eb577f4e487b7100000000000000000000000000000000000000000000000000000000600052604160045260246000fd5b81604052809250833591506125ff82613022565b81815261260e6020850161256c565b602082015261261f6040850161256c565b6040820152606084013560608201526080840135608082015261264460a08501612551565b60a082015261265560c08501612551565b60c082015260e084013560e0820152505092915050565b80516fffffffffffffffffffffffffffffffff8116811461255c57600080fd5b805161ffff8116811461255c57600080fd5b805162ffffff8116811461255c57600080fd5b6000602082840312156126c357600080fd5b813561219981612fef565b6000602082840312156126e057600080fd5b815161219981612fef565b600080604083850312156126fe57600080fd5b823561270981612fef565b9150602083013561271981612fef565b809150509250929050565b60008060006040848603121561273957600080fd5b833567ffffffffffffffff8082111561275157600080fd5b818601915086601f83011261276557600080fd5b81358181111561277457600080fd5b8760208260051b850101111561278957600080fd5b6020928301955093505084013561279f81612fef565b809150509250925092565b6000602082840312156127bc57600080fd5b815161219981613014565b6000602082840312156127d957600080fd5b5051919050565b6000602082840312156127f257600080fd5b815161219981613022565b6000610140828403121561281057600080fd5b612818612dfd565b8235815261282860208401612577565b60208201526128396040840161256c565b604082015261284a6060840161256c565b60608201526080830135608082015260a083013560a082015261286f60c08401612551565b60c082015261288060e08401612551565b60e0820152610100612893818501612551565b90820152610120928301359281019290925250919050565b600080600080600080600060e0888a0312156128c657600080fd5b87516128d181612fef565b60208901519097506128e281613022565b95506128f06040890161268c565b94506128fe6060890161268c565b935061290c6080890161268c565b925060a088015160ff8116811461292257600080fd5b60c089015190925061293381613014565b8091505092959891949750929550565b60006020828403121561295557600080fd5b5035919050565b6000806040838503121561296f57600080fd5b82519150602083015161271981612fef565b600080610120838503121561299557600080fd5b823591506129a6846020850161258d565b90509250929050565b600080600061014084860312156129c557600080fd5b833592506129d6856020860161258d565b915061012084013561279f81612fef565b600080604083850312156129fa57600080fd5b505080516020909101519092909150565b6000806000806000806000806000806000806101808d8f031215612a2e57600080fd5b8c516bffffffffffffffffffffffff81168114612a4a57600080fd5b9b50612a5860208e01612561565b9a50612a6660408e01612561565b9950612a7460608e01612561565b9850612a8260808e0161269e565b9750612a9060a08e01612582565b9650612a9e60c08e01612582565b9550612aac60e08e0161266c565b94506101008d015193506101208d01519250612acb6101408e0161266c565b9150612ada6101608e0161266c565b90509295989b509295989b509295989b565b60008151808452612b04816020860160208601612f2c565b601f017fffffffffffffffffffffffffffffffffffffffffffffffffffffffffffffffe0169290920160200192915050565b60008251612b48818460208701612f2c565b9190910192915050565b600073ffffffffffffffffffffffffffffffffffffffff80881683527fffffffff0000000000000000000000000000000000000000000000000000000087166020840152808616604084015260a06060840152612bb260a0840186612aec565b91508084166080840152509695505050505050565b6020815260006121996020830184612aec565b82518152602080840151610160830191612bf89084018260020b9052565b506040840151612c0c604084018215159052565b506060840151612c20606084018215159052565b506080840151608083015260a084015160a083015260c0840151612c5c60c084018273ffffffffffffffffffffffffffffffffffffffff169052565b5060e0840151612c8460e084018273ffffffffffffffffffffffffffffffffffffffff169052565b506101008481015173ffffffffffffffffffffffffffffffffffffffff8116848301525050610120848101519083015273ffffffffffffffffffffffffffffffffffffffff8316610140830152612199565b6101008101612d518284805160020b8252602081015115156020830152604081015115156040830152606081015160608301526080810151608083015260a081015173ffffffffffffffffffffffffffffffffffffffff80821660a08501528060c08401511660c0850152505060e081015160e08301525050565b92915050565b8381526101408101612dd86020830185805160020b8252602081015115156020830152604081015115156040830152606081015160608301526080810151608083015260a081015173ffffffffffffffffffffffffffffffffffffffff80821660a08501528060c08401511660c0850152505060e081015160e08301525050565b73ffffffffffffffffffffffffffffffffffffffff8316610120830152949350505050565b604051610140810167ffffffffffffffff81118282101715612e48577f4e487b7100000000000000000000000000000000000000000000000000000000600052604160045260246000fd5b60405290565b60008160020b8360020b6000821282627fffff03821381151615612e7457612e74612f91565b827fffffffffffffffffffffffffffffffffffffffffffffffffffffffffff800000038212811615612ea857612ea8612f91565b50019392505050565b60008160020b8360020b60008112817fffffffffffffffffffffffffffffffffffffffffffffffffffffffffff80000001831281151615612ef457612ef4612f91565b81627fffff018313811615612f0b57612f0b612f91565b5090039392505050565b600082821015612f2757612f27612f91565b500390565b60005b83811015612f47578181015183820152602001612f2f565b838111156108a35750506000910152565b60007fffffffffffffffffffffffffffffffffffffffffffffffffffffffffffffffff821415612f8a57612f8a612f91565b5060010190565b7f4e487b7100000000000000000000000000000000000000000000000000000000600052601160045260246000fd5b7f4e487b7100000000000000000000000000000000000000000000000000000000600052603260045260246000fd5b73ffffffffffffffffffffffffffffffffffffffff8116811461301157600080fd5b50565b801515811461301157600080fd5b8060020b811461301157600080fdfea264697066735822122058698b01e2dc858e571a832d3442e40440e3069901b306f19927b3b7aec9c91f64736f6c63430008070033",
  "devdoc": {
    "kind": "dev",
    "methods": {},
    "version": 1
  },
  "userdoc": {
    "kind": "user",
    "methods": {},
    "version": 1
  },
  "storageLayout": {
    "storage": [
      {
        "astId": 1975,
        "contract": "contracts/EjectLP.sol:EjectLP",
        "label": "hashById",
        "offset": 0,
        "slot": "0",
        "type": "t_mapping(t_uint256,t_bytes32)"
      },
      {
        "astId": 1979,
        "contract": "contracts/EjectLP.sol:EjectLP",
        "label": "taskById",
        "offset": 0,
        "slot": "1",
        "type": "t_mapping(t_uint256,t_bytes32)"
      }
    ],
    "types": {
      "t_bytes32": {
        "encoding": "inplace",
        "label": "bytes32",
        "numberOfBytes": "32"
      },
      "t_mapping(t_uint256,t_bytes32)": {
        "encoding": "mapping",
        "key": "t_uint256",
        "label": "mapping(uint256 => bytes32)",
        "numberOfBytes": "32",
        "value": "t_bytes32"
      },
      "t_uint256": {
        "encoding": "inplace",
        "label": "uint256",
        "numberOfBytes": "32"
      }
    }
  }
}