{
  "address": "0x11F94423BB98108a756e1c1a9E909e388A6112C4",
  "abi": [
    {
      "inputs": [
        {
          "internalType": "contract IEjectLP",
          "name": "eject_",
          "type": "address"
        },
        {
          "internalType": "contract IWETH9",
          "name": "WETH9_",
          "type": "address"
        },
        {
          "internalType": "address",
          "name": "rangeOrderResolver_",
          "type": "address"
        }
      ],
      "stateMutability": "nonpayable",
      "type": "constructor"
    },
    {
      "anonymous": false,
      "inputs": [
        {
          "indexed": true,
          "internalType": "uint256",
          "name": "tokenId",
          "type": "uint256"
        },
        {
          "indexed": false,
          "internalType": "address",
          "name": "pool",
          "type": "address"
        },
        {
          "indexed": false,
          "internalType": "uint256",
          "name": "amountIn",
          "type": "uint256"
        }
      ],
      "name": "LogSetRangeOrder",
      "type": "event"
    },
    {
      "inputs": [],
      "name": "WETH9",
      "outputs": [
        {
          "internalType": "contract IWETH9",
          "name": "",
          "type": "address"
        }
      ],
      "stateMutability": "view",
      "type": "function"
    },
    {
      "inputs": [
        {
          "internalType": "uint256",
          "name": "tokenId_",
          "type": "uint256"
        },
        {
          "components": [
            {
              "internalType": "contract IUniswapV3Pool",
              "name": "pool",
              "type": "address"
            },
            {
              "internalType": "bool",
              "name": "zeroForOne",
              "type": "bool"
            },
            {
              "internalType": "bool",
              "name": "ejectDust",
              "type": "bool"
            },
            {
              "internalType": "int24",
              "name": "tickThreshold",
              "type": "int24"
            },
            {
              "internalType": "uint256",
              "name": "amountIn",
              "type": "uint256"
            },
            {
              "internalType": "uint256",
              "name": "minAmountOut",
              "type": "uint256"
            },
            {
              "internalType": "address",
              "name": "receiver",
              "type": "address"
            },
            {
              "internalType": "uint256",
              "name": "maxFeeAmount",
              "type": "uint256"
            }
          ],
          "internalType": "struct RangeOrderParams",
          "name": "params_",
          "type": "tuple"
        }
      ],
      "name": "cancelRangeOrder",
      "outputs": [],
      "stateMutability": "nonpayable",
      "type": "function"
    },
    {
      "inputs": [],
      "name": "eject",
      "outputs": [
        {
          "internalType": "contract IEjectLP",
          "name": "",
          "type": "address"
        }
      ],
      "stateMutability": "view",
      "type": "function"
    },
    {
      "inputs": [
        {
          "internalType": "address",
          "name": "",
          "type": "address"
        },
        {
          "internalType": "address",
          "name": "",
          "type": "address"
        },
        {
          "internalType": "uint256",
          "name": "",
          "type": "uint256"
        },
        {
          "internalType": "bytes",
          "name": "",
          "type": "bytes"
        }
      ],
      "name": "onERC721Received",
      "outputs": [
        {
          "internalType": "bytes4",
          "name": "",
          "type": "bytes4"
        }
      ],
      "stateMutability": "pure",
      "type": "function"
    },
    {
      "inputs": [],
      "name": "rangeOrderResolver",
      "outputs": [
        {
          "internalType": "address",
          "name": "",
          "type": "address"
        }
      ],
      "stateMutability": "view",
      "type": "function"
    },
    {
      "inputs": [
        {
          "components": [
            {
              "internalType": "contract IUniswapV3Pool",
              "name": "pool",
              "type": "address"
            },
            {
              "internalType": "bool",
              "name": "zeroForOne",
              "type": "bool"
            },
            {
              "internalType": "bool",
              "name": "ejectDust",
              "type": "bool"
            },
            {
              "internalType": "int24",
              "name": "tickThreshold",
              "type": "int24"
            },
            {
              "internalType": "uint256",
              "name": "amountIn",
              "type": "uint256"
            },
            {
              "internalType": "uint256",
              "name": "minAmountOut",
              "type": "uint256"
            },
            {
              "internalType": "address",
              "name": "receiver",
              "type": "address"
            },
            {
              "internalType": "uint256",
              "name": "maxFeeAmount",
              "type": "uint256"
            }
          ],
          "internalType": "struct RangeOrderParams",
          "name": "params_",
          "type": "tuple"
        }
      ],
      "name": "setRangeOrder",
      "outputs": [],
      "stateMutability": "payable",
      "type": "function"
    }
  ],
  "transactionHash": "0x90b20938a17c1fc9bf54c1797180233152e485c41ac432d961e5dfa6b1644813",
  "args": [
    "0x7c9AEE9a3a3A9107F05F341C1cC1cBe645FD816B",
    "0x82aF49447D8a07e3bd95BD0d56f35241523fBab1",
    "0x1fFA51854d7360aeEf84Ae850EBBfBD920F439BD"
  ],
  "solcInputHash": "695ebef4035be99573b610aca38d4d13",
  "bytecode": "0x60e06040523480156200001157600080fd5b50604051620020493803806200204983398101604081905262000034916200005c565b6001600160601b0319606093841b811660805291831b821660a05290911b1660c052620000c9565b6000806000606084860312156200007257600080fd5b83516200007f81620000b0565b60208501519093506200009281620000b0565b6040850151909250620000a581620000b0565b809150509250925092565b6001600160a01b0381168114620000c657600080fd5b50565b60805160601c60a05160601c60c05160601c611f176200013260003960008181607c0152610c58015260008181610165015281816106c501526107c60152600081816101990152818161056c01528181610a8901528181610afb0152610f3c0152611f176000f3fe6080604052600436106100655760003560e01c80634aa4a4fc116100435780634aa4a4fc1461015357806382e94ac51461018757806392fe45da146101bb57600080fd5b806311208ca21461006a578063150b7a02146100c85780631f4853361461013e575b600080fd5b34801561007657600080fd5b5061009e7f000000000000000000000000000000000000000000000000000000000000000081565b60405173ffffffffffffffffffffffffffffffffffffffff90911681526020015b60405180910390f35b3480156100d457600080fd5b5061010d6100e33660046117d9565b7f150b7a020000000000000000000000000000000000000000000000000000000095945050505050565b6040517fffffffff0000000000000000000000000000000000000000000000000000000090911681526020016100bf565b61015161014c3660046118ec565b6101db565b005b34801561015f57600080fd5b5061009e7f000000000000000000000000000000000000000000000000000000000000000081565b34801561019357600080fd5b5061009e7f000000000000000000000000000000000000000000000000000000000000000081565b3480156101c757600080fd5b506101516101d63660046119df565b610d58565b60008080808080806101f0602089018961179f565b73ffffffffffffffffffffffffffffffffffffffff1663d0c93a7c6040518163ffffffff1660e01b815260040160206040518083038186803b15801561023557600080fd5b505afa158015610249573d6000803e3d6000fd5b505050506040513d601f19601f8201168201806040525081019061026d91906118cf565b90508061028060808a0160608b016118b2565b61028a9190611e27565b60020b1561031f576040517f08c379a000000000000000000000000000000000000000000000000000000000815260206004820152603f60248201527f52616e67654f726465723a73657452616e67654f726465723a3a20746872657360448201527f686f6c64206d75737420626520696e697469616c697a61626c65207469636b0060648201526084015b60405180910390fd5b61032f6040890160208a01611878565b610353578061034460808a0160608b016118b2565b61034e9190611d97565b610363565b6103636080890160608a016118b2565b92506103756040890160208a01611878565b61038e576103896080890160608a016118b2565b6103a9565b8061039f60808a0160608b016118b2565b6103a99190611d34565b91506103c490506103bd602089018961179f565b83836110d2565b6103d1602088018861179f565b73ffffffffffffffffffffffffffffffffffffffff16630dfe16816040518163ffffffff1660e01b815260040160206040518083038186803b15801561041657600080fd5b505afa15801561042a573d6000803e3d6000fd5b505050506040513d601f19601f8201168201806040525081019061044e91906117bc565b945061045d602088018861179f565b73ffffffffffffffffffffffffffffffffffffffff1663d21220a76040518163ffffffff1660e01b815260040160206040518083038186803b1580156104a257600080fd5b505afa1580156104b6573d6000803e3d6000fd5b505050506040513d601f19601f820116820180604052508101906104da91906117bc565b93506104e9602088018861179f565b73ffffffffffffffffffffffffffffffffffffffff1663ddca3f436040518163ffffffff1660e01b815260040160206040518083038186803b15801561052e57600080fd5b505afa158015610542573d6000803e3d6000fd5b505050506040513d601f19601f8201168201806040525081019061056691906119a1565b925060007f000000000000000000000000000000000000000000000000000000000000000073ffffffffffffffffffffffffffffffffffffffff1663f301a28c6040518163ffffffff1660e01b815260040160206040518083038186803b1580156105d057600080fd5b505afa1580156105e4573d6000803e3d6000fd5b505050506040513d601f19601f8201168201806040525081019061060891906117bc565b9050600061061c60408a0160208b01611878565b6106265785610628565b865b9050341561084a57886080013534146106c3576040517f08c379a000000000000000000000000000000000000000000000000000000000815260206004820152602d60248201527f52616e67654f726465723a73657452616e67654f726465723a3a20496e76616c60448201527f696420616d6f756e7420696e2e000000000000000000000000000000000000006064820152608401610316565b7f000000000000000000000000000000000000000000000000000000000000000073ffffffffffffffffffffffffffffffffffffffff168173ffffffffffffffffffffffffffffffffffffffff16146107c4576040517f08c379a000000000000000000000000000000000000000000000000000000000815260206004820152604160248201527f52616e67654f726465723a73657452616e67654f726465723a3a20455448207260448201527f616e6765206f726465722073686f756c6420757365205745544820746f6b656e60648201527f2e00000000000000000000000000000000000000000000000000000000000000608482015260a401610316565b7f000000000000000000000000000000000000000000000000000000000000000073ffffffffffffffffffffffffffffffffffffffff1663d0e30db0346040518263ffffffff1660e01b81526004016000604051808303818588803b15801561082c57600080fd5b505af1158015610840573d6000803e3d6000fd5b5050505050610870565b61087073ffffffffffffffffffffffffffffffffffffffff8216333060808d0135611205565b61089573ffffffffffffffffffffffffffffffffffffffff82168360808c01356112e1565b508073ffffffffffffffffffffffffffffffffffffffff1663883164566040518061016001604052808973ffffffffffffffffffffffffffffffffffffffff1681526020018873ffffffffffffffffffffffffffffffffffffffff1681526020018762ffffff1681526020018660020b81526020018560020b81526020018b60200160208101906109269190611878565b610931576000610937565b8b608001355b81526020018b602001602081019061094f9190611878565b61095d578b60800135610960565b60005b81526020018b60200160208101906109789190611878565b610983576000610989565b8b608001355b81526020018b60200160208101906109a19190611878565b6109af578b608001356109b2565b60005b815230602082015242604091820152517fffffffff0000000000000000000000000000000000000000000000000000000060e084901b1681526109f89190600401611acd565b608060405180830381600087803b158015610a1257600080fd5b505af1158015610a26573d6000803e3d6000fd5b505050506040513d601f19601f82011682018060405250810190610a4a9190611a0d565b50506040517f095ea7b300000000000000000000000000000000000000000000000000000000815273ffffffffffffffffffffffffffffffffffffffff7f000000000000000000000000000000000000000000000000000000000000000081166004830152602482018490529299509183169163095ea7b39150604401600060405180830381600087803b158015610ae157600080fd5b505af1158015610af5573d6000803e3d6000fd5b505050507f000000000000000000000000000000000000000000000000000000000000000073ffffffffffffffffffffffffffffffffffffffff166310146be16040518061014001604052808a81526020018b6020016020810190610b5a9190611878565b610b645785610b66565b865b60020b81526020018b6020016020810190610b819190611878565b15158152602001610b9860608d0160408e01611878565b151581526020018b6020016020810190610bb29190611878565b610bc0578b60a00135610bc3565b60005b81526020018b6020016020810190610bdb9190611878565b610be6576000610bec565b8b60a001355b8152602001610c0160e08d0160c08e0161179f565b73ffffffffffffffffffffffffffffffffffffffff1681526020018b6020016020810190610c2f9190611878565b610c395789610c3b565b885b73ffffffffffffffffffffffffffffffffffffffff1681526020017f000000000000000000000000000000000000000000000000000000000000000073ffffffffffffffffffffffffffffffffffffffff1681526020018b60e001358152506040518263ffffffff1660e01b8152600401610cb69190611bb8565b600060405180830381600087803b158015610cd057600080fd5b505af1158015610ce4573d6000803e3d6000fd5b50505050505050837f8a00d01c0c9ab40631f8604aeeefb7487453cef2e7baaf5f135eb0c04bf15585866000016020810190610d20919061179f565b6040805173ffffffffffffffffffffffffffffffffffffffff9092168252608089013560208301520160405180910390a25050505050565b33610d6960e0830160c0840161179f565b73ffffffffffffffffffffffffffffffffffffffff1614610e0c576040517f08c379a000000000000000000000000000000000000000000000000000000000815260206004820152602c60248201527f52616e67654f726465723a3a63616e63656c52616e67654f726465723a206f6e60448201527f6c792072656365697665722e00000000000000000000000000000000000000006064820152608401610316565b6000610e1b602083018361179f565b73ffffffffffffffffffffffffffffffffffffffff1663d0c93a7c6040518163ffffffff1660e01b815260040160206040518083038186803b158015610e6057600080fd5b505afa158015610e74573d6000803e3d6000fd5b505050506040513d601f19601f82011682018060405250810190610e9891906118cf565b90506000610eac6040840160208501611878565b610ed05781610ec160808501606086016118b2565b610ecb9190611d97565b610ee0565b610ee060808401606085016118b2565b90506000610ef46040850160208601611878565b610f0d57610f0860808501606086016118b2565b610f28565b82610f1e60808601606087016118b2565b610f289190611d34565b9050610f3a6103bd602086018661179f565b7f000000000000000000000000000000000000000000000000000000000000000073ffffffffffffffffffffffffffffffffffffffff1663d02157df86604051806101000160405280886020016020810190610f969190611878565b610fa05785610fa2565b865b60020b8152602001886020016020810190610fbd9190611878565b15158152602001610fd460608a0160408b01611878565b15158152602001886020016020810190610fee9190611878565b610ffc578860a00135610fff565b60005b81526020018860200160208101906110179190611878565b611022576000611028565b8860a001355b815260200161103d60e08a0160c08b0161179f565b73ffffffffffffffffffffffffffffffffffffffff1681526020013073ffffffffffffffffffffffffffffffffffffffff1681526020018860e001358152506040518363ffffffff1660e01b8152600401611099929190611c96565b600060405180830381600087803b1580156110b357600080fd5b505af11580156110c7573d6000803e3d6000fd5b505050505050505050565b60008373ffffffffffffffffffffffffffffffffffffffff16633850c7bd6040518163ffffffff1660e01b815260040160e06040518083038186803b15801561111a57600080fd5b505afa15801561112e573d6000803e3d6000fd5b505050506040513d601f19601f820116820180604052508101906111529190611909565b50505050509150508260020b8160020b128061117357508160020b8160020b135b6111ff576040517f08c379a000000000000000000000000000000000000000000000000000000000815260206004820152603960248201527f52616e67654f726465723a5f726571756972655468726573686f6c64496e526160448201527f6e67653a3a20656a656374207469636b20696e2072616e6765000000000000006064820152608401610316565b50505050565b60405173ffffffffffffffffffffffffffffffffffffffff808516602483015283166044820152606481018290526111ff9085907f23b872dd00000000000000000000000000000000000000000000000000000000906084015b604080517fffffffffffffffffffffffffffffffffffffffffffffffffffffffffffffffe08184030181529190526020810180517bffffffffffffffffffffffffffffffffffffffffffffffffffffffff167fffffffff0000000000000000000000000000000000000000000000000000000090931692909217909152611477565b80158061139057506040517fdd62ed3e00000000000000000000000000000000000000000000000000000000815230600482015273ffffffffffffffffffffffffffffffffffffffff838116602483015284169063dd62ed3e9060440160206040518083038186803b15801561135657600080fd5b505afa15801561136a573d6000803e3d6000fd5b505050506040513d601f19601f8201168201806040525081019061138e91906119c6565b155b61141c576040517f08c379a000000000000000000000000000000000000000000000000000000000815260206004820152603660248201527f5361666545524332303a20617070726f76652066726f6d206e6f6e2d7a65726f60448201527f20746f206e6f6e2d7a65726f20616c6c6f77616e6365000000000000000000006064820152608401610316565b60405173ffffffffffffffffffffffffffffffffffffffff83166024820152604481018290526114729084907f095ea7b3000000000000000000000000000000000000000000000000000000009060640161125f565b505050565b60006114d9826040518060400160405280602081526020017f5361666545524332303a206c6f772d6c6576656c2063616c6c206661696c65648152508573ffffffffffffffffffffffffffffffffffffffff166115839092919063ffffffff16565b80519091501561147257808060200190518101906114f79190611895565b611472576040517f08c379a000000000000000000000000000000000000000000000000000000000815260206004820152602a60248201527f5361666545524332303a204552433230206f7065726174696f6e20646964206e60448201527f6f742073756363656564000000000000000000000000000000000000000000006064820152608401610316565b6060611592848460008561159c565b90505b9392505050565b60608247101561162e576040517f08c379a000000000000000000000000000000000000000000000000000000000815260206004820152602660248201527f416464726573733a20696e73756666696369656e742062616c616e636520666f60448201527f722063616c6c00000000000000000000000000000000000000000000000000006064820152608401610316565b843b611696576040517f08c379a000000000000000000000000000000000000000000000000000000000815260206004820152601d60248201527f416464726573733a2063616c6c20746f206e6f6e2d636f6e74726163740000006044820152606401610316565b6000808673ffffffffffffffffffffffffffffffffffffffff1685876040516116bf9190611a60565b60006040518083038185875af1925050503d80600081146116fc576040519150601f19603f3d011682016040523d82523d6000602084013e611701565b606091505b509150915061171182828661171c565b979650505050505050565b6060831561172b575081611595565b82511561173b5782518084602001fd5b816040517f08c379a00000000000000000000000000000000000000000000000000000000081526004016103169190611a7c565b6000610100828403121561178257600080fd5b50919050565b805161ffff8116811461179a57600080fd5b919050565b6000602082840312156117b157600080fd5b813561159581611e9f565b6000602082840312156117ce57600080fd5b815161159581611e9f565b6000806000806000608086880312156117f157600080fd5b85356117fc81611e9f565b9450602086013561180c81611e9f565b935060408601359250606086013567ffffffffffffffff8082111561183057600080fd5b818801915088601f83011261184457600080fd5b81358181111561185357600080fd5b89602082850101111561186557600080fd5b9699959850939650602001949392505050565b60006020828403121561188a57600080fd5b813561159581611ec4565b6000602082840312156118a757600080fd5b815161159581611ec4565b6000602082840312156118c457600080fd5b813561159581611ed2565b6000602082840312156118e157600080fd5b815161159581611ed2565b600061010082840312156118ff57600080fd5b611595838361176f565b600080600080600080600060e0888a03121561192457600080fd5b875161192f81611e9f565b602089015190975061194081611ed2565b955061194e60408901611788565b945061195c60608901611788565b935061196a60808901611788565b925060a088015160ff8116811461198057600080fd5b60c089015190925061199181611ec4565b8091505092959891949750929550565b6000602082840312156119b357600080fd5b815162ffffff8116811461159557600080fd5b6000602082840312156119d857600080fd5b5051919050565b60008061012083850312156119f357600080fd5b82359150611a04846020850161176f565b90509250929050565b60008060008060808587031215611a2357600080fd5b8451935060208501516fffffffffffffffffffffffffffffffff81168114611a4a57600080fd5b6040860151606090960151949790965092505050565b60008251611a72818460208701611dfb565b9190910192915050565b6020815260008251806020840152611a9b816040850160208701611dfb565b601f017fffffffffffffffffffffffffffffffffffffffffffffffffffffffffffffffe0169190910160400192915050565b815173ffffffffffffffffffffffffffffffffffffffff16815261016081016020830151611b13602084018273ffffffffffffffffffffffffffffffffffffffff169052565b506040830151611b2a604084018262ffffff169052565b506060830151611b3f606084018260020b9052565b506080830151611b54608084018260020b9052565b5060a083015160a083015260c083015160c083015260e083015160e083015261010080840151818401525061012080840151611ba78285018273ffffffffffffffffffffffffffffffffffffffff169052565b505061014092830151919092015290565b81518152602080830151610140830191611bd69084018260020b9052565b506040830151611bea604084018215159052565b506060830151611bfe606084018215159052565b506080830151608083015260a083015160a083015260c0830151611c3a60c084018273ffffffffffffffffffffffffffffffffffffffff169052565b5060e0830151611c6260e084018273ffffffffffffffffffffffffffffffffffffffff169052565b506101008381015173ffffffffffffffffffffffffffffffffffffffff811684830152505061012092830151919092015290565b600061012082019050838252825160020b602083015260208301511515604083015260408301511515606083015260608301516080830152608083015160a083015260a0830151611cff60c084018273ffffffffffffffffffffffffffffffffffffffff169052565b5060c083015173ffffffffffffffffffffffffffffffffffffffff811660e08401525060e08301516101008301529392505050565b60008160020b8360020b6000821282627fffff03821381151615611d5a57611d5a611e70565b827fffffffffffffffffffffffffffffffffffffffffffffffffffffffffff800000038212811615611d8e57611d8e611e70565b50019392505050565b60008160020b8360020b60008112817fffffffffffffffffffffffffffffffffffffffffffffffffffffffffff80000001831281151615611dda57611dda611e70565b81627fffff018313811615611df157611df1611e70565b5090039392505050565b60005b83811015611e16578181015183820152602001611dfe565b838111156111ff5750506000910152565b60008260020b80611e61577f4e487b7100000000000000000000000000000000000000000000000000000000600052601260045260246000fd5b808360020b0791505092915050565b7f4e487b7100000000000000000000000000000000000000000000000000000000600052601160045260246000fd5b73ffffffffffffffffffffffffffffffffffffffff81168114611ec157600080fd5b50565b8015158114611ec157600080fd5b8060020b8114611ec157600080fdfea2646970667358221220d4f35c67801bba2a67b54bdb9077550967614768fa2ecbe5121a63bb393d2e0e64736f6c63430008070033",
  "devdoc": {
    "kind": "dev",
    "methods": {},
    "version": 1
  },
  "userdoc": {
    "kind": "user",
    "methods": {},
    "version": 1
  },
  "storageLayout": {
    "storage": [],
    "types": null
  }
}