{
  "address": "0x78d92322b951f5A56f2F6a76921C34DA14Ddc806",
  "abi": [
    {
      "inputs": [
        {
          "internalType": "contract INonfungiblePositionManager",
          "name": "nftPositions_",
          "type": "address"
        },
        {
          "internalType": "contract IPokeMe",
          "name": "pokeMe_",
          "type": "address"
        },
        {
          "internalType": "address",
          "name": "factory_",
          "type": "address"
        },
        {
          "internalType": "address",
          "name": "gelato_",
          "type": "address"
        }
      ],
      "stateMutability": "nonpayable",
      "type": "constructor"
    },
    {
      "anonymous": false,
      "inputs": [
        {
          "indexed": true,
          "internalType": "uint256",
          "name": "tokenId",
          "type": "uint256"
        }
      ],
      "name": "LogCancelEject",
      "type": "event"
    },
    {
      "anonymous": false,
      "inputs": [
        {
          "indexed": true,
          "internalType": "uint256",
          "name": "tokenId",
          "type": "uint256"
        },
        {
          "indexed": false,
          "internalType": "uint256",
          "name": "amount0Out",
          "type": "uint256"
        },
        {
          "indexed": false,
          "internalType": "uint256",
          "name": "amount1Out",
          "type": "uint256"
        },
        {
          "indexed": false,
          "internalType": "uint256",
          "name": "feeAmount",
          "type": "uint256"
        },
        {
          "indexed": false,
          "internalType": "address",
          "name": "receiver",
          "type": "address"
        }
      ],
      "name": "LogEject",
      "type": "event"
    },
    {
      "anonymous": false,
      "inputs": [
        {
          "indexed": true,
          "internalType": "uint256",
          "name": "tokenId",
          "type": "uint256"
        },
        {
          "components": [
            {
              "internalType": "uint256",
              "name": "tokenId",
              "type": "uint256"
            },
            {
              "internalType": "int24",
              "name": "tickThreshold",
              "type": "int24"
            },
            {
              "internalType": "bool",
              "name": "ejectAbove",
              "type": "bool"
            },
            {
              "internalType": "address",
              "name": "receiver",
              "type": "address"
            },
            {
              "internalType": "address",
              "name": "feeToken",
              "type": "address"
            },
            {
              "internalType": "address",
              "name": "resolver",
              "type": "address"
            },
            {
              "internalType": "uint256",
              "name": "maxFeeAmount",
              "type": "uint256"
            }
          ],
          "indexed": false,
          "internalType": "struct OrderParams",
          "name": "orderParams",
          "type": "tuple"
        },
        {
          "indexed": false,
          "internalType": "uint256",
          "name": "startTime",
          "type": "uint256"
        },
        {
          "indexed": false,
          "internalType": "address",
          "name": "sender",
          "type": "address"
        }
      ],
      "name": "LogSetEject",
      "type": "event"
    },
    {
      "anonymous": false,
      "inputs": [
        {
          "indexed": true,
          "internalType": "uint256",
          "name": "tokenId",
          "type": "uint256"
        },
        {
          "indexed": false,
          "internalType": "uint256",
          "name": "amount0Out",
          "type": "uint256"
        },
        {
          "indexed": false,
          "internalType": "uint256",
          "name": "amount1Out",
          "type": "uint256"
        },
        {
          "indexed": false,
          "internalType": "uint256",
          "name": "feeAmount",
          "type": "uint256"
        },
        {
          "indexed": false,
          "internalType": "address",
          "name": "receiver",
          "type": "address"
        }
      ],
      "name": "LogSettle",
      "type": "event"
    },
    {
      "anonymous": false,
      "inputs": [
        {
          "indexed": false,
          "internalType": "address",
          "name": "account",
          "type": "address"
        }
      ],
      "name": "Paused",
      "type": "event"
    },
    {
      "anonymous": false,
      "inputs": [
        {
          "indexed": false,
          "internalType": "address",
          "name": "account",
          "type": "address"
        }
      ],
      "name": "Unpaused",
      "type": "event"
    },
    {
      "inputs": [
        {
          "internalType": "uint256",
          "name": "tokenId_",
          "type": "uint256"
        },
        {
          "components": [
            {
              "internalType": "int24",
              "name": "tickThreshold",
              "type": "int24"
            },
            {
              "internalType": "bool",
              "name": "ejectAbove",
              "type": "bool"
            },
            {
              "internalType": "address",
              "name": "receiver",
              "type": "address"
            },
            {
              "internalType": "address",
              "name": "owner",
              "type": "address"
            },
            {
              "internalType": "uint256",
              "name": "maxFeeAmount",
              "type": "uint256"
            },
            {
              "internalType": "uint256",
              "name": "startTime",
              "type": "uint256"
            }
          ],
          "internalType": "struct Order",
          "name": "order_",
          "type": "tuple"
        },
        {
          "internalType": "address",
          "name": "feeToken_",
          "type": "address"
        }
      ],
      "name": "canEject",
      "outputs": [
        {
          "internalType": "uint128",
          "name": "",
          "type": "uint128"
        }
      ],
      "stateMutability": "view",
      "type": "function"
    },
    {
      "inputs": [
        {
          "internalType": "uint256",
          "name": "tokenId_",
          "type": "uint256"
        },
        {
          "components": [
            {
              "internalType": "int24",
              "name": "tickThreshold",
              "type": "int24"
            },
            {
              "internalType": "bool",
              "name": "ejectAbove",
              "type": "bool"
            },
            {
              "internalType": "address",
              "name": "receiver",
              "type": "address"
            },
            {
              "internalType": "address",
              "name": "owner",
              "type": "address"
            },
            {
              "internalType": "uint256",
              "name": "maxFeeAmount",
              "type": "uint256"
            },
            {
              "internalType": "uint256",
              "name": "startTime",
              "type": "uint256"
            }
          ],
          "internalType": "struct Order",
          "name": "order_",
          "type": "tuple"
        }
      ],
      "name": "cancel",
      "outputs": [],
      "stateMutability": "nonpayable",
      "type": "function"
    },
    {
      "inputs": [],
      "name": "duration",
      "outputs": [
        {
          "internalType": "uint256",
          "name": "",
          "type": "uint256"
        }
      ],
      "stateMutability": "view",
      "type": "function"
    },
    {
      "inputs": [
        {
          "internalType": "uint256",
          "name": "tokenId_",
          "type": "uint256"
        },
        {
          "components": [
            {
              "internalType": "int24",
              "name": "tickThreshold",
              "type": "int24"
            },
            {
              "internalType": "bool",
              "name": "ejectAbove",
              "type": "bool"
            },
            {
              "internalType": "address",
              "name": "receiver",
              "type": "address"
            },
            {
              "internalType": "address",
              "name": "owner",
              "type": "address"
            },
            {
              "internalType": "uint256",
              "name": "maxFeeAmount",
              "type": "uint256"
            },
            {
              "internalType": "uint256",
              "name": "startTime",
              "type": "uint256"
            }
          ],
          "internalType": "struct Order",
          "name": "order_",
          "type": "tuple"
        },
        {
          "internalType": "bool",
          "name": "isEjection_",
          "type": "bool"
        }
      ],
      "name": "ejectOrSettle",
      "outputs": [],
      "stateMutability": "nonpayable",
      "type": "function"
    },
    {
      "inputs": [],
      "name": "factory",
      "outputs": [
        {
          "internalType": "address",
          "name": "",
          "type": "address"
        }
      ],
      "stateMutability": "view",
      "type": "function"
    },
    {
      "inputs": [
        {
          "internalType": "uint256",
          "name": "",
          "type": "uint256"
        }
      ],
      "name": "hashById",
      "outputs": [
        {
          "internalType": "bytes32",
          "name": "",
          "type": "bytes32"
        }
      ],
      "stateMutability": "view",
      "type": "function"
    },
    {
      "inputs": [],
      "name": "initialize",
      "outputs": [],
      "stateMutability": "nonpayable",
      "type": "function"
    },
    {
      "inputs": [
        {
          "internalType": "uint256",
          "name": "tokenId_",
          "type": "uint256"
        },
        {
          "components": [
            {
              "internalType": "int24",
              "name": "tickThreshold",
              "type": "int24"
            },
            {
              "internalType": "bool",
              "name": "ejectAbove",
              "type": "bool"
            },
            {
              "internalType": "address",
              "name": "receiver",
              "type": "address"
            },
            {
              "internalType": "address",
              "name": "owner",
              "type": "address"
            },
            {
              "internalType": "uint256",
              "name": "maxFeeAmount",
              "type": "uint256"
            },
            {
              "internalType": "uint256",
              "name": "startTime",
              "type": "uint256"
            }
          ],
          "internalType": "struct Order",
          "name": "order_",
          "type": "tuple"
        },
        {
          "internalType": "address",
          "name": "feeToken_",
          "type": "address"
        },
        {
          "internalType": "contract IUniswapV3Pool",
          "name": "pool_",
          "type": "address"
        }
      ],
      "name": "isEjectable",
      "outputs": [
        {
          "internalType": "bool",
          "name": "",
          "type": "bool"
        },
        {
          "internalType": "string",
          "name": "",
          "type": "string"
        }
      ],
      "stateMutability": "view",
      "type": "function"
    },
    {
      "inputs": [
        {
          "internalType": "uint256",
          "name": "tokenId_",
          "type": "uint256"
        },
        {
          "components": [
            {
              "internalType": "int24",
              "name": "tickThreshold",
              "type": "int24"
            },
            {
              "internalType": "bool",
              "name": "ejectAbove",
              "type": "bool"
            },
            {
              "internalType": "address",
              "name": "receiver",
              "type": "address"
            },
            {
              "internalType": "address",
              "name": "owner",
              "type": "address"
            },
            {
              "internalType": "uint256",
              "name": "maxFeeAmount",
              "type": "uint256"
            },
            {
              "internalType": "uint256",
              "name": "startTime",
              "type": "uint256"
            }
          ],
          "internalType": "struct Order",
          "name": "order_",
          "type": "tuple"
        },
        {
          "internalType": "address",
          "name": "feeToken_",
          "type": "address"
        }
      ],
      "name": "isExpired",
      "outputs": [
        {
          "internalType": "bool",
          "name": "",
          "type": "bool"
        },
        {
          "internalType": "string",
          "name": "",
          "type": "string"
        }
      ],
      "stateMutability": "view",
      "type": "function"
    },
    {
      "inputs": [],
      "name": "minimumFee",
      "outputs": [
        {
          "internalType": "uint256",
          "name": "",
          "type": "uint256"
        }
      ],
      "stateMutability": "view",
      "type": "function"
    },
    {
      "inputs": [
        {
          "internalType": "address[]",
          "name": "tokens_",
          "type": "address[]"
        },
        {
          "internalType": "address",
          "name": "recipient_",
          "type": "address"
        }
      ],
      "name": "mulipleRetrieveDust",
      "outputs": [],
      "stateMutability": "nonpayable",
      "type": "function"
    },
    {
      "inputs": [],
      "name": "nftPositions",
      "outputs": [
        {
          "internalType": "contract INonfungiblePositionManager",
          "name": "",
          "type": "address"
        }
      ],
      "stateMutability": "view",
      "type": "function"
    },
    {
      "inputs": [],
      "name": "pause",
      "outputs": [],
      "stateMutability": "nonpayable",
      "type": "function"
    },
    {
      "inputs": [],
      "name": "paused",
      "outputs": [
        {
          "internalType": "bool",
          "name": "",
          "type": "bool"
        }
      ],
      "stateMutability": "view",
      "type": "function"
    },
    {
      "inputs": [],
      "name": "pokeMe",
      "outputs": [
        {
          "internalType": "contract IPokeMe",
          "name": "",
          "type": "address"
        }
      ],
      "stateMutability": "view",
      "type": "function"
    },
    {
      "inputs": [
        {
          "internalType": "address",
          "name": "token_",
          "type": "address"
        },
        {
          "internalType": "address",
          "name": "recipient_",
          "type": "address"
        }
      ],
      "name": "retrieveDust",
      "outputs": [],
      "stateMutability": "nonpayable",
      "type": "function"
    },
    {
      "inputs": [
        {
          "components": [
            {
              "internalType": "uint256",
              "name": "tokenId",
              "type": "uint256"
            },
            {
              "internalType": "int24",
              "name": "tickThreshold",
              "type": "int24"
            },
            {
              "internalType": "bool",
              "name": "ejectAbove",
              "type": "bool"
            },
            {
              "internalType": "address",
              "name": "receiver",
              "type": "address"
            },
            {
              "internalType": "address",
              "name": "feeToken",
              "type": "address"
            },
            {
              "internalType": "address",
              "name": "resolver",
              "type": "address"
            },
            {
              "internalType": "uint256",
              "name": "maxFeeAmount",
              "type": "uint256"
            }
          ],
          "internalType": "struct OrderParams",
          "name": "orderParams_",
          "type": "tuple"
        }
      ],
      "name": "schedule",
      "outputs": [],
      "stateMutability": "payable",
      "type": "function"
    },
    {
      "inputs": [
        {
          "internalType": "uint256",
          "name": "duration_",
          "type": "uint256"
        }
      ],
      "name": "setDuration",
      "outputs": [],
      "stateMutability": "nonpayable",
      "type": "function"
    },
    {
      "inputs": [
        {
          "internalType": "uint256",
          "name": "minimumFee_",
          "type": "uint256"
        }
      ],
      "name": "setMinimumFee",
      "outputs": [],
      "stateMutability": "nonpayable",
      "type": "function"
    },
    {
      "inputs": [
        {
          "internalType": "uint256",
          "name": "",
          "type": "uint256"
        }
      ],
      "name": "taskById",
      "outputs": [
        {
          "internalType": "bytes32",
          "name": "",
          "type": "bytes32"
        }
      ],
      "stateMutability": "view",
      "type": "function"
    },
    {
      "inputs": [],
      "name": "unpause",
      "outputs": [],
      "stateMutability": "nonpayable",
      "type": "function"
    }
  ],
  "transactionHash": "0xeeabbb57d91f6f3af90f074efcc4d3791c80d8a925cff1296a01f841d3fed367",
  "args": [
    "0xC36442b4a4522E871399CD717aBDD847Ab11FE88",
    "0xc1C6805B857Bef1f412519C4A842522431aFed39",
    "0x1F98431c8aD98523631AE4a59f267346ea31F984",
    "0x683913B3A32ada4F8100458A3E1675425BdAa7DF"
  ],
  "solcInputHash": "fa7ac6cd5a24fd22b5c8c641501c999a",
  "bytecode": "0x6101006040523480156200001257600080fd5b5060405162004cef38038062004cef833981016040819052620000359162000064565b6001600160601b0319606094851b811660805291841b821660c05291831b811660a052911b1660e052620000e5565b600080600080608085870312156200007b57600080fd5b84516200008881620000cc565b60208601519094506200009b81620000cc565b6040860151909350620000ae81620000cc565b6060860151909250620000c181620000cc565b939692955090935050565b6001600160a01b0381168114620000e257600080fd5b50565b60805160601c60a05160601c60c05160601c60e05160601c614b2a620001c56000396000613b2401526000818161037301528181610a8d01526110280152600081816103cc01528181611209015281816125a701528181612921015281816130490152818161320f0152613a9201526000818161042d015281816107630152818161089f015281816109cf01528181610c4801528181610daf01528181610f680152818161131e0152818161146f015281816118ce01528181611a1f01528181612154015281816122bb0152818161332d0152613a220152614b2a6000f3fe60806040526004361061016a5760003560e01c806371cefbd0116100cb578063c45a01551161007f578063f301a28c11610059578063f301a28c1461041b578063f6be71d11461044f578063f7d4c1831461046f57600080fd5b8063c45a015514610361578063c84eee0d146103ba578063d0e68188146103ee57600080fd5b80638456cb59116100b05780638456cb5914610319578063a088c8571461032e578063c0b6ea491461034e57600080fd5b806371cefbd0146102e45780638129fc1c1461030457600080fd5b80633f4ba83a116101225780635d045516116101075780635d045516146102555780635eb28e3c1461029657806360e20426146102b657600080fd5b80633f4ba83a1461021d5780635c975abb1461023257600080fd5b80631a7626e7116101535780631a7626e7146101ba5780631bbd8d56146101d05780631c241d8f146101f057600080fd5b80630fb5a6b41461016f578063182a750614610198575b600080fd5b34801561017b57600080fd5b5061018560995481565b6040519081526020015b60405180910390f35b3480156101a457600080fd5b506101b86101b336600461434b565b61048f565b005b3480156101c657600080fd5b50610185609a5481565b3480156101dc57600080fd5b506101b86101eb366004614106565b61054f565b3480156101fc57600080fd5b5061018561020b36600461434b565b60976020526000908152604090205481565b34801561022957600080fd5b506101b8610658565b34801561023e57600080fd5b5060655460ff16604051901515815260200161018f565b34801561026157600080fd5b506102756102703660046143b6565b610718565b6040516fffffffffffffffffffffffffffffffff909116815260200161018f565b3480156102a257600080fd5b506101b86102b1366004614389565b610b21565b3480156102c257600080fd5b506102d66102d13660046143ed565b6112e5565b60405161018f929190614658565b3480156102f057600080fd5b506102d66102ff3660046143b6565b611895565b34801561031057600080fd5b506101b8611cb9565b34801561032557600080fd5b506101b8611dee565b34801561033a57600080fd5b506101b86103493660046140cd565b611eac565b6101b861035c3660046141df565b61202d565b34801561036d57600080fd5b506103957f000000000000000000000000000000000000000000000000000000000000000081565b60405173ffffffffffffffffffffffffffffffffffffffff909116815260200161018f565b3480156103c657600080fd5b506103957f000000000000000000000000000000000000000000000000000000000000000081565b3480156103fa57600080fd5b5061018561040936600461434b565b60986020526000908152604090205481565b34801561042757600080fd5b506103957f000000000000000000000000000000000000000000000000000000000000000081565b34801561045b57600080fd5b506101b861046a36600461434b565b61276f565b34801561047b57600080fd5b506101b861048a366004614441565b61282a565b7fb53127684a568b3173ae13b9f8a6016e243e63b6e8ee1178d6a717850b5d61035473ffffffffffffffffffffffffffffffffffffffff163373ffffffffffffffffffffffffffffffffffffffff161461054a576040517f08c379a000000000000000000000000000000000000000000000000000000000815260206004820152600e60248201527f4e4f545f415554484f52495a454400000000000000000000000000000000000060448201526064015b60405180910390fd5b609a55565b7fb53127684a568b3173ae13b9f8a6016e243e63b6e8ee1178d6a717850b5d61035473ffffffffffffffffffffffffffffffffffffffff163373ffffffffffffffffffffffffffffffffffffffff1614610605576040517f08c379a000000000000000000000000000000000000000000000000000000000815260206004820152600e60248201527f4e4f545f415554484f52495a45440000000000000000000000000000000000006044820152606401610541565b60005b82811015610652576106408484838181106106255761062561499e565b905060200201602081019061063a9190614093565b83611eac565b8061064a81614936565b915050610608565b50505050565b7fb53127684a568b3173ae13b9f8a6016e243e63b6e8ee1178d6a717850b5d61035473ffffffffffffffffffffffffffffffffffffffff163373ffffffffffffffffffffffffffffffffffffffff161461070e576040517f08c379a000000000000000000000000000000000000000000000000000000000815260206004820152600e60248201527f4e4f545f415554484f52495a45440000000000000000000000000000000000006044820152606401610541565b6107166129d0565b565b6040517f081812fc000000000000000000000000000000000000000000000000000000008152600481018490526000908490309073ffffffffffffffffffffffffffffffffffffffff7f0000000000000000000000000000000000000000000000000000000000000000169063081812fc9060240160206040518083038186803b1580156107a557600080fd5b505afa1580156107b9573d6000803e3d6000fd5b505050506040513d601f19601f820116820180604052508101906107dd91906140b0565b73ffffffffffffffffffffffffffffffffffffffff1614610880576040517f08c379a000000000000000000000000000000000000000000000000000000000815260206004820152603160248201527f456a6563744c503a3a6973417070726f7665643a20456a6563744c502073686f60448201527f756c642062652061206f70657261746f720000000000000000000000000000006064820152608401610541565b8484606001518073ffffffffffffffffffffffffffffffffffffffff167f000000000000000000000000000000000000000000000000000000000000000073ffffffffffffffffffffffffffffffffffffffff16636352211e846040518263ffffffff1660e01b81526004016108f891815260200190565b60206040518083038186803b15801561091057600080fd5b505afa158015610924573d6000803e3d6000fd5b505050506040513d601f19601f8201168201806040525081019061094891906140b0565b73ffffffffffffffffffffffffffffffffffffffff16146109c5576040517f08c379a000000000000000000000000000000000000000000000000000000000815260206004820152601d60248201527f456a6563744c503a7363686564756c653a3a206f6e6c79206f776e65720000006044820152606401610541565b60008060008060007f000000000000000000000000000000000000000000000000000000000000000073ffffffffffffffffffffffffffffffffffffffff166399fbab888d6040518263ffffffff1660e01b8152600401610a2891815260200190565b6101806040518083038186803b158015610a4157600080fd5b505afa158015610a55573d6000803e3d6000fd5b505050506040513d601f19601f82011682018060405250810190610a79919061449c565b50929e50969b50949950929750610abf96507f00000000000000000000000000000000000000000000000000000000000000009550899450889350879250612ab1915050565b9350505050600080610ad38b8b8b866112e5565b91509150818190610b11576040517f08c379a00000000000000000000000000000000000000000000000000000000081526004016105419190614673565b50929a9950505050505050505050565b60655460ff1615610b8e576040517f08c379a000000000000000000000000000000000000000000000000000000000815260206004820152601060248201527f5061757361626c653a20706175736564000000000000000000000000000000006044820152606401610541565b60026001541415610bfb576040517f08c379a000000000000000000000000000000000000000000000000000000000815260206004820152601f60248201527f5265656e7472616e637947756172643a207265656e7472616e742063616c6c006044820152606401610541565b60026001556040517f081812fc000000000000000000000000000000000000000000000000000000008152600481018390528290309073ffffffffffffffffffffffffffffffffffffffff7f0000000000000000000000000000000000000000000000000000000000000000169063081812fc9060240160206040518083038186803b158015610c8a57600080fd5b505afa158015610c9e573d6000803e3d6000fd5b505050506040513d601f19601f82011682018060405250810190610cc291906140b0565b73ffffffffffffffffffffffffffffffffffffffff1614610d65576040517f08c379a000000000000000000000000000000000000000000000000000000000815260206004820152603160248201527f456a6563744c503a3a6973417070726f7665643a20456a6563744c502073686f60448201527f756c642062652061206f70657261746f720000000000000000000000000000006064820152608401610541565b6040517f6352211e0000000000000000000000000000000000000000000000000000000081526004810184905283903390819073ffffffffffffffffffffffffffffffffffffffff7f00000000000000000000000000000000000000000000000000000000000000001690636352211e9060240160206040518083038186803b158015610df157600080fd5b505afa158015610e05573d6000803e3d6000fd5b505050506040513d601f19601f82011682018060405250810190610e2991906140b0565b73ffffffffffffffffffffffffffffffffffffffff1614610ea6576040517f08c379a000000000000000000000000000000000000000000000000000000000815260206004820152601d60248201527f456a6563744c503a7363686564756c653a3a206f6e6c79206f776e65720000006044820152606401610541565b83604051602001610eb7919061471b565b604080517fffffffffffffffffffffffffffffffffffffffffffffffffffffffffffffffe081840301815291815281516020928301206000888152609790935291205414610f61576040517f08c379a000000000000000000000000000000000000000000000000000000000815260206004820152601d60248201527f456a6563744c503a3a63616e63656c3a20696e76616c696420686173680000006044820152606401610541565b60008060007f000000000000000000000000000000000000000000000000000000000000000073ffffffffffffffffffffffffffffffffffffffff166399fbab88896040518263ffffffff1660e01b8152600401610fc191815260200190565b6101806040518083038186803b158015610fda57600080fd5b505afa158015610fee573d6000803e3d6000fd5b505050506040513d601f19601f82011682018060405250810190611012919061449c565b505050505050509450945094505050600061104f7f0000000000000000000000000000000000000000000000000000000000000000858585612ab1565b73ffffffffffffffffffffffffffffffffffffffff16633850c7bd6040518163ffffffff1660e01b815260040160e06040518083038186803b15801561109457600080fd5b505afa1580156110a8573d6000803e3d6000fd5b505050506040513d601f19601f820116820180604052508101906110cc91906142b3565b505050505091505087602001511561115657876000015160020b8160020b12611151576040517f08c379a000000000000000000000000000000000000000000000000000000000815260206004820152601a60248201527f456a6563744c503a3a63616e63656c3a207072696365206d65740000000000006044820152606401610541565b6111c9565b876000015160020b8160020b136111c9576040517f08c379a000000000000000000000000000000000000000000000000000000000815260206004820152601a60248201527f456a6563744c503a3a63616e63656c3a207072696365206d65740000000000006044820152606401610541565b600089815260986020526040908190205490517fee8ca3b500000000000000000000000000000000000000000000000000000000815260048101919091527f000000000000000000000000000000000000000000000000000000000000000073ffffffffffffffffffffffffffffffffffffffff169063ee8ca3b590602401600060405180830381600087803b15801561126257600080fd5b505af1158015611276573d6000803e3d6000fd5b50505060008a815260976020908152604080832083905560989091528082209190915589015160808a01516112ab9250612b87565b60405189907fde78c725503e228892c8783c476c35c4ef4c7b91923ada97d8125ec9e894cbec90600090a250506001805550505050505050565b6040517f081812fc00000000000000000000000000000000000000000000000000000000815260048101859052600090606090869030907f000000000000000000000000000000000000000000000000000000000000000073ffffffffffffffffffffffffffffffffffffffff169063081812fc9060240160206040518083038186803b15801561137557600080fd5b505afa158015611389573d6000803e3d6000fd5b505050506040513d601f19601f820116820180604052508101906113ad91906140b0565b73ffffffffffffffffffffffffffffffffffffffff1614611450576040517f08c379a000000000000000000000000000000000000000000000000000000000815260206004820152603160248201527f456a6563744c503a3a6973417070726f7665643a20456a6563744c502073686f60448201527f756c642062652061206f70657261746f720000000000000000000000000000006064820152608401610541565b8686606001518073ffffffffffffffffffffffffffffffffffffffff167f000000000000000000000000000000000000000000000000000000000000000073ffffffffffffffffffffffffffffffffffffffff16636352211e846040518263ffffffff1660e01b81526004016114c891815260200190565b60206040518083038186803b1580156114e057600080fd5b505afa1580156114f4573d6000803e3d6000fd5b505050506040513d601f19601f8201168201806040525081019061151891906140b0565b73ffffffffffffffffffffffffffffffffffffffff1614611595576040517f08c379a000000000000000000000000000000000000000000000000000000000815260206004820152601d60248201527f456a6563744c503a7363686564756c653a3a206f6e6c79206f776e65720000006044820152606401610541565b876040516020016115a6919061471b565b604080517fffffffffffffffffffffffffffffffffffffffffffffffffffffffffffffffe0818403018152918152815160209283012060008c8152609790935291205414611612576000604051806060016040528060298152602001614aa56029913994509450611889565b426099548960a001516116259190614877565b1161164e576000604051806060016040528060298152602001614a596029913994509450611889565b73ffffffffffffffffffffffffffffffffffffffff871673eeeeeeeeeeeeeeeeeeeeeeeeeeeeeeeeeeeeeeee146116a3576000604051806060016040528060278152602001614a0d6027913994509450611889565b60008673ffffffffffffffffffffffffffffffffffffffff16633850c7bd6040518163ffffffff1660e01b815260040160e06040518083038186803b1580156116eb57600080fd5b505afa1580156116ff573d6000803e3d6000fd5b505050506040513d601f19601f8201168201806040525081019061172391906142b3565b505050505091505060008773ffffffffffffffffffffffffffffffffffffffff1663d0c93a7c6040518163ffffffff1660e01b815260040160206040518083038186803b15801561177357600080fd5b505afa158015611787573d6000803e3d6000fd5b505050506040513d601f19601f820116820180604052508101906117ab91906141c2565b9050896020015180156117d0575089516117c6908290614814565b60020b8260020b13155b156117fb576000604051806060016040528060238152602001614a8260239139965096505050611889565b896020015115801561181f5750895161181590829061488f565b60020b8260020b12155b1561184a576000604051806060016040528060238152602001614a8260239139965096505050611889565b60016040518060400160405280600281526020017f4f4b0000000000000000000000000000000000000000000000000000000000008152509650965050505b50505094509492505050565b6040517f081812fc00000000000000000000000000000000000000000000000000000000815260048101849052600090606090859030907f000000000000000000000000000000000000000000000000000000000000000073ffffffffffffffffffffffffffffffffffffffff169063081812fc9060240160206040518083038186803b15801561192557600080fd5b505afa158015611939573d6000803e3d6000fd5b505050506040513d601f19601f8201168201806040525081019061195d91906140b0565b73ffffffffffffffffffffffffffffffffffffffff1614611a00576040517f08c379a000000000000000000000000000000000000000000000000000000000815260206004820152603160248201527f456a6563744c503a3a6973417070726f7665643a20456a6563744c502073686f60448201527f756c642062652061206f70657261746f720000000000000000000000000000006064820152608401610541565b8585606001518073ffffffffffffffffffffffffffffffffffffffff167f000000000000000000000000000000000000000000000000000000000000000073ffffffffffffffffffffffffffffffffffffffff16636352211e846040518263ffffffff1660e01b8152600401611a7891815260200190565b60206040518083038186803b158015611a9057600080fd5b505afa158015611aa4573d6000803e3d6000fd5b505050506040513d601f19601f82011682018060405250810190611ac891906140b0565b73ffffffffffffffffffffffffffffffffffffffff1614611b45576040517f08c379a000000000000000000000000000000000000000000000000000000000815260206004820152601d60248201527f456a6563744c503a7363686564756c653a3a206f6e6c79206f776e65720000006044820152606401610541565b86604051602001611b56919061471b565b604080517fffffffffffffffffffffffffffffffffffffffffffffffffffffffffffffffe0818403018152918152815160209283012060008b8152609790935291205414611bc2576000604051806060016040528060278152602001614ace6027913994509450611cae565b426099548860a00151611bd59190614877565b1115611c1c5760006040518060400160405280601f81526020017f456a6563744c503a3a6973457870697265643a206e6f7420657870697265640081525094509450611cae565b73ffffffffffffffffffffffffffffffffffffffff861673eeeeeeeeeeeeeeeeeeeeeeeeeeeeeeeeeeeeeeee14611c71576000604051806060016040528060258152602001614a346025913994509450611cae565b60016040518060400160405280600281526020017f4f4b000000000000000000000000000000000000000000000000000000000000815250945094505b505050935093915050565b600054610100900460ff1680611cd2575060005460ff16155b611d5e576040517f08c379a000000000000000000000000000000000000000000000000000000000815260206004820152602e60248201527f496e697469616c697a61626c653a20636f6e747261637420697320616c72656160448201527f647920696e697469616c697a65640000000000000000000000000000000000006064820152608401610541565b600054610100900460ff16158015611d9d57600080547fffffffffffffffffffffffffffffffffffffffffffffffffffffffffffff0000166101011790555b611da5612ce6565b611dad612e03565b6276a700609955633b9aca00609a558015611deb57600080547fffffffffffffffffffffffffffffffffffffffffffffffffffffffffffff00ff1690555b50565b7fb53127684a568b3173ae13b9f8a6016e243e63b6e8ee1178d6a717850b5d61035473ffffffffffffffffffffffffffffffffffffffff163373ffffffffffffffffffffffffffffffffffffffff1614611ea4576040517f08c379a000000000000000000000000000000000000000000000000000000000815260206004820152600e60248201527f4e4f545f415554484f52495a45440000000000000000000000000000000000006044820152606401610541565b610716612ef7565b7fb53127684a568b3173ae13b9f8a6016e243e63b6e8ee1178d6a717850b5d61035473ffffffffffffffffffffffffffffffffffffffff163373ffffffffffffffffffffffffffffffffffffffff1614611f62576040517f08c379a000000000000000000000000000000000000000000000000000000000815260206004820152600e60248201527f4e4f545f415554484f52495a45440000000000000000000000000000000000006044820152606401610541565b6040517f70a08231000000000000000000000000000000000000000000000000000000008152306004820152829060009073ffffffffffffffffffffffffffffffffffffffff8316906370a082319060240160206040518083038186803b158015611fcc57600080fd5b505afa158015611fe0573d6000803e3d6000fd5b505050506040513d601f19601f8201168201806040525081019061200491906141a9565b905080156106525761065273ffffffffffffffffffffffffffffffffffffffff83168483612fb7565b60655460ff161561209a576040517f08c379a000000000000000000000000000000000000000000000000000000000815260206004820152601060248201527f5061757361626c653a20706175736564000000000000000000000000000000006044820152606401610541565b60026001541415612107576040517f08c379a000000000000000000000000000000000000000000000000000000000815260206004820152601f60248201527f5265656e7472616e637947756172643a207265656e7472616e742063616c6c006044820152606401610541565b600260015580516040517f081812fc00000000000000000000000000000000000000000000000000000000815260048101829052309073ffffffffffffffffffffffffffffffffffffffff7f0000000000000000000000000000000000000000000000000000000000000000169063081812fc9060240160206040518083038186803b15801561219657600080fd5b505afa1580156121aa573d6000803e3d6000fd5b505050506040513d601f19601f820116820180604052508101906121ce91906140b0565b73ffffffffffffffffffffffffffffffffffffffff1614612271576040517f08c379a000000000000000000000000000000000000000000000000000000000815260206004820152603160248201527f456a6563744c503a3a6973417070726f7665643a20456a6563744c502073686f60448201527f756c642062652061206f70657261746f720000000000000000000000000000006064820152608401610541565b81516040517f6352211e000000000000000000000000000000000000000000000000000000008152600481018290523390819073ffffffffffffffffffffffffffffffffffffffff7f00000000000000000000000000000000000000000000000000000000000000001690636352211e9060240160206040518083038186803b1580156122fd57600080fd5b505afa158015612311573d6000803e3d6000fd5b505050506040513d601f19601f8201168201806040525081019061233591906140b0565b73ffffffffffffffffffffffffffffffffffffffff16146123b2576040517f08c379a000000000000000000000000000000000000000000000000000000000815260206004820152601d60248201527f456a6563744c503a7363686564756c653a3a206f6e6c79206f776e65720000006044820152606401610541565b609a548460c0015111612447576040517f08c379a000000000000000000000000000000000000000000000000000000000815260206004820152602c60248201527f456a6563744c503a3a7363686564756c653a206d6178466565416d6f756e742060448201527f3c206d696e696d756d46656500000000000000000000000000000000000000006064820152608401610541565b348460c00151146124da576040517f08c379a000000000000000000000000000000000000000000000000000000000815260206004820152602d60248201527f456a6563744c503a3a7363686564756c653a206d6178466565416d6f756e742060448201527f213d3d206d73672e76616c7565000000000000000000000000000000000000006064820152608401610541565b6040805160c0808201835260208088015160020b83528784015115158184015260608089015173ffffffffffffffffffffffffffffffffffffffff168486015233908401529087015160808301524260a08301529151909161253e9183910161471b565b604080517fffffffffffffffffffffffffffffffffffffffffffffffffffffffffffffffe081840301815282825280516020918201208851600090815260979092529190205560a08601518651608088015173ffffffffffffffffffffffffffffffffffffffff7f0000000000000000000000000000000000000000000000000000000000000000169363b9f45adb9330937ff7d4c183000000000000000000000000000000000000000000000000000000009391927f7f274344000000000000000000000000000000000000000000000000000000009261262692918a9190602401614785565b604080517fffffffffffffffffffffffffffffffffffffffffffffffffffffffffffffffe08184030181529181526020820180517bffffffffffffffffffffffffffffffffffffffffffffffffffffffff167fffffffff0000000000000000000000000000000000000000000000000000000094851617905260808d0151905160e088901b90931683526126bf959493926004016145e3565b602060405180830381600087803b1580156126d957600080fd5b505af11580156126ed573d6000803e3d6000fd5b505050506040513d601f19601f8201168201806040525081019061271191906141a9565b85516000908152609860205260409081902091909155855190517f8b428decda5a4b3a446d505137ec5a63830b0c7b613e62db300b1b628824c2f99061275c90889042903390614686565b60405180910390a2505060018055505050565b7fb53127684a568b3173ae13b9f8a6016e243e63b6e8ee1178d6a717850b5d61035473ffffffffffffffffffffffffffffffffffffffff163373ffffffffffffffffffffffffffffffffffffffff1614612825576040517f08c379a000000000000000000000000000000000000000000000000000000000815260206004820152600e60248201527f4e4f545f415554484f52495a45440000000000000000000000000000000000006044820152606401610541565b609955565b60655460ff1615612897576040517f08c379a000000000000000000000000000000000000000000000000000000000815260206004820152601060248201527f5061757361626c653a20706175736564000000000000000000000000000000006044820152606401610541565b60026001541415612904576040517f08c379a000000000000000000000000000000000000000000000000000000000815260206004820152601f60248201527f5265656e7472616e637947756172643a207265656e7472616e742063616c6c006044820152606401610541565b60026001553373ffffffffffffffffffffffffffffffffffffffff7f000000000000000000000000000000000000000000000000000000000000000016146129a8576040517f08c379a000000000000000000000000000000000000000000000000000000000815260206004820181905260248201527f456a6563744c503a3a6f6e6c79506f6b654d653a206f6e6c7920706f6b654d656044820152606401610541565b80156129bd576129b88383613044565b6129c7565b6129c7838361320a565b50506001805550565b60655460ff16612a3c576040517f08c379a000000000000000000000000000000000000000000000000000000000815260206004820152601460248201527f5061757361626c653a206e6f74207061757365640000000000000000000000006044820152606401610541565b606580547fffffffffffffffffffffffffffffffffffffffffffffffffffffffffffffff001690557f5db9ee0a495bf2e6ff9c91a7834c1ba4fdd244a5e8aa4e537bd38aeae4b073aa335b60405173ffffffffffffffffffffffffffffffffffffffff909116815260200160405180910390a1565b6000612b7c8560405180606001604052808673ffffffffffffffffffffffffffffffffffffffff168873ffffffffffffffffffffffffffffffffffffffff1610612afb5786612afd565b875b73ffffffffffffffffffffffffffffffffffffffff1681526020018673ffffffffffffffffffffffffffffffffffffffff168873ffffffffffffffffffffffffffffffffffffffff1610612b515787612b53565b865b73ffffffffffffffffffffffffffffffffffffffff1681526020018562ffffff1681525061344b565b90505b949350505050565b80471015612bf1576040517f08c379a000000000000000000000000000000000000000000000000000000000815260206004820152601d60248201527f416464726573733a20696e73756666696369656e742062616c616e63650000006044820152606401610541565b60008273ffffffffffffffffffffffffffffffffffffffff168260405160006040518083038185875af1925050503d8060008114612c4b576040519150601f19603f3d011682016040523d82523d6000602084013e612c50565b606091505b5050905080612ce1576040517f08c379a000000000000000000000000000000000000000000000000000000000815260206004820152603a60248201527f416464726573733a20756e61626c6520746f2073656e642076616c75652c207260448201527f6563697069656e74206d617920686176652072657665727465640000000000006064820152608401610541565b505050565b600054610100900460ff1680612cff575060005460ff16155b612d8b576040517f08c379a000000000000000000000000000000000000000000000000000000000815260206004820152602e60248201527f496e697469616c697a61626c653a20636f6e747261637420697320616c72656160448201527f647920696e697469616c697a65640000000000000000000000000000000000006064820152608401610541565b600054610100900460ff16158015612dca57600080547fffffffffffffffffffffffffffffffffffffffffffffffffffffffffffff0000166101011790555b612dd26135a4565b8015611deb57600080547fffffffffffffffffffffffffffffffffffffffffffffffffffffffffffff00ff16905550565b600054610100900460ff1680612e1c575060005460ff16155b612ea8576040517f08c379a000000000000000000000000000000000000000000000000000000000815260206004820152602e60248201527f496e697469616c697a61626c653a20636f6e747261637420697320616c72656160448201527f647920696e697469616c697a65640000000000000000000000000000000000006064820152608401610541565b600054610100900460ff16158015612ee757600080547fffffffffffffffffffffffffffffffffffffffffffffffffffffffffffff0000166101011790555b612eef6136bd565b612dd26137d1565b60655460ff1615612f64576040517f08c379a000000000000000000000000000000000000000000000000000000000815260206004820152601060248201527f5061757361626c653a20706175736564000000000000000000000000000000006044820152606401610541565b606580547fffffffffffffffffffffffffffffffffffffffffffffffffffffffffffffff001660011790557f62e78cea01bee320cd4e420270b5ea74000d11b0c9f74754ebdbfc544b05a258612a873390565b6040805173ffffffffffffffffffffffffffffffffffffffff8416602482015260448082018490528251808303909101815260649091019091526020810180517bffffffffffffffffffffffffffffffffffffffffffffffffffffffff167fa9059cbb00000000000000000000000000000000000000000000000000000000179052612ce190849061390e565b6000807f000000000000000000000000000000000000000000000000000000000000000073ffffffffffffffffffffffffffffffffffffffff1663b810c6366040518163ffffffff1660e01b8152600401604080518083038186803b1580156130ac57600080fd5b505afa1580156130c0573d6000803e3d6000fd5b505050506040513d601f19601f820116820180604052508101906130e49190614364565b91509150826080015182111561317c576040517f08c379a000000000000000000000000000000000000000000000000000000000815260206004820152602260248201527f456a6563744c503a3a656a6563743a20666565203e206d6178466565416d6f7560448201527f6e740000000000000000000000000000000000000000000000000000000000006064820152608401610541565b6000613189858584610718565b905060008061319a87878588613a1a565b60408089015181518481526020810184905291820189905273ffffffffffffffffffffffffffffffffffffffff166060820152919350915087907f21b07cd7e9d410ec08e768e90662d047849995fd1ce4cd71a889c89fd41ff3c69060800160405180910390a250505050505050565b6000807f000000000000000000000000000000000000000000000000000000000000000073ffffffffffffffffffffffffffffffffffffffff1663b810c6366040518163ffffffff1660e01b8152600401604080518083038186803b15801561327257600080fd5b505afa158015613286573d6000803e3d6000fd5b505050506040513d601f19601f820116820180604052508101906132aa9190614364565b915091506000806132bc868685611895565b915091508181906132fa576040517f08c379a00000000000000000000000000000000000000000000000000000000081526004016105419190614673565b506040517f99fbab88000000000000000000000000000000000000000000000000000000008152600481018790526000907f000000000000000000000000000000000000000000000000000000000000000073ffffffffffffffffffffffffffffffffffffffff16906399fbab88906024016101806040518083038186803b15801561338557600080fd5b505afa158015613399573d6000803e3d6000fd5b505050506040513d601f19601f820116820180604052508101906133bd919061449c565b505050509750505050505050506000806133d98989858a613a1a565b6040808b01518151848152602081018490529182018b905273ffffffffffffffffffffffffffffffffffffffff166060820152919350915089907f77ad7f488c00e15cf396184dcb1bac64a34ec71abca69acd8165af070f02b5219060800160405180910390a2505050505050505050565b6000816020015173ffffffffffffffffffffffffffffffffffffffff16826000015173ffffffffffffffffffffffffffffffffffffffff161061348d57600080fd5b8151602080840151604080860151815173ffffffffffffffffffffffffffffffffffffffff95861681860152949092168482015262ffffff90911660608085019190915281518085038201815260808501909252815191909201207fff0000000000000000000000000000000000000000000000000000000000000060a08401529085901b7fffffffffffffffffffffffffffffffffffffffff0000000000000000000000001660a183015260b58201527fe34f199b19b2b4f47f68442619d555527d244f78a3297ea89325f843f87b8b5460d582015260f501604080517fffffffffffffffffffffffffffffffffffffffffffffffffffffffffffffffe081840301815291905280516020909101209392505050565b600054610100900460ff16806135bd575060005460ff16155b613649576040517f08c379a000000000000000000000000000000000000000000000000000000000815260206004820152602e60248201527f496e697469616c697a61626c653a20636f6e747261637420697320616c72656160448201527f647920696e697469616c697a65640000000000000000000000000000000000006064820152608401610541565b600054610100900460ff1615801561368857600080547fffffffffffffffffffffffffffffffffffffffffffffffffffffffffffff0000166101011790555b600180558015611deb57600080547fffffffffffffffffffffffffffffffffffffffffffffffffffffffffffff00ff16905550565b600054610100900460ff16806136d6575060005460ff16155b613762576040517f08c379a000000000000000000000000000000000000000000000000000000000815260206004820152602e60248201527f496e697469616c697a61626c653a20636f6e747261637420697320616c72656160448201527f647920696e697469616c697a65640000000000000000000000000000000000006064820152608401610541565b600054610100900460ff16158015612dd257600080547fffffffffffffffffffffffffffffffffffffffffffffffffffffffffffff0000166101011790558015611deb57600080547fffffffffffffffffffffffffffffffffffffffffffffffffffffffffffff00ff16905550565b600054610100900460ff16806137ea575060005460ff16155b613876576040517f08c379a000000000000000000000000000000000000000000000000000000000815260206004820152602e60248201527f496e697469616c697a61626c653a20636f6e747261637420697320616c72656160448201527f647920696e697469616c697a65640000000000000000000000000000000000006064820152608401610541565b600054610100900460ff161580156138b557600080547fffffffffffffffffffffffffffffffffffffffffffffffffffffffffffff0000166101011790555b606580547fffffffffffffffffffffffffffffffffffffffffffffffffffffffffffffff001690558015611deb57600080547fffffffffffffffffffffffffffffffffffffffffffffffffffffffffffff00ff16905550565b6000613970826040518060400160405280602081526020017f5361666545524332303a206c6f772d6c6576656c2063616c6c206661696c65648152508573ffffffffffffffffffffffffffffffffffffffff16613b7b9092919063ffffffff16565b805190915015612ce1578080602001905181019061398e919061418c565b612ce1576040517f08c379a000000000000000000000000000000000000000000000000000000000815260206004820152602a60248201527f5361666545524332303a204552433230206f7065726174696f6e20646964206e60448201527f6f742073756363656564000000000000000000000000000000000000000000006064820152608401610541565b600080613a4d7f000000000000000000000000000000000000000000000000000000000000000087868860400151613b94565b600088815260986020526040908190205490517fee8ca3b5000000000000000000000000000000000000000000000000000000008152600481019190915291935091507f000000000000000000000000000000000000000000000000000000000000000073ffffffffffffffffffffffffffffffffffffffff169063ee8ca3b590602401600060405180830381600087803b158015613aeb57600080fd5b505af1158015613aff573d6000803e3d6000fd5b5050506000878152609760209081526040808320839055609890915281205550613b497f000000000000000000000000000000000000000000000000000000000000000084612b87565b8460800151831015613b7257613b728560400151848760800151613b6d91906148f3565b612b87565b94509492505050565b6060613b8a8484600085613d90565b90505b9392505050565b6040805160a0810182528481526fffffffffffffffffffffffffffffffff84811660208301908152600083850181815260608501828152426080870190815296517f0c49ccbe00000000000000000000000000000000000000000000000000000000815295516004870152925190931660248501529151604484015251606483015291516084820152819073ffffffffffffffffffffffffffffffffffffffff871690630c49ccbe9060a4016040805180830381600087803b158015613c5957600080fd5b505af1158015613c6d573d6000803e3d6000fd5b505050506040513d601f19601f82011682018060405250810190613c919190614478565b50506040805160808101825286815273ffffffffffffffffffffffffffffffffffffffff858116602083019081526fffffffffffffffffffffffffffffffff8385018181526060850182815295517ffc6f786500000000000000000000000000000000000000000000000000000000815294516004860152915183166024850152905181166044840152925190921660648201529087169063fc6f7865906084016040805180830381600087803b158015613d4b57600080fd5b505af1158015613d5f573d6000803e3d6000fd5b505050506040513d601f19601f82011682018060405250810190613d839190614478565b9097909650945050505050565b606082471015613e22576040517f08c379a000000000000000000000000000000000000000000000000000000000815260206004820152602660248201527f416464726573733a20696e73756666696369656e742062616c616e636520666f60448201527f722063616c6c00000000000000000000000000000000000000000000000000006064820152608401610541565b843b613e8a576040517f08c379a000000000000000000000000000000000000000000000000000000000815260206004820152601d60248201527f416464726573733a2063616c6c20746f206e6f6e2d636f6e74726163740000006044820152606401610541565b6000808673ffffffffffffffffffffffffffffffffffffffff168587604051613eb391906145c7565b60006040518083038185875af1925050503d8060008114613ef0576040519150601f19603f3d011682016040523d82523d6000602084013e613ef5565b606091505b5091509150613f05828286613f10565b979650505050505050565b60608315613f1f575081613b8d565b825115613f2f5782518084602001fd5b816040517f08c379a00000000000000000000000000000000000000000000000000000000081526004016105419190614673565b8035613f6e816149cd565b919050565b8051613f6e816149cd565b8051613f6e816149fd565b600060c08284031215613f9b57600080fd5b60405160c0810181811067ffffffffffffffff82111715613fe5577f4e487b7100000000000000000000000000000000000000000000000000000000600052604160045260246000fd5b6040529050808235613ff6816149fd565b81526020830135614006816149ef565b60208201526040830135614019816149cd565b6040820152606083013561402c816149cd565b806060830152506080830135608082015260a083013560a08201525092915050565b80516fffffffffffffffffffffffffffffffff81168114613f6e57600080fd5b805161ffff81168114613f6e57600080fd5b805162ffffff81168114613f6e57600080fd5b6000602082840312156140a557600080fd5b8135613b8d816149cd565b6000602082840312156140c257600080fd5b8151613b8d816149cd565b600080604083850312156140e057600080fd5b82356140eb816149cd565b915060208301356140fb816149cd565b809150509250929050565b60008060006040848603121561411b57600080fd5b833567ffffffffffffffff8082111561413357600080fd5b818601915086601f83011261414757600080fd5b81358181111561415657600080fd5b8760208260051b850101111561416b57600080fd5b60209283019550935050840135614181816149cd565b809150509250925092565b60006020828403121561419e57600080fd5b8151613b8d816149ef565b6000602082840312156141bb57600080fd5b5051919050565b6000602082840312156141d457600080fd5b8151613b8d816149fd565b600060e082840312156141f157600080fd5b60405160e0810181811067ffffffffffffffff8211171561423b577f4e487b7100000000000000000000000000000000000000000000000000000000600052604160045260246000fd5b604052823581526020830135614250816149fd565b60208201526040830135614263816149ef565b60408201526060830135614276816149cd565b60608201526080830135614289816149cd565b608082015261429a60a08401613f63565b60a082015260c083013560c08201528091505092915050565b600080600080600080600060e0888a0312156142ce57600080fd5b87516142d9816149cd565b60208901519097506142ea816149fd565b95506142f86040890161406e565b94506143066060890161406e565b93506143146080890161406e565b925060a088015160ff8116811461432a57600080fd5b60c089015190925061433b816149ef565b8091505092959891949750929550565b60006020828403121561435d57600080fd5b5035919050565b6000806040838503121561437757600080fd5b8251915060208301516140fb816149cd565b60008060e0838503121561439c57600080fd5b823591506143ad8460208501613f89565b90509250929050565b600080600061010084860312156143cc57600080fd5b833592506143dd8560208601613f89565b915060e0840135614181816149cd565b600080600080610120858703121561440457600080fd5b843593506144158660208701613f89565b925060e0850135614425816149cd565b9150610100850135614436816149cd565b939692955090935050565b6000806000610100848603121561445757600080fd5b833592506144688560208601613f89565b915060e0840135614181816149ef565b6000806040838503121561448b57600080fd5b505080516020909101519092909150565b6000806000806000806000806000806000806101808d8f0312156144bf57600080fd5b8c516bffffffffffffffffffffffff811681146144db57600080fd5b9b506144e960208e01613f73565b9a506144f760408e01613f73565b995061450560608e01613f73565b985061451360808e01614080565b975061452160a08e01613f7e565b965061452f60c08e01613f7e565b955061453d60e08e0161404e565b94506101008d015193506101208d0151925061455c6101408e0161404e565b915061456b6101608e0161404e565b90509295989b509295989b509295989b565b6000815180845261459581602086016020860161490a565b601f017fffffffffffffffffffffffffffffffffffffffffffffffffffffffffffffffe0169290920160200192915050565b600082516145d981846020870161490a565b9190910192915050565b600073ffffffffffffffffffffffffffffffffffffffff80881683527fffffffff0000000000000000000000000000000000000000000000000000000087166020840152808616604084015260a0606084015261464360a084018661457d565b91508084166080840152509695505050505050565b8215158152604060208201526000613b8a604083018461457d565b602081526000613b8d602083018461457d565b60006101208201905084518252602085015160020b6020830152604085015115156040830152606085015173ffffffffffffffffffffffffffffffffffffffff80821660608501528060808801511660808501528060a08801511660a0850152505060c085015160c08301528360e0830152612b7f61010083018473ffffffffffffffffffffffffffffffffffffffff169052565b60c0810161477f8284805160020b8252602081015115156020830152604081015173ffffffffffffffffffffffffffffffffffffffff808216604085015280606084015116606085015250506080810151608083015260a081015160a08301525050565b92915050565b83815261010081016147f06020830185805160020b8252602081015115156020830152604081015173ffffffffffffffffffffffffffffffffffffffff808216604085015280606084015116606085015250506080810151608083015260a081015160a08301525050565b73ffffffffffffffffffffffffffffffffffffffff831660e0830152949350505050565b60008160020b8360020b6000821282627fffff0382138115161561483a5761483a61496f565b827fffffffffffffffffffffffffffffffffffffffffffffffffffffffffff80000003821281161561486e5761486e61496f565b50019392505050565b6000821982111561488a5761488a61496f565b500190565b60008160020b8360020b60008112817fffffffffffffffffffffffffffffffffffffffffffffffffffffffffff800000018312811516156148d2576148d261496f565b81627fffff0183138116156148e9576148e961496f565b5090039392505050565b6000828210156149055761490561496f565b500390565b60005b8381101561492557818101518382015260200161490d565b838111156106525750506000910152565b60007fffffffffffffffffffffffffffffffffffffffffffffffffffffffffffffffff8214156149685761496861496f565b5060010190565b7f4e487b7100000000000000000000000000000000000000000000000000000000600052601160045260246000fd5b7f4e487b7100000000000000000000000000000000000000000000000000000000600052603260045260246000fd5b73ffffffffffffffffffffffffffffffffffffffff81168114611deb57600080fd5b8015158114611deb57600080fd5b8060020b8114611deb57600080fdfe456a6563744c503a3a6973456a65637461626c653a206f6e6c79206e617469766520746f6b656e456a6563744c503a3a6973457870697265643a206f6e6c79206e617469766520746f6b656e456a6563744c503a3a6973456a65637461626c653a2072616e6765206f726465722065787069726564456a6563744c503a3a6973456a65637461626c653a207072696365206e6f74206d6574456a6563744c503a3a6973456a65637461626c653a20696e636f7272656374207461736b2068617368456a6563744c503a3a6973457870697265643a20696e636f7272656374207461736b2068617368a26469706673582212207622fbfd69a1c1c3809c85b52a3f2a5da615fc35220035f806d76034bdce21ee64736f6c63430008070033",
  "devdoc": {
    "kind": "dev",
    "methods": {
      "paused()": {
        "details": "Returns true if the contract is paused, and false otherwise."
      }
    },
    "version": 1
  },
  "userdoc": {
    "kind": "user",
    "methods": {},
    "version": 1
  },
  "storageLayout": {
    "storage": [
      {
        "astId": 5,
        "contract": "contracts/EjectLP.sol:EjectLP",
        "label": "_initialized",
        "offset": 0,
        "slot": "0",
        "type": "t_bool"
      },
      {
        "astId": 8,
        "contract": "contracts/EjectLP.sol:EjectLP",
        "label": "_initializing",
        "offset": 1,
        "slot": "0",
        "type": "t_bool"
      },
      {
        "astId": 172,
        "contract": "contracts/EjectLP.sol:EjectLP",
        "label": "_status",
        "offset": 0,
        "slot": "1",
        "type": "t_uint256"
      },
      {
        "astId": 215,
        "contract": "contracts/EjectLP.sol:EjectLP",
        "label": "__gap",
        "offset": 0,
        "slot": "2",
        "type": "t_array(t_uint256)49_storage"
      },
      {
        "astId": 504,
        "contract": "contracts/EjectLP.sol:EjectLP",
        "label": "__gap",
        "offset": 0,
        "slot": "51",
        "type": "t_array(t_uint256)50_storage"
      },
      {
        "astId": 66,
        "contract": "contracts/EjectLP.sol:EjectLP",
        "label": "_paused",
        "offset": 0,
        "slot": "101",
        "type": "t_bool"
      },
      {
        "astId": 157,
        "contract": "contracts/EjectLP.sol:EjectLP",
        "label": "__gap",
        "offset": 0,
        "slot": "102",
        "type": "t_array(t_uint256)49_storage"
      },
      {
        "astId": 2506,
        "contract": "contracts/EjectLP.sol:EjectLP",
        "label": "hashById",
        "offset": 0,
        "slot": "151",
        "type": "t_mapping(t_uint256,t_bytes32)"
      },
      {
        "astId": 2510,
        "contract": "contracts/EjectLP.sol:EjectLP",
        "label": "taskById",
        "offset": 0,
        "slot": "152",
        "type": "t_mapping(t_uint256,t_bytes32)"
      },
      {
        "astId": 2512,
        "contract": "contracts/EjectLP.sol:EjectLP",
        "label": "duration",
        "offset": 0,
        "slot": "153",
        "type": "t_uint256"
      },
      {
        "astId": 2514,
        "contract": "contracts/EjectLP.sol:EjectLP",
        "label": "minimumFee",
        "offset": 0,
        "slot": "154",
        "type": "t_uint256"
      }
    ],
    "types": {
      "t_array(t_uint256)49_storage": {
        "base": "t_uint256",
        "encoding": "inplace",
        "label": "uint256[49]",
        "numberOfBytes": "1568"
      },
      "t_array(t_uint256)50_storage": {
        "base": "t_uint256",
        "encoding": "inplace",
        "label": "uint256[50]",
        "numberOfBytes": "1600"
      },
      "t_bool": {
        "encoding": "inplace",
        "label": "bool",
        "numberOfBytes": "1"
      },
      "t_bytes32": {
        "encoding": "inplace",
        "label": "bytes32",
        "numberOfBytes": "32"
      },
      "t_mapping(t_uint256,t_bytes32)": {
        "encoding": "mapping",
        "key": "t_uint256",
        "label": "mapping(uint256 => bytes32)",
        "numberOfBytes": "32",
        "value": "t_bytes32"
      },
      "t_uint256": {
        "encoding": "inplace",
        "label": "uint256",
        "numberOfBytes": "32"
      }
    }
  }
}