{
  "address": "0x4810eCA7ccBBC50dDdDcc1740AF4C2Bc45e1559A",
  "abi": [
    {
      "inputs": [
        {
          "internalType": "contract INonfungiblePositionManager",
          "name": "nftPositions_",
          "type": "address"
        },
        {
          "internalType": "contract IPokeMe",
          "name": "pokeMe_",
          "type": "address"
        },
        {
          "internalType": "address",
          "name": "factory_",
          "type": "address"
        },
        {
          "internalType": "address",
          "name": "gelato_",
          "type": "address"
        }
      ],
      "stateMutability": "nonpayable",
      "type": "constructor"
    },
    {
      "anonymous": false,
      "inputs": [
        {
          "indexed": true,
          "internalType": "uint256",
          "name": "tokenId",
          "type": "uint256"
        }
      ],
      "name": "LogCancelEject",
      "type": "event"
    },
    {
      "anonymous": false,
      "inputs": [
        {
          "indexed": true,
          "internalType": "uint256",
          "name": "tokenId",
          "type": "uint256"
        },
        {
          "indexed": false,
          "internalType": "uint256",
          "name": "amount0Out",
          "type": "uint256"
        },
        {
          "indexed": false,
          "internalType": "uint256",
          "name": "amount1Out",
          "type": "uint256"
        },
        {
          "indexed": false,
          "internalType": "uint256",
          "name": "feeAmount",
          "type": "uint256"
        }
      ],
      "name": "LogEject",
      "type": "event"
    },
    {
      "anonymous": false,
      "inputs": [
        {
          "indexed": true,
          "internalType": "uint256",
          "name": "tokenId",
          "type": "uint256"
        },
        {
          "components": [
            {
              "internalType": "uint256",
              "name": "tokenId",
              "type": "uint256"
            },
            {
              "internalType": "int24",
              "name": "tickThreshold",
              "type": "int24"
            },
            {
              "internalType": "bool",
              "name": "ejectAbove",
              "type": "bool"
            },
            {
              "internalType": "bool",
              "name": "ejectDust",
              "type": "bool"
            },
            {
              "internalType": "uint256",
              "name": "amount0Min",
              "type": "uint256"
            },
            {
              "internalType": "uint256",
              "name": "amount1Min",
              "type": "uint256"
            },
            {
              "internalType": "address",
              "name": "receiver",
              "type": "address"
            },
            {
              "internalType": "address",
              "name": "feeToken",
              "type": "address"
            },
            {
              "internalType": "address",
              "name": "resolver",
              "type": "address"
            },
            {
              "internalType": "uint256",
              "name": "maxFeeAmount",
              "type": "uint256"
            }
          ],
          "indexed": false,
          "internalType": "struct OrderParams",
          "name": "orderParams",
          "type": "tuple"
        },
        {
          "indexed": false,
          "internalType": "uint256",
          "name": "startTime",
          "type": "uint256"
        },
        {
          "indexed": false,
          "internalType": "address",
          "name": "sender",
          "type": "address"
        }
      ],
      "name": "LogSetEject",
      "type": "event"
    },
    {
      "anonymous": false,
      "inputs": [
        {
          "indexed": false,
          "internalType": "address",
          "name": "account",
          "type": "address"
        }
      ],
      "name": "Paused",
      "type": "event"
    },
    {
      "anonymous": false,
      "inputs": [
        {
          "indexed": false,
          "internalType": "address",
          "name": "account",
          "type": "address"
        }
      ],
      "name": "Unpaused",
      "type": "event"
    },
    {
      "inputs": [
        {
          "internalType": "uint256",
          "name": "tokenId_",
          "type": "uint256"
        },
        {
          "components": [
            {
              "internalType": "int24",
              "name": "tickThreshold",
              "type": "int24"
            },
            {
              "internalType": "bool",
              "name": "ejectAbove",
              "type": "bool"
            },
            {
              "internalType": "bool",
              "name": "ejectDust",
              "type": "bool"
            },
            {
              "internalType": "uint256",
              "name": "amount0Min",
              "type": "uint256"
            },
            {
              "internalType": "uint256",
              "name": "amount1Min",
              "type": "uint256"
            },
            {
              "internalType": "address",
              "name": "receiver",
              "type": "address"
            },
            {
              "internalType": "address",
              "name": "owner",
              "type": "address"
            },
            {
              "internalType": "uint256",
              "name": "maxFeeAmount",
              "type": "uint256"
            },
            {
              "internalType": "uint256",
              "name": "startTime",
              "type": "uint256"
            }
          ],
          "internalType": "struct Order",
          "name": "order_",
          "type": "tuple"
        },
        {
          "internalType": "address",
          "name": "feeToken_",
          "type": "address"
        }
      ],
      "name": "canEject",
      "outputs": [
        {
          "internalType": "address",
          "name": "",
          "type": "address"
        },
        {
          "internalType": "address",
          "name": "",
          "type": "address"
        },
        {
          "internalType": "uint128",
          "name": "",
          "type": "uint128"
        }
      ],
      "stateMutability": "view",
      "type": "function"
    },
    {
      "inputs": [
        {
          "internalType": "uint256",
          "name": "tokenId_",
          "type": "uint256"
        },
        {
          "components": [
            {
              "internalType": "int24",
              "name": "tickThreshold",
              "type": "int24"
            },
            {
              "internalType": "bool",
              "name": "ejectAbove",
              "type": "bool"
            },
            {
              "internalType": "bool",
              "name": "ejectDust",
              "type": "bool"
            },
            {
              "internalType": "uint256",
              "name": "amount0Min",
              "type": "uint256"
            },
            {
              "internalType": "uint256",
              "name": "amount1Min",
              "type": "uint256"
            },
            {
              "internalType": "address",
              "name": "receiver",
              "type": "address"
            },
            {
              "internalType": "address",
              "name": "owner",
              "type": "address"
            },
            {
              "internalType": "uint256",
              "name": "maxFeeAmount",
              "type": "uint256"
            },
            {
              "internalType": "uint256",
              "name": "startTime",
              "type": "uint256"
            }
          ],
          "internalType": "struct Order",
          "name": "order_",
          "type": "tuple"
        }
      ],
      "name": "cancel",
      "outputs": [],
      "stateMutability": "nonpayable",
      "type": "function"
    },
    {
      "inputs": [],
      "name": "duration",
      "outputs": [
        {
          "internalType": "uint256",
          "name": "",
          "type": "uint256"
        }
      ],
      "stateMutability": "view",
      "type": "function"
    },
    {
      "inputs": [
        {
          "internalType": "uint256",
          "name": "tokenId_",
          "type": "uint256"
        },
        {
          "components": [
            {
              "internalType": "int24",
              "name": "tickThreshold",
              "type": "int24"
            },
            {
              "internalType": "bool",
              "name": "ejectAbove",
              "type": "bool"
            },
            {
              "internalType": "bool",
              "name": "ejectDust",
              "type": "bool"
            },
            {
              "internalType": "uint256",
              "name": "amount0Min",
              "type": "uint256"
            },
            {
              "internalType": "uint256",
              "name": "amount1Min",
              "type": "uint256"
            },
            {
              "internalType": "address",
              "name": "receiver",
              "type": "address"
            },
            {
              "internalType": "address",
              "name": "owner",
              "type": "address"
            },
            {
              "internalType": "uint256",
              "name": "maxFeeAmount",
              "type": "uint256"
            },
            {
              "internalType": "uint256",
              "name": "startTime",
              "type": "uint256"
            }
          ],
          "internalType": "struct Order",
          "name": "order_",
          "type": "tuple"
        }
      ],
      "name": "eject",
      "outputs": [],
      "stateMutability": "nonpayable",
      "type": "function"
    },
    {
      "inputs": [
        {
          "internalType": "uint256",
          "name": "",
          "type": "uint256"
        }
      ],
      "name": "hashById",
      "outputs": [
        {
          "internalType": "bytes32",
          "name": "",
          "type": "bytes32"
        }
      ],
      "stateMutability": "view",
      "type": "function"
    },
    {
      "inputs": [],
      "name": "initialize",
      "outputs": [],
      "stateMutability": "nonpayable",
      "type": "function"
    },
    {
      "inputs": [],
      "name": "minimumFee",
      "outputs": [
        {
          "internalType": "uint256",
          "name": "",
          "type": "uint256"
        }
      ],
      "stateMutability": "view",
      "type": "function"
    },
    {
      "inputs": [
        {
          "internalType": "address[]",
          "name": "tokens_",
          "type": "address[]"
        },
        {
          "internalType": "address",
          "name": "recipient_",
          "type": "address"
        }
      ],
      "name": "mulipleRetrieveDust",
      "outputs": [],
      "stateMutability": "nonpayable",
      "type": "function"
    },
    {
      "inputs": [],
      "name": "nftPositions",
      "outputs": [
        {
          "internalType": "contract INonfungiblePositionManager",
          "name": "",
          "type": "address"
        }
      ],
      "stateMutability": "view",
      "type": "function"
    },
    {
      "inputs": [],
      "name": "pause",
      "outputs": [],
      "stateMutability": "nonpayable",
      "type": "function"
    },
    {
      "inputs": [],
      "name": "paused",
      "outputs": [
        {
          "internalType": "bool",
          "name": "",
          "type": "bool"
        }
      ],
      "stateMutability": "view",
      "type": "function"
    },
    {
      "inputs": [],
      "name": "pokeMe",
      "outputs": [
        {
          "internalType": "contract IPokeMe",
          "name": "",
          "type": "address"
        }
      ],
      "stateMutability": "view",
      "type": "function"
    },
    {
      "inputs": [
        {
          "internalType": "address",
          "name": "token_",
          "type": "address"
        },
        {
          "internalType": "address",
          "name": "recipient_",
          "type": "address"
        }
      ],
      "name": "retrieveDust",
      "outputs": [],
      "stateMutability": "nonpayable",
      "type": "function"
    },
    {
      "inputs": [
        {
          "components": [
            {
              "internalType": "uint256",
              "name": "tokenId",
              "type": "uint256"
            },
            {
              "internalType": "int24",
              "name": "tickThreshold",
              "type": "int24"
            },
            {
              "internalType": "bool",
              "name": "ejectAbove",
              "type": "bool"
            },
            {
              "internalType": "bool",
              "name": "ejectDust",
              "type": "bool"
            },
            {
              "internalType": "uint256",
              "name": "amount0Min",
              "type": "uint256"
            },
            {
              "internalType": "uint256",
              "name": "amount1Min",
              "type": "uint256"
            },
            {
              "internalType": "address",
              "name": "receiver",
              "type": "address"
            },
            {
              "internalType": "address",
              "name": "feeToken",
              "type": "address"
            },
            {
              "internalType": "address",
              "name": "resolver",
              "type": "address"
            },
            {
              "internalType": "uint256",
              "name": "maxFeeAmount",
              "type": "uint256"
            }
          ],
          "internalType": "struct OrderParams",
          "name": "orderParams_",
          "type": "tuple"
        }
      ],
      "name": "schedule",
      "outputs": [],
      "stateMutability": "payable",
      "type": "function"
    },
    {
      "inputs": [
        {
          "internalType": "uint256",
          "name": "duration_",
          "type": "uint256"
        }
      ],
      "name": "setDuration",
      "outputs": [],
      "stateMutability": "nonpayable",
      "type": "function"
    },
    {
      "inputs": [
        {
          "internalType": "uint256",
          "name": "minimumFee_",
          "type": "uint256"
        }
      ],
      "name": "setMinimumFee",
      "outputs": [],
      "stateMutability": "nonpayable",
      "type": "function"
    },
    {
      "inputs": [
        {
          "internalType": "uint256",
          "name": "",
          "type": "uint256"
        }
      ],
      "name": "taskById",
      "outputs": [
        {
          "internalType": "bytes32",
          "name": "",
          "type": "bytes32"
        }
      ],
      "stateMutability": "view",
      "type": "function"
    },
    {
      "inputs": [],
      "name": "unpause",
      "outputs": [],
      "stateMutability": "nonpayable",
      "type": "function"
    }
  ],
  "transactionHash": "0x45216fa6f51c6b49cbd604752788831e921fc132a4acb63770abf4102774e4a4",
  "args": [
    "0xC36442b4a4522E871399CD717aBDD847Ab11FE88",
    "0xc1C6805B857Bef1f412519C4A842522431aFed39",
    "0x1F98431c8aD98523631AE4a59f267346ea31F984",
    "0x683913B3A32ada4F8100458A3E1675425BdAa7DF"
  ],
  "solcInputHash": "6734d17043cd5001aa230d815d2a3128",
  "bytecode": "0x6101006040523480156200001257600080fd5b506040516200448338038062004483833981016040819052620000359162000064565b6001600160601b0319606094851b811660805291841b821660c05291831b811660a052911b1660e052620000e5565b600080600080608085870312156200007b57600080fd5b84516200008881620000cc565b60208601519094506200009b81620000cc565b6040860151909350620000ae81620000cc565b6060860151909250620000c181620000cc565b939692955090935050565b6001600160a01b0381168114620000e257600080fd5b50565b60805160601c60a05160601c60c05160601c60e05160601c6142ef62000194600039600061106e01526000612d0f015260008181610328015281816109b301528181610c7201528181610cfe01528181610f3c01526125b90152600081816103ae0152818161051c01528181610683015281816113b10152818161151c015281816117ce015281816120170152818161217e015281816123380152818161288e01526129b301526142ef6000f3fe6080604052600436106101295760003560e01c80635f4df839116100a5578063a349134911610074578063d0e6818811610059578063d0e681881461036f578063f301a28c1461039c578063f6be71d1146103d057600080fd5b8063a3491349146102f6578063c84eee0d1461031657600080fd5b80635f4df839146102475780638129fc1c146102ac5780638456cb59146102c1578063a088c857146102d657600080fd5b80631a7626e7116100fc5780631c241d8f116100e15780631c241d8f146101e25780633f4ba83a1461020f5780635c975abb1461022457600080fd5b80631a7626e7146101ac5780631bbd8d56146101c257600080fd5b80630fb5a6b41461012e57806310146be114610157578063109dee531461016c578063182a75061461018c575b600080fd5b34801561013a57600080fd5b5061014460995481565b6040519081526020015b60405180910390f35b61016a610165366004613a54565b6103f0565b005b34801561017857600080fd5b5061016a610187366004613bd8565b610b7b565b34801561019857600080fd5b5061016a6101a7366004613b9a565b61110e565b3480156101b857600080fd5b50610144609a5481565b3480156101ce57600080fd5b5061016a6101dd36600461397b565b6111c9565b3480156101ee57600080fd5b506101446101fd366004613b9a565b60976020526000908152604090205481565b34801561021b57600080fd5b5061016a6112d2565b34801561023057600080fd5b5060655460ff16604051901515815260200161014e565b34801561025357600080fd5b50610267610262366004613c06565b611392565b6040805173ffffffffffffffffffffffffffffffffffffffff94851681529390921660208401526fffffffffffffffffffffffffffffffff169082015260600161014e565b3480156102b857600080fd5b5061016a611b7c565b3480156102cd57600080fd5b5061016a611cb1565b3480156102e257600080fd5b5061016a6102f1366004613942565b611d6f565b34801561030257600080fd5b5061016a610311366004613bd8565b611ef0565b34801561032257600080fd5b5061034a7f000000000000000000000000000000000000000000000000000000000000000081565b60405173ffffffffffffffffffffffffffffffffffffffff909116815260200161014e565b34801561037b57600080fd5b5061014461038a366004613b9a565b60986020526000908152604090205481565b3480156103a857600080fd5b5061034a7f000000000000000000000000000000000000000000000000000000000000000081565b3480156103dc57600080fd5b5061016a6103eb366004613b9a565b612746565b60655460ff1615610462576040517f08c379a000000000000000000000000000000000000000000000000000000000815260206004820152601060248201527f5061757361626c653a207061757365640000000000000000000000000000000060448201526064015b60405180910390fd5b600260015414156104cf576040517f08c379a000000000000000000000000000000000000000000000000000000000815260206004820152601f60248201527f5265656e7472616e637947756172643a207265656e7472616e742063616c6c006044820152606401610459565b600260015580516040517f081812fc00000000000000000000000000000000000000000000000000000000815260048101829052309073ffffffffffffffffffffffffffffffffffffffff7f0000000000000000000000000000000000000000000000000000000000000000169063081812fc9060240160206040518083038186803b15801561055e57600080fd5b505afa158015610572573d6000803e3d6000fd5b505050506040513d601f19601f820116820180604052508101906105969190613925565b73ffffffffffffffffffffffffffffffffffffffff1614610639576040517f08c379a000000000000000000000000000000000000000000000000000000000815260206004820152603160248201527f456a6563744c503a3a6973417070726f7665643a20456a6563744c502073686f60448201527f756c642062652061206f70657261746f720000000000000000000000000000006064820152608401610459565b81516040517f6352211e000000000000000000000000000000000000000000000000000000008152600481018290523390819073ffffffffffffffffffffffffffffffffffffffff7f00000000000000000000000000000000000000000000000000000000000000001690636352211e9060240160206040518083038186803b1580156106c557600080fd5b505afa1580156106d9573d6000803e3d6000fd5b505050506040513d601f19601f820116820180604052508101906106fd9190613925565b73ffffffffffffffffffffffffffffffffffffffff161461077a576040517f08c379a000000000000000000000000000000000000000000000000000000000815260206004820152601d60248201527f456a6563744c503a7363686564756c653a3a206f6e6c79206f776e65720000006044820152606401610459565b609a5484610120015111610810576040517f08c379a000000000000000000000000000000000000000000000000000000000815260206004820152602c60248201527f456a6563744c503a3a7363686564756c653a206d6178466565416d6f756e742060448201527f3c206d696e696d756d46656500000000000000000000000000000000000000006064820152608401610459565b34846101200151146108a4576040517f08c379a000000000000000000000000000000000000000000000000000000000815260206004820152602d60248201527f456a6563744c503a3a7363686564756c653a206d6178466565416d6f756e742060448201527f213d3d206d73672e76616c7565000000000000000000000000000000000000006064820152608401610459565b6000604051806101200160405280866020015160020b8152602001866040015115158152602001866060015115158152602001866080015181526020018660a0015181526020018660c0015173ffffffffffffffffffffffffffffffffffffffff1681526020013373ffffffffffffffffffffffffffffffffffffffff1681526020018661012001518152602001428152509050806040516020016109499190613fd6565b604080517fffffffffffffffffffffffffffffffffffffffffffffffffffffffffffffffe0818403018152828252805160209182012088516000908152609790925291902055610100860151865160e088015173ffffffffffffffffffffffffffffffffffffffff7f0000000000000000000000000000000000000000000000000000000000000000169363b9f45adb9330937f109dee53000000000000000000000000000000000000000000000000000000009391927f181665640000000000000000000000000000000000000000000000000000000092610a3292918a9190602401613feb565b604080517fffffffffffffffffffffffffffffffffffffffffffffffffffffffffffffffe08184030181529181526020820180517bffffffffffffffffffffffffffffffffffffffffffffffffffffffff167fffffffff0000000000000000000000000000000000000000000000000000000094851617905260e0808e015191519088901b9093168352610acb95949392600401613e4a565b602060405180830381600087803b158015610ae557600080fd5b505af1158015610af9573d6000803e3d6000fd5b505050506040513d601f19601f82011682018060405250810190610b1d9190613a1e565b85516000908152609860205260409081902091909155855190517f377bfe630fec7b156775cb725f5bf3fcffac33cf55c1dca9d57a0e7e3ca3bab390610b6890889042903390613ed2565b60405180910390a2505060018055505050565b60655460ff1615610be8576040517f08c379a000000000000000000000000000000000000000000000000000000000815260206004820152601060248201527f5061757361626c653a20706175736564000000000000000000000000000000006044820152606401610459565b60026001541415610c55576040517f08c379a000000000000000000000000000000000000000000000000000000000815260206004820152601f60248201527f5265656e7472616e637947756172643a207265656e7472616e742063616c6c006044820152606401610459565b60026001553373ffffffffffffffffffffffffffffffffffffffff7f00000000000000000000000000000000000000000000000000000000000000001614610cf9576040517f08c379a000000000000000000000000000000000000000000000000000000000815260206004820181905260248201527f456a6563744c503a3a6f6e6c79506f6b654d653a206f6e6c7920706f6b654d656044820152606401610459565b6000807f000000000000000000000000000000000000000000000000000000000000000073ffffffffffffffffffffffffffffffffffffffff1663b810c6366040518163ffffffff1660e01b8152600401604080518083038186803b158015610d6157600080fd5b505afa158015610d75573d6000803e3d6000fd5b505050506040513d601f19601f82011682018060405250810190610d999190613bb3565b915091508260e00151821115610e31576040517f08c379a000000000000000000000000000000000000000000000000000000000815260206004820152602260248201527f456a6563744c503a3a656a6563743a20666565203e206d6178466565416d6f7560448201527f6e740000000000000000000000000000000000000000000000000000000000006064820152608401610459565b6000806000610e41878786611392565b925092509250600080610e548984612801565b9150915087606001518210158015610e70575087608001518110155b610efc576040517f08c379a000000000000000000000000000000000000000000000000000000000815260206004820152602660248201527f456a6563744c503a3a656a6563743a2072656365697665642062656c6f77206d60448201527f696e696d756d00000000000000000000000000000000000000000000000000006064820152608401610459565b600089815260986020526040908190205490517fee8ca3b500000000000000000000000000000000000000000000000000000000815260048101919091527f000000000000000000000000000000000000000000000000000000000000000073ffffffffffffffffffffffffffffffffffffffff169063ee8ca3b590602401600060405180830381600087803b158015610f9557600080fd5b505af1158015610fa9573d6000803e3d6000fd5b50505060008a8152609760209081526040808320839055609882528220919091558901519050610fdc5760008211610fed565b600082118015610fed575087604001515b156110195760a08801516110199073ffffffffffffffffffffffffffffffffffffffff87169084612a3b565b876020015161103857600081118015611033575087604001515b61103d565b600081115b156110695760a08801516110699073ffffffffffffffffffffffffffffffffffffffff86169083612a3b565b6110937f000000000000000000000000000000000000000000000000000000000000000088612acd565b8760e001518710156110bc576110bc8860a00151888a60e001516110b791906141a0565b612acd565b604080518381526020810183905290810188905289907f13fc153739ee39b14c92e544084b2394dddf73ff23fbf3b3d6699f1178b6d44f9060600160405180910390a250506001805550505050505050565b7fb53127684a568b3173ae13b9f8a6016e243e63b6e8ee1178d6a717850b5d61035473ffffffffffffffffffffffffffffffffffffffff163373ffffffffffffffffffffffffffffffffffffffff16146111c4576040517f08c379a000000000000000000000000000000000000000000000000000000000815260206004820152600e60248201527f4e4f545f415554484f52495a45440000000000000000000000000000000000006044820152606401610459565b609a55565b7fb53127684a568b3173ae13b9f8a6016e243e63b6e8ee1178d6a717850b5d61035473ffffffffffffffffffffffffffffffffffffffff163373ffffffffffffffffffffffffffffffffffffffff161461127f576040517f08c379a000000000000000000000000000000000000000000000000000000000815260206004820152600e60248201527f4e4f545f415554484f52495a45440000000000000000000000000000000000006044820152606401610459565b60005b828110156112cc576112ba84848381811061129f5761129f61424b565b90506020020160208101906112b49190613908565b83611d6f565b806112c4816141e3565b915050611282565b50505050565b7fb53127684a568b3173ae13b9f8a6016e243e63b6e8ee1178d6a717850b5d61035473ffffffffffffffffffffffffffffffffffffffff163373ffffffffffffffffffffffffffffffffffffffff1614611388576040517f08c379a000000000000000000000000000000000000000000000000000000000815260206004820152600e60248201527f4e4f545f415554484f52495a45440000000000000000000000000000000000006044820152606401610459565b611390612c27565b565b6000806000853073ffffffffffffffffffffffffffffffffffffffff167f000000000000000000000000000000000000000000000000000000000000000073ffffffffffffffffffffffffffffffffffffffff1663081812fc836040518263ffffffff1660e01b815260040161140a91815260200190565b60206040518083038186803b15801561142257600080fd5b505afa158015611436573d6000803e3d6000fd5b505050506040513d601f19601f8201168201806040525081019061145a9190613925565b73ffffffffffffffffffffffffffffffffffffffff16146114fd576040517f08c379a000000000000000000000000000000000000000000000000000000000815260206004820152603160248201527f456a6563744c503a3a6973417070726f7665643a20456a6563744c502073686f60448201527f756c642062652061206f70657261746f720000000000000000000000000000006064820152608401610459565b868660c001518073ffffffffffffffffffffffffffffffffffffffff167f000000000000000000000000000000000000000000000000000000000000000073ffffffffffffffffffffffffffffffffffffffff16636352211e846040518263ffffffff1660e01b815260040161157591815260200190565b60206040518083038186803b15801561158d57600080fd5b505afa1580156115a1573d6000803e3d6000fd5b505050506040513d601f19601f820116820180604052508101906115c59190613925565b73ffffffffffffffffffffffffffffffffffffffff1614611642576040517f08c379a000000000000000000000000000000000000000000000000000000000815260206004820152601d60248201527f456a6563744c503a7363686564756c653a3a206f6e6c79206f776e65720000006044820152606401610459565b876040516020016116539190613fd6565b604080517fffffffffffffffffffffffffffffffffffffffffffffffffffffffffffffffe0818403018152918152815160209283012060008c8152609790935291205414611723576040517f08c379a000000000000000000000000000000000000000000000000000000000815260206004820152602660248201527f456a6563744c503a3a63616e456a6563743a20696e636f72726563742074617360448201527f6b206861736800000000000000000000000000000000000000000000000000006064820152608401610459565b426099548961010001516117379190614124565b116117c4576040517f08c379a000000000000000000000000000000000000000000000000000000000815260206004820152602760248201527f456a6563744c503a3a63616e456a6563743a2072616e6765206f72646572206560448201527f7870697265642e000000000000000000000000000000000000000000000000006064820152608401610459565b60008060008060007f000000000000000000000000000000000000000000000000000000000000000073ffffffffffffffffffffffffffffffffffffffff166399fbab888f6040518263ffffffff1660e01b815260040161182791815260200190565b6101806040518083038186803b15801561184057600080fd5b505afa158015611854573d6000803e3d6000fd5b505050506040513d601f19601f820116820180604052508101906118789190613c62565b50979e50959c50909a5092975061189c96508b95508a9450879350612d0892505050565b91505073ffffffffffffffffffffffffffffffffffffffff8b1673eeeeeeeeeeeeeeeeeeeeeeeeeeeeeeeeeeeeeeee14611957576040517f08c379a0000000000000000000000000000000000000000000000000000000008152602060048201526024808201527f456a6563744c503a3a63616e456a6563743a206f6e6c79206e6174697665207460448201527f6f6b656e000000000000000000000000000000000000000000000000000000006064820152608401610459565b60008173ffffffffffffffffffffffffffffffffffffffff16633850c7bd6040518163ffffffff1660e01b815260040160e06040518083038186803b15801561199f57600080fd5b505afa1580156119b3573d6000803e3d6000fd5b505050506040513d601f19601f820116820180604052508101906119d79190613b02565b505050505091505060008273ffffffffffffffffffffffffffffffffffffffff1663d0c93a7c6040518163ffffffff1660e01b815260040160206040518083038186803b158015611a2757600080fd5b505afa158015611a3b573d6000803e3d6000fd5b505050506040513d601f19601f82011682018060405250810190611a5f9190613a37565b90508d6020015115611aeb578d51611a789082906140c1565b60020b8260020b13611ae6576040517f08c379a000000000000000000000000000000000000000000000000000000000815260206004820181905260248201527f456a6563744c503a3a63616e456a6563743a207072696365206e6f74206d65746044820152606401610459565b611b66565b8d51611af890829061413c565b60020b8260020b12611b66576040517f08c379a000000000000000000000000000000000000000000000000000000000815260206004820181905260248201527f456a6563744c503a3a63616e456a6563743a207072696365206e6f74206d65746044820152606401610459565b50939d929c50909a509098505050505050505050565b600054610100900460ff1680611b95575060005460ff16155b611c21576040517f08c379a000000000000000000000000000000000000000000000000000000000815260206004820152602e60248201527f496e697469616c697a61626c653a20636f6e747261637420697320616c72656160448201527f647920696e697469616c697a65640000000000000000000000000000000000006064820152608401610459565b600054610100900460ff16158015611c6057600080547fffffffffffffffffffffffffffffffffffffffffffffffffffffffffffff0000166101011790555b611c68612dfd565b611c70612f1a565b6276a700609955633b9aca00609a558015611cae57600080547fffffffffffffffffffffffffffffffffffffffffffffffffffffffffffff00ff1690555b50565b7fb53127684a568b3173ae13b9f8a6016e243e63b6e8ee1178d6a717850b5d61035473ffffffffffffffffffffffffffffffffffffffff163373ffffffffffffffffffffffffffffffffffffffff1614611d67576040517f08c379a000000000000000000000000000000000000000000000000000000000815260206004820152600e60248201527f4e4f545f415554484f52495a45440000000000000000000000000000000000006044820152606401610459565b61139061300e565b7fb53127684a568b3173ae13b9f8a6016e243e63b6e8ee1178d6a717850b5d61035473ffffffffffffffffffffffffffffffffffffffff163373ffffffffffffffffffffffffffffffffffffffff1614611e25576040517f08c379a000000000000000000000000000000000000000000000000000000000815260206004820152600e60248201527f4e4f545f415554484f52495a45440000000000000000000000000000000000006044820152606401610459565b6040517f70a08231000000000000000000000000000000000000000000000000000000008152306004820152829060009073ffffffffffffffffffffffffffffffffffffffff8316906370a082319060240160206040518083038186803b158015611e8f57600080fd5b505afa158015611ea3573d6000803e3d6000fd5b505050506040513d601f19601f82011682018060405250810190611ec79190613a1e565b905080156112cc576112cc73ffffffffffffffffffffffffffffffffffffffff83168483612a3b565b60655460ff1615611f5d576040517f08c379a000000000000000000000000000000000000000000000000000000000815260206004820152601060248201527f5061757361626c653a20706175736564000000000000000000000000000000006044820152606401610459565b60026001541415611fca576040517f08c379a000000000000000000000000000000000000000000000000000000000815260206004820152601f60248201527f5265656e7472616e637947756172643a207265656e7472616e742063616c6c006044820152606401610459565b60026001556040517f081812fc000000000000000000000000000000000000000000000000000000008152600481018390528290309073ffffffffffffffffffffffffffffffffffffffff7f0000000000000000000000000000000000000000000000000000000000000000169063081812fc9060240160206040518083038186803b15801561205957600080fd5b505afa15801561206d573d6000803e3d6000fd5b505050506040513d601f19601f820116820180604052508101906120919190613925565b73ffffffffffffffffffffffffffffffffffffffff1614612134576040517f08c379a000000000000000000000000000000000000000000000000000000000815260206004820152603160248201527f456a6563744c503a3a6973417070726f7665643a20456a6563744c502073686f60448201527f756c642062652061206f70657261746f720000000000000000000000000000006064820152608401610459565b6040517f6352211e0000000000000000000000000000000000000000000000000000000081526004810184905283903390819073ffffffffffffffffffffffffffffffffffffffff7f00000000000000000000000000000000000000000000000000000000000000001690636352211e9060240160206040518083038186803b1580156121c057600080fd5b505afa1580156121d4573d6000803e3d6000fd5b505050506040513d601f19601f820116820180604052508101906121f89190613925565b73ffffffffffffffffffffffffffffffffffffffff1614612275576040517f08c379a000000000000000000000000000000000000000000000000000000000815260206004820152601d60248201527f456a6563744c503a7363686564756c653a3a206f6e6c79206f776e65720000006044820152606401610459565b836040516020016122869190613fd6565b604080517fffffffffffffffffffffffffffffffffffffffffffffffffffffffffffffffe081840301815291815281516020928301206000888152609790935291205414612330576040517f08c379a000000000000000000000000000000000000000000000000000000000815260206004820152601d60248201527f456a6563744c503a3a63616e63656c3a20696e76616c696420686173680000006044820152606401610459565b6000806000807f000000000000000000000000000000000000000000000000000000000000000073ffffffffffffffffffffffffffffffffffffffff166399fbab888a6040518263ffffffff1660e01b815260040161239191815260200190565b6101806040518083038186803b1580156123aa57600080fd5b505afa1580156123be573d6000803e3d6000fd5b505050506040513d601f19601f820116820180604052508101906123e29190613c62565b5050505097505050955095509550505060006123ff858585612d08565b73ffffffffffffffffffffffffffffffffffffffff16633850c7bd6040518163ffffffff1660e01b815260040160e06040518083038186803b15801561244457600080fd5b505afa158015612458573d6000803e3d6000fd5b505050506040513d601f19601f8201168201806040525081019061247c9190613b02565b505050505091505088602001511561250657886000015160020b8160020b12612501576040517f08c379a000000000000000000000000000000000000000000000000000000000815260206004820152601a60248201527f456a6563744c503a3a63616e63656c3a207072696365206d65740000000000006044820152606401610459565b612579565b886000015160020b8160020b13612579576040517f08c379a000000000000000000000000000000000000000000000000000000000815260206004820152601a60248201527f456a6563744c503a3a63616e63656c3a207072696365206d65740000000000006044820152606401610459565b60008a815260986020526040908190205490517fee8ca3b500000000000000000000000000000000000000000000000000000000815260048101919091527f000000000000000000000000000000000000000000000000000000000000000073ffffffffffffffffffffffffffffffffffffffff169063ee8ca3b590602401600060405180830381600087803b15801561261257600080fd5b505af1158015612626573d6000803e3d6000fd5b50505060008b8152609760209081526040808320839055609890915281208190559050806126548c85612801565b915091508a602001516126775760008211801561267257508a604001515b61267c565b600082115b156126a85760a08b01516126a89073ffffffffffffffffffffffffffffffffffffffff89169084612a3b565b8a602001516126ba57600081116126cb565b6000811180156126cb57508a604001515b156126f75760a08b01516126f79073ffffffffffffffffffffffffffffffffffffffff88169083612a3b565b6127098b60a001518c60e00151612acd565b6040518c907fde78c725503e228892c8783c476c35c4ef4c7b91923ada97d8125ec9e894cbec90600090a250506001805550505050505050505050565b7fb53127684a568b3173ae13b9f8a6016e243e63b6e8ee1178d6a717850b5d61035473ffffffffffffffffffffffffffffffffffffffff163373ffffffffffffffffffffffffffffffffffffffff16146127fc576040517f08c379a000000000000000000000000000000000000000000000000000000000815260206004820152600e60248201527f4e4f545f415554484f52495a45440000000000000000000000000000000000006044820152606401610459565b609955565b6040805160a0810182528381526fffffffffffffffffffffffffffffffff83811660208301908152600083850181815260608501828152426080870190815296517f0c49ccbe0000000000000000000000000000000000000000000000000000000081529551600487015292519093166024850152915160448401525160648301529151608482015281907f000000000000000000000000000000000000000000000000000000000000000073ffffffffffffffffffffffffffffffffffffffff1690630c49ccbe9060a4016040805180830381600087803b1580156128e657600080fd5b505af11580156128fa573d6000803e3d6000fd5b505050506040513d601f19601f8201168201806040525081019061291e9190613c3e565b50506040805160808101825285815230602082019081526fffffffffffffffffffffffffffffffff8284018181526060840182815294517ffc6f786500000000000000000000000000000000000000000000000000000000815293516004850152915173ffffffffffffffffffffffffffffffffffffffff9081166024850152915181166044840152925190921660648201527f00000000000000000000000000000000000000000000000000000000000000009091169063fc6f7865906084016040805180830381600087803b1580156129f857600080fd5b505af1158015612a0c573d6000803e3d6000fd5b505050506040513d601f19601f82011682018060405250810190612a309190613c3e565b909590945092505050565b6040805173ffffffffffffffffffffffffffffffffffffffff8416602482015260448082018490528251808303909101815260649091019091526020810180517bffffffffffffffffffffffffffffffffffffffffffffffffffffffff167fa9059cbb00000000000000000000000000000000000000000000000000000000179052612ac89084906130ce565b505050565b80471015612b37576040517f08c379a000000000000000000000000000000000000000000000000000000000815260206004820152601d60248201527f416464726573733a20696e73756666696369656e742062616c616e63650000006044820152606401610459565b60008273ffffffffffffffffffffffffffffffffffffffff168260405160006040518083038185875af1925050503d8060008114612b91576040519150601f19603f3d011682016040523d82523d6000602084013e612b96565b606091505b5050905080612ac8576040517f08c379a000000000000000000000000000000000000000000000000000000000815260206004820152603a60248201527f416464726573733a20756e61626c6520746f2073656e642076616c75652c207260448201527f6563697069656e74206d617920686176652072657665727465640000000000006064820152608401610459565b60655460ff16612c93576040517f08c379a000000000000000000000000000000000000000000000000000000000815260206004820152601460248201527f5061757361626c653a206e6f74207061757365640000000000000000000000006044820152606401610459565b606580547fffffffffffffffffffffffffffffffffffffffffffffffffffffffffffffff001690557f5db9ee0a495bf2e6ff9c91a7834c1ba4fdd244a5e8aa4e537bd38aeae4b073aa335b60405173ffffffffffffffffffffffffffffffffffffffff909116815260200160405180910390a1565b6000612df37f000000000000000000000000000000000000000000000000000000000000000060405180606001604052808673ffffffffffffffffffffffffffffffffffffffff168873ffffffffffffffffffffffffffffffffffffffff1610612d725786612d74565b875b73ffffffffffffffffffffffffffffffffffffffff1681526020018673ffffffffffffffffffffffffffffffffffffffff168873ffffffffffffffffffffffffffffffffffffffff1610612dc85787612dca565b865b73ffffffffffffffffffffffffffffffffffffffff1681526020018562ffffff168152506131da565b90505b9392505050565b600054610100900460ff1680612e16575060005460ff16155b612ea2576040517f08c379a000000000000000000000000000000000000000000000000000000000815260206004820152602e60248201527f496e697469616c697a61626c653a20636f6e747261637420697320616c72656160448201527f647920696e697469616c697a65640000000000000000000000000000000000006064820152608401610459565b600054610100900460ff16158015612ee157600080547fffffffffffffffffffffffffffffffffffffffffffffffffffffffffffff0000166101011790555b612ee9613333565b8015611cae57600080547fffffffffffffffffffffffffffffffffffffffffffffffffffffffffffff00ff16905550565b600054610100900460ff1680612f33575060005460ff16155b612fbf576040517f08c379a000000000000000000000000000000000000000000000000000000000815260206004820152602e60248201527f496e697469616c697a61626c653a20636f6e747261637420697320616c72656160448201527f647920696e697469616c697a65640000000000000000000000000000000000006064820152608401610459565b600054610100900460ff16158015612ffe57600080547fffffffffffffffffffffffffffffffffffffffffffffffffffffffffffff0000166101011790555b61300661344c565b612ee9613560565b60655460ff161561307b576040517f08c379a000000000000000000000000000000000000000000000000000000000815260206004820152601060248201527f5061757361626c653a20706175736564000000000000000000000000000000006044820152606401610459565b606580547fffffffffffffffffffffffffffffffffffffffffffffffffffffffffffffff001660011790557f62e78cea01bee320cd4e420270b5ea74000d11b0c9f74754ebdbfc544b05a258612cde3390565b6000613130826040518060400160405280602081526020017f5361666545524332303a206c6f772d6c6576656c2063616c6c206661696c65648152508573ffffffffffffffffffffffffffffffffffffffff1661369d9092919063ffffffff16565b805190915015612ac8578080602001905181019061314e9190613a01565b612ac8576040517f08c379a000000000000000000000000000000000000000000000000000000000815260206004820152602a60248201527f5361666545524332303a204552433230206f7065726174696f6e20646964206e60448201527f6f742073756363656564000000000000000000000000000000000000000000006064820152608401610459565b6000816020015173ffffffffffffffffffffffffffffffffffffffff16826000015173ffffffffffffffffffffffffffffffffffffffff161061321c57600080fd5b8151602080840151604080860151815173ffffffffffffffffffffffffffffffffffffffff95861681860152949092168482015262ffffff90911660608085019190915281518085038201815260808501909252815191909201207fff0000000000000000000000000000000000000000000000000000000000000060a08401529085901b7fffffffffffffffffffffffffffffffffffffffff0000000000000000000000001660a183015260b58201527fe34f199b19b2b4f47f68442619d555527d244f78a3297ea89325f843f87b8b5460d582015260f501604080517fffffffffffffffffffffffffffffffffffffffffffffffffffffffffffffffe081840301815291905280516020909101209392505050565b600054610100900460ff168061334c575060005460ff16155b6133d8576040517f08c379a000000000000000000000000000000000000000000000000000000000815260206004820152602e60248201527f496e697469616c697a61626c653a20636f6e747261637420697320616c72656160448201527f647920696e697469616c697a65640000000000000000000000000000000000006064820152608401610459565b600054610100900460ff1615801561341757600080547fffffffffffffffffffffffffffffffffffffffffffffffffffffffffffff0000166101011790555b600180558015611cae57600080547fffffffffffffffffffffffffffffffffffffffffffffffffffffffffffff00ff16905550565b600054610100900460ff1680613465575060005460ff16155b6134f1576040517f08c379a000000000000000000000000000000000000000000000000000000000815260206004820152602e60248201527f496e697469616c697a61626c653a20636f6e747261637420697320616c72656160448201527f647920696e697469616c697a65640000000000000000000000000000000000006064820152608401610459565b600054610100900460ff16158015612ee957600080547fffffffffffffffffffffffffffffffffffffffffffffffffffffffffffff0000166101011790558015611cae57600080547fffffffffffffffffffffffffffffffffffffffffffffffffffffffffffff00ff16905550565b600054610100900460ff1680613579575060005460ff16155b613605576040517f08c379a000000000000000000000000000000000000000000000000000000000815260206004820152602e60248201527f496e697469616c697a61626c653a20636f6e747261637420697320616c72656160448201527f647920696e697469616c697a65640000000000000000000000000000000000006064820152608401610459565b600054610100900460ff1615801561364457600080547fffffffffffffffffffffffffffffffffffffffffffffffffffffffffffff0000166101011790555b606580547fffffffffffffffffffffffffffffffffffffffffffffffffffffffffffffff001690558015611cae57600080547fffffffffffffffffffffffffffffffffffffffffffffffffffffffffffff00ff16905550565b6060612df3848460008585843b613710576040517f08c379a000000000000000000000000000000000000000000000000000000000815260206004820152601d60248201527f416464726573733a2063616c6c20746f206e6f6e2d636f6e74726163740000006044820152606401610459565b6000808673ffffffffffffffffffffffffffffffffffffffff1685876040516137399190613e2e565b60006040518083038185875af1925050503d8060008114613776576040519150601f19603f3d011682016040523d82523d6000602084013e61377b565b606091505b509150915061378b828286613798565b925050505b949350505050565b606083156137a7575081612df6565b8251156137b75782518084602001fd5b816040517f08c379a00000000000000000000000000000000000000000000000000000000081526004016104599190613ebf565b80356137f68161427a565b919050565b80516137f68161427a565b80356137f68161429c565b80356137f6816142aa565b80516137f6816142aa565b6000610120828403121561383a57600080fd5b613842614025565b905061384d82613811565b815261385b60208301613806565b602082015261386c60408301613806565b6040820152606082013560608201526080820135608082015261389160a083016137eb565b60a08201526138a260c083016137eb565b60c082015260e082013560e082015261010080830135818301525092915050565b80516fffffffffffffffffffffffffffffffff811681146137f657600080fd5b805161ffff811681146137f657600080fd5b805162ffffff811681146137f657600080fd5b60006020828403121561391a57600080fd5b8135612df68161427a565b60006020828403121561393757600080fd5b8151612df68161427a565b6000806040838503121561395557600080fd5b82356139608161427a565b915060208301356139708161427a565b809150509250929050565b60008060006040848603121561399057600080fd5b833567ffffffffffffffff808211156139a857600080fd5b818601915086601f8301126139bc57600080fd5b8135818111156139cb57600080fd5b8760208260051b85010111156139e057600080fd5b602092830195509350508401356139f68161427a565b809150509250925092565b600060208284031215613a1357600080fd5b8151612df68161429c565b600060208284031215613a3057600080fd5b5051919050565b600060208284031215613a4957600080fd5b8151612df6816142aa565b60006101408284031215613a6757600080fd5b613a6f614076565b82358152613a7f60208401613811565b6020820152613a9060408401613806565b6040820152613aa160608401613806565b60608201526080830135608082015260a083013560a0820152613ac660c084016137eb565b60c0820152613ad760e084016137eb565b60e0820152610100613aea8185016137eb565b90820152610120928301359281019290925250919050565b600080600080600080600060e0888a031215613b1d57600080fd5b8751613b288161427a565b6020890151909750613b39816142aa565b9550613b47604089016138e3565b9450613b55606089016138e3565b9350613b63608089016138e3565b925060a088015160ff81168114613b7957600080fd5b60c0890151909250613b8a8161429c565b8091505092959891949750929550565b600060208284031215613bac57600080fd5b5035919050565b60008060408385031215613bc657600080fd5b8251915060208301516139708161427a565b6000806101408385031215613bec57600080fd5b82359150613bfd8460208501613827565b90509250929050565b60008060006101608486031215613c1c57600080fd5b83359250613c2d8560208601613827565b91506101408401356139f68161427a565b60008060408385031215613c5157600080fd5b505080516020909101519092909150565b6000806000806000806000806000806000806101808d8f031215613c8557600080fd5b8c516bffffffffffffffffffffffff81168114613ca157600080fd5b9b50613caf60208e016137fb565b9a50613cbd60408e016137fb565b9950613ccb60608e016137fb565b9850613cd960808e016138f5565b9750613ce760a08e0161381c565b9650613cf560c08e0161381c565b9550613d0360e08e016138c3565b94506101008d015193506101208d01519250613d226101408e016138c3565b9150613d316101608e016138c3565b90509295989b509295989b509295989b565b60008151808452613d5b8160208601602086016141b7565b601f017fffffffffffffffffffffffffffffffffffffffffffffffffffffffffffffffe0169290920160200192915050565b805160020b82526020810151151560208301526040810151613db3604084018215159052565b50606081015160608301526080810151608083015260a0810151613def60a084018273ffffffffffffffffffffffffffffffffffffffff169052565b5060c0810151613e1760c084018273ffffffffffffffffffffffffffffffffffffffff169052565b5060e0818101519083015261010090810151910152565b60008251613e408184602087016141b7565b9190910192915050565b600073ffffffffffffffffffffffffffffffffffffffff80881683527fffffffff0000000000000000000000000000000000000000000000000000000087166020840152808616604084015260a06060840152613eaa60a0840186613d43565b91508084166080840152509695505050505050565b602081526000612df66020830184613d43565b83518152602080850151610180830191613ef09084018260020b9052565b506040850151613f04604084018215159052565b506060850151613f18606084018215159052565b506080850151608083015260a085015160a083015260c0850151613f5460c084018273ffffffffffffffffffffffffffffffffffffffff169052565b5060e0850151613f7c60e084018273ffffffffffffffffffffffffffffffffffffffff169052565b506101008581015173ffffffffffffffffffffffffffffffffffffffff81168483015250506101208581015190830152610140820184905273ffffffffffffffffffffffffffffffffffffffff8316610160830152613790565b6101208101613fe58284613d8d565b92915050565b83815261016081016140006020830185613d8d565b73ffffffffffffffffffffffffffffffffffffffff8316610140830152949350505050565b604051610120810167ffffffffffffffff81118282101715614070577f4e487b7100000000000000000000000000000000000000000000000000000000600052604160045260246000fd5b60405290565b604051610140810167ffffffffffffffff81118282101715614070577f4e487b7100000000000000000000000000000000000000000000000000000000600052604160045260246000fd5b60008160020b8360020b6000821282627fffff038213811516156140e7576140e761421c565b827fffffffffffffffffffffffffffffffffffffffffffffffffffffffffff80000003821281161561411b5761411b61421c565b50019392505050565b600082198211156141375761413761421c565b500190565b60008160020b8360020b60008112817fffffffffffffffffffffffffffffffffffffffffffffffffffffffffff8000000183128115161561417f5761417f61421c565b81627fffff0183138116156141965761419661421c565b5090039392505050565b6000828210156141b2576141b261421c565b500390565b60005b838110156141d25781810151838201526020016141ba565b838111156112cc5750506000910152565b60007fffffffffffffffffffffffffffffffffffffffffffffffffffffffffffffffff8214156142155761421561421c565b5060010190565b7f4e487b7100000000000000000000000000000000000000000000000000000000600052601160045260246000fd5b7f4e487b7100000000000000000000000000000000000000000000000000000000600052603260045260246000fd5b73ffffffffffffffffffffffffffffffffffffffff81168114611cae57600080fd5b8015158114611cae57600080fd5b8060020b8114611cae57600080fdfea26469706673582212203d9b986c0323a15eafffa0c6bce4f76f0e43f1d9b177f42523d59b1f916f856e64736f6c63430008070033",
  "devdoc": {
    "kind": "dev",
    "methods": {
      "paused()": {
        "details": "Returns true if the contract is paused, and false otherwise."
      }
    },
    "version": 1
  },
  "userdoc": {
    "kind": "user",
    "methods": {},
    "version": 1
  },
  "storageLayout": {
    "storage": [
      {
        "astId": 5,
        "contract": "contracts/EjectLP.sol:EjectLP",
        "label": "_initialized",
        "offset": 0,
        "slot": "0",
        "type": "t_bool"
      },
      {
        "astId": 8,
        "contract": "contracts/EjectLP.sol:EjectLP",
        "label": "_initializing",
        "offset": 1,
        "slot": "0",
        "type": "t_bool"
      },
      {
        "astId": 172,
        "contract": "contracts/EjectLP.sol:EjectLP",
        "label": "_status",
        "offset": 0,
        "slot": "1",
        "type": "t_uint256"
      },
      {
        "astId": 215,
        "contract": "contracts/EjectLP.sol:EjectLP",
        "label": "__gap",
        "offset": 0,
        "slot": "2",
        "type": "t_array(t_uint256)49_storage"
      },
      {
        "astId": 504,
        "contract": "contracts/EjectLP.sol:EjectLP",
        "label": "__gap",
        "offset": 0,
        "slot": "51",
        "type": "t_array(t_uint256)50_storage"
      },
      {
        "astId": 66,
        "contract": "contracts/EjectLP.sol:EjectLP",
        "label": "_paused",
        "offset": 0,
        "slot": "101",
        "type": "t_bool"
      },
      {
        "astId": 157,
        "contract": "contracts/EjectLP.sol:EjectLP",
        "label": "__gap",
        "offset": 0,
        "slot": "102",
        "type": "t_array(t_uint256)49_storage"
      },
      {
        "astId": 2501,
        "contract": "contracts/EjectLP.sol:EjectLP",
        "label": "hashById",
        "offset": 0,
        "slot": "151",
        "type": "t_mapping(t_uint256,t_bytes32)"
      },
      {
        "astId": 2505,
        "contract": "contracts/EjectLP.sol:EjectLP",
        "label": "taskById",
        "offset": 0,
        "slot": "152",
        "type": "t_mapping(t_uint256,t_bytes32)"
      },
      {
        "astId": 2507,
        "contract": "contracts/EjectLP.sol:EjectLP",
        "label": "duration",
        "offset": 0,
        "slot": "153",
        "type": "t_uint256"
      },
      {
        "astId": 2509,
        "contract": "contracts/EjectLP.sol:EjectLP",
        "label": "minimumFee",
        "offset": 0,
        "slot": "154",
        "type": "t_uint256"
      }
    ],
    "types": {
      "t_array(t_uint256)49_storage": {
        "base": "t_uint256",
        "encoding": "inplace",
        "label": "uint256[49]",
        "numberOfBytes": "1568"
      },
      "t_array(t_uint256)50_storage": {
        "base": "t_uint256",
        "encoding": "inplace",
        "label": "uint256[50]",
        "numberOfBytes": "1600"
      },
      "t_bool": {
        "encoding": "inplace",
        "label": "bool",
        "numberOfBytes": "1"
      },
      "t_bytes32": {
        "encoding": "inplace",
        "label": "bytes32",
        "numberOfBytes": "32"
      },
      "t_mapping(t_uint256,t_bytes32)": {
        "encoding": "mapping",
        "key": "t_uint256",
        "label": "mapping(uint256 => bytes32)",
        "numberOfBytes": "32",
        "value": "t_bytes32"
      },
      "t_uint256": {
        "encoding": "inplace",
        "label": "uint256",
        "numberOfBytes": "32"
      }
    }
  }
}