{
  "address": "0xC3717A696e03e947103FBa3509c256A35F26Ca8E",
  "abi": [
    {
      "inputs": [
        {
          "internalType": "contract INonfungiblePositionManager",
          "name": "nftPositions_",
          "type": "address"
        },
        {
          "internalType": "address",
          "name": "factory_",
          "type": "address"
        },
        {
          "internalType": "contract IPokeMe",
          "name": "pokeMe_",
          "type": "address"
        },
        {
          "internalType": "address",
          "name": "gelato_",
          "type": "address"
        }
      ],
      "stateMutability": "nonpayable",
      "type": "constructor"
    },
    {
      "anonymous": false,
      "inputs": [
        {
          "indexed": true,
          "internalType": "uint256",
          "name": "tokenId",
          "type": "uint256"
        }
      ],
      "name": "LogCancelEject",
      "type": "event"
    },
    {
      "anonymous": false,
      "inputs": [
        {
          "indexed": true,
          "internalType": "uint256",
          "name": "tokenId",
          "type": "uint256"
        },
        {
          "indexed": false,
          "internalType": "uint256",
          "name": "amount0Out",
          "type": "uint256"
        },
        {
          "indexed": false,
          "internalType": "uint256",
          "name": "amount1Out",
          "type": "uint256"
        },
        {
          "indexed": false,
          "internalType": "uint256",
          "name": "feeAmount",
          "type": "uint256"
        }
      ],
      "name": "LogEject",
      "type": "event"
    },
    {
      "anonymous": false,
      "inputs": [
        {
          "indexed": true,
          "internalType": "uint256",
          "name": "tokenId",
          "type": "uint256"
        },
        {
          "components": [
            {
              "internalType": "uint256",
              "name": "tokenId",
              "type": "uint256"
            },
            {
              "internalType": "int24",
              "name": "tickThreshold",
              "type": "int24"
            },
            {
              "internalType": "bool",
              "name": "ejectAbove",
              "type": "bool"
            },
            {
              "internalType": "bool",
              "name": "ejectDust",
              "type": "bool"
            },
            {
              "internalType": "uint256",
              "name": "amount0Min",
              "type": "uint256"
            },
            {
              "internalType": "uint256",
              "name": "amount1Min",
              "type": "uint256"
            },
            {
              "internalType": "address",
              "name": "receiver",
              "type": "address"
            },
            {
              "internalType": "address",
              "name": "feeToken",
              "type": "address"
            },
            {
              "internalType": "address",
              "name": "resolver",
              "type": "address"
            },
            {
              "internalType": "uint256",
              "name": "maxFeeAmount",
              "type": "uint256"
            }
          ],
          "indexed": true,
          "internalType": "struct OrderParams",
          "name": "orderParams",
          "type": "tuple"
        },
        {
          "indexed": false,
          "internalType": "address",
          "name": "sender",
          "type": "address"
        }
      ],
      "name": "LogSetEject",
      "type": "event"
    },
    {
      "inputs": [
        {
          "internalType": "uint256",
          "name": "tokenId_",
          "type": "uint256"
        },
        {
          "components": [
            {
              "internalType": "int24",
              "name": "tickThreshold",
              "type": "int24"
            },
            {
              "internalType": "bool",
              "name": "ejectAbove",
              "type": "bool"
            },
            {
              "internalType": "bool",
              "name": "ejectDust",
              "type": "bool"
            },
            {
              "internalType": "uint256",
              "name": "amount0Min",
              "type": "uint256"
            },
            {
              "internalType": "uint256",
              "name": "amount1Min",
              "type": "uint256"
            },
            {
              "internalType": "address",
              "name": "receiver",
              "type": "address"
            },
            {
              "internalType": "address",
              "name": "owner",
              "type": "address"
            },
            {
              "internalType": "uint256",
              "name": "maxFeeAmount",
              "type": "uint256"
            }
          ],
          "internalType": "struct Order",
          "name": "order_",
          "type": "tuple"
        },
        {
          "internalType": "address",
          "name": "feeToken_",
          "type": "address"
        }
      ],
      "name": "canEject",
      "outputs": [
        {
          "internalType": "address",
          "name": "",
          "type": "address"
        },
        {
          "internalType": "address",
          "name": "",
          "type": "address"
        },
        {
          "internalType": "uint128",
          "name": "",
          "type": "uint128"
        }
      ],
      "stateMutability": "view",
      "type": "function"
    },
    {
      "inputs": [
        {
          "internalType": "uint256",
          "name": "tokenId_",
          "type": "uint256"
        },
        {
          "components": [
            {
              "internalType": "int24",
              "name": "tickThreshold",
              "type": "int24"
            },
            {
              "internalType": "bool",
              "name": "ejectAbove",
              "type": "bool"
            },
            {
              "internalType": "bool",
              "name": "ejectDust",
              "type": "bool"
            },
            {
              "internalType": "uint256",
              "name": "amount0Min",
              "type": "uint256"
            },
            {
              "internalType": "uint256",
              "name": "amount1Min",
              "type": "uint256"
            },
            {
              "internalType": "address",
              "name": "receiver",
              "type": "address"
            },
            {
              "internalType": "address",
              "name": "owner",
              "type": "address"
            },
            {
              "internalType": "uint256",
              "name": "maxFeeAmount",
              "type": "uint256"
            }
          ],
          "internalType": "struct Order",
          "name": "order_",
          "type": "tuple"
        }
      ],
      "name": "cancel",
      "outputs": [],
      "stateMutability": "nonpayable",
      "type": "function"
    },
    {
      "inputs": [
        {
          "internalType": "uint256",
          "name": "tokenId_",
          "type": "uint256"
        },
        {
          "components": [
            {
              "internalType": "int24",
              "name": "tickThreshold",
              "type": "int24"
            },
            {
              "internalType": "bool",
              "name": "ejectAbove",
              "type": "bool"
            },
            {
              "internalType": "bool",
              "name": "ejectDust",
              "type": "bool"
            },
            {
              "internalType": "uint256",
              "name": "amount0Min",
              "type": "uint256"
            },
            {
              "internalType": "uint256",
              "name": "amount1Min",
              "type": "uint256"
            },
            {
              "internalType": "address",
              "name": "receiver",
              "type": "address"
            },
            {
              "internalType": "address",
              "name": "owner",
              "type": "address"
            },
            {
              "internalType": "uint256",
              "name": "maxFeeAmount",
              "type": "uint256"
            }
          ],
          "internalType": "struct Order",
          "name": "order_",
          "type": "tuple"
        }
      ],
      "name": "eject",
      "outputs": [],
      "stateMutability": "nonpayable",
      "type": "function"
    },
    {
      "inputs": [
        {
          "internalType": "uint256",
          "name": "",
          "type": "uint256"
        }
      ],
      "name": "hashById",
      "outputs": [
        {
          "internalType": "bytes32",
          "name": "",
          "type": "bytes32"
        }
      ],
      "stateMutability": "view",
      "type": "function"
    },
    {
      "inputs": [],
      "name": "nftPositions",
      "outputs": [
        {
          "internalType": "contract INonfungiblePositionManager",
          "name": "",
          "type": "address"
        }
      ],
      "stateMutability": "view",
      "type": "function"
    },
    {
      "inputs": [],
      "name": "pokeMe",
      "outputs": [
        {
          "internalType": "contract IPokeMe",
          "name": "",
          "type": "address"
        }
      ],
      "stateMutability": "view",
      "type": "function"
    },
    {
      "inputs": [
        {
          "components": [
            {
              "internalType": "uint256",
              "name": "tokenId",
              "type": "uint256"
            },
            {
              "internalType": "int24",
              "name": "tickThreshold",
              "type": "int24"
            },
            {
              "internalType": "bool",
              "name": "ejectAbove",
              "type": "bool"
            },
            {
              "internalType": "bool",
              "name": "ejectDust",
              "type": "bool"
            },
            {
              "internalType": "uint256",
              "name": "amount0Min",
              "type": "uint256"
            },
            {
              "internalType": "uint256",
              "name": "amount1Min",
              "type": "uint256"
            },
            {
              "internalType": "address",
              "name": "receiver",
              "type": "address"
            },
            {
              "internalType": "address",
              "name": "feeToken",
              "type": "address"
            },
            {
              "internalType": "address",
              "name": "resolver",
              "type": "address"
            },
            {
              "internalType": "uint256",
              "name": "maxFeeAmount",
              "type": "uint256"
            }
          ],
          "internalType": "struct OrderParams",
          "name": "orderParams_",
          "type": "tuple"
        }
      ],
      "name": "schedule",
      "outputs": [],
      "stateMutability": "nonpayable",
      "type": "function"
    },
    {
      "inputs": [
        {
          "internalType": "uint256",
          "name": "",
          "type": "uint256"
        }
      ],
      "name": "taskById",
      "outputs": [
        {
          "internalType": "bytes32",
          "name": "",
          "type": "bytes32"
        }
      ],
      "stateMutability": "view",
      "type": "function"
    }
  ],
  "transactionHash": "0x51d6e4c04fd41e4e264cb786271b463d84fa8946e58e0ee0f0455e51a464c59a",
  "args": [
    "0xC36442b4a4522E871399CD717aBDD847Ab11FE88",
    "0x1F98431c8aD98523631AE4a59f267346ea31F984",
    "0xc1C6805B857Bef1f412519C4A842522431aFed39",
    "0x683913B3A32ada4F8100458A3E1675425BdAa7DF"
  ],
  "solcInputHash": "dcb6347a504a42f0218d748c047c8a5b",
  "bytecode": "0x6101006040523480156200001257600080fd5b50604051620024d0380380620024d0833981016040819052620000359162000065565b6001600160601b0319606094851b811660e05292841b831660a05290831b821660c05290911b16608052620000e6565b600080600080608085870312156200007c57600080fd5b84516200008981620000cd565b60208601519094506200009c81620000cd565b6040860151909350620000af81620000cd565b6060860151909250620000c281620000cd565b939692955090935050565b6001600160a01b0381168114620000e357600080fd5b50565b60805160601c60a05160601c60c05160601c60e05160601c61233b62000195600039600081816101a1015281816101e5015281816102a1015281816109a801528181610a8001528181610c0101528181610fb50152818161106b015281816111d701528181611564015261164d01526000818161012f01528181610459015281816105b5015281816106270152818161081001526113f10152600061173301526000610923015261233b6000f3fe608060405234801561001057600080fd5b50600436106100885760003560e01c8063c84eee0d1161005b578063c84eee0d1461012a578063d02157df14610169578063d0e681881461017c578063f301a28c1461019c57600080fd5b806310146be11461008d5780631c241d8f146100a25780635c9528a7146100d5578063898d2cfb146100e8575b600080fd5b6100a061009b366004611c47565b6101c3565b005b6100c26100b0366004611d8d565b60006020819052908152604090205481565b6040519081526020015b60405180910390f35b6100a06100e3366004611dd6565b6105aa565b6100fb6100f6366004611e04565b610996565b604080516001600160a01b0394851681529390921660208401526001600160801b0316908201526060016100cc565b6101517f000000000000000000000000000000000000000000000000000000000000000081565b6040516001600160a01b0390911681526020016100cc565b6100a0610177366004611dd6565b610f93565b6100c261018a366004611d8d565b60016020526000908152604090205481565b6101517f000000000000000000000000000000000000000000000000000000000000000081565b805160405163020604bf60e21b81526004810182905230906001600160a01b037f0000000000000000000000000000000000000000000000000000000000000000169063081812fc9060240160206040518083038186803b15801561022757600080fd5b505afa15801561023b573d6000803e3d6000fd5b505050506040513d601f19601f8201168201806040525081019061025f9190611bd7565b6001600160a01b03161461028e5760405162461bcd60e51b815260040161028590612117565b60405180910390fd5b81516040516331a9108f60e11b815233917f00000000000000000000000000000000000000000000000000000000000000006001600160a01b031691636352211e916102e09160040190815260200190565b60206040518083038186803b1580156102f857600080fd5b505afa15801561030c573d6000803e3d6000fd5b505050506040513d601f19601f820116820180604052508101906103309190611bd7565b6001600160a01b0316146103965760405162461bcd60e51b815260206004820152602760248201527f456a6563744c503a7363686564756c653a3a2063616c6c6572206d7573742062604482015266329037bbb732b960c91b6064820152608401610285565b6000604051806101000160405280846020015160020b8152602001846040015115158152602001846060015115158152602001846080015181526020018460a0015181526020018460c001516001600160a01b03168152602001336001600160a01b0316815260200184610120015181525090508060405160200161041b9190612168565b60408051601f198184030181528282528051602091820120865160009081529182905291902055610100840151845160e08601516001600160a01b037f0000000000000000000000000000000000000000000000000000000000000000169363b9f45adb933093635c9528a760e01b93919263458f523360e11b926104a692918a919060240161217d565b60408051601f198184030181529181526020820180516001600160e01b03166001600160e01b031994851617905260e0808c015191519088901b90931683526104f4959493926004016120b1565b602060405180830381600087803b15801561050e57600080fd5b505af1158015610522573d6000803e3d6000fd5b505050506040513d601f19601f820116820180604052508101906105469190611c11565b8351600090815260016020526040908190209190915551610568908490611ff7565b604051908190038120845133835290917f5b48436e4635e447f6f7f970315ce225dff3d55a7ce2c991dc2700bd272239e99060200160405180910390a3505050565b336001600160a01b037f000000000000000000000000000000000000000000000000000000000000000016146106225760405162461bcd60e51b815260206004820181905260248201527f456a6563744c503a3a6f6e6c79506f6b654d653a206f6e6c7920706f6b654d656044820152606401610285565b6000807f00000000000000000000000000000000000000000000000000000000000000006001600160a01b031663b810c6366040518163ffffffff1660e01b8152600401604080518083038186803b15801561067d57600080fd5b505afa158015610691573d6000803e3d6000fd5b505050506040513d601f19601f820116820180604052508101906106b59190611da6565b915091508260e0015182106107175760405162461bcd60e51b815260206004820152602260248201527f456a6563744c503a3a656a6563743a20666565203e206d6178466565416d6f756044820152611b9d60f21b6064820152608401610285565b6000806000610727878786610996565b92509250925060008061073a89846114f9565b91509150846001600160a01b0316866001600160a01b03161415610769576107628783612273565b9150610776565b6107738782612273565b90505b8760600151821015801561078e575087608001518110155b6107e95760405162461bcd60e51b815260206004820152602660248201527f456a6563744c503a3a656a6563743a2072656365697665642062656c6f77206d604482015265696e696d756d60d01b6064820152608401610285565b6000898152600160205260409081902054905163ee8ca3b560e01b815260048101919091527f00000000000000000000000000000000000000000000000000000000000000006001600160a01b03169063ee8ca3b590602401600060405180830381600087803b15801561085c57600080fd5b505af1158015610870573d6000803e3d6000fd5b50505060008a8152602081815260408083208390556001825282209190915589015190506108a157600082116108b2565b6000821180156108b2575087604001515b156108d15760a08801516108d1906001600160a01b03871690846116d5565b87602001516108f0576000811180156108eb575087604001515b6108f5565b600081115b156109145760a0880151610914906001600160a01b03861690836116d5565b6109486001600160a01b0387167f0000000000000000000000000000000000000000000000000000000000000000896116d5565b604080518381526020810183905290810188905289907f13fc153739ee39b14c92e544084b2394dddf73ff23fbf3b3d6699f1178b6d44f9060600160405180910390a2505050505050505050565b600080600085306001600160a01b03167f00000000000000000000000000000000000000000000000000000000000000006001600160a01b031663081812fc836040518263ffffffff1660e01b81526004016109f491815260200190565b60206040518083038186803b158015610a0c57600080fd5b505afa158015610a20573d6000803e3d6000fd5b505050506040513d601f19601f82011682018060405250810190610a449190611bd7565b6001600160a01b031614610a6a5760405162461bcd60e51b815260040161028590612117565b6040516331a9108f60e11b8152600481018890527f00000000000000000000000000000000000000000000000000000000000000006001600160a01b031690636352211e9060240160206040518083038186803b158015610aca57600080fd5b505afa158015610ade573d6000803e3d6000fd5b505050506040513d601f19601f82011682018060405250810190610b029190611bd7565b6001600160a01b03168660c001516001600160a01b031614610b665760405162461bcd60e51b815260206004820181905260248201527f456a6563744c503a3a63616e456a6563743a206f776e6572206368616e6765646044820152606401610285565b85604051602001610b779190612168565b60408051601f19818403018152918152815160209283012060008a81529283905291205414610bf75760405162461bcd60e51b815260206004820152602660248201527f456a6563744c503a3a63616e456a6563743a20696e636f7272656374207461736044820152650d640d0c2e6d60d31b6064820152608401610285565b60008060008060007f00000000000000000000000000000000000000000000000000000000000000006001600160a01b03166399fbab888d6040518263ffffffff1660e01b8152600401610c4d91815260200190565b6101806040518083038186803b158015610c6657600080fd5b505afa158015610c7a573d6000803e3d6000fd5b505050506040513d601f19601f82011682018060405250810190610c9e9190611e6b565b5050505097505050955095509550955050306001600160a01b0316856001600160a01b031614610d255760405162461bcd60e51b815260206004820152602c60248201527f456a6563744c503a3a63616e456a6563743a20636f6e7472616374206d75737460448201526b08189948185c1c1c9bdd995960a21b6064820152608401610285565b836001600160a01b03168a6001600160a01b03161480610d565750826001600160a01b03168a6001600160a01b0316145b610dad5760405162461bcd60e51b815260206004820152602260248201527f456a6563744c503a3a63616e456a6563743a2077726f6e672066656520746f6b60448201526132b760f11b6064820152608401610285565b6000610dba85858561172c565b90506000816001600160a01b0316633850c7bd6040518163ffffffff1660e01b815260040160e06040518083038186803b158015610df757600080fd5b505afa158015610e0b573d6000803e3d6000fd5b505050506040513d601f19601f82011682018060405250810190610e2f9190611cf5565b50505050509150506000826001600160a01b031663d0c93a7c6040518163ffffffff1660e01b815260040160206040518083038186803b158015610e7257600080fd5b505afa158015610e86573d6000803e3d6000fd5b505050506040513d601f19601f82011682018060405250810190610eaa9190611c2a565b90508d6020015115610f1c578d51610ec39082906121e4565b60020b8260020b13610f175760405162461bcd60e51b815260206004820181905260248201527f456a6563744c503a3a63616e456a6563743a207072696365206e6f74206d65746044820152606401610285565b610f7d565b8d51610f2990829061222b565b60020b8260020b12610f7d5760405162461bcd60e51b815260206004820181905260248201527f456a6563744c503a3a63616e456a6563743a207072696365206e6f74206d65746044820152606401610285565b50949d939c50909a509198505050505050505050565b60405163020604bf60e21b815260048101839052829030906001600160a01b037f0000000000000000000000000000000000000000000000000000000000000000169063081812fc9060240160206040518083038186803b158015610ff757600080fd5b505afa15801561100b573d6000803e3d6000fd5b505050506040513d601f19601f8201168201806040525081019061102f9190611bd7565b6001600160a01b0316146110555760405162461bcd60e51b815260040161028590612117565b6040516331a9108f60e11b8152600481018490527f00000000000000000000000000000000000000000000000000000000000000006001600160a01b031690636352211e9060240160206040518083038186803b1580156110b557600080fd5b505afa1580156110c9573d6000803e3d6000fd5b505050506040513d601f19601f820116820180604052508101906110ed9190611bd7565b6001600160a01b0316336001600160a01b03161461114d5760405162461bcd60e51b815260206004820152601b60248201527f456a6563744c503a3a63616e63656c3a206f6e6c79206f776e657200000000006044820152606401610285565b8160405160200161115e9190612168565b60408051601f198184030181529181528151602092830120600086815292839052912054146111cf5760405162461bcd60e51b815260206004820152601d60248201527f456a6563744c503a3a63616e63656c3a20696e76616c696420686173680000006044820152606401610285565b6000806000807f00000000000000000000000000000000000000000000000000000000000000006001600160a01b03166399fbab88886040518263ffffffff1660e01b815260040161122391815260200190565b6101806040518083038186803b15801561123c57600080fd5b505afa158015611250573d6000803e3d6000fd5b505050506040513d601f19601f820116820180604052508101906112749190611e6b565b50505050975050509550955095505050600061129185858561172c565b6001600160a01b0316633850c7bd6040518163ffffffff1660e01b815260040160e06040518083038186803b1580156112c957600080fd5b505afa1580156112dd573d6000803e3d6000fd5b505050506040513d601f19601f820116820180604052508101906113019190611cf5565b505050505091505086602001511561137157866000015160020b8160020b1261136c5760405162461bcd60e51b815260206004820152601a60248201527f456a6563744c503a3a63616e63656c3a207072696365206d65740000000000006044820152606401610285565b6113ca565b866000015160020b8160020b136113ca5760405162461bcd60e51b815260206004820152601a60248201527f456a6563744c503a3a63616e63656c3a207072696365206d65740000000000006044820152606401610285565b6000888152600160205260409081902054905163ee8ca3b560e01b815260048101919091527f00000000000000000000000000000000000000000000000000000000000000006001600160a01b03169063ee8ca3b590602401600060405180830381600087803b15801561143d57600080fd5b505af1158015611451573d6000803e3d6000fd5b5050506000898152602081815260408083208390556001909152812081905590508061147d8a856114f9565b909250905081156114a25760a08901516114a2906001600160a01b03891690846116d5565b80156114c25760a08901516114c2906001600160a01b03881690836116d5565b6040518a907fde78c725503e228892c8783c476c35c4ef4c7b91923ada97d8125ec9e894cbec90600090a250505050505050505050565b6040805160a0810182528381526001600160801b038381166020830190815260008385018181526060850182815242608087019081529651630624e65f60e11b81529551600487015292519093166024850152915160448401525160648301529151608482015281907f00000000000000000000000000000000000000000000000000000000000000006001600160a01b031690630c49ccbe9060a4016040805180830381600087803b1580156115af57600080fd5b505af11580156115c3573d6000803e3d6000fd5b505050506040513d601f19601f820116820180604052508101906115e79190611e47565b50506040805160808101825285815230602082019081526001600160801b0382840181815260608401828152945163fc6f786560e01b81529351600485015291516001600160a01b039081166024850152915181166044840152925190921660648201527f00000000000000000000000000000000000000000000000000000000000000009091169063fc6f7865906084016040805180830381600087803b15801561169257600080fd5b505af11580156116a6573d6000803e3d6000fd5b505050506040513d601f19601f820116820180604052508101906116ca9190611e47565b909590945092505050565b604080516001600160a01b038416602482015260448082018490528251808303909101815260649091019091526020810180516001600160e01b031663a9059cbb60e01b1790526117279084906117d3565b505050565b60006117c97f00000000000000000000000000000000000000000000000000000000000000006040518060600160405280866001600160a01b0316886001600160a01b03161061177c578661177e565b875b6001600160a01b03168152602001866001600160a01b0316886001600160a01b0316106117ab57876117ad565b865b6001600160a01b031681526020018562ffffff168152506118a5565b90505b9392505050565b6000611828826040518060400160405280602081526020017f5361666545524332303a206c6f772d6c6576656c2063616c6c206661696c6564815250856001600160a01b031661198e9092919063ffffffff16565b80519091501561172757808060200190518101906118469190611bf4565b6117275760405162461bcd60e51b815260206004820152602a60248201527f5361666545524332303a204552433230206f7065726174696f6e20646964206e6044820152691bdd081cdd58d8d9595960b21b6064820152608401610285565b600081602001516001600160a01b031682600001516001600160a01b0316106118cd57600080fd5b815160208084015160408086015181516001600160a01b0395861681860152949092168482015262ffffff90911660608085019190915281518085038201815260808501909252815191909201206001600160f81b031960a08401529085901b6bffffffffffffffffffffffff191660a183015260b58201527fe34f199b19b2b4f47f68442619d555527d244f78a3297ea89325f843f87b8b5460d582015260f50160408051601f1981840301815291905280516020909101209392505050565b60606117c9848460008585843b6119e75760405162461bcd60e51b815260206004820152601d60248201527f416464726573733a2063616c6c20746f206e6f6e2d636f6e74726163740000006044820152606401610285565b600080866001600160a01b03168587604051611a039190611fdb565b60006040518083038185875af1925050503d8060008114611a40576040519150601f19603f3d011682016040523d82523d6000602084013e611a45565b606091505b5091509150611a55828286611a60565b979650505050505050565b60608315611a6f5750816117cc565b825115611a7f5782518084602001fd5b8160405162461bcd60e51b81526004016102859190612104565b8035611aa4816122d0565b919050565b8051611aa4816122d0565b8035611aa4816122e8565b8035611aa4816122f6565b8051611aa4816122f6565b6000610100808385031215611ae957600080fd5b6040519081019067ffffffffffffffff82118183101715611b1a57634e487b7160e01b600052604160045260246000fd5b8160405280925083359150611b2e826122f6565b818152611b3d60208501611ab4565b6020820152611b4e60408501611ab4565b60408201526060840135606082015260808401356080820152611b7360a08501611a99565b60a0820152611b8460c08501611a99565b60c082015260e084013560e0820152505092915050565b80516001600160801b0381168114611aa457600080fd5b805161ffff81168114611aa457600080fd5b805162ffffff81168114611aa457600080fd5b600060208284031215611be957600080fd5b81516117cc816122d0565b600060208284031215611c0657600080fd5b81516117cc816122e8565b600060208284031215611c2357600080fd5b5051919050565b600060208284031215611c3c57600080fd5b81516117cc816122f6565b60006101408284031215611c5a57600080fd5b611c626121ac565b82358152611c7260208401611abf565b6020820152611c8360408401611ab4565b6040820152611c9460608401611ab4565b60608201526080830135608082015260a083013560a0820152611cb960c08401611a99565b60c0820152611cca60e08401611a99565b60e0820152610100611cdd818501611a99565b90820152610120928301359281019290925250919050565b600080600080600080600060e0888a031215611d1057600080fd5b8751611d1b816122d0565b6020890151909750611d2c816122f6565b9550611d3a60408901611bb2565b9450611d4860608901611bb2565b9350611d5660808901611bb2565b925060a088015160ff81168114611d6c57600080fd5b60c0890151909250611d7d816122e8565b8091505092959891949750929550565b600060208284031215611d9f57600080fd5b5035919050565b60008060408385031215611db957600080fd5b825191506020830151611dcb816122d0565b809150509250929050565b6000806101208385031215611dea57600080fd5b82359150611dfb8460208501611ad5565b90509250929050565b60008060006101408486031215611e1a57600080fd5b83359250611e2b8560208601611ad5565b9150610120840135611e3c816122d0565b809150509250925092565b60008060408385031215611e5a57600080fd5b505080516020909101519092909150565b6000806000806000806000806000806000806101808d8f031215611e8e57600080fd5b8c516bffffffffffffffffffffffff81168114611eaa57600080fd5b9b50611eb860208e01611aa9565b9a50611ec660408e01611aa9565b9950611ed460608e01611aa9565b9850611ee260808e01611bc4565b9750611ef060a08e01611aca565b9650611efe60c08e01611aca565b9550611f0c60e08e01611b9b565b94506101008d015193506101208d01519250611f2b6101408e01611b9b565b9150611f3a6101608e01611b9b565b90509295989b509295989b509295989b565b60008151808452611f6481602086016020860161228a565b601f01601f19169290920160200192915050565b805160020b8252602081015115156020830152604081015115156040830152606081015160608301526080810151608083015260a081015160018060a01b0380821660a08501528060c08401511660c0850152505060e081015160e08301525050565b60008251611fed81846020870161228a565b9190910192915050565b81518152602082015160020b60208201526040820151151560408201526120a761209961208261206c61205661204961203c6060880160608a01511515815260200190565b6080890151815260200190565b60a0880151815260200190565b60c08701516001600160a01b0316815260200190565b60e08601516001600160a01b0316815260200190565b6101008501516001600160a01b0316815260200190565b610120840151815260200190565b5061014001919050565b6001600160a01b0386811682526001600160e01b031986166020830152848116604083015260a060608301819052600091906120ef90840186611f4c565b91508084166080840152509695505050505050565b6020815260006117cc6020830184611f4c565b60208082526031908201527f456a6563744c503a3a6973417070726f7665643a20456a6563744c502073686f6040820152703ab63210313290309037b832b930ba37b960791b606082015260800190565b61010081016121778284611f78565b92915050565b83815261014081016121926020830185611f78565b6001600160a01b0392909216610120919091015292915050565b604051610140810167ffffffffffffffff811182821017156121de57634e487b7160e01b600052604160045260246000fd5b60405290565b60008160020b8360020b6000821282627fffff0382138115161561220a5761220a6122ba565b82627fffff19038212811615612222576122226122ba565b50019392505050565b60008160020b8360020b6000811281627fffff1901831281151615612252576122526122ba565b81627fffff018313811615612269576122696122ba565b5090039392505050565b600082821015612285576122856122ba565b500390565b60005b838110156122a557818101518382015260200161228d565b838111156122b4576000848401525b50505050565b634e487b7160e01b600052601160045260246000fd5b6001600160a01b03811681146122e557600080fd5b50565b80151581146122e557600080fd5b8060020b81146122e557600080fdfea26469706673582212208e0ed55587c066de997406581cb4909bcbb4adf353587dd53a8830f7bd755af864736f6c63430008070033",
  "devdoc": {
    "kind": "dev",
    "methods": {},
    "version": 1
  },
  "userdoc": {
    "kind": "user",
    "methods": {},
    "version": 1
  },
  "storageLayout": {
    "storage": [
      {
        "astId": 1381,
        "contract": "contracts/EjectLP.sol:EjectLP",
        "label": "hashById",
        "offset": 0,
        "slot": "0",
        "type": "t_mapping(t_uint256,t_bytes32)"
      },
      {
        "astId": 1385,
        "contract": "contracts/EjectLP.sol:EjectLP",
        "label": "taskById",
        "offset": 0,
        "slot": "1",
        "type": "t_mapping(t_uint256,t_bytes32)"
      }
    ],
    "types": {
      "t_bytes32": {
        "encoding": "inplace",
        "label": "bytes32",
        "numberOfBytes": "32"
      },
      "t_mapping(t_uint256,t_bytes32)": {
        "encoding": "mapping",
        "key": "t_uint256",
        "label": "mapping(uint256 => bytes32)",
        "numberOfBytes": "32",
        "value": "t_bytes32"
      },
      "t_uint256": {
        "encoding": "inplace",
        "label": "uint256",
        "numberOfBytes": "32"
      }
    }
  }
}