{
  "address": "0x177Bd89A1D8643C9525D2DF131C1a6C513869299",
  "abi": [
    {
      "inputs": [
        {
          "internalType": "contract IEjectLP",
          "name": "ejectLP_",
          "type": "address"
        }
      ],
      "stateMutability": "nonpayable",
      "type": "constructor"
    },
    {
      "inputs": [
        {
          "internalType": "uint256",
          "name": "tokenId_",
          "type": "uint256"
        },
        {
          "components": [
            {
              "internalType": "int24",
              "name": "tickThreshold",
              "type": "int24"
            },
            {
              "internalType": "bool",
              "name": "ejectAbove",
              "type": "bool"
            },
            {
              "internalType": "address",
              "name": "receiver",
              "type": "address"
            },
            {
              "internalType": "address",
              "name": "owner",
              "type": "address"
            },
            {
              "internalType": "uint256",
              "name": "maxFeeAmount",
              "type": "uint256"
            },
            {
              "internalType": "uint256",
              "name": "startTime",
              "type": "uint256"
            }
          ],
          "internalType": "struct Order",
          "name": "order_",
          "type": "tuple"
        },
        {
          "internalType": "address",
          "name": "feeToken_",
          "type": "address"
        }
      ],
      "name": "checker",
      "outputs": [
        {
          "internalType": "bool",
          "name": "",
          "type": "bool"
        },
        {
          "internalType": "bytes",
          "name": "data",
          "type": "bytes"
        }
      ],
      "stateMutability": "view",
      "type": "function"
    },
    {
      "inputs": [],
      "name": "ejectLP",
      "outputs": [
        {
          "internalType": "contract IEjectLP",
          "name": "",
          "type": "address"
        }
      ],
      "stateMutability": "view",
      "type": "function"
    }
  ],
  "transactionHash": "0x83fee7131d956eb9f5d570769ce0bde70b29f91fb361926c36957f3b1a16f7a1",
  "args": [
    "0xeE843736FF1219d60C938e7985517CE68275c2E2"
  ],
  "solcInputHash": "fa7ac6cd5a24fd22b5c8c641501c999a",
  "bytecode": "0x60a060405234801561001057600080fd5b50604051610e6c380380610e6c83398101604081905261002f91610044565b60601b6001600160601b031916608052610074565b60006020828403121561005657600080fd5b81516001600160a01b038116811461006d57600080fd5b9392505050565b60805160601c610dc06100ac60003960008181606a0152818160b90152818161021d0152818161035a01526104040152610dc06000f3fe608060405234801561001057600080fd5b50600436106100365760003560e01c80637f2743441461003b578063919574bb14610065575b600080fd5b61004e610049366004610918565b6100b1565b60405161005c929190610ac1565b60405180910390f35b61008c7f000000000000000000000000000000000000000000000000000000000000000081565b60405173ffffffffffffffffffffffffffffffffffffffff909116815260200161005c565b6000606060007f000000000000000000000000000000000000000000000000000000000000000073ffffffffffffffffffffffffffffffffffffffff166371cefbd08787876040518463ffffffff1660e01b815260040161011493929190610b1b565b60006040518083038186803b15801561012c57600080fd5b505afa158015610140573d6000803e3d6000fd5b505050506040513d6000823e601f3d9081017fffffffffffffffffffffffffffffffffffffffffffffffffffffffffffffffe01682016040526101869190810190610837565b509050801561021657600163f7d4c18360e01b878760006040516024016101af93929190610c45565b604051602081830303815290604052907bffffffffffffffffffffffffffffffffffffffffffffffffffffffff19166020820180517bffffffffffffffffffffffffffffffffffffffffffffffffffffffff83818316178352505050509250925050610585565b60008060007f000000000000000000000000000000000000000000000000000000000000000073ffffffffffffffffffffffffffffffffffffffff1663f301a28c6040518163ffffffff1660e01b815260040160206040518083038186803b15801561028157600080fd5b505afa158015610295573d6000803e3d6000fd5b505050506040513d601f19601f820116820180604052508101906102b99190610813565b73ffffffffffffffffffffffffffffffffffffffff166399fbab888a6040518263ffffffff1660e01b81526004016102f391815260200190565b6101806040518083038186803b15801561030c57600080fd5b505afa158015610320573d6000803e3d6000fd5b505050506040513d601f19601f8201168201806040525081019061034491906109e0565b50505050505050945094509450505060006103fe7f000000000000000000000000000000000000000000000000000000000000000073ffffffffffffffffffffffffffffffffffffffff1663c45a01556040518163ffffffff1660e01b815260040160206040518083038186803b1580156103be57600080fd5b505afa1580156103d2573d6000803e3d6000fd5b505050506040513d601f19601f820116820180604052508101906103f69190610813565b85858561058d565b905060007f000000000000000000000000000000000000000000000000000000000000000073ffffffffffffffffffffffffffffffffffffffff166360e204268c8c8c866040518563ffffffff1660e01b81526004016104619493929190610baa565b60006040518083038186803b15801561047957600080fd5b505afa15801561048d573d6000803e3d6000fd5b505050506040513d6000823e601f3d9081017fffffffffffffffffffffffffffffffffffffffffffffffffffffffffffffffe01682016040526104d39190810190610837565b509050801561056857600163f7d4c18360e01b8c8c60016040516024016104fc93929190610c45565b604051602081830303815290604052907bffffffffffffffffffffffffffffffffffffffffffffffffffffffff19166020820180517bffffffffffffffffffffffffffffffffffffffffffffffffffffffff838183161783525050505097509750505050505050610585565b600060405180602001604052806000815250975097505050505050505b935093915050565b60006106588560405180606001604052808673ffffffffffffffffffffffffffffffffffffffff168873ffffffffffffffffffffffffffffffffffffffff16106105d757866105d9565b875b73ffffffffffffffffffffffffffffffffffffffff1681526020018673ffffffffffffffffffffffffffffffffffffffff168873ffffffffffffffffffffffffffffffffffffffff161061062d578761062f565b865b73ffffffffffffffffffffffffffffffffffffffff1681526020018562ffffff16815250610661565b95945050505050565b6000816020015173ffffffffffffffffffffffffffffffffffffffff16826000015173ffffffffffffffffffffffffffffffffffffffff16106106a357600080fd5b8151602080840151604080860151815173ffffffffffffffffffffffffffffffffffffffff95861681860152949092168482015262ffffff90911660608085019190915281518085038201815260808501909252815191909201207fff0000000000000000000000000000000000000000000000000000000000000060a08401529085901b7fffffffffffffffffffffffffffffffffffffffff0000000000000000000000001660a183015260b58201527fe34f199b19b2b4f47f68442619d555527d244f78a3297ea89325f843f87b8b5460d582015260f501604080517fffffffffffffffffffffffffffffffffffffffffffffffffffffffffffffffe081840301815291905280516020909101209392505050565b80356107c581610d48565b919050565b80516107c581610d48565b80516107c581610d7b565b80516fffffffffffffffffffffffffffffffff811681146107c557600080fd5b805162ffffff811681146107c557600080fd5b60006020828403121561082557600080fd5b815161083081610d48565b9392505050565b6000806040838503121561084a57600080fd5b825161085581610d6d565b602084015190925067ffffffffffffffff8082111561087357600080fd5b818501915085601f83011261088757600080fd5b81518181111561089957610899610d19565b604051601f82017fffffffffffffffffffffffffffffffffffffffffffffffffffffffffffffffe0908116603f011681019083821181831017156108df576108df610d19565b816040528281528860208487010111156108f857600080fd5b610909836020830160208801610ce9565b80955050505050509250929050565b600080600083850361010081121561092f57600080fd5b8435935060c07fffffffffffffffffffffffffffffffffffffffffffffffffffffffffffffffe08201121561096357600080fd5b5061096c610cc0565b602085013561097a81610d7b565b8152604085013561098a81610d6d565b6020820152606085013561099d81610d48565b604082015260808501356109b081610d48565b606082015260a085810135608083015260c08601359082015291506109d760e085016107ba565b90509250925092565b6000806000806000806000806000806000806101808d8f031215610a0357600080fd5b8c516bffffffffffffffffffffffff81168114610a1f57600080fd5b9b50610a2d60208e016107ca565b9a50610a3b60408e016107ca565b9950610a4960608e016107ca565b9850610a5760808e01610800565b9750610a6560a08e016107d5565b9650610a7360c08e016107d5565b9550610a8160e08e016107e0565b94506101008d015193506101208d01519250610aa06101408e016107e0565b9150610aaf6101608e016107e0565b90509295989b509295989b509295989b565b82151581526040602082015260008251806040840152610ae8816060850160208701610ce9565b601f017fffffffffffffffffffffffffffffffffffffffffffffffffffffffffffffffe016919091016060019392505050565b8381526101008101610b866020830185805160020b8252602081015115156020830152604081015173ffffffffffffffffffffffffffffffffffffffff808216604085015280606084015116606085015250506080810151608083015260a081015160a08301525050565b73ffffffffffffffffffffffffffffffffffffffff831660e0830152949350505050565b8481526101208101610c156020830186805160020b8252602081015115156020830152604081015173ffffffffffffffffffffffffffffffffffffffff808216604085015280606084015116606085015250506080810151608083015260a081015160a08301525050565b73ffffffffffffffffffffffffffffffffffffffff80851660e08401528084166101008401525095945050505050565b8381526101008101610cb06020830185805160020b8252602081015115156020830152604081015173ffffffffffffffffffffffffffffffffffffffff808216604085015280606084015116606085015250506080810151608083015260a081015160a08301525050565b82151560e0830152949350505050565b60405160c0810167ffffffffffffffff81118282101715610ce357610ce3610d19565b60405290565b60005b83811015610d04578181015183820152602001610cec565b83811115610d13576000848401525b50505050565b7f4e487b7100000000000000000000000000000000000000000000000000000000600052604160045260246000fd5b73ffffffffffffffffffffffffffffffffffffffff81168114610d6a57600080fd5b50565b8015158114610d6a57600080fd5b8060020b8114610d6a57600080fdfea2646970667358221220f0a2c3ed9453894b3a0acf6f611898f4aacaaece9d414d67977ff2ac5c58a5aa64736f6c63430008070033",
  "devdoc": {
    "kind": "dev",
    "methods": {},
    "version": 1
  },
  "userdoc": {
    "kind": "user",
    "methods": {},
    "version": 1
  },
  "storageLayout": {
    "storage": [],
    "types": null
  }
}