{
  "address": "0xd7ccCB8E22a7302340609DD40DdcAa47245f2Ca8",
  "abi": [
    {
      "inputs": [
        {
          "internalType": "contract IEjectLP",
          "name": "eject_",
          "type": "address"
        },
        {
          "internalType": "contract IWETH9",
          "name": "WETH9_",
          "type": "address"
        },
        {
          "internalType": "address",
          "name": "ejectResolver_",
          "type": "address"
        }
      ],
      "stateMutability": "nonpayable",
      "type": "constructor"
    },
    {
      "inputs": [],
      "name": "WETH9",
      "outputs": [
        {
          "internalType": "contract IWETH9",
          "name": "",
          "type": "address"
        }
      ],
      "stateMutability": "view",
      "type": "function"
    },
    {
      "inputs": [
        {
          "internalType": "uint256",
          "name": "tokenId_",
          "type": "uint256"
        },
        {
          "components": [
            {
              "internalType": "address",
              "name": "pool",
              "type": "address"
            },
            {
              "internalType": "bool",
              "name": "zeroForOne",
              "type": "bool"
            },
            {
              "internalType": "bool",
              "name": "ejectDust",
              "type": "bool"
            },
            {
              "internalType": "int24",
              "name": "tickThreshold",
              "type": "int24"
            },
            {
              "internalType": "uint256",
              "name": "amountIn",
              "type": "uint256"
            },
            {
              "internalType": "uint256",
              "name": "minAmountOut",
              "type": "uint256"
            },
            {
              "internalType": "address",
              "name": "receiver",
              "type": "address"
            },
            {
              "internalType": "uint256",
              "name": "maxFeeAmount",
              "type": "uint256"
            }
          ],
          "internalType": "struct RangeOrderParams",
          "name": "params_",
          "type": "tuple"
        }
      ],
      "name": "cancelRangeOrder",
      "outputs": [],
      "stateMutability": "nonpayable",
      "type": "function"
    },
    {
      "inputs": [],
      "name": "eject",
      "outputs": [
        {
          "internalType": "contract IEjectLP",
          "name": "",
          "type": "address"
        }
      ],
      "stateMutability": "view",
      "type": "function"
    },
    {
      "inputs": [],
      "name": "ejectResolver",
      "outputs": [
        {
          "internalType": "address",
          "name": "",
          "type": "address"
        }
      ],
      "stateMutability": "view",
      "type": "function"
    },
    {
      "inputs": [
        {
          "internalType": "address",
          "name": "",
          "type": "address"
        },
        {
          "internalType": "address",
          "name": "",
          "type": "address"
        },
        {
          "internalType": "uint256",
          "name": "",
          "type": "uint256"
        },
        {
          "internalType": "bytes",
          "name": "",
          "type": "bytes"
        }
      ],
      "name": "onERC721Received",
      "outputs": [
        {
          "internalType": "bytes4",
          "name": "",
          "type": "bytes4"
        }
      ],
      "stateMutability": "pure",
      "type": "function"
    },
    {
      "inputs": [
        {
          "components": [
            {
              "internalType": "address",
              "name": "pool",
              "type": "address"
            },
            {
              "internalType": "bool",
              "name": "zeroForOne",
              "type": "bool"
            },
            {
              "internalType": "bool",
              "name": "ejectDust",
              "type": "bool"
            },
            {
              "internalType": "int24",
              "name": "tickThreshold",
              "type": "int24"
            },
            {
              "internalType": "uint256",
              "name": "amountIn",
              "type": "uint256"
            },
            {
              "internalType": "uint256",
              "name": "minAmountOut",
              "type": "uint256"
            },
            {
              "internalType": "address",
              "name": "receiver",
              "type": "address"
            },
            {
              "internalType": "uint256",
              "name": "maxFeeAmount",
              "type": "uint256"
            }
          ],
          "internalType": "struct RangeOrderParams",
          "name": "params_",
          "type": "tuple"
        }
      ],
      "name": "setRangeOrder",
      "outputs": [],
      "stateMutability": "payable",
      "type": "function"
    }
  ],
  "transactionHash": "0x969d6df694a8bab3815ca8232a664a752ce15a27c787393dcc1120c9a810a9db",
  "args": [
    "0x37aBdC29C7c380f1DE3Fa86621A03848cC20B10f",
    "0xB4FBF271143F4FBf7B91A5ded31805e42b2208d6",
    "0x801Ee912d069AF80D0fEF9F1f1a54abb1D126738"
  ],
  "solcInputHash": "3b90fc1aa54c85bc8f15459a123394f7",
  "bytecode": "0x60e06040523480156200001157600080fd5b5060405162001abe38038062001abe83398101604081905262000034916200005c565b6001600160601b0319606093841b811660805291831b821660a05290911b1660c052620000c9565b6000806000606084860312156200007257600080fd5b83516200007f81620000b0565b60208501519093506200009281620000b0565b6040850151909250620000a581620000b0565b809150509250925092565b6001600160a01b0381168114620000c657600080fd5b50565b60805160601c60a05160601c60c05160601c61198c620001326000396000818161016b0152610b0c01526000818160cb0152818161060501526106b6015260008181610117015281816104e30152818161095e015281816109d00152610d8a015261198c6000f3fe6080604052600436106100555760003560e01c8063150b7a021461005a5780631f485336146100a45780634aa4a4fc146100b957806382e94ac51461010557806392fe45da14610139578063bcecf14714610159575b600080fd5b34801561006657600080fd5b5061008661007536600461134b565b630a85bd0160e11b95945050505050565b6040516001600160e01b031990911681526020015b60405180910390f35b6100b76100b236600461145e565b61018d565b005b3480156100c557600080fd5b506100ed7f000000000000000000000000000000000000000000000000000000000000000081565b6040516001600160a01b03909116815260200161009b565b34801561011157600080fd5b506100ed7f000000000000000000000000000000000000000000000000000000000000000081565b34801561014557600080fd5b506100b7610154366004611551565b610b9c565b34801561016557600080fd5b506100ed7f000000000000000000000000000000000000000000000000000000000000000081565b600061019c6020830183611311565b90506000816001600160a01b0316633850c7bd6040518163ffffffff1660e01b815260040160e06040518083038186803b1580156101d957600080fd5b505afa1580156101ed573d6000803e3d6000fd5b505050506040513d601f19601f82011682018060405250810190610211919061147b565b50505050509150506000826001600160a01b031663d0c93a7c6040518163ffffffff1660e01b815260040160206040518083038186803b15801561025457600080fd5b505afa158015610268573d6000803e3d6000fd5b505050506040513d601f19601f8201168201806040525081019061028c9190611441565b90508061029f6080860160608701611424565b6102a991906118db565b60020b1561030a5760405162461bcd60e51b8152602060048201526024808201527f7468726573686f6c64206d75737420626520696e697469616c697a61626c65206044820152637469636b60e01b60648201526084015b60405180910390fd5b600061031c60408601602087016113ea565b61034057816103316080870160608801611424565b61033b9190611867565b610350565b6103506080860160608701611424565b9050600061036460408701602088016113ea565b61037d576103786080870160608801611424565b610398565b8261038e6080880160608901611424565b6103989190611820565b90508160020b8460020b12806103b357508060020b8460020b135b6103f55760405162461bcd60e51b8152602060048201526013602482015272656a656374207469636b20696e2072616e676560681b6044820152606401610301565b6000856001600160a01b0316630dfe16816040518163ffffffff1660e01b815260040160206040518083038186803b15801561043057600080fd5b505afa158015610444573d6000803e3d6000fd5b505050506040513d601f19601f82011682018060405250810190610468919061132e565b90506000866001600160a01b031663d21220a76040518163ffffffff1660e01b815260040160206040518083038186803b1580156104a557600080fd5b505afa1580156104b9573d6000803e3d6000fd5b505050506040513d601f19601f820116820180604052508101906104dd919061132e565b905060007f00000000000000000000000000000000000000000000000000000000000000006001600160a01b031663f301a28c6040518163ffffffff1660e01b815260040160206040518083038186803b15801561053a57600080fd5b505afa15801561054e573d6000803e3d6000fd5b505050506040513d601f19601f82011682018060405250810190610572919061132e565b9050600061058660408b0160208c016113ea565b6105905782610592565b835b9050341561072d57896080013534146106035760405162461bcd60e51b815260206004820152602d60248201527f52616e67654f726465723a73657452616e67654f726465723a3a20496e76616c60448201526c34b21030b6b7bab73a1034b71760991b6064820152608401610301565b7f00000000000000000000000000000000000000000000000000000000000000006001600160a01b0316816001600160a01b0316146106b45760405162461bcd60e51b815260206004820152604160248201527f52616e67654f726465723a73657452616e67654f726465723a3a20455448207260448201527f616e6765206f726465722073686f756c6420757365205745544820746f6b656e6064820152601760f91b608482015260a401610301565b7f00000000000000000000000000000000000000000000000000000000000000006001600160a01b031663d0e30db0346040518263ffffffff1660e01b81526004016000604051808303818588803b15801561070f57600080fd5b505af1158015610723573d6000803e3d6000fd5b5050505050610746565b6107466001600160a01b038216333060808e0135610efb565b61075e6001600160a01b0382168360808d0135610f6c565b6000826001600160a01b03166388316456604051806101600160405280886001600160a01b03168152602001876001600160a01b031681526020018d6001600160a01b031663ddca3f436040518163ffffffff1660e01b815260040160206040518083038186803b1580156107d257600080fd5b505afa1580156107e6573d6000803e3d6000fd5b505050506040513d601f19601f8201168201806040525081019061080a9190611513565b62ffffff1681526020018a60020b81526020018960020b81526020018e602001602081019061083991906113ea565b61084457600061084a565b8e608001355b81526020018e602001602081019061086291906113ea565b610870578e60800135610873565b60005b81526020018e602001602081019061088b91906113ea565b61089657600061089c565b8e608001355b81526020018e60200160208101906108b491906113ea565b6108c2578e608001356108c5565b60005b815230602082015242604091820152516001600160e01b031960e084901b1681526108f39190600401611621565b608060405180830381600087803b15801561090d57600080fd5b505af1158015610921573d6000803e3d6000fd5b505050506040513d601f19601f82011682018060405250810190610945919061157f565b505060405163095ea7b360e01b81526001600160a01b037f000000000000000000000000000000000000000000000000000000000000000081166004830152602482018490529293509185169163095ea7b39150604401600060405180830381600087803b1580156109b657600080fd5b505af11580156109ca573d6000803e3d6000fd5b505050507f00000000000000000000000000000000000000000000000000000000000000006001600160a01b03166310146be16040518061014001604052808481526020018e6020016020810190610a2291906113ea565b610a2c5789610a2e565b8a5b60020b81526020018e6020016020810190610a4991906113ea565b151581526020018e6040016020810190610a6391906113ea565b151581526020018e6020016020810190610a7d91906113ea565b610a8b578e60a00135610a8e565b60005b81526020018e6020016020810190610aa691906113ea565b610ab1576000610ab7565b8e60a001355b81526020018e60c0016020810190610acf9190611311565b6001600160a01b031681526020018e6020016020810190610af091906113ea565b610afa5788610afc565b875b6001600160a01b031681526020017f00000000000000000000000000000000000000000000000000000000000000006001600160a01b031681526020018e60e001358152506040518263ffffffff1660e01b8152600401610b5d91906116e5565b600060405180830381600087803b158015610b7757600080fd5b505af1158015610b8b573d6000803e3d6000fd5b505050505050505050505050505050565b6000610bab6020830183611311565b90506000816001600160a01b0316633850c7bd6040518163ffffffff1660e01b815260040160e06040518083038186803b158015610be857600080fd5b505afa158015610bfc573d6000803e3d6000fd5b505050506040513d601f19601f82011682018060405250810190610c20919061147b565b50505050509150506000826001600160a01b031663d0c93a7c6040518163ffffffff1660e01b815260040160206040518083038186803b158015610c6357600080fd5b505afa158015610c77573d6000803e3d6000fd5b505050506040513d601f19601f82011682018060405250810190610c9b9190611441565b90506000610caf60408601602087016113ea565b610cd35781610cc46080870160608801611424565b610cce9190611867565b610ce3565b610ce36080860160608701611424565b90506000610cf760408701602088016113ea565b610d1057610d0b6080870160608801611424565b610d2b565b82610d216080880160608901611424565b610d2b9190611820565b90508160020b8460020b1280610d4657508060020b8460020b135b610d885760405162461bcd60e51b8152602060048201526013602482015272656a656374207469636b20696e2072616e676560681b6044820152606401610301565b7f00000000000000000000000000000000000000000000000000000000000000006001600160a01b031663d02157df886040518061010001604052808a6020016020810190610dd791906113ea565b610de15785610de3565b865b60020b81526020018a6020016020810190610dfe91906113ea565b15158152602001610e1560608c0160408d016113ea565b151581526020018a6020016020810190610e2f91906113ea565b610e3d578a60a00135610e40565b60005b81526020018a6020016020810190610e5891906113ea565b610e63576000610e69565b8a60a001355b8152602001610e7e60e08c0160c08d01611311565b6001600160a01b03168152602001306001600160a01b031681526020018a60e001358152506040518363ffffffff1660e01b8152600401610ec092919061179c565b600060405180830381600087803b158015610eda57600080fd5b505af1158015610eee573d6000803e3d6000fd5b5050505050505050505050565b6040516001600160a01b0380851660248301528316604482015260648101829052610f669085906323b872dd60e01b906084015b60408051601f198184030181529190526020810180516001600160e01b03166001600160e01b031990931692909217909152611095565b50505050565b801580610ff55750604051636eb1769f60e11b81523060048201526001600160a01b03838116602483015284169063dd62ed3e9060440160206040518083038186803b158015610fbb57600080fd5b505afa158015610fcf573d6000803e3d6000fd5b505050506040513d601f19601f82011682018060405250810190610ff39190611538565b155b6110605760405162461bcd60e51b815260206004820152603660248201527f5361666545524332303a20617070726f76652066726f6d206e6f6e2d7a65726f60448201527520746f206e6f6e2d7a65726f20616c6c6f77616e636560501b6064820152608401610301565b6040516001600160a01b03831660248201526044810182905261109090849063095ea7b360e01b90606401610f2f565b505050565b60006110ea826040518060400160405280602081526020017f5361666545524332303a206c6f772d6c6576656c2063616c6c206661696c6564815250856001600160a01b03166111679092919063ffffffff16565b80519091501561109057808060200190518101906111089190611407565b6110905760405162461bcd60e51b815260206004820152602a60248201527f5361666545524332303a204552433230206f7065726174696f6e20646964206e6044820152691bdd081cdd58d8d9595960b21b6064820152608401610301565b60606111768484600085611180565b90505b9392505050565b6060824710156111e15760405162461bcd60e51b815260206004820152602660248201527f416464726573733a20696e73756666696369656e742062616c616e636520666f6044820152651c8818d85b1b60d21b6064820152608401610301565b843b61122f5760405162461bcd60e51b815260206004820152601d60248201527f416464726573733a2063616c6c20746f206e6f6e2d636f6e74726163740000006044820152606401610301565b600080866001600160a01b0316858760405161124b91906115d2565b60006040518083038185875af1925050503d8060008114611288576040519150601f19603f3d011682016040523d82523d6000602084013e61128d565b606091505b509150915061129d8282866112a8565b979650505050505050565b606083156112b7575081611179565b8251156112c75782518084602001fd5b8160405162461bcd60e51b815260040161030191906115ee565b600061010082840312156112f457600080fd5b50919050565b805161ffff8116811461130c57600080fd5b919050565b60006020828403121561132357600080fd5b813561117981611921565b60006020828403121561134057600080fd5b815161117981611921565b60008060008060006080868803121561136357600080fd5b853561136e81611921565b9450602086013561137e81611921565b935060408601359250606086013567ffffffffffffffff808211156113a257600080fd5b818801915088601f8301126113b657600080fd5b8135818111156113c557600080fd5b8960208285010111156113d757600080fd5b9699959850939650602001949392505050565b6000602082840312156113fc57600080fd5b813561117981611939565b60006020828403121561141957600080fd5b815161117981611939565b60006020828403121561143657600080fd5b813561117981611947565b60006020828403121561145357600080fd5b815161117981611947565b6000610100828403121561147157600080fd5b61117983836112e1565b600080600080600080600060e0888a03121561149657600080fd5b87516114a181611921565b60208901519097506114b281611947565b95506114c0604089016112fa565b94506114ce606089016112fa565b93506114dc608089016112fa565b925060a088015160ff811681146114f257600080fd5b60c089015190925061150381611939565b8091505092959891949750929550565b60006020828403121561152557600080fd5b815162ffffff8116811461117957600080fd5b60006020828403121561154a57600080fd5b5051919050565b600080610120838503121561156557600080fd5b8235915061157684602085016112e1565b90509250929050565b6000806000806080858703121561159557600080fd5b8451935060208501516fffffffffffffffffffffffffffffffff811681146115bc57600080fd5b6040860151606090960151949790965092505050565b600082516115e48184602087016118af565b9190910192915050565b602081526000825180602084015261160d8160408501602087016118af565b601f01601f19169190910160400192915050565b81516001600160a01b031681526101608101602083015161164d60208401826001600160a01b03169052565b506040830151611664604084018262ffffff169052565b506060830151611679606084018260020b9052565b50608083015161168e608084018260020b9052565b5060a083015160a083015260c083015160c083015260e083015160e0830152610100808401518184015250610120808401516116d4828501826001600160a01b03169052565b505061014092830151919092015290565b815181526020808301516101408301916117039084018260020b9052565b506040830151611717604084018215159052565b50606083015161172b606084018215159052565b506080830151608083015260a083015160a083015260c083015161175a60c08401826001600160a01b03169052565b5060e083015161177560e08401826001600160a01b03169052565b50610100838101516001600160a01b03811684830152505061012092830151919092015290565b600061012082019050838252825160020b602083015260208301511515604083015260408301511515606083015260608301516080830152608083015160a083015260a08301516117f860c08401826001600160a01b03169052565b5060c08301516001600160a01b03811660e08401525060e08301516101008301529392505050565b60008160020b8360020b6000821282627fffff038213811516156118465761184661190b565b82627fffff1903821281161561185e5761185e61190b565b50019392505050565b60008160020b8360020b6000811281627fffff190183128115161561188e5761188e61190b565b81627fffff0183138116156118a5576118a561190b565b5090039392505050565b60005b838110156118ca5781810151838201526020016118b2565b83811115610f665750506000910152565b60008260020b806118fc57634e487b7160e01b600052601260045260246000fd5b808360020b0791505092915050565b634e487b7160e01b600052601160045260246000fd5b6001600160a01b038116811461193657600080fd5b50565b801515811461193657600080fd5b8060020b811461193657600080fdfea2646970667358221220b9f8d57c0e9517e6aaff529ea1e2c86bcc7f56a45556a5415141c09f6fa3837864736f6c63430008070033",
  "devdoc": {
    "kind": "dev",
    "methods": {},
    "version": 1
  },
  "userdoc": {
    "kind": "user",
    "methods": {},
    "version": 1
  },
  "storageLayout": {
    "storage": [],
    "types": null
  }
}