{
  "address": "0x801Ee912d069AF80D0fEF9F1f1a54abb1D126738",
  "abi": [
    {
      "inputs": [
        {
          "internalType": "contract IEjectLP",
          "name": "ejectLP_",
          "type": "address"
        }
      ],
      "stateMutability": "nonpayable",
      "type": "constructor"
    },
    {
      "inputs": [
        {
          "internalType": "uint256",
          "name": "tokenId_",
          "type": "uint256"
        },
        {
          "components": [
            {
              "internalType": "int24",
              "name": "tickThreshold",
              "type": "int24"
            },
            {
              "internalType": "bool",
              "name": "ejectAbove",
              "type": "bool"
            },
            {
              "internalType": "bool",
              "name": "ejectDust",
              "type": "bool"
            },
            {
              "internalType": "uint256",
              "name": "amount0Min",
              "type": "uint256"
            },
            {
              "internalType": "uint256",
              "name": "amount1Min",
              "type": "uint256"
            },
            {
              "internalType": "address",
              "name": "receiver",
              "type": "address"
            },
            {
              "internalType": "address",
              "name": "owner",
              "type": "address"
            },
            {
              "internalType": "uint256",
              "name": "maxFeeAmount",
              "type": "uint256"
            }
          ],
          "internalType": "struct Order",
          "name": "order_",
          "type": "tuple"
        },
        {
          "internalType": "address",
          "name": "feeToken_",
          "type": "address"
        }
      ],
      "name": "checker",
      "outputs": [
        {
          "internalType": "bool",
          "name": "",
          "type": "bool"
        },
        {
          "internalType": "bytes",
          "name": "data",
          "type": "bytes"
        }
      ],
      "stateMutability": "view",
      "type": "function"
    },
    {
      "inputs": [],
      "name": "ejectLP",
      "outputs": [
        {
          "internalType": "contract IEjectLP",
          "name": "",
          "type": "address"
        }
      ],
      "stateMutability": "view",
      "type": "function"
    }
  ],
  "transactionHash": "0x1f0e1e2de309692fe0bfce434fccb8ab02b69822a4b8c194a57cb61ff642cd8a",
  "args": [
    "0x37aBdC29C7c380f1DE3Fa86621A03848cC20B10f"
  ],
  "solcInputHash": "3b90fc1aa54c85bc8f15459a123394f7",
  "bytecode": "0x60a060405234801561001057600080fd5b5060405161057938038061057983398101604081905261002f91610044565b60601b6001600160601b031916608052610074565b60006020828403121561005657600080fd5b81516001600160a01b038116811461006d57600080fd5b9392505050565b60805160601c6104e261009760003960008181606a015260aa01526104e26000f3fe608060405234801561001057600080fd5b50600436106100365760003560e01c80638b1ea4661461003b578063919574bb14610065575b600080fd5b61004e61004936600461026f565b6100a4565b60405161005c9291906103bc565b60405180910390f35b61008c7f000000000000000000000000000000000000000000000000000000000000000081565b6040516001600160a01b03909116815260200161005c565b600060607f00000000000000000000000000000000000000000000000000000000000000006001600160a01b031663898d2cfb8686866040518463ffffffff1660e01b81526004016100f893929190610465565b60606040518083038186803b15801561011057600080fd5b505afa925050508015610140575060408051601f3d908101601f1916820190925261013d9181019061020d565b60015b61017b5760405160009061016390635c9528a760e01b908890889060200161041b565b604051602081830303815290604052915091506101d3565b5050506001635c9528a760e01b868660405160240161019b929190610449565b60408051601f198184030181529190526020810180516001600160e01b03166001600160e01b03199093169290921790915290925090505b935093915050565b80356101e681610494565b919050565b803580151581146101e657600080fd5b8035600281900b81146101e657600080fd5b60008060006060848603121561022257600080fd5b835161022d81610494565b602085015190935061023e81610494565b60408501519092506fffffffffffffffffffffffffffffffff8116811461026457600080fd5b809150509250925092565b600080600083850361014081121561028657600080fd5b8435935061010080601f198301121561029e57600080fd5b604051915080820182811067ffffffffffffffff821117156102d057634e487b7160e01b600052604160045260246000fd5b6040526102df602087016101fb565b82526102ed604087016101eb565b60208301526102fe606087016101eb565b60408301526080860135606083015260a0860135608083015261032360c087016101db565b60a083015261033460e087016101db565b60c083015285013560e0820152915061035061012085016101db565b90509250925092565b805160020b8252602081015115156020830152604081015115156040830152606081015160608301526080810151608083015260a081015160018060a01b0380821660a08501528060c08401511660c0850152505060e081015160e08301525050565b821515815260006020604081840152835180604085015260005b818110156103f2578581018301518582016060015282016103d6565b81811115610404576000606083870101525b50601f01601f191692909201606001949350505050565b6001600160e01b0319841681526020810183905261014081016104416040830184610359565b949350505050565b828152610120810161045e6020830184610359565b9392505050565b838152610140810161047a6020830185610359565b6001600160a01b0392909216610120919091015292915050565b6001600160a01b03811681146104a957600080fd5b5056fea26469706673582212200d6f0e74dbd4d5d4069fbc3cd47968d784ed0b8d7268ffe3c88aaff805e0bf0f64736f6c63430008070033",
  "devdoc": {
    "kind": "dev",
    "methods": {},
    "version": 1
  },
  "userdoc": {
    "kind": "user",
    "methods": {},
    "version": 1
  },
  "storageLayout": {
    "storage": [],
    "types": null
  }
}