{
  "address": "0x17E4e206730bd10fFAF187E62C67Fe48Af8727DD",
  "abi": [
    {
      "inputs": [
        {
          "internalType": "contract IEjectLP",
          "name": "eject_",
          "type": "address"
        },
        {
          "internalType": "contract IWETH9",
          "name": "WETH9_",
          "type": "address"
        },
        {
          "internalType": "address",
          "name": "rangeOrderResolver_",
          "type": "address"
        }
      ],
      "stateMutability": "nonpayable",
      "type": "constructor"
    },
    {
      "anonymous": false,
      "inputs": [
        {
          "indexed": true,
          "internalType": "uint256",
          "name": "tokenId",
          "type": "uint256"
        },
        {
          "indexed": false,
          "internalType": "uint256",
          "name": "amount0",
          "type": "uint256"
        },
        {
          "indexed": false,
          "internalType": "uint256",
          "name": "amount1",
          "type": "uint256"
        }
      ],
      "name": "LogCancelRangeOrder",
      "type": "event"
    },
    {
      "anonymous": false,
      "inputs": [
        {
          "indexed": true,
          "internalType": "uint256",
          "name": "tokenId",
          "type": "uint256"
        },
        {
          "indexed": false,
          "internalType": "address",
          "name": "pool",
          "type": "address"
        },
        {
          "indexed": false,
          "internalType": "uint256",
          "name": "amountIn",
          "type": "uint256"
        }
      ],
      "name": "LogSetRangeOrder",
      "type": "event"
    },
    {
      "anonymous": false,
      "inputs": [
        {
          "indexed": false,
          "internalType": "address",
          "name": "account",
          "type": "address"
        }
      ],
      "name": "Paused",
      "type": "event"
    },
    {
      "anonymous": false,
      "inputs": [
        {
          "indexed": false,
          "internalType": "address",
          "name": "account",
          "type": "address"
        }
      ],
      "name": "Unpaused",
      "type": "event"
    },
    {
      "inputs": [],
      "name": "WETH9",
      "outputs": [
        {
          "internalType": "contract IWETH9",
          "name": "",
          "type": "address"
        }
      ],
      "stateMutability": "view",
      "type": "function"
    },
    {
      "inputs": [
        {
          "internalType": "uint256",
          "name": "tokenId_",
          "type": "uint256"
        },
        {
          "components": [
            {
              "internalType": "contract IUniswapV3Pool",
              "name": "pool",
              "type": "address"
            },
            {
              "internalType": "bool",
              "name": "zeroForOne",
              "type": "bool"
            },
            {
              "internalType": "int24",
              "name": "tickThreshold",
              "type": "int24"
            },
            {
              "internalType": "uint256",
              "name": "amountIn",
              "type": "uint256"
            },
            {
              "internalType": "address",
              "name": "receiver",
              "type": "address"
            },
            {
              "internalType": "uint256",
              "name": "maxFeeAmount",
              "type": "uint256"
            }
          ],
          "internalType": "struct RangeOrderParams",
          "name": "params_",
          "type": "tuple"
        },
        {
          "internalType": "uint256",
          "name": "startTime_",
          "type": "uint256"
        }
      ],
      "name": "cancelRangeOrder",
      "outputs": [],
      "stateMutability": "nonpayable",
      "type": "function"
    },
    {
      "inputs": [],
      "name": "eject",
      "outputs": [
        {
          "internalType": "contract IEjectLP",
          "name": "",
          "type": "address"
        }
      ],
      "stateMutability": "view",
      "type": "function"
    },
    {
      "inputs": [],
      "name": "initialize",
      "outputs": [],
      "stateMutability": "nonpayable",
      "type": "function"
    },
    {
      "inputs": [
        {
          "internalType": "address",
          "name": "",
          "type": "address"
        },
        {
          "internalType": "address",
          "name": "",
          "type": "address"
        },
        {
          "internalType": "uint256",
          "name": "",
          "type": "uint256"
        },
        {
          "internalType": "bytes",
          "name": "",
          "type": "bytes"
        }
      ],
      "name": "onERC721Received",
      "outputs": [
        {
          "internalType": "bytes4",
          "name": "",
          "type": "bytes4"
        }
      ],
      "stateMutability": "pure",
      "type": "function"
    },
    {
      "inputs": [],
      "name": "pause",
      "outputs": [],
      "stateMutability": "nonpayable",
      "type": "function"
    },
    {
      "inputs": [],
      "name": "paused",
      "outputs": [
        {
          "internalType": "bool",
          "name": "",
          "type": "bool"
        }
      ],
      "stateMutability": "view",
      "type": "function"
    },
    {
      "inputs": [],
      "name": "rangeOrderResolver",
      "outputs": [
        {
          "internalType": "address",
          "name": "",
          "type": "address"
        }
      ],
      "stateMutability": "view",
      "type": "function"
    },
    {
      "inputs": [
        {
          "components": [
            {
              "internalType": "contract IUniswapV3Pool",
              "name": "pool",
              "type": "address"
            },
            {
              "internalType": "bool",
              "name": "zeroForOne",
              "type": "bool"
            },
            {
              "internalType": "int24",
              "name": "tickThreshold",
              "type": "int24"
            },
            {
              "internalType": "uint256",
              "name": "amountIn",
              "type": "uint256"
            },
            {
              "internalType": "address",
              "name": "receiver",
              "type": "address"
            },
            {
              "internalType": "uint256",
              "name": "maxFeeAmount",
              "type": "uint256"
            }
          ],
          "internalType": "struct RangeOrderParams",
          "name": "params_",
          "type": "tuple"
        }
      ],
      "name": "setRangeOrder",
      "outputs": [],
      "stateMutability": "payable",
      "type": "function"
    },
    {
      "inputs": [],
      "name": "unpause",
      "outputs": [],
      "stateMutability": "nonpayable",
      "type": "function"
    }
  ],
  "transactionHash": "0x60d53cea6e6182c52adeff0e506666b8c2b1d2c4bae4b4c03619e6818c87efba",
  "args": [
    "0xeE843736FF1219d60C938e7985517CE68275c2E2",
    "0x60D4dB9b534EF9260a88b0BED6c486fe13E604Fc",
    "0x177Bd89A1D8643C9525D2DF131C1a6C513869299"
  ],
  "solcInputHash": "fa7ac6cd5a24fd22b5c8c641501c999a",
  "bytecode": "0x60e06040523480156200001157600080fd5b50604051620031063803806200310683398101604081905262000034916200005c565b6001600160601b0319606093841b811660805291831b821660a05290911b1660c052620000c9565b6000806000606084860312156200007257600080fd5b83516200007f81620000b0565b60208501519093506200009281620000b0565b6040850151909250620000a581620000b0565b809150509250925092565b6001600160a01b0381168114620000c657600080fd5b50565b60805160601c60a05160601c60c05160601c612fcd620001396000396000818160c80152610e0b0152600081816101c6015281816107bb0152610951015260008181610252015281816106fb01528181610cab01528181610d1d015281816112fe01526114770152612fcd6000f3fe6080604052600436106100b15760003560e01c80635c975abb116100695780638129fc1c1161004e5780638129fc1c1461022b57806382e94ac5146102405780638456cb591461027457600080fd5b80635c975abb146101e85780637174ed621461020b57600080fd5b806324fb11761161009a57806324fb11761461018a5780633f4ba83a1461019f5780634aa4a4fc146101b457600080fd5b806311208ca2146100b6578063150b7a0214610114575b600080fd5b3480156100c257600080fd5b506100ea7f000000000000000000000000000000000000000000000000000000000000000081565b60405173ffffffffffffffffffffffffffffffffffffffff90911681526020015b60405180910390f35b34801561012057600080fd5b5061015961012f36600461290b565b7f150b7a020000000000000000000000000000000000000000000000000000000095945050505050565b6040517fffffffff00000000000000000000000000000000000000000000000000000000909116815260200161010b565b61019d610198366004612a1e565b610289565b005b3480156101ab57600080fd5b5061019d610f7b565b3480156101c057600080fd5b506100ea7f000000000000000000000000000000000000000000000000000000000000000081565b3480156101f457600080fd5b5060655460ff16604051901515815260200161010b565b34801561021757600080fd5b5061019d610226366004612b06565b61103b565b34801561023757600080fd5b5061019d6116f1565b34801561024c57600080fd5b506100ea7f000000000000000000000000000000000000000000000000000000000000000081565b34801561028057600080fd5b5061019d611817565b60655460ff16156102fb576040517f08c379a000000000000000000000000000000000000000000000000000000000815260206004820152601060248201527f5061757361626c653a207061757365640000000000000000000000000000000060448201526064015b60405180910390fd5b60026001541415610368576040517f08c379a000000000000000000000000000000000000000000000000000000000815260206004820152601f60248201527f5265656e7472616e637947756172643a207265656e7472616e742063616c6c0060448201526064016102f2565b600260015560008080808061038060208701876128d1565b73ffffffffffffffffffffffffffffffffffffffff1663d0c93a7c6040518163ffffffff1660e01b815260040160206040518083038186803b1580156103c557600080fd5b505afa1580156103d9573d6000803e3d6000fd5b505050506040513d601f19601f820116820180604052508101906103fd9190612a01565b90508061041060608801604089016129e4565b61041a9190612ee0565b60020b156104aa576040517f08c379a000000000000000000000000000000000000000000000000000000000815260206004820152603f60248201527f52616e67654f726465723a73657452616e67654f726465723a3a20746872657360448201527f686f6c64206d75737420626520696e697469616c697a61626c65207469636b0060648201526084016102f2565b6104ba60408701602088016129aa565b6104de57806104cf60608801604089016129e4565b6104d99190612e39565b6104ee565b6104ee60608701604088016129e4565b925061050060408701602088016129aa565b6105195761051460608701604088016129e4565b610534565b8061052a60608801604089016129e4565b6105349190612dd6565b915061054f905061054860208701876128d1565b83836118d5565b600061055e60208701876128d1565b73ffffffffffffffffffffffffffffffffffffffff16630dfe16816040518163ffffffff1660e01b815260040160206040518083038186803b1580156105a357600080fd5b505afa1580156105b7573d6000803e3d6000fd5b505050506040513d601f19601f820116820180604052508101906105db91906128ee565b905060006105ec60208801886128d1565b73ffffffffffffffffffffffffffffffffffffffff1663d21220a76040518163ffffffff1660e01b815260040160206040518083038186803b15801561063157600080fd5b505afa158015610645573d6000803e3d6000fd5b505050506040513d601f19601f8201168201806040525081019061066991906128ee565b905061067860208801886128d1565b73ffffffffffffffffffffffffffffffffffffffff1663ddca3f436040518163ffffffff1660e01b815260040160206040518083038186803b1580156106bd57600080fd5b505afa1580156106d1573d6000803e3d6000fd5b505050506040513d601f19601f820116820180604052508101906106f59190612ad2565b945060007f000000000000000000000000000000000000000000000000000000000000000073ffffffffffffffffffffffffffffffffffffffff1663f301a28c6040518163ffffffff1660e01b815260040160206040518083038186803b15801561075f57600080fd5b505afa158015610773573d6000803e3d6000fd5b505050506040513d601f19601f8201168201806040525081019061079791906128ee565b905060006107ab60408a0160208b016129aa565b6107b557826107b7565b835b90507f000000000000000000000000000000000000000000000000000000000000000073ffffffffffffffffffffffffffffffffffffffff168173ffffffffffffffffffffffffffffffffffffffff1614801561081757508860a0013534115b156109d957886060013534116108af576040517f08c379a000000000000000000000000000000000000000000000000000000000815260206004820152602d60248201527f52616e67654f726465723a73657452616e67654f726465723a3a20496e76616c60448201527f696420616d6f756e7420696e2e0000000000000000000000000000000000000060648201526084016102f2565b60a08901356108c260608b013534612e9d565b1461094f576040517f08c379a000000000000000000000000000000000000000000000000000000000815260206004820152603060248201527f52616e67654f726465723a73657452616e67654f726465723a3a20496e76616c60448201527f6964206d6178466565416d6f756e742e0000000000000000000000000000000060648201526084016102f2565b7f000000000000000000000000000000000000000000000000000000000000000073ffffffffffffffffffffffffffffffffffffffff1663d0e30db08a606001356040518263ffffffff1660e01b81526004016000604051808303818588803b1580156109bb57600080fd5b505af11580156109cf573d6000803e3d6000fd5b5050505050610a92565b8860a001353414610a6c576040517f08c379a000000000000000000000000000000000000000000000000000000000815260206004820152603060248201527f52616e67654f726465723a73657452616e67654f726465723a3a20496e76616c60448201527f6964206d6178466565416d6f756e742e0000000000000000000000000000000060648201526084016102f2565b610a9273ffffffffffffffffffffffffffffffffffffffff8216333060608d0135611a08565b610ab773ffffffffffffffffffffffffffffffffffffffff82168360608c0135611ae4565b508073ffffffffffffffffffffffffffffffffffffffff1663883164566040518061016001604052808673ffffffffffffffffffffffffffffffffffffffff1681526020018573ffffffffffffffffffffffffffffffffffffffff1681526020018962ffffff1681526020018860020b81526020018760020b81526020018b6020016020810190610b4891906129aa565b610b53576000610b59565b8b606001355b81526020018b6020016020810190610b7191906129aa565b610b7f578b60600135610b82565b60005b81526020018b6020016020810190610b9a91906129aa565b610ba5576000610bab565b8b606001355b81526020018b6020016020810190610bc391906129aa565b610bd1578b60600135610bd4565b60005b815230602082015242604091820152517fffffffff0000000000000000000000000000000000000000000000000000000060e084901b168152610c1a9190600401612ceb565b608060405180830381600087803b158015610c3457600080fd5b505af1158015610c48573d6000803e3d6000fd5b505050506040513d601f19601f82011682018060405250810190610c6c9190612b3d565b50506040517f095ea7b300000000000000000000000000000000000000000000000000000000815273ffffffffffffffffffffffffffffffffffffffff7f000000000000000000000000000000000000000000000000000000000000000081166004830152602482018490529299509183169163095ea7b39150604401600060405180830381600087803b158015610d0357600080fd5b505af1158015610d17573d6000803e3d6000fd5b505050507f000000000000000000000000000000000000000000000000000000000000000073ffffffffffffffffffffffffffffffffffffffff1663c0b6ea498960a001356040518060e001604052808b81526020018c6020016020810190610d8091906129aa565b610d8a5788610d8c565b895b60020b81526020018c6020016020810190610da791906129aa565b15158152602001610dbe60a08e0160808f016128d1565b73ffffffffffffffffffffffffffffffffffffffff16815260200173eeeeeeeeeeeeeeeeeeeeeeeeeeeeeeeeeeeeeeee73ffffffffffffffffffffffffffffffffffffffff1681526020017f000000000000000000000000000000000000000000000000000000000000000073ffffffffffffffffffffffffffffffffffffffff1681526020018c60a001358152506040518363ffffffff1660e01b8152600401610ed59190600060e08201905082518252602083015160020b6020830152604083015115156040830152606083015173ffffffffffffffffffffffffffffffffffffffff80821660608501528060808601511660808501528060a08601511660a0850152505060c083015160c083015292915050565b6000604051808303818588803b158015610eee57600080fd5b505af1158015610f02573d6000803e3d6000fd5b50505050505050505050817f8a00d01c0c9ab40631f8604aeeefb7487453cef2e7baaf5f135eb0c04bf15585846000016020810190610f4191906128d1565b6040805173ffffffffffffffffffffffffffffffffffffffff9092168252606087013560208301520160405180910390a250506001805550565b7fb53127684a568b3173ae13b9f8a6016e243e63b6e8ee1178d6a717850b5d61035473ffffffffffffffffffffffffffffffffffffffff163373ffffffffffffffffffffffffffffffffffffffff1614611031576040517f08c379a000000000000000000000000000000000000000000000000000000000815260206004820152600e60248201527f4e4f545f415554484f52495a454400000000000000000000000000000000000060448201526064016102f2565b611039611c7a565b565b60655460ff16156110a8576040517f08c379a000000000000000000000000000000000000000000000000000000000815260206004820152601060248201527f5061757361626c653a207061757365640000000000000000000000000000000060448201526064016102f2565b60026001541415611115576040517f08c379a000000000000000000000000000000000000000000000000000000000815260206004820152601f60248201527f5265656e7472616e637947756172643a207265656e7472616e742063616c6c0060448201526064016102f2565b60026001553361112b60a08401608085016128d1565b73ffffffffffffffffffffffffffffffffffffffff16146111ce576040517f08c379a000000000000000000000000000000000000000000000000000000000815260206004820152602c60248201527f52616e67654f726465723a3a63616e63656c52616e67654f726465723a206f6e60448201527f6c792072656365697665722e000000000000000000000000000000000000000060648201526084016102f2565b60006111dd60208401846128d1565b73ffffffffffffffffffffffffffffffffffffffff1663d0c93a7c6040518163ffffffff1660e01b815260040160206040518083038186803b15801561122257600080fd5b505afa158015611236573d6000803e3d6000fd5b505050506040513d601f19601f8201168201806040525081019061125a9190612a01565b9050600061126e60408501602086016129aa565b611292578161128360608601604087016129e4565b61128d9190612e39565b6112a2565b6112a260608501604086016129e4565b905060006112b660408601602087016129aa565b6112cf576112ca60608601604087016129e4565b6112ea565b826112e060608701604088016129e4565b6112ea9190612dd6565b90506112fc61054860208701876128d1565b7f000000000000000000000000000000000000000000000000000000000000000073ffffffffffffffffffffffffffffffffffffffff16635eb28e3c876040518060c0016040528089602001602081019061135791906129aa565b6113615785611363565b865b60020b815260200189602001602081019061137e91906129aa565b1515815260200161139560a08b0160808c016128d1565b73ffffffffffffffffffffffffffffffffffffffff90811682523060208084019190915260a0808d013560408086019190915260609485018d905280517fffffffff0000000000000000000000000000000000000000000000000000000060e08a901b1681526004810197909752855160020b60248801529185015115156044870152908401518216606486015291830151166084840152608082015160a4840152015160c482015260e401600060405180830381600087803b15801561145b57600080fd5b505af115801561146f573d6000803e3d6000fd5b5050505060007f000000000000000000000000000000000000000000000000000000000000000073ffffffffffffffffffffffffffffffffffffffff1663f301a28c6040518163ffffffff1660e01b815260040160206040518083038186803b1580156114db57600080fd5b505afa1580156114ef573d6000803e3d6000fd5b505050506040513d601f19601f8201168201806040525081019061151391906128ee565b6040517f99fbab880000000000000000000000000000000000000000000000000000000081526004810189905290915060009073ffffffffffffffffffffffffffffffffffffffff8316906399fbab88906024016101806040518083038186803b15801561158057600080fd5b505afa158015611594573d6000803e3d6000fd5b505050506040513d601f19601f820116820180604052508101906115b89190612b9d565b505050509750505050505050508173ffffffffffffffffffffffffffffffffffffffff1663095ea7b38860800160208101906115f491906128d1565b6040517fffffffff0000000000000000000000000000000000000000000000000000000060e084901b16815273ffffffffffffffffffffffffffffffffffffffff9091166004820152602481018b9052604401600060405180830381600087803b15801561166157600080fd5b505af1158015611675573d6000803e3d6000fd5b5050505060008061169a848b858c608001602081019061169591906128d1565b611d5b565b91509150897fd10e8bc0f59807ae667c207794ab3486400d0aaed567102d45e8d9f9a48c8a9683836040516116d9929190918252602082015260400190565b60405180910390a25050600180555050505050505050565b600054610100900460ff168061170a575060005460ff16155b611796576040517f08c379a000000000000000000000000000000000000000000000000000000000815260206004820152602e60248201527f496e697469616c697a61626c653a20636f6e747261637420697320616c72656160448201527f647920696e697469616c697a656400000000000000000000000000000000000060648201526084016102f2565b600054610100900460ff161580156117d557600080547fffffffffffffffffffffffffffffffffffffffffffffffffffffffffffff0000166101011790555b6117dd611f57565b6117e5612043565b801561181457600080547fffffffffffffffffffffffffffffffffffffffffffffffffffffffffffff00ff1690555b50565b7fb53127684a568b3173ae13b9f8a6016e243e63b6e8ee1178d6a717850b5d61035473ffffffffffffffffffffffffffffffffffffffff163373ffffffffffffffffffffffffffffffffffffffff16146118cd576040517f08c379a000000000000000000000000000000000000000000000000000000000815260206004820152600e60248201527f4e4f545f415554484f52495a454400000000000000000000000000000000000060448201526064016102f2565b611039612137565b60008373ffffffffffffffffffffffffffffffffffffffff16633850c7bd6040518163ffffffff1660e01b815260040160e06040518083038186803b15801561191d57600080fd5b505afa158015611931573d6000803e3d6000fd5b505050506040513d601f19601f820116820180604052508101906119559190612a3a565b50505050509150508260020b8160020b128061197657508160020b8160020b135b611a02576040517f08c379a000000000000000000000000000000000000000000000000000000000815260206004820152603960248201527f52616e67654f726465723a5f726571756972655468726573686f6c64496e526160448201527f6e67653a3a20656a656374207469636b20696e2072616e67650000000000000060648201526084016102f2565b50505050565b60405173ffffffffffffffffffffffffffffffffffffffff80851660248301528316604482015260648101829052611a029085907f23b872dd00000000000000000000000000000000000000000000000000000000906084015b604080517fffffffffffffffffffffffffffffffffffffffffffffffffffffffffffffffe08184030181529190526020810180517bffffffffffffffffffffffffffffffffffffffffffffffffffffffff167fffffffff00000000000000000000000000000000000000000000000000000000909316929092179091526121f7565b801580611b9357506040517fdd62ed3e00000000000000000000000000000000000000000000000000000000815230600482015273ffffffffffffffffffffffffffffffffffffffff838116602483015284169063dd62ed3e9060440160206040518083038186803b158015611b5957600080fd5b505afa158015611b6d573d6000803e3d6000fd5b505050506040513d601f19601f82011682018060405250810190611b919190612aed565b155b611c1f576040517f08c379a000000000000000000000000000000000000000000000000000000000815260206004820152603660248201527f5361666545524332303a20617070726f76652066726f6d206e6f6e2d7a65726f60448201527f20746f206e6f6e2d7a65726f20616c6c6f77616e63650000000000000000000060648201526084016102f2565b60405173ffffffffffffffffffffffffffffffffffffffff8316602482015260448101829052611c759084907f095ea7b30000000000000000000000000000000000000000000000000000000090606401611a62565b505050565b60655460ff16611ce6576040517f08c379a000000000000000000000000000000000000000000000000000000000815260206004820152601460248201527f5061757361626c653a206e6f742070617573656400000000000000000000000060448201526064016102f2565b606580547fffffffffffffffffffffffffffffffffffffffffffffffffffffffffffffff001690557f5db9ee0a495bf2e6ff9c91a7834c1ba4fdd244a5e8aa4e537bd38aeae4b073aa335b60405173ffffffffffffffffffffffffffffffffffffffff909116815260200160405180910390a1565b6040805160a0810182528481526fffffffffffffffffffffffffffffffff84811660208301908152600083850181815260608501828152426080870190815296517f0c49ccbe00000000000000000000000000000000000000000000000000000000815295516004870152925190931660248501529151604484015251606483015291516084820152819073ffffffffffffffffffffffffffffffffffffffff871690630c49ccbe9060a4016040805180830381600087803b158015611e2057600080fd5b505af1158015611e34573d6000803e3d6000fd5b505050506040513d601f19601f82011682018060405250810190611e589190612b79565b50506040805160808101825286815273ffffffffffffffffffffffffffffffffffffffff858116602083019081526fffffffffffffffffffffffffffffffff8385018181526060850182815295517ffc6f786500000000000000000000000000000000000000000000000000000000815294516004860152915183166024850152905181166044840152925190921660648201529087169063fc6f7865906084016040805180830381600087803b158015611f1257600080fd5b505af1158015611f26573d6000803e3d6000fd5b505050506040513d601f19601f82011682018060405250810190611f4a9190612b79565b9097909650945050505050565b600054610100900460ff1680611f70575060005460ff16155b611ffc576040517f08c379a000000000000000000000000000000000000000000000000000000000815260206004820152602e60248201527f496e697469616c697a61626c653a20636f6e747261637420697320616c72656160448201527f647920696e697469616c697a656400000000000000000000000000000000000060648201526084016102f2565b600054610100900460ff1615801561203b57600080547fffffffffffffffffffffffffffffffffffffffffffffffffffffffffffff0000166101011790555b6117e5612303565b600054610100900460ff168061205c575060005460ff16155b6120e8576040517f08c379a000000000000000000000000000000000000000000000000000000000815260206004820152602e60248201527f496e697469616c697a61626c653a20636f6e747261637420697320616c72656160448201527f647920696e697469616c697a656400000000000000000000000000000000000060648201526084016102f2565b600054610100900460ff1615801561212757600080547fffffffffffffffffffffffffffffffffffffffffffffffffffffffffffff0000166101011790555b61212f61241c565b6117e5612530565b60655460ff16156121a4576040517f08c379a000000000000000000000000000000000000000000000000000000000815260206004820152601060248201527f5061757361626c653a207061757365640000000000000000000000000000000060448201526064016102f2565b606580547fffffffffffffffffffffffffffffffffffffffffffffffffffffffffffffff001660011790557f62e78cea01bee320cd4e420270b5ea74000d11b0c9f74754ebdbfc544b05a258611d313390565b6000612259826040518060400160405280602081526020017f5361666545524332303a206c6f772d6c6576656c2063616c6c206661696c65648152508573ffffffffffffffffffffffffffffffffffffffff1661266d9092919063ffffffff16565b805190915015611c75578080602001905181019061227791906129c7565b611c75576040517f08c379a000000000000000000000000000000000000000000000000000000000815260206004820152602a60248201527f5361666545524332303a204552433230206f7065726174696f6e20646964206e60448201527f6f7420737563636565640000000000000000000000000000000000000000000060648201526084016102f2565b600054610100900460ff168061231c575060005460ff16155b6123a8576040517f08c379a000000000000000000000000000000000000000000000000000000000815260206004820152602e60248201527f496e697469616c697a61626c653a20636f6e747261637420697320616c72656160448201527f647920696e697469616c697a656400000000000000000000000000000000000060648201526084016102f2565b600054610100900460ff161580156123e757600080547fffffffffffffffffffffffffffffffffffffffffffffffffffffffffffff0000166101011790555b60018055801561181457600080547fffffffffffffffffffffffffffffffffffffffffffffffffffffffffffff00ff16905550565b600054610100900460ff1680612435575060005460ff16155b6124c1576040517f08c379a000000000000000000000000000000000000000000000000000000000815260206004820152602e60248201527f496e697469616c697a61626c653a20636f6e747261637420697320616c72656160448201527f647920696e697469616c697a656400000000000000000000000000000000000060648201526084016102f2565b600054610100900460ff161580156117e557600080547fffffffffffffffffffffffffffffffffffffffffffffffffffffffffffff000016610101179055801561181457600080547fffffffffffffffffffffffffffffffffffffffffffffffffffffffffffff00ff16905550565b600054610100900460ff1680612549575060005460ff16155b6125d5576040517f08c379a000000000000000000000000000000000000000000000000000000000815260206004820152602e60248201527f496e697469616c697a61626c653a20636f6e747261637420697320616c72656160448201527f647920696e697469616c697a656400000000000000000000000000000000000060648201526084016102f2565b600054610100900460ff1615801561261457600080547fffffffffffffffffffffffffffffffffffffffffffffffffffffffffffff0000166101011790555b606580547fffffffffffffffffffffffffffffffffffffffffffffffffffffffffffffff00169055801561181457600080547fffffffffffffffffffffffffffffffffffffffffffffffffffffffffffff00ff16905550565b606061267c8484600085612686565b90505b9392505050565b606082471015612718576040517f08c379a000000000000000000000000000000000000000000000000000000000815260206004820152602660248201527f416464726573733a20696e73756666696369656e742062616c616e636520666f60448201527f722063616c6c000000000000000000000000000000000000000000000000000060648201526084016102f2565b843b612780576040517f08c379a000000000000000000000000000000000000000000000000000000000815260206004820152601d60248201527f416464726573733a2063616c6c20746f206e6f6e2d636f6e747261637400000060448201526064016102f2565b6000808673ffffffffffffffffffffffffffffffffffffffff1685876040516127a99190612c7e565b60006040518083038185875af1925050503d80600081146127e6576040519150601f19603f3d011682016040523d82523d6000602084013e6127eb565b606091505b50915091506127fb828286612806565b979650505050505050565b6060831561281557508161267f565b8251156128255782518084602001fd5b816040517f08c379a00000000000000000000000000000000000000000000000000000000081526004016102f29190612c9a565b805161286481612f58565b919050565b805161286481612f88565b600060c0828403121561288657600080fd5b50919050565b80516fffffffffffffffffffffffffffffffff8116811461286457600080fd5b805161ffff8116811461286457600080fd5b805162ffffff8116811461286457600080fd5b6000602082840312156128e357600080fd5b813561267f81612f58565b60006020828403121561290057600080fd5b815161267f81612f58565b60008060008060006080868803121561292357600080fd5b853561292e81612f58565b9450602086013561293e81612f58565b935060408601359250606086013567ffffffffffffffff8082111561296257600080fd5b818801915088601f83011261297657600080fd5b81358181111561298557600080fd5b89602082850101111561299757600080fd5b9699959850939650602001949392505050565b6000602082840312156129bc57600080fd5b813561267f81612f7a565b6000602082840312156129d957600080fd5b815161267f81612f7a565b6000602082840312156129f657600080fd5b813561267f81612f88565b600060208284031215612a1357600080fd5b815161267f81612f88565b600060c08284031215612a3057600080fd5b61267f8383612874565b600080600080600080600060e0888a031215612a5557600080fd5b8751612a6081612f58565b6020890151909750612a7181612f88565b9550612a7f604089016128ac565b9450612a8d606089016128ac565b9350612a9b608089016128ac565b925060a088015160ff81168114612ab157600080fd5b60c0890151909250612ac281612f7a565b8091505092959891949750929550565b600060208284031215612ae457600080fd5b61267f826128be565b600060208284031215612aff57600080fd5b5051919050565b60008060006101008486031215612b1c57600080fd5b83359250612b2d8560208601612874565b915060e084013590509250925092565b60008060008060808587031215612b5357600080fd5b84519350612b636020860161288c565b6040860151606090960151949790965092505050565b60008060408385031215612b8c57600080fd5b505080516020909101519092909150565b6000806000806000806000806000806000806101808d8f031215612bc057600080fd5b8c516bffffffffffffffffffffffff81168114612bdc57600080fd5b9b50612bea60208e01612859565b9a50612bf860408e01612859565b9950612c0660608e01612859565b9850612c1460808e016128be565b9750612c2260a08e01612869565b9650612c3060c08e01612869565b9550612c3e60e08e0161288c565b94506101008d015193506101208d01519250612c5d6101408e0161288c565b9150612c6c6101608e0161288c565b90509295989b509295989b509295989b565b60008251612c90818460208701612eb4565b9190910192915050565b6020815260008251806020840152612cb9816040850160208701612eb4565b601f017fffffffffffffffffffffffffffffffffffffffffffffffffffffffffffffffe0169190910160400192915050565b815173ffffffffffffffffffffffffffffffffffffffff16815261016081016020830151612d31602084018273ffffffffffffffffffffffffffffffffffffffff169052565b506040830151612d48604084018262ffffff169052565b506060830151612d5d606084018260020b9052565b506080830151612d72608084018260020b9052565b5060a083015160a083015260c083015160c083015260e083015160e083015261010080840151818401525061012080840151612dc58285018273ffffffffffffffffffffffffffffffffffffffff169052565b505061014092830151919092015290565b60008160020b8360020b6000821282627fffff03821381151615612dfc57612dfc612f29565b827fffffffffffffffffffffffffffffffffffffffffffffffffffffffffff800000038212811615612e3057612e30612f29565b50019392505050565b60008160020b8360020b60008112817fffffffffffffffffffffffffffffffffffffffffffffffffffffffffff80000001831281151615612e7c57612e7c612f29565b81627fffff018313811615612e9357612e93612f29565b5090039392505050565b600082821015612eaf57612eaf612f29565b500390565b60005b83811015612ecf578181015183820152602001612eb7565b83811115611a025750506000910152565b60008260020b80612f1a577f4e487b7100000000000000000000000000000000000000000000000000000000600052601260045260246000fd5b808360020b0791505092915050565b7f4e487b7100000000000000000000000000000000000000000000000000000000600052601160045260246000fd5b73ffffffffffffffffffffffffffffffffffffffff8116811461181457600080fd5b801515811461181457600080fd5b8060020b811461181457600080fdfea2646970667358221220721fecdf7ac9955946dbbb9eddf0f445d30a186b84a38beb1d988c8ca346553164736f6c63430008070033",
  "devdoc": {
    "kind": "dev",
    "methods": {
      "paused()": {
        "details": "Returns true if the contract is paused, and false otherwise."
      }
    },
    "version": 1
  },
  "userdoc": {
    "kind": "user",
    "methods": {},
    "version": 1
  },
  "storageLayout": {
    "storage": [
      {
        "astId": 5,
        "contract": "contracts/RangeOrder.sol:RangeOrder",
        "label": "_initialized",
        "offset": 0,
        "slot": "0",
        "type": "t_bool"
      },
      {
        "astId": 8,
        "contract": "contracts/RangeOrder.sol:RangeOrder",
        "label": "_initializing",
        "offset": 1,
        "slot": "0",
        "type": "t_bool"
      },
      {
        "astId": 172,
        "contract": "contracts/RangeOrder.sol:RangeOrder",
        "label": "_status",
        "offset": 0,
        "slot": "1",
        "type": "t_uint256"
      },
      {
        "astId": 215,
        "contract": "contracts/RangeOrder.sol:RangeOrder",
        "label": "__gap",
        "offset": 0,
        "slot": "2",
        "type": "t_array(t_uint256)49_storage"
      },
      {
        "astId": 504,
        "contract": "contracts/RangeOrder.sol:RangeOrder",
        "label": "__gap",
        "offset": 0,
        "slot": "51",
        "type": "t_array(t_uint256)50_storage"
      },
      {
        "astId": 66,
        "contract": "contracts/RangeOrder.sol:RangeOrder",
        "label": "_paused",
        "offset": 0,
        "slot": "101",
        "type": "t_bool"
      },
      {
        "astId": 157,
        "contract": "contracts/RangeOrder.sol:RangeOrder",
        "label": "__gap",
        "offset": 0,
        "slot": "102",
        "type": "t_array(t_uint256)49_storage"
      }
    ],
    "types": {
      "t_array(t_uint256)49_storage": {
        "base": "t_uint256",
        "encoding": "inplace",
        "label": "uint256[49]",
        "numberOfBytes": "1568"
      },
      "t_array(t_uint256)50_storage": {
        "base": "t_uint256",
        "encoding": "inplace",
        "label": "uint256[50]",
        "numberOfBytes": "1600"
      },
      "t_bool": {
        "encoding": "inplace",
        "label": "bool",
        "numberOfBytes": "1"
      },
      "t_uint256": {
        "encoding": "inplace",
        "label": "uint256",
        "numberOfBytes": "32"
      }
    }
  }
}